{"contracts/TransactionWrapper.sol":{"TransactionWrapper":{"abi":[{"inputs":[{"internalType":"address","name":"_multiVault","type":"address"},{"internalType":"address","name":"_revenueWallet","type":"address"}],"stateMutability":"nonpayable","type":"constructor"},{"inputs":[],"name":"FeeTransferFailed","type":"error"},{"inputs":[{"internalType":"string","name":"operation","type":"string"},{"internalType":"uint256","name":"required","type":"uint256"},{"internalType":"uint256","name":"provided","type":"uint256"}],"name":"InsufficientValue","type":"error"},{"inputs":[],"name":"RefundFailed","type":"error"},{"anonymous":false,"inputs":[{"indexed":true,"internalType":"address","name":"user","type":"address"},{"indexed":true,"internalType":"string","name":"operation","type":"string"},{"indexed":false,"internalType":"uint256","name":"baseGasCost","type":"uint256"},{"indexed":false,"internalType":"uint256","name":"dAppFeeAmount","type":"uint256"},{"indexed":false,"internalType":"uint256","name":"totalCharged","type":"uint256"}],"name":"FeeCollected","type":"event"},{"anonymous":false,"inputs":[{"indexed":true,"internalType":"address","name":"user","type":"address"},{"indexed":true,"internalType":"string","name":"operation","type":"string"},{"indexed":true,"internalType":"bytes32","name":"resultId","type":"bytes32"}],"name":"OperationExecuted","type":"event"},{"inputs":[],"name":"DAPP_FEE_PERCENTAGE","outputs":[{"internalType":"uint256","name":"","type":"uint256"}],"stateMutability":"view","type":"function"},{"inputs":[],"name":"FEE_DENOMINATOR","outputs":[{"internalType":"uint256","name":"","type":"uint256"}],"stateMutability":"view","type":"function"},{"inputs":[{"internalType":"bytes[]","name":"atomDatas","type":"bytes[]"},{"internalType":"uint256[]","name":"assets","type":"uint256[]"}],"name":"createAtomsWithFee","outputs":[{"internalType":"bytes32[]","name":"","type":"bytes32[]"}],"stateMutability":"payable","type":"function"},{"inputs":[{"internalType":"bytes32[]","name":"subjectIds","type":"bytes32[]"},{"internalType":"bytes32[]","name":"predicateIds","type":"bytes32[]"},{"internalType":"bytes32[]","name":"objectIds","type":"bytes32[]"},{"internalType":"uint256[]","name":"assets","type":"uint256[]"}],"name":"createTriplesWithFee","outputs":[{"internalType":"bytes32[]","name":"","type":"bytes32[]"}],"stateMutability":"payable","type":"function"},{"inputs":[{"internalType":"address","name":"receiver","type":"address"},{"internalType":"bytes32[]","name":"termIds","type":"bytes32[]"},{"internalType":"uint256[]","name":"curveIds","type":"uint256[]"},{"internalType":"uint256[]","name":"minShares","type":"uint256[]"},{"internalType":"uint256","name":"totalDepositAmount","type":"uint256"}],"name":"depositBatchWithFee","outputs":[{"internalType":"uint256[]","name":"","type":"uint256[]"}],"stateMutability":"payable","type":"function"},{"inputs":[{"internalType":"address","name":"receiver","type":"address"},{"internalType":"bytes32","name":"termId","type":"bytes32"},{"internalType":"uint256","name":"curveId","type":"uint256"},{"internalType":"uint256","name":"minShares","type":"uint256"},{"internalType":"uint256","name":"depositAmount","type":"uint256"}],"name":"depositWithFee","outputs":[{"internalType":"uint256","name":"","type":"uint256"}],"stateMutability":"payable","type":"function"},{"inputs":[],"name":"emergencyWithdraw","outputs":[],"stateMutability":"nonpayable","type":"function"},{"inputs":[],"name":"multiVault","outputs":[{"internalType":"contract IMultiVault","name":"","type":"address"}],"stateMutability":"view","type":"function"},{"inputs":[],"name":"revenueWallet","outputs":[{"internalType":"address","name":"","type":"address"}],"stateMutability":"view","type":"function"},{"stateMutability":"payable","type":"receive"}],"evm":{"bytecode":{"linkReferences":{},"object":"60c03461016a57601f6114d338819003918201601f19168301916001600160401b0383118484101761016f57808492604094855283398101031261016a57610052602061004b83610185565b9201610185565b906001600160a01b03908116908115610125578216156100e05760805260a052604051611339908161019a82396080518181816101840152818161059c015281816106890152818161073f01528181610a4801528181610d1b0152610dc4015260a0518181816102ff015281816104910152818161088501528181610b5601528181610c650152610ea60152f35b60405162461bcd60e51b815260206004820152601e60248201527f496e76616c696420726576656e75652077616c6c6574206164647265737300006044820152606490fd5b60405162461bcd60e51b815260206004820152601a60248201527f496e76616c6964204d756c74695661756c7420616464726573730000000000006044820152606490fd5b600080fd5b634e487b7160e01b600052604160045260246000fd5b51906001600160a01b038216820361016a5756fe6080604052600436101561001b575b361561001957600080fd5b005b60003560e01c80630f7ac90714610c945780634447842514610c4f578063580b7256146109d857806381ce2b55146105cb5780638c3ecc4514610586578063b7ee33d81461056a578063d73792a91461054e578063db2e21bc1461047e5763f382b8b70361000e5760a03660031901126103e2576100976110b5565b67ffffffffffffffff6024358181116103e2576100b8903690600401611049565b916044358181116103e2576100d1903690600401611049565b94906064358381116103e2576100eb903690600401611049565b9290608435341115610439576101046084351515611297565b87871480610430575b156103f3576040516386c115c960e01b81526001600160a01b039283166004820152608060248201529760009489948593849361017c93919261016a91610158608488018f8f611219565b87810360031901604489015291611219565b84810360031901606486015291611219565b0391608435907f0000000000000000000000000000000000000000000000000000000000000000165af19384156103e757600094610355575b50506101c36084353461123d565b601e8102818104601e148215171561033f5760826101e39104809261123d565b92816102f7575b610256936b0c8cae0dee6d2e884c2e8c6d60a31b9283604051526000805160206112e4833981519152604051807f7cfff4322ee8c9537fea4d065b7245ed7e5693e2f05f5d8b1eda8f419c4ca87598899533953491846040919493926060820195825260208201520152565b0390a31580156102a8575b50505050604051809160208083018184528251809152816040850193019160005b82811061029157505050500390f35b835185528695509381019392810192600101610282565b6102e157604051523590337ff0c65102f53cf5d946b4d3e04c2fd19177b4b618be647f02e2e8941c6de6476c600080a438808080610261565b634e487b7160e01b600052603260045260246000fd5b6000808080857f00000000000000000000000000000000000000000000000000000000000000005af161032861124a565b506101ea57604051634033e4e360e01b8152600490fd5b634e487b7160e01b600052601160045260246000fd5b909193503d806000833e610369818361113c565b81019160209182818503126103e25780519182116103e257019180601f840112156103e257825161039981611187565b936103a7604051958661113c565b818552838086019260051b8201019283116103e2578301905b8282106103d357505050509138806101b5565b815181529083019083016103c0565b600080fd5b6040513d6000823e3d90fd5b60405162461bcd60e51b8152602060048201526015602482015274082e4e4c2f240d8cadccee8d040dad2e6dac2e8c6d605b1b6044820152606490fd5b5083871461010d565b60405162461bcd60e51b815260206004820152601960248201527f4d7573742073656e64206465706f73697473202b2066656573000000000000006044820152606490fd5b346103e25760003660031901126103e2577f00000000000000000000000000000000000000000000000000000000000000006001600160a01b03811633036105135760008080809347905af16104d261124a565b50156104da57005b60405162461bcd60e51b815260206004820152601160248201527015da5d1a191c985dd85b0819985a5b1959607a1b6044820152606490fd5b60405162461bcd60e51b815260206004820152601360248201527213db9b1e481c995d995b9d59481dd85b1b195d606a1b6044820152606490fd5b346103e25760003660031901126103e257602060405160648152f35b346103e25760003660031901126103e2576020604051601e8152f35b346103e25760003660031901126103e2576040517f00000000000000000000000000000000000000000000000000000000000000006001600160a01b03168152602090f35b60803660031901126103e25767ffffffffffffffff6004358181116103e2576105f8903690600401611049565b6024929192358281116103e257610613903690600401611049565b926044358181116103e25761062c903690600401611049565b916064359081116103e257610645903690600401611049565b929093868614806109cf575b806109c6575b610660906110cb565b851561098a5760009660005b8581106109655750604051630359724760e21b81526020816004817f00000000000000000000000000000000000000000000000000000000000000006001600160a01b03165afa80156103e7578890600090610930575b6106cd9250611174565b8089106108ee5750604051633c6bbf4560e01b8152608060048201529889976106fb9160848a019190611219565b9060031988830301602489015261071192611219565b9060031986830301604487015261072792611219565b9060031984830301606485015261073d92611219565b7f00000000000000000000000000000000000000000000000000000000000000006001600160a01b03169184910381845a94600095f19182156103e7576000926108c5575b5061078d903461123d565b90601e8202828104601e148315171561033f5760826107ae9104809361123d565b918061087d575b61082561083d936c637265617465547269706c657360981b9283604051526000805160206112e4833981519152604051807ffdc58577788704632a858fefcbd5a5ecb72837df6ba2c5460e84147c08ace3c395869533953491846040919493926060820195825260208201520152565b0390a38251610841575b50506040519182918261107a565b0390f35b61084a8361128a565b519160405152337ff0c65102f53cf5d946b4d3e04c2fd19177b4b618be647f02e2e8941c6de6476c600080a4828061082f565b6000808080847f00000000000000000000000000000000000000000000000000000000000000005af16108ae61124a565b506107b557604051634033e4e360e01b8152600490fd5b61078d9192506108e7903d806000833e6108df818361113c565b81019061119f565b9190610782565b60a490896040519163e20b7ec960e01b835260606004840152600d60648401526c637265617465547269706c657360981b608484015260248301526044820152fd5b50506020813d821161095d575b8161094a6020938361113c565b810103126103e257876106cd91516106c3565b3d915061093d565b9761097f610985916109788b898b61111f565b359061112f565b98611110565b61066c565b60405162461bcd60e51b81526020600482015260146024820152734e6f20747269706c657320746f2063726561746560601b6044820152606490fd5b50858414610657565b50818614610651565b60a03660031901126103e2576109ec6110b5565b602435606435916084359283341115610c0a578390610a0c821515611297565b604051926302fb1d2760e41b845260018060a01b03809116600485015284602485015260443560448501528160648501528360848160209889947f0000000000000000000000000000000000000000000000000000000000000000165af19283156103e757600093610bdb575b508210610b9657610a8a903461123d565b91601e8302838104601e148415171561033f576082610aab9104809461123d565b9280610b4e575b610b19936619195c1bdcda5d60ca1b9182604051526000805160206112e4833981519152604051807f48c73f681176fc7b3f9693986fd7b14581e8d540519e27400e88b8713932be0198899533953491846040919493926060820195825260208201520152565b0390a36040515260405192337ff0c65102f53cf5d946b4d3e04c2fd19177b4b618be647f02e2e8941c6de6476c600080a48152f35b6000808080847f00000000000000000000000000000000000000000000000000000000000000005af1610b7f61124a565b50610ab257604051634033e4e360e01b8152600490fd5b60405162461bcd60e51b815260048101859052601c60248201527f496e73756666696369656e7420736861726573207265636569766564000000006044820152606490fd5b9092508481813d8311610c03575b610bf3818361113c565b810103126103e257519185610a79565b503d610be9565b60405162461bcd60e51b815260206004820152601860248201527f4d7573742073656e64206465706f736974202b206665657300000000000000006044820152606490fd5b346103e25760003660031901126103e2576040517f00000000000000000000000000000000000000000000000000000000000000006001600160a01b03168152602090f35b60403660031901126103e25760043567ffffffffffffffff81116103e257610cc0903690600401611049565b9060243567ffffffffffffffff81116103e257610ce1903690600401611049565b610cef8185949394146110cb565b831561100f5760009260005b828110610ff157506040516333332d3960e01b81526020959086816004817f00000000000000000000000000000000000000000000000000000000000000006001600160a01b03165afa80156103e7578290600090610fc0575b610d5f9250611174565b808610610f8057509190604051958693636140330960e01b855280604486016040600488015252606485019160648260051b8701019680936000915b848310610f0757888a036003190160248a0152888b60008280610dbf8f8e8e611219565b0381847f00000000000000000000000000000000000000000000000000000000000000006001600160a01b03165af19182156103e757600092610ee6575b50610e08903461123d565b90601e8202828104601e148315171561033f576082610e299104809361123d565b9180610e9e575b61082561083d936a63726561746541746f6d7360a81b9283604051526000805160206112e4833981519152604051807fc09a77a0b67c39703a71e89eb285cb899a507f96971b4ee2b9180d25958728fc95869533953491846040919493926060820195825260208201520152565b6000808080847f00000000000000000000000000000000000000000000000000000000000000005af1610ecf61124a565b50610e3057604051634033e4e360e01b8152600490fd5b610e08919250610f00903d806000833e6108df818361113c565b9190610dfd565b9193959697509193976063198b82030183528835601e19833603018112156103e257820185810191903567ffffffffffffffff81116103e25780360383136103e25786828280600196849695859652848401376000838284010152601f801991011601019a019301930190928a97969593949294610d9b565b60a490866040519163e20b7ec960e01b835260606004840152600b60648401526a63726561746541746f6d7360a81b608484015260248301526044820152fd5b50508681813d8311610fea575b610fd7818361113c565b810103126103e25781610d5f9151610d55565b503d610fcd565b9361100461100a9161097887868661111f565b94611110565b610cfb565b60405162461bcd60e51b81526020600482015260126024820152714e6f2061746f6d7320746f2063726561746560701b6044820152606490fd5b9181601f840112156103e25782359167ffffffffffffffff83116103e2576020808501948460051b0101116103e257565b6020908160408183019282815285518094520193019160005b8281106110a1575050505090565b835185529381019392810192600101611093565b600435906001600160a01b03821682036103e257565b156110d257565b60405162461bcd60e51b8152602060048201526016602482015275082e4e4c2f2e640d8cadccee8d040dad2e6dac2e8c6d60531b6044820152606490fd5b600019811461033f5760010190565b91908110156102e15760051b0190565b9190820180921161033f57565b90601f8019910116810190811067ffffffffffffffff82111761115e57604052565b634e487b7160e01b600052604160045260246000fd5b8181029291811591840414171561033f57565b67ffffffffffffffff811161115e5760051b60200190565b60209081818403126103e25780519067ffffffffffffffff82116103e257019180601f840112156103e25782516111d581611187565b936111e3604051958661113c565b818552838086019260051b8201019283116103e2578301905b82821061120a575050505090565b815181529083019083016111fc565b81835290916001600160fb1b0383116103e25760209260051b809284830137010190565b9190820391821161033f57565b3d15611285573d9067ffffffffffffffff821161115e5760405191611279601f8201601f19166020018461113c565b82523d6000602084013e565b606090565b8051156102e15760200190565b1561129e57565b60405162461bcd60e51b815260206004820152601a60248201527f4465706f73697420616d6f756e74206d757374206265203e20300000000000006044820152606490fdfe5d1dba212f6b8f692623054b0ceb136bcc4e5f75db859fdfd284a79d95f89801a26469706673582212200291b25b268c86588971683f865d0dabeddec6aabe009fa0ca7d4d393008320e64736f6c63430008140033","opcodes":"PUSH1 0xC0 CALLVALUE PUSH2 0x16A JUMPI PUSH1 0x1F PUSH2 0x14D3 CODESIZE DUP2 SWAP1 SUB SWAP2 DUP3 ADD PUSH1 0x1F NOT AND DUP4 ADD SWAP2 PUSH1 0x1 PUSH1 0x1 PUSH1 0x40 SHL SUB DUP4 GT DUP5 DUP5 LT OR PUSH2 0x16F JUMPI DUP1 DUP5 SWAP3 PUSH1 0x40 SWAP5 DUP6 MSTORE DUP4 CODECOPY DUP2 ADD SUB SLT PUSH2 0x16A JUMPI PUSH2 0x52 PUSH1 0x20 PUSH2 0x4B DUP4 PUSH2 0x185 JUMP JUMPDEST SWAP3 ADD PUSH2 0x185 JUMP JUMPDEST SWAP1 PUSH1 0x1 PUSH1 0x1 PUSH1 0xA0 SHL SUB SWAP1 DUP2 AND SWAP1 DUP2 ISZERO PUSH2 0x125 JUMPI DUP3 AND ISZERO PUSH2 0xE0 JUMPI PUSH1 0x80 MSTORE PUSH1 0xA0 MSTORE PUSH1 0x40 MLOAD PUSH2 0x1339 SWAP1 DUP2 PUSH2 0x19A DUP3 CODECOPY PUSH1 0x80 MLOAD DUP2 DUP2 DUP2 PUSH2 0x184 ADD MSTORE DUP2 DUP2 PUSH2 0x59C ADD MSTORE DUP2 DUP2 PUSH2 0x689 ADD MSTORE DUP2 DUP2 PUSH2 0x73F ADD MSTORE DUP2 DUP2 PUSH2 0xA48 ADD MSTORE DUP2 DUP2 PUSH2 0xD1B ADD MSTORE PUSH2 0xDC4 ADD MSTORE PUSH1 0xA0 MLOAD DUP2 DUP2 DUP2 PUSH2 0x2FF ADD MSTORE DUP2 DUP2 PUSH2 0x491 ADD MSTORE DUP2 DUP2 PUSH2 0x885 ADD MSTORE DUP2 DUP2 PUSH2 0xB56 ADD MSTORE DUP2 DUP2 PUSH2 0xC65 ADD MSTORE PUSH2 0xEA6 ADD MSTORE RETURN JUMPDEST PUSH1 0x40 MLOAD PUSH3 0x461BCD PUSH1 0xE5 SHL DUP2 MSTORE PUSH1 0x20 PUSH1 0x4 DUP3 ADD MSTORE PUSH1 0x1E PUSH1 0x24 DUP3 ADD MSTORE PUSH32 0x496E76616C696420726576656E75652077616C6C657420616464726573730000 PUSH1 0x44 DUP3 ADD MSTORE PUSH1 0x64 SWAP1 REVERT JUMPDEST PUSH1 0x40 MLOAD PUSH3 0x461BCD PUSH1 0xE5 SHL DUP2 MSTORE PUSH1 0x20 PUSH1 0x4 DUP3 ADD MSTORE PUSH1 0x1A PUSH1 0x24 DUP3 ADD MSTORE PUSH32 0x496E76616C6964204D756C74695661756C742061646472657373000000000000 PUSH1 0x44 DUP3 ADD MSTORE PUSH1 0x64 SWAP1 REVERT JUMPDEST PUSH1 0x0 DUP1 REVERT JUMPDEST PUSH4 0x4E487B71 PUSH1 0xE0 SHL PUSH1 0x0 MSTORE PUSH1 0x41 PUSH1 0x4 MSTORE PUSH1 0x24 PUSH1 0x0 REVERT JUMPDEST MLOAD SWAP1 PUSH1 0x1 PUSH1 0x1 PUSH1 0xA0 SHL SUB DUP3 AND DUP3 SUB PUSH2 0x16A JUMPI JUMP INVALID PUSH1 0x80 PUSH1 0x40 MSTORE PUSH1 0x4 CALLDATASIZE LT ISZERO PUSH2 0x1B JUMPI JUMPDEST CALLDATASIZE ISZERO PUSH2 0x19 JUMPI PUSH1 0x0 DUP1 REVERT JUMPDEST STOP JUMPDEST PUSH1 0x0 CALLDATALOAD PUSH1 0xE0 SHR DUP1 PUSH4 0xF7AC907 EQ PUSH2 0xC94 JUMPI DUP1 PUSH4 0x44478425 EQ PUSH2 0xC4F JUMPI DUP1 PUSH4 0x580B7256 EQ PUSH2 0x9D8 JUMPI DUP1 PUSH4 0x81CE2B55 EQ PUSH2 0x5CB JUMPI DUP1 PUSH4 0x8C3ECC45 EQ PUSH2 0x586 JUMPI DUP1 PUSH4 0xB7EE33D8 EQ PUSH2 0x56A JUMPI DUP1 PUSH4 0xD73792A9 EQ PUSH2 0x54E JUMPI DUP1 PUSH4 0xDB2E21BC EQ PUSH2 0x47E JUMPI PUSH4 0xF382B8B7 SUB PUSH2 0xE JUMPI PUSH1 0xA0 CALLDATASIZE PUSH1 0x3 NOT ADD SLT PUSH2 0x3E2 JUMPI PUSH2 0x97 PUSH2 0x10B5 JUMP JUMPDEST PUSH8 0xFFFFFFFFFFFFFFFF PUSH1 0x24 CALLDATALOAD DUP2 DUP2 GT PUSH2 0x3E2 JUMPI PUSH2 0xB8 SWAP1 CALLDATASIZE SWAP1 PUSH1 0x4 ADD PUSH2 0x1049 JUMP JUMPDEST SWAP2 PUSH1 0x44 CALLDATALOAD DUP2 DUP2 GT PUSH2 0x3E2 JUMPI PUSH2 0xD1 SWAP1 CALLDATASIZE SWAP1 PUSH1 0x4 ADD PUSH2 0x1049 JUMP JUMPDEST SWAP5 SWAP1 PUSH1 0x64 CALLDATALOAD DUP4 DUP2 GT PUSH2 0x3E2 JUMPI PUSH2 0xEB SWAP1 CALLDATASIZE SWAP1 PUSH1 0x4 ADD PUSH2 0x1049 JUMP JUMPDEST SWAP3 SWAP1 PUSH1 0x84 CALLDATALOAD CALLVALUE GT ISZERO PUSH2 0x439 JUMPI PUSH2 0x104 PUSH1 0x84 CALLDATALOAD ISZERO ISZERO PUSH2 0x1297 JUMP JUMPDEST DUP8 DUP8 EQ DUP1 PUSH2 0x430 JUMPI JUMPDEST ISZERO PUSH2 0x3F3 JUMPI PUSH1 0x40 MLOAD PUSH4 0x86C115C9 PUSH1 0xE0 SHL DUP2 MSTORE PUSH1 0x1 PUSH1 0x1 PUSH1 0xA0 SHL SUB SWAP3 DUP4 AND PUSH1 0x4 DUP3 ADD MSTORE PUSH1 0x80 PUSH1 0x24 DUP3 ADD MSTORE SWAP8 PUSH1 0x0 SWAP5 DUP10 SWAP5 DUP6 SWAP4 DUP5 SWAP4 PUSH2 0x17C SWAP4 SWAP2 SWAP3 PUSH2 0x16A SWAP2 PUSH2 0x158 PUSH1 0x84 DUP9 ADD DUP16 DUP16 PUSH2 0x1219 JUMP JUMPDEST DUP8 DUP2 SUB PUSH1 0x3 NOT ADD PUSH1 0x44 DUP10 ADD MSTORE SWAP2 PUSH2 0x1219 JUMP JUMPDEST DUP5 DUP2 SUB PUSH1 0x3 NOT ADD PUSH1 0x64 DUP7 ADD MSTORE SWAP2 PUSH2 0x1219 JUMP JUMPDEST SUB SWAP2 PUSH1 0x84 CALLDATALOAD SWAP1 PUSH32 0x0 AND GAS CALL SWAP4 DUP5 ISZERO PUSH2 0x3E7 JUMPI PUSH1 0x0 SWAP5 PUSH2 0x355 JUMPI JUMPDEST POP POP PUSH2 0x1C3 PUSH1 0x84 CALLDATALOAD CALLVALUE PUSH2 0x123D JUMP JUMPDEST PUSH1 0x1E DUP2 MUL DUP2 DUP2 DIV PUSH1 0x1E EQ DUP3 ISZERO OR ISZERO PUSH2 0x33F JUMPI PUSH1 0x82 PUSH2 0x1E3 SWAP2 DIV DUP1 SWAP3 PUSH2 0x123D JUMP JUMPDEST SWAP3 DUP2 PUSH2 0x2F7 JUMPI JUMPDEST PUSH2 0x256 SWAP4 PUSH12 0xC8CAE0DEE6D2E884C2E8C6D PUSH1 0xA3 SHL SWAP3 DUP4 PUSH1 0x40 MLOAD MSTORE PUSH1 0x0 DUP1 MLOAD PUSH1 0x20 PUSH2 0x12E4 DUP4 CODECOPY DUP2 MLOAD SWAP2 MSTORE PUSH1 0x40 MLOAD DUP1 PUSH32 0x7CFFF4322EE8C9537FEA4D065B7245ED7E5693E2F05F5D8B1EDA8F419C4CA875 SWAP9 DUP10 SWAP6 CALLER SWAP6 CALLVALUE SWAP2 DUP5 PUSH1 0x40 SWAP2 SWAP5 SWAP4 SWAP3 PUSH1 0x60 DUP3 ADD SWAP6 DUP3 MSTORE PUSH1 0x20 DUP3 ADD MSTORE ADD MSTORE JUMP JUMPDEST SUB SWAP1 LOG3 ISZERO DUP1 ISZERO PUSH2 0x2A8 JUMPI JUMPDEST POP POP POP POP PUSH1 0x40 MLOAD DUP1 SWAP2 PUSH1 0x20 DUP1 DUP4 ADD DUP2 DUP5 MSTORE DUP3 MLOAD DUP1 SWAP2 MSTORE DUP2 PUSH1 0x40 DUP6 ADD SWAP4 ADD SWAP2 PUSH1 0x0 JUMPDEST DUP3 DUP2 LT PUSH2 0x291 JUMPI POP POP POP POP SUB SWAP1 RETURN JUMPDEST DUP4 MLOAD DUP6 MSTORE DUP7 SWAP6 POP SWAP4 DUP2 ADD SWAP4 SWAP3 DUP2 ADD SWAP3 PUSH1 0x1 ADD PUSH2 0x282 JUMP JUMPDEST PUSH2 0x2E1 JUMPI PUSH1 0x40 MLOAD MSTORE CALLDATALOAD SWAP1 CALLER PUSH32 0xF0C65102F53CF5D946B4D3E04C2FD19177B4B618BE647F02E2E8941C6DE6476C PUSH1 0x0 DUP1 LOG4 CODESIZE DUP1 DUP1 DUP1 PUSH2 0x261 JUMP JUMPDEST PUSH4 0x4E487B71 PUSH1 0xE0 SHL PUSH1 0x0 MSTORE PUSH1 0x32 PUSH1 0x4 MSTORE PUSH1 0x24 PUSH1 0x0 REVERT JUMPDEST PUSH1 0x0 DUP1 DUP1 DUP1 DUP6 PUSH32 0x0 GAS CALL PUSH2 0x328 PUSH2 0x124A JUMP JUMPDEST POP PUSH2 0x1EA JUMPI PUSH1 0x40 MLOAD PUSH4 0x4033E4E3 PUSH1 0xE0 SHL DUP2 MSTORE PUSH1 0x4 SWAP1 REVERT JUMPDEST PUSH4 0x4E487B71 PUSH1 0xE0 SHL PUSH1 0x0 MSTORE PUSH1 0x11 PUSH1 0x4 MSTORE PUSH1 0x24 PUSH1 0x0 REVERT JUMPDEST SWAP1 SWAP2 SWAP4 POP RETURNDATASIZE DUP1 PUSH1 0x0 DUP4 RETURNDATACOPY PUSH2 0x369 DUP2 DUP4 PUSH2 0x113C JUMP JUMPDEST DUP2 ADD SWAP2 PUSH1 0x20 SWAP2 DUP3 DUP2 DUP6 SUB SLT PUSH2 0x3E2 JUMPI DUP1 MLOAD SWAP2 DUP3 GT PUSH2 0x3E2 JUMPI ADD SWAP2 DUP1 PUSH1 0x1F DUP5 ADD SLT ISZERO PUSH2 0x3E2 JUMPI DUP3 MLOAD PUSH2 0x399 DUP2 PUSH2 0x1187 JUMP JUMPDEST SWAP4 PUSH2 0x3A7 PUSH1 0x40 MLOAD SWAP6 DUP7 PUSH2 0x113C JUMP JUMPDEST DUP2 DUP6 MSTORE DUP4 DUP1 DUP7 ADD SWAP3 PUSH1 0x5 SHL DUP3 ADD ADD SWAP3 DUP4 GT PUSH2 0x3E2 JUMPI DUP4 ADD SWAP1 JUMPDEST DUP3 DUP3 LT PUSH2 0x3D3 JUMPI POP POP POP POP SWAP2 CODESIZE DUP1 PUSH2 0x1B5 JUMP JUMPDEST DUP2 MLOAD DUP2 MSTORE SWAP1 DUP4 ADD SWAP1 DUP4 ADD PUSH2 0x3C0 JUMP JUMPDEST PUSH1 0x0 DUP1 REVERT JUMPDEST PUSH1 0x40 MLOAD RETURNDATASIZE PUSH1 0x0 DUP3 RETURNDATACOPY RETURNDATASIZE SWAP1 REVERT JUMPDEST PUSH1 0x40 MLOAD PUSH3 0x461BCD PUSH1 0xE5 SHL DUP2 MSTORE PUSH1 0x20 PUSH1 0x4 DUP3 ADD MSTORE PUSH1 0x15 PUSH1 0x24 DUP3 ADD MSTORE PUSH21 0x82E4E4C2F240D8CADCCEE8D040DAD2E6DAC2E8C6D PUSH1 0x5B SHL PUSH1 0x44 DUP3 ADD MSTORE PUSH1 0x64 SWAP1 REVERT JUMPDEST POP DUP4 DUP8 EQ PUSH2 0x10D JUMP JUMPDEST PUSH1 0x40 MLOAD PUSH3 0x461BCD PUSH1 0xE5 SHL DUP2 MSTORE PUSH1 0x20 PUSH1 0x4 DUP3 ADD MSTORE PUSH1 0x19 PUSH1 0x24 DUP3 ADD MSTORE PUSH32 0x4D7573742073656E64206465706F73697473202B206665657300000000000000 PUSH1 0x44 DUP3 ADD MSTORE PUSH1 0x64 SWAP1 REVERT JUMPDEST CALLVALUE PUSH2 0x3E2 JUMPI PUSH1 0x0 CALLDATASIZE PUSH1 0x3 NOT ADD SLT PUSH2 0x3E2 JUMPI PUSH32 0x0 PUSH1 0x1 PUSH1 0x1 PUSH1 0xA0 SHL SUB DUP2 AND CALLER SUB PUSH2 0x513 JUMPI PUSH1 0x0 DUP1 DUP1 DUP1 SWAP4 SELFBALANCE SWAP1 GAS CALL PUSH2 0x4D2 PUSH2 0x124A JUMP JUMPDEST POP ISZERO PUSH2 0x4DA JUMPI STOP JUMPDEST PUSH1 0x40 MLOAD PUSH3 0x461BCD PUSH1 0xE5 SHL DUP2 MSTORE PUSH1 0x20 PUSH1 0x4 DUP3 ADD MSTORE PUSH1 0x11 PUSH1 0x24 DUP3 ADD MSTORE PUSH17 0x15DA5D1A191C985DD85B0819985A5B1959 PUSH1 0x7A SHL PUSH1 0x44 DUP3 ADD MSTORE PUSH1 0x64 SWAP1 REVERT JUMPDEST PUSH1 0x40 MLOAD PUSH3 0x461BCD PUSH1 0xE5 SHL DUP2 MSTORE PUSH1 0x20 PUSH1 0x4 DUP3 ADD MSTORE PUSH1 0x13 PUSH1 0x24 DUP3 ADD MSTORE PUSH19 0x13DB9B1E481C995D995B9D59481DD85B1B195D PUSH1 0x6A SHL PUSH1 0x44 DUP3 ADD MSTORE PUSH1 0x64 SWAP1 REVERT JUMPDEST CALLVALUE PUSH2 0x3E2 JUMPI PUSH1 0x0 CALLDATASIZE PUSH1 0x3 NOT ADD SLT PUSH2 0x3E2 JUMPI PUSH1 0x20 PUSH1 0x40 MLOAD PUSH1 0x64 DUP2 MSTORE RETURN JUMPDEST CALLVALUE PUSH2 0x3E2 JUMPI PUSH1 0x0 CALLDATASIZE PUSH1 0x3 NOT ADD SLT PUSH2 0x3E2 JUMPI PUSH1 0x20 PUSH1 0x40 MLOAD PUSH1 0x1E DUP2 MSTORE RETURN JUMPDEST CALLVALUE PUSH2 0x3E2 JUMPI PUSH1 0x0 CALLDATASIZE PUSH1 0x3 NOT ADD SLT PUSH2 0x3E2 JUMPI PUSH1 0x40 MLOAD PUSH32 0x0 PUSH1 0x1 PUSH1 0x1 PUSH1 0xA0 SHL SUB AND DUP2 MSTORE PUSH1 0x20 SWAP1 RETURN JUMPDEST PUSH1 0x80 CALLDATASIZE PUSH1 0x3 NOT ADD SLT PUSH2 0x3E2 JUMPI PUSH8 0xFFFFFFFFFFFFFFFF PUSH1 0x4 CALLDATALOAD DUP2 DUP2 GT PUSH2 0x3E2 JUMPI PUSH2 0x5F8 SWAP1 CALLDATASIZE SWAP1 PUSH1 0x4 ADD PUSH2 0x1049 JUMP JUMPDEST PUSH1 0x24 SWAP3 SWAP2 SWAP3 CALLDATALOAD DUP3 DUP2 GT PUSH2 0x3E2 JUMPI PUSH2 0x613 SWAP1 CALLDATASIZE SWAP1 PUSH1 0x4 ADD PUSH2 0x1049 JUMP JUMPDEST SWAP3 PUSH1 0x44 CALLDATALOAD DUP2 DUP2 GT PUSH2 0x3E2 JUMPI PUSH2 0x62C SWAP1 CALLDATASIZE SWAP1 PUSH1 0x4 ADD PUSH2 0x1049 JUMP JUMPDEST SWAP2 PUSH1 0x64 CALLDATALOAD SWAP1 DUP2 GT PUSH2 0x3E2 JUMPI PUSH2 0x645 SWAP1 CALLDATASIZE SWAP1 PUSH1 0x4 ADD PUSH2 0x1049 JUMP JUMPDEST SWAP3 SWAP1 SWAP4 DUP7 DUP7 EQ DUP1 PUSH2 0x9CF JUMPI JUMPDEST DUP1 PUSH2 0x9C6 JUMPI JUMPDEST PUSH2 0x660 SWAP1 PUSH2 0x10CB JUMP JUMPDEST DUP6 ISZERO PUSH2 0x98A JUMPI PUSH1 0x0 SWAP7 PUSH1 0x0 JUMPDEST DUP6 DUP2 LT PUSH2 0x965 JUMPI POP PUSH1 0x40 MLOAD PUSH4 0x3597247 PUSH1 0xE2 SHL DUP2 MSTORE PUSH1 0x20 DUP2 PUSH1 0x4 DUP2 PUSH32 0x0 PUSH1 0x1 PUSH1 0x1 PUSH1 0xA0 SHL SUB AND GAS STATICCALL DUP1 ISZERO PUSH2 0x3E7 JUMPI DUP9 SWAP1 PUSH1 0x0 SWAP1 PUSH2 0x930 JUMPI JUMPDEST PUSH2 0x6CD SWAP3 POP PUSH2 0x1174 JUMP JUMPDEST DUP1 DUP10 LT PUSH2 0x8EE JUMPI POP PUSH1 0x40 MLOAD PUSH4 0x3C6BBF45 PUSH1 0xE0 SHL DUP2 MSTORE PUSH1 0x80 PUSH1 0x4 DUP3 ADD MSTORE SWAP9 DUP10 SWAP8 PUSH2 0x6FB SWAP2 PUSH1 0x84 DUP11 ADD SWAP2 SWAP1 PUSH2 0x1219 JUMP JUMPDEST SWAP1 PUSH1 0x3 NOT DUP9 DUP4 SUB ADD PUSH1 0x24 DUP10 ADD MSTORE PUSH2 0x711 SWAP3 PUSH2 0x1219 JUMP JUMPDEST SWAP1 PUSH1 0x3 NOT DUP7 DUP4 SUB ADD PUSH1 0x44 DUP8 ADD MSTORE PUSH2 0x727 SWAP3 PUSH2 0x1219 JUMP JUMPDEST SWAP1 PUSH1 0x3 NOT DUP5 DUP4 SUB ADD PUSH1 0x64 DUP6 ADD MSTORE PUSH2 0x73D SWAP3 PUSH2 0x1219 JUMP JUMPDEST PUSH32 0x0 PUSH1 0x1 PUSH1 0x1 PUSH1 0xA0 SHL SUB AND SWAP2 DUP5 SWAP2 SUB DUP2 DUP5 GAS SWAP5 PUSH1 0x0 SWAP6 CALL SWAP2 DUP3 ISZERO PUSH2 0x3E7 JUMPI PUSH1 0x0 SWAP3 PUSH2 0x8C5 JUMPI JUMPDEST POP PUSH2 0x78D SWAP1 CALLVALUE PUSH2 0x123D JUMP JUMPDEST SWAP1 PUSH1 0x1E DUP3 MUL DUP3 DUP2 DIV PUSH1 0x1E EQ DUP4 ISZERO OR ISZERO PUSH2 0x33F JUMPI PUSH1 0x82 PUSH2 0x7AE SWAP2 DIV DUP1 SWAP4 PUSH2 0x123D JUMP JUMPDEST SWAP2 DUP1 PUSH2 0x87D JUMPI JUMPDEST PUSH2 0x825 PUSH2 0x83D SWAP4 PUSH13 0x637265617465547269706C6573 PUSH1 0x98 SHL SWAP3 DUP4 PUSH1 0x40 MLOAD MSTORE PUSH1 0x0 DUP1 MLOAD PUSH1 0x20 PUSH2 0x12E4 DUP4 CODECOPY DUP2 MLOAD SWAP2 MSTORE PUSH1 0x40 MLOAD DUP1 PUSH32 0xFDC58577788704632A858FEFCBD5A5ECB72837DF6BA2C5460E84147C08ACE3C3 SWAP6 DUP7 SWAP6 CALLER SWAP6 CALLVALUE SWAP2 DUP5 PUSH1 0x40 SWAP2 SWAP5 SWAP4 SWAP3 PUSH1 0x60 DUP3 ADD SWAP6 DUP3 MSTORE PUSH1 0x20 DUP3 ADD MSTORE ADD MSTORE JUMP JUMPDEST SUB SWAP1 LOG3 DUP3 MLOAD PUSH2 0x841 JUMPI JUMPDEST POP POP PUSH1 0x40 MLOAD SWAP2 DUP3 SWAP2 DUP3 PUSH2 0x107A JUMP JUMPDEST SUB SWAP1 RETURN JUMPDEST PUSH2 0x84A DUP4 PUSH2 0x128A JUMP JUMPDEST MLOAD SWAP2 PUSH1 0x40 MLOAD MSTORE CALLER PUSH32 0xF0C65102F53CF5D946B4D3E04C2FD19177B4B618BE647F02E2E8941C6DE6476C PUSH1 0x0 DUP1 LOG4 DUP3 DUP1 PUSH2 0x82F JUMP JUMPDEST PUSH1 0x0 DUP1 DUP1 DUP1 DUP5 PUSH32 0x0 GAS CALL PUSH2 0x8AE PUSH2 0x124A JUMP JUMPDEST POP PUSH2 0x7B5 JUMPI PUSH1 0x40 MLOAD PUSH4 0x4033E4E3 PUSH1 0xE0 SHL DUP2 MSTORE PUSH1 0x4 SWAP1 REVERT JUMPDEST PUSH2 0x78D SWAP2 SWAP3 POP PUSH2 0x8E7 SWAP1 RETURNDATASIZE DUP1 PUSH1 0x0 DUP4 RETURNDATACOPY PUSH2 0x8DF DUP2 DUP4 PUSH2 0x113C JUMP JUMPDEST DUP2 ADD SWAP1 PUSH2 0x119F JUMP JUMPDEST SWAP2 SWAP1 PUSH2 0x782 JUMP JUMPDEST PUSH1 0xA4 SWAP1 DUP10 PUSH1 0x40 MLOAD SWAP2 PUSH4 0xE20B7EC9 PUSH1 0xE0 SHL DUP4 MSTORE PUSH1 0x60 PUSH1 0x4 DUP5 ADD MSTORE PUSH1 0xD PUSH1 0x64 DUP5 ADD MSTORE PUSH13 0x637265617465547269706C6573 PUSH1 0x98 SHL PUSH1 0x84 DUP5 ADD MSTORE PUSH1 0x24 DUP4 ADD MSTORE PUSH1 0x44 DUP3 ADD MSTORE REVERT JUMPDEST POP POP PUSH1 0x20 DUP2 RETURNDATASIZE DUP3 GT PUSH2 0x95D JUMPI JUMPDEST DUP2 PUSH2 0x94A PUSH1 0x20 SWAP4 DUP4 PUSH2 0x113C JUMP JUMPDEST DUP2 ADD SUB SLT PUSH2 0x3E2 JUMPI DUP8 PUSH2 0x6CD SWAP2 MLOAD PUSH2 0x6C3 JUMP JUMPDEST RETURNDATASIZE SWAP2 POP PUSH2 0x93D JUMP JUMPDEST SWAP8 PUSH2 0x97F PUSH2 0x985 SWAP2 PUSH2 0x978 DUP12 DUP10 DUP12 PUSH2 0x111F JUMP JUMPDEST CALLDATALOAD SWAP1 PUSH2 0x112F JUMP JUMPDEST SWAP9 PUSH2 0x1110 JUMP JUMPDEST PUSH2 0x66C JUMP JUMPDEST PUSH1 0x40 MLOAD PUSH3 0x461BCD PUSH1 0xE5 SHL DUP2 MSTORE PUSH1 0x20 PUSH1 0x4 DUP3 ADD MSTORE PUSH1 0x14 PUSH1 0x24 DUP3 ADD MSTORE PUSH20 0x4E6F20747269706C657320746F20637265617465 PUSH1 0x60 SHL PUSH1 0x44 DUP3 ADD MSTORE PUSH1 0x64 SWAP1 REVERT JUMPDEST POP DUP6 DUP5 EQ PUSH2 0x657 JUMP JUMPDEST POP DUP2 DUP7 EQ PUSH2 0x651 JUMP JUMPDEST PUSH1 0xA0 CALLDATASIZE PUSH1 0x3 NOT ADD SLT PUSH2 0x3E2 JUMPI PUSH2 0x9EC PUSH2 0x10B5 JUMP JUMPDEST PUSH1 0x24 CALLDATALOAD PUSH1 0x64 CALLDATALOAD SWAP2 PUSH1 0x84 CALLDATALOAD SWAP3 DUP4 CALLVALUE GT ISZERO PUSH2 0xC0A JUMPI DUP4 SWAP1 PUSH2 0xA0C DUP3 ISZERO ISZERO PUSH2 0x1297 JUMP JUMPDEST PUSH1 0x40 MLOAD SWAP3 PUSH4 0x2FB1D27 PUSH1 0xE4 SHL DUP5 MSTORE PUSH1 0x1 DUP1 PUSH1 0xA0 SHL SUB DUP1 SWAP2 AND PUSH1 0x4 DUP6 ADD MSTORE DUP5 PUSH1 0x24 DUP6 ADD MSTORE PUSH1 0x44 CALLDATALOAD PUSH1 0x44 DUP6 ADD MSTORE DUP2 PUSH1 0x64 DUP6 ADD MSTORE DUP4 PUSH1 0x84 DUP2 PUSH1 0x20 SWAP9 DUP10 SWAP5 PUSH32 0x0 AND GAS CALL SWAP3 DUP4 ISZERO PUSH2 0x3E7 JUMPI PUSH1 0x0 SWAP4 PUSH2 0xBDB JUMPI JUMPDEST POP DUP3 LT PUSH2 0xB96 JUMPI PUSH2 0xA8A SWAP1 CALLVALUE PUSH2 0x123D JUMP JUMPDEST SWAP2 PUSH1 0x1E DUP4 MUL DUP4 DUP2 DIV PUSH1 0x1E EQ DUP5 ISZERO OR ISZERO PUSH2 0x33F JUMPI PUSH1 0x82 PUSH2 0xAAB SWAP2 DIV DUP1 SWAP5 PUSH2 0x123D JUMP JUMPDEST SWAP3 DUP1 PUSH2 0xB4E JUMPI JUMPDEST PUSH2 0xB19 SWAP4 PUSH7 0x19195C1BDCDA5D PUSH1 0xCA SHL SWAP2 DUP3 PUSH1 0x40 MLOAD MSTORE PUSH1 0x0 DUP1 MLOAD PUSH1 0x20 PUSH2 0x12E4 DUP4 CODECOPY DUP2 MLOAD SWAP2 MSTORE PUSH1 0x40 MLOAD DUP1 PUSH32 0x48C73F681176FC7B3F9693986FD7B14581E8D540519E27400E88B8713932BE01 SWAP9 DUP10 SWAP6 CALLER SWAP6 CALLVALUE SWAP2 DUP5 PUSH1 0x40 SWAP2 SWAP5 SWAP4 SWAP3 PUSH1 0x60 DUP3 ADD SWAP6 DUP3 MSTORE PUSH1 0x20 DUP3 ADD MSTORE ADD MSTORE JUMP JUMPDEST SUB SWAP1 LOG3 PUSH1 0x40 MLOAD MSTORE PUSH1 0x40 MLOAD SWAP3 CALLER PUSH32 0xF0C65102F53CF5D946B4D3E04C2FD19177B4B618BE647F02E2E8941C6DE6476C PUSH1 0x0 DUP1 LOG4 DUP2 MSTORE RETURN JUMPDEST PUSH1 0x0 DUP1 DUP1 DUP1 DUP5 PUSH32 0x0 GAS CALL PUSH2 0xB7F PUSH2 0x124A JUMP JUMPDEST POP PUSH2 0xAB2 JUMPI PUSH1 0x40 MLOAD PUSH4 0x4033E4E3 PUSH1 0xE0 SHL DUP2 MSTORE PUSH1 0x4 SWAP1 REVERT JUMPDEST PUSH1 0x40 MLOAD PUSH3 0x461BCD PUSH1 0xE5 SHL DUP2 MSTORE PUSH1 0x4 DUP2 ADD DUP6 SWAP1 MSTORE PUSH1 0x1C PUSH1 0x24 DUP3 ADD MSTORE PUSH32 0x496E73756666696369656E742073686172657320726563656976656400000000 PUSH1 0x44 DUP3 ADD MSTORE PUSH1 0x64 SWAP1 REVERT JUMPDEST SWAP1 SWAP3 POP DUP5 DUP2 DUP2 RETURNDATASIZE DUP4 GT PUSH2 0xC03 JUMPI JUMPDEST PUSH2 0xBF3 DUP2 DUP4 PUSH2 0x113C JUMP JUMPDEST DUP2 ADD SUB SLT PUSH2 0x3E2 JUMPI MLOAD SWAP2 DUP6 PUSH2 0xA79 JUMP JUMPDEST POP RETURNDATASIZE PUSH2 0xBE9 JUMP JUMPDEST PUSH1 0x40 MLOAD PUSH3 0x461BCD PUSH1 0xE5 SHL DUP2 MSTORE PUSH1 0x20 PUSH1 0x4 DUP3 ADD MSTORE PUSH1 0x18 PUSH1 0x24 DUP3 ADD MSTORE PUSH32 0x4D7573742073656E64206465706F736974202B20666565730000000000000000 PUSH1 0x44 DUP3 ADD MSTORE PUSH1 0x64 SWAP1 REVERT JUMPDEST CALLVALUE PUSH2 0x3E2 JUMPI PUSH1 0x0 CALLDATASIZE PUSH1 0x3 NOT ADD SLT PUSH2 0x3E2 JUMPI PUSH1 0x40 MLOAD PUSH32 0x0 PUSH1 0x1 PUSH1 0x1 PUSH1 0xA0 SHL SUB AND DUP2 MSTORE PUSH1 0x20 SWAP1 RETURN JUMPDEST PUSH1 0x40 CALLDATASIZE PUSH1 0x3 NOT ADD SLT PUSH2 0x3E2 JUMPI PUSH1 0x4 CALLDATALOAD PUSH8 0xFFFFFFFFFFFFFFFF DUP2 GT PUSH2 0x3E2 JUMPI PUSH2 0xCC0 SWAP1 CALLDATASIZE SWAP1 PUSH1 0x4 ADD PUSH2 0x1049 JUMP JUMPDEST SWAP1 PUSH1 0x24 CALLDATALOAD PUSH8 0xFFFFFFFFFFFFFFFF DUP2 GT PUSH2 0x3E2 JUMPI PUSH2 0xCE1 SWAP1 CALLDATASIZE SWAP1 PUSH1 0x4 ADD PUSH2 0x1049 JUMP JUMPDEST PUSH2 0xCEF DUP2 DUP6 SWAP5 SWAP4 SWAP5 EQ PUSH2 0x10CB JUMP JUMPDEST DUP4 ISZERO PUSH2 0x100F JUMPI PUSH1 0x0 SWAP3 PUSH1 0x0 JUMPDEST DUP3 DUP2 LT PUSH2 0xFF1 JUMPI POP PUSH1 0x40 MLOAD PUSH4 0x33332D39 PUSH1 0xE0 SHL DUP2 MSTORE PUSH1 0x20 SWAP6 SWAP1 DUP7 DUP2 PUSH1 0x4 DUP2 PUSH32 0x0 PUSH1 0x1 PUSH1 0x1 PUSH1 0xA0 SHL SUB AND GAS STATICCALL DUP1 ISZERO PUSH2 0x3E7 JUMPI DUP3 SWAP1 PUSH1 0x0 SWAP1 PUSH2 0xFC0 JUMPI JUMPDEST PUSH2 0xD5F SWAP3 POP PUSH2 0x1174 JUMP JUMPDEST DUP1 DUP7 LT PUSH2 0xF80 JUMPI POP SWAP2 SWAP1 PUSH1 0x40 MLOAD SWAP6 DUP7 SWAP4 PUSH4 0x61403309 PUSH1 0xE0 SHL DUP6 MSTORE DUP1 PUSH1 0x44 DUP7 ADD PUSH1 0x40 PUSH1 0x4 DUP9 ADD MSTORE MSTORE PUSH1 0x64 DUP6 ADD SWAP2 PUSH1 0x64 DUP3 PUSH1 0x5 SHL DUP8 ADD ADD SWAP7 DUP1 SWAP4 PUSH1 0x0 SWAP2 JUMPDEST DUP5 DUP4 LT PUSH2 0xF07 JUMPI DUP9 DUP11 SUB PUSH1 0x3 NOT ADD PUSH1 0x24 DUP11 ADD MSTORE DUP9 DUP12 PUSH1 0x0 DUP3 DUP1 PUSH2 0xDBF DUP16 DUP15 DUP15 PUSH2 0x1219 JUMP JUMPDEST SUB DUP2 DUP5 PUSH32 0x0 PUSH1 0x1 PUSH1 0x1 PUSH1 0xA0 SHL SUB AND GAS CALL SWAP2 DUP3 ISZERO PUSH2 0x3E7 JUMPI PUSH1 0x0 SWAP3 PUSH2 0xEE6 JUMPI JUMPDEST POP PUSH2 0xE08 SWAP1 CALLVALUE PUSH2 0x123D JUMP JUMPDEST SWAP1 PUSH1 0x1E DUP3 MUL DUP3 DUP2 DIV PUSH1 0x1E EQ DUP4 ISZERO OR ISZERO PUSH2 0x33F JUMPI PUSH1 0x82 PUSH2 0xE29 SWAP2 DIV DUP1 SWAP4 PUSH2 0x123D JUMP JUMPDEST SWAP2 DUP1 PUSH2 0xE9E JUMPI JUMPDEST PUSH2 0x825 PUSH2 0x83D SWAP4 PUSH11 0x63726561746541746F6D73 PUSH1 0xA8 SHL SWAP3 DUP4 PUSH1 0x40 MLOAD MSTORE PUSH1 0x0 DUP1 MLOAD PUSH1 0x20 PUSH2 0x12E4 DUP4 CODECOPY DUP2 MLOAD SWAP2 MSTORE PUSH1 0x40 MLOAD DUP1 PUSH32 0xC09A77A0B67C39703A71E89EB285CB899A507F96971B4EE2B9180D25958728FC SWAP6 DUP7 SWAP6 CALLER SWAP6 CALLVALUE SWAP2 DUP5 PUSH1 0x40 SWAP2 SWAP5 SWAP4 SWAP3 PUSH1 0x60 DUP3 ADD SWAP6 DUP3 MSTORE PUSH1 0x20 DUP3 ADD MSTORE ADD MSTORE JUMP JUMPDEST PUSH1 0x0 DUP1 DUP1 DUP1 DUP5 PUSH32 0x0 GAS CALL PUSH2 0xECF PUSH2 0x124A JUMP JUMPDEST POP PUSH2 0xE30 JUMPI PUSH1 0x40 MLOAD PUSH4 0x4033E4E3 PUSH1 0xE0 SHL DUP2 MSTORE PUSH1 0x4 SWAP1 REVERT JUMPDEST PUSH2 0xE08 SWAP2 SWAP3 POP PUSH2 0xF00 SWAP1 RETURNDATASIZE DUP1 PUSH1 0x0 DUP4 RETURNDATACOPY PUSH2 0x8DF DUP2 DUP4 PUSH2 0x113C JUMP JUMPDEST SWAP2 SWAP1 PUSH2 0xDFD JUMP JUMPDEST SWAP2 SWAP4 SWAP6 SWAP7 SWAP8 POP SWAP2 SWAP4 SWAP8 PUSH1 0x63 NOT DUP12 DUP3 SUB ADD DUP4 MSTORE DUP9 CALLDATALOAD PUSH1 0x1E NOT DUP4 CALLDATASIZE SUB ADD DUP2 SLT ISZERO PUSH2 0x3E2 JUMPI DUP3 ADD DUP6 DUP2 ADD SWAP2 SWAP1 CALLDATALOAD PUSH8 0xFFFFFFFFFFFFFFFF DUP2 GT PUSH2 0x3E2 JUMPI DUP1 CALLDATASIZE SUB DUP4 SGT PUSH2 0x3E2 JUMPI DUP7 DUP3 DUP3 DUP1 PUSH1 0x1 SWAP7 DUP5 SWAP7 SWAP6 DUP6 SWAP7 MSTORE DUP5 DUP5 ADD CALLDATACOPY PUSH1 0x0 DUP4 DUP3 DUP5 ADD ADD MSTORE PUSH1 0x1F DUP1 NOT SWAP2 ADD AND ADD ADD SWAP11 ADD SWAP4 ADD SWAP4 ADD SWAP1 SWAP3 DUP11 SWAP8 SWAP7 SWAP6 SWAP4 SWAP5 SWAP3 SWAP5 PUSH2 0xD9B JUMP JUMPDEST PUSH1 0xA4 SWAP1 DUP7 PUSH1 0x40 MLOAD SWAP2 PUSH4 0xE20B7EC9 PUSH1 0xE0 SHL DUP4 MSTORE PUSH1 0x60 PUSH1 0x4 DUP5 ADD MSTORE PUSH1 0xB PUSH1 0x64 DUP5 ADD MSTORE PUSH11 0x63726561746541746F6D73 PUSH1 0xA8 SHL PUSH1 0x84 DUP5 ADD MSTORE PUSH1 0x24 DUP4 ADD MSTORE PUSH1 0x44 DUP3 ADD MSTORE REVERT JUMPDEST POP POP DUP7 DUP2 DUP2 RETURNDATASIZE DUP4 GT PUSH2 0xFEA JUMPI JUMPDEST PUSH2 0xFD7 DUP2 DUP4 PUSH2 0x113C JUMP JUMPDEST DUP2 ADD SUB SLT PUSH2 0x3E2 JUMPI DUP2 PUSH2 0xD5F SWAP2 MLOAD PUSH2 0xD55 JUMP JUMPDEST POP RETURNDATASIZE PUSH2 0xFCD JUMP JUMPDEST SWAP4 PUSH2 0x1004 PUSH2 0x100A SWAP2 PUSH2 0x978 DUP8 DUP7 DUP7 PUSH2 0x111F JUMP JUMPDEST SWAP5 PUSH2 0x1110 JUMP JUMPDEST PUSH2 0xCFB JUMP JUMPDEST PUSH1 0x40 MLOAD PUSH3 0x461BCD PUSH1 0xE5 SHL DUP2 MSTORE PUSH1 0x20 PUSH1 0x4 DUP3 ADD MSTORE PUSH1 0x12 PUSH1 0x24 DUP3 ADD MSTORE PUSH18 0x4E6F2061746F6D7320746F20637265617465 PUSH1 0x70 SHL PUSH1 0x44 DUP3 ADD MSTORE PUSH1 0x64 SWAP1 REVERT JUMPDEST SWAP2 DUP2 PUSH1 0x1F DUP5 ADD SLT ISZERO PUSH2 0x3E2 JUMPI DUP3 CALLDATALOAD SWAP2 PUSH8 0xFFFFFFFFFFFFFFFF DUP4 GT PUSH2 0x3E2 JUMPI PUSH1 0x20 DUP1 DUP6 ADD SWAP5 DUP5 PUSH1 0x5 SHL ADD ADD GT PUSH2 0x3E2 JUMPI JUMP JUMPDEST PUSH1 0x20 SWAP1 DUP2 PUSH1 0x40 DUP2 DUP4 ADD SWAP3 DUP3 DUP2 MSTORE DUP6 MLOAD DUP1 SWAP5 MSTORE ADD SWAP4 ADD SWAP2 PUSH1 0x0 JUMPDEST DUP3 DUP2 LT PUSH2 0x10A1 JUMPI POP POP POP POP SWAP1 JUMP JUMPDEST DUP4 MLOAD DUP6 MSTORE SWAP4 DUP2 ADD SWAP4 SWAP3 DUP2 ADD SWAP3 PUSH1 0x1 ADD PUSH2 0x1093 JUMP JUMPDEST PUSH1 0x4 CALLDATALOAD SWAP1 PUSH1 0x1 PUSH1 0x1 PUSH1 0xA0 SHL SUB DUP3 AND DUP3 SUB PUSH2 0x3E2 JUMPI JUMP JUMPDEST ISZERO PUSH2 0x10D2 JUMPI JUMP JUMPDEST PUSH1 0x40 MLOAD PUSH3 0x461BCD PUSH1 0xE5 SHL DUP2 MSTORE PUSH1 0x20 PUSH1 0x4 DUP3 ADD MSTORE PUSH1 0x16 PUSH1 0x24 DUP3 ADD MSTORE PUSH22 0x82E4E4C2F2E640D8CADCCEE8D040DAD2E6DAC2E8C6D PUSH1 0x53 SHL PUSH1 0x44 DUP3 ADD MSTORE PUSH1 0x64 SWAP1 REVERT JUMPDEST PUSH1 0x0 NOT DUP2 EQ PUSH2 0x33F JUMPI PUSH1 0x1 ADD SWAP1 JUMP JUMPDEST SWAP2 SWAP1 DUP2 LT ISZERO PUSH2 0x2E1 JUMPI PUSH1 0x5 SHL ADD SWAP1 JUMP JUMPDEST SWAP2 SWAP1 DUP3 ADD DUP1 SWAP3 GT PUSH2 0x33F JUMPI JUMP JUMPDEST SWAP1 PUSH1 0x1F DUP1 NOT SWAP2 ADD AND DUP2 ADD SWAP1 DUP2 LT PUSH8 0xFFFFFFFFFFFFFFFF DUP3 GT OR PUSH2 0x115E JUMPI PUSH1 0x40 MSTORE JUMP JUMPDEST PUSH4 0x4E487B71 PUSH1 0xE0 SHL PUSH1 0x0 MSTORE PUSH1 0x41 PUSH1 0x4 MSTORE PUSH1 0x24 PUSH1 0x0 REVERT JUMPDEST DUP2 DUP2 MUL SWAP3 SWAP2 DUP2 ISZERO SWAP2 DUP5 DIV EQ OR ISZERO PUSH2 0x33F JUMPI JUMP JUMPDEST PUSH8 0xFFFFFFFFFFFFFFFF DUP2 GT PUSH2 0x115E JUMPI PUSH1 0x5 SHL PUSH1 0x20 ADD SWAP1 JUMP JUMPDEST PUSH1 0x20 SWAP1 DUP2 DUP2 DUP5 SUB SLT PUSH2 0x3E2 JUMPI DUP1 MLOAD SWAP1 PUSH8 0xFFFFFFFFFFFFFFFF DUP3 GT PUSH2 0x3E2 JUMPI ADD SWAP2 DUP1 PUSH1 0x1F DUP5 ADD SLT ISZERO PUSH2 0x3E2 JUMPI DUP3 MLOAD PUSH2 0x11D5 DUP2 PUSH2 0x1187 JUMP JUMPDEST SWAP4 PUSH2 0x11E3 PUSH1 0x40 MLOAD SWAP6 DUP7 PUSH2 0x113C JUMP JUMPDEST DUP2 DUP6 MSTORE DUP4 DUP1 DUP7 ADD SWAP3 PUSH1 0x5 SHL DUP3 ADD ADD SWAP3 DUP4 GT PUSH2 0x3E2 JUMPI DUP4 ADD SWAP1 JUMPDEST DUP3 DUP3 LT PUSH2 0x120A JUMPI POP POP POP POP SWAP1 JUMP JUMPDEST DUP2 MLOAD DUP2 MSTORE SWAP1 DUP4 ADD SWAP1 DUP4 ADD PUSH2 0x11FC JUMP JUMPDEST DUP2 DUP4 MSTORE SWAP1 SWAP2 PUSH1 0x1 PUSH1 0x1 PUSH1 0xFB SHL SUB DUP4 GT PUSH2 0x3E2 JUMPI PUSH1 0x20 SWAP3 PUSH1 0x5 SHL DUP1 SWAP3 DUP5 DUP4 ADD CALLDATACOPY ADD ADD SWAP1 JUMP JUMPDEST SWAP2 SWAP1 DUP3 SUB SWAP2 DUP3 GT PUSH2 0x33F JUMPI JUMP JUMPDEST RETURNDATASIZE ISZERO PUSH2 0x1285 JUMPI RETURNDATASIZE SWAP1 PUSH8 0xFFFFFFFFFFFFFFFF DUP3 GT PUSH2 0x115E JUMPI PUSH1 0x40 MLOAD SWAP2 PUSH2 0x1279 PUSH1 0x1F DUP3 ADD PUSH1 0x1F NOT AND PUSH1 0x20 ADD DUP5 PUSH2 0x113C JUMP JUMPDEST DUP3 MSTORE RETURNDATASIZE PUSH1 0x0 PUSH1 0x20 DUP5 ADD RETURNDATACOPY JUMP JUMPDEST PUSH1 0x60 SWAP1 JUMP JUMPDEST DUP1 MLOAD ISZERO PUSH2 0x2E1 JUMPI PUSH1 0x20 ADD SWAP1 JUMP JUMPDEST ISZERO PUSH2 0x129E JUMPI JUMP JUMPDEST PUSH1 0x40 MLOAD PUSH3 0x461BCD PUSH1 0xE5 SHL DUP2 MSTORE PUSH1 0x20 PUSH1 0x4 DUP3 ADD MSTORE PUSH1 0x1A PUSH1 0x24 DUP3 ADD MSTORE PUSH32 0x4465706F73697420616D6F756E74206D757374206265203E2030000000000000 PUSH1 0x44 DUP3 ADD MSTORE PUSH1 0x64 SWAP1 REVERT INVALID 0x5D SAR 0xBA 0x21 0x2F PUSH12 0x8F692623054B0CEB136BCC4E PUSH0 PUSH22 0xDB859FDFD284A79D95F89801A2646970667358221220 MUL SWAP2 0xB2 JUMPDEST 0x26 DUP13 DUP7 PC DUP10 PUSH18 0x683F865D0DABEDDEC6AABE009FA0CA7D4D39 ADDRESS ADDMOD ORIGIN 0xE PUSH5 0x736F6C6343 STOP ADDMOD EQ STOP CALLER "},"methodIdentifiers":{"DAPP_FEE_PERCENTAGE()":"b7ee33d8","FEE_DENOMINATOR()":"d73792a9","createAtomsWithFee(bytes[],uint256[])":"0f7ac907","createTriplesWithFee(bytes32[],bytes32[],bytes32[],uint256[])":"81ce2b55","depositBatchWithFee(address,bytes32[],uint256[],uint256[],uint256)":"f382b8b7","depositWithFee(address,bytes32,uint256,uint256,uint256)":"580b7256","emergencyWithdraw()":"db2e21bc","multiVault()":"8c3ecc45","revenueWallet()":"44478425"}}}}}