{"contracts/QuestEscrow.sol":{"QuestEscrow":{"abi":[{"inputs":[{"internalType":"address","name":"_trustToken","type":"address"}],"stateMutability":"nonpayable","type":"constructor"},{"inputs":[],"name":"AlreadyDistributed","type":"error"},{"inputs":[],"name":"InsufficientBalance","type":"error"},{"inputs":[],"name":"InvalidAmount","type":"error"},{"inputs":[],"name":"InvalidQuestId","type":"error"},{"inputs":[],"name":"InvalidWinnerData","type":"error"},{"inputs":[],"name":"InvalidWinners","type":"error"},{"inputs":[],"name":"NotCreator","type":"error"},{"inputs":[{"internalType":"address","name":"owner","type":"address"}],"name":"OwnableInvalidOwner","type":"error"},{"inputs":[{"internalType":"address","name":"account","type":"address"}],"name":"OwnableUnauthorizedAccount","type":"error"},{"inputs":[],"name":"ReentrancyGuardReentrantCall","type":"error"},{"inputs":[],"name":"TransferFailed","type":"error"},{"anonymous":false,"inputs":[{"indexed":true,"internalType":"string","name":"questId","type":"string"},{"indexed":true,"internalType":"address","name":"creator","type":"address"},{"indexed":false,"internalType":"uint256","name":"amount","type":"uint256"},{"indexed":false,"internalType":"uint256","name":"numberOfWinners","type":"uint256"}],"name":"DepositMade","type":"event"},{"anonymous":false,"inputs":[{"indexed":true,"internalType":"string","name":"questId","type":"string"},{"indexed":true,"internalType":"address","name":"creator","type":"address"},{"indexed":false,"internalType":"uint256","name":"amount","type":"uint256"}],"name":"DepositRefunded","type":"event"},{"anonymous":false,"inputs":[{"indexed":true,"internalType":"address","name":"previousOwner","type":"address"},{"indexed":true,"internalType":"address","name":"newOwner","type":"address"}],"name":"OwnershipTransferred","type":"event"},{"anonymous":false,"inputs":[{"indexed":true,"internalType":"string","name":"questId","type":"string"},{"indexed":false,"internalType":"uint256","name":"totalDistributed","type":"uint256"}],"name":"QuestDistributed","type":"event"},{"anonymous":false,"inputs":[{"indexed":true,"internalType":"string","name":"questId","type":"string"},{"indexed":true,"internalType":"address","name":"winner","type":"address"},{"indexed":false,"internalType":"uint256","name":"amount","type":"uint256"}],"name":"RewardDistributed","type":"event"},{"anonymous":false,"inputs":[{"indexed":true,"internalType":"string","name":"questId","type":"string"},{"indexed":true,"internalType":"uint256","name":"winnerIndex","type":"uint256"},{"indexed":false,"internalType":"address","name":"winner","type":"address"},{"indexed":false,"internalType":"uint256","name":"amount","type":"uint256"}],"name":"WinnerSet","type":"event"},{"inputs":[{"internalType":"string","name":"questId","type":"string"},{"internalType":"uint256","name":"amount","type":"uint256"},{"internalType":"uint256","name":"numberOfWinners","type":"uint256"}],"name":"deposit","outputs":[],"stateMutability":"nonpayable","type":"function"},{"inputs":[{"internalType":"string","name":"questId","type":"string"}],"name":"distributeRewards","outputs":[],"stateMutability":"nonpayable","type":"function"},{"inputs":[{"internalType":"string","name":"questId","type":"string"}],"name":"getQuestDeposit","outputs":[{"internalType":"address","name":"creator","type":"address"},{"internalType":"uint256","name":"totalAmount","type":"uint256"},{"internalType":"uint256","name":"distributedAmount","type":"uint256"},{"internalType":"bool","name":"isDistributed","type":"bool"},{"internalType":"uint256","name":"numberOfWinners","type":"uint256"}],"stateMutability":"view","type":"function"},{"inputs":[{"internalType":"string","name":"questId","type":"string"},{"internalType":"uint256","name":"winnerIndex","type":"uint256"}],"name":"getWinner","outputs":[{"internalType":"address","name":"winnerAddress","type":"address"},{"internalType":"uint256","name":"amount","type":"uint256"}],"stateMutability":"view","type":"function"},{"inputs":[],"name":"owner","outputs":[{"internalType":"address","name":"","type":"address"}],"stateMutability":"view","type":"function"},{"inputs":[{"internalType":"string","name":"","type":"string"}],"name":"questDeposits","outputs":[{"internalType":"address","name":"creator","type":"address"},{"internalType":"uint256","name":"totalAmount","type":"uint256"},{"internalType":"uint256","name":"distributedAmount","type":"uint256"},{"internalType":"bool","name":"isDistributed","type":"bool"},{"internalType":"uint256","name":"numberOfWinners","type":"uint256"}],"stateMutability":"view","type":"function"},{"inputs":[{"internalType":"string","name":"questId","type":"string"}],"name":"refundDeposit","outputs":[],"stateMutability":"nonpayable","type":"function"},{"inputs":[],"name":"renounceOwnership","outputs":[],"stateMutability":"nonpayable","type":"function"},{"inputs":[{"internalType":"string","name":"questId","type":"string"},{"internalType":"uint256","name":"winnerIndex","type":"uint256"},{"internalType":"address","name":"winnerAddress","type":"address"},{"internalType":"uint256","name":"amount","type":"uint256"}],"name":"setWinner","outputs":[],"stateMutability":"nonpayable","type":"function"},{"inputs":[{"internalType":"string","name":"questId","type":"string"},{"internalType":"address[]","name":"winnerAddresses","type":"address[]"},{"internalType":"uint256[]","name":"amounts","type":"uint256[]"}],"name":"setWinners","outputs":[],"stateMutability":"nonpayable","type":"function"},{"inputs":[{"internalType":"address","name":"newOwner","type":"address"}],"name":"transferOwnership","outputs":[],"stateMutability":"nonpayable","type":"function"},{"inputs":[],"name":"trustToken","outputs":[{"internalType":"contract IERC20","name":"","type":"address"}],"stateMutability":"view","type":"function"},{"inputs":[{"internalType":"string","name":"","type":"string"},{"internalType":"uint256","name":"","type":"uint256"}],"name":"winnerAmounts","outputs":[{"internalType":"uint256","name":"","type":"uint256"}],"stateMutability":"view","type":"function"},{"inputs":[{"internalType":"string","name":"","type":"string"},{"internalType":"uint256","name":"","type":"uint256"}],"name":"winners","outputs":[{"internalType":"address","name":"","type":"address"}],"stateMutability":"view","type":"function"}],"evm":{"bytecode":{"linkReferences":{},"object":"60a03461012c57601f6112b638819003918201601f19168301916001600160401b038311848410176101315780849260209460405283398101031261012c57516001600160a01b038082169182900361012c573315610113576000543360018060a01b0319821617600055604051913391167f8be0079c531659141344cd1fd0a4f28419497f9722a3daafe3b4186f6b6457e0600080a36001805581156100d1575060805260405161116e908161014882396080518181816103b7015281816107ab01528181610bf10152610dca0152f35b62461bcd60e51b815260206004820152601560248201527f496e76616c696420746f6b656e206164647265737300000000000000000000006044820152606490fd5b604051631e4fbdf760e01b815260006004820152602490fd5b600080fd5b634e487b7160e01b600052604160045260246000fdfe60406080815260048036101561001457600080fd5b600091823560e01c806308371f1f14610eec5780631106671814610ea757806369524d3114610d0d5780637082028f14610a4a578063715018a6146109f05780637eda8c8e1461094d5780638da5cb5b14610925578063a7829ffa14610703578063b221deee14610637578063cca7c95d146103ea578063d13deb2f146103a2578063e38cf50914610317578063f0fb14731461014a5763f2fde38b146100ba57600080fd5b34610146576020366003190112610146576001600160a01b03823581811693919290849003610142576100eb611065565b831561012c57505082546001600160a01b0319811683178455167f8be0079c531659141344cd1fd0a4f28419497f9722a3daafe3b4186f6b6457e08380a380f35b51631e4fbdf760e01b8152908101849052602490fd5b8480fd5b8280fd5b503461014657608036600319011261014657813567ffffffffffffffff81116103135761017a9036908401610f7b565b602435926001600160a01b0391604435918383169081840361030f576064359486516020816101a98188611009565b6002815203019020906001820154156102ff5760ff6003830154166102ef578082541633141590816102e1575b506102d25782156102c35785156102b4578101548710156102a6577fa30a18ccb0c5bbec88b6bb9c18aee3d57cb5543e76eac5e101af726d2dd0ae769493926102a09261027c9260208951809261022d8287611009565b90815203019020898b52602052878a20906001600160601b0360a01b825416179055865160208161025e8185611009565b6003815203019020888a5260205284878a2055865191828092611009565b03902094516001600160a01b03909216825260208201929092529081906040820190565b0390a380f35b855163cfdacc2b60e01b8152fd5b50855163162908e360e11b8152fd5b5085516371620c3160e01b8152fd5b5085516393687c0b60e01b8152fd5b9050895416331415386101d6565b875163cce553a960e01b81528390fd5b8751630c35c39f60e01b81528390fd5b8780fd5b8380fd5b50913461039f578261039b9161032c36610fd7565b909460208451809261033e828a611009565b90815203019020818352602052610368602060018060a01b03858520541696855192838092611009565b600381520301902090825260209081529190205493516001600160a01b0390931683528201929092529081906040820190565b0390f35b80fd5b8382346103e657816003193601126103e657517f00000000000000000000000000000000000000000000000000000000000000006001600160a01b03168152602090f35b5080fd5b50346101465760603660031901126101465767ffffffffffffffff82358181116101425761041b9036908501610f7b565b90602435818111610633576104339036908601611034565b909160443590811161062f5761044c9036908701611034565b9190928551968761045d8188611009565b600281526020998a9103019020976001890154156106205760039160ff838b0154166106125789546001600160a01b039a908b1633141580610605575b6105f6578686036105d95781015485116105e8578a5b8581106104bb578b80f35b8a6104cf6104ca8389896110f1565b611117565b16156105d9576104e081888a6110f1565b35156105ca5780808b7fa30a18ccb0c5bbec88b6bb9c18aee3d57cb5543e76eac5e101af726d2dd0ae768f8f6105bd8f928f928f998f9a8f8f8f8f9e6105c59f936104ca938e61027c9a858f8f976105979161058a6105b09f8f9b8f906105aa9f8e936105538f8f6104ca9188916110f1565b91888d518092610563828c611009565b90815203019020858c5288528b8b2091166001600160601b0360a01b8254161790556110f1565b3596865193848093611009565b90815203019020908783525220556110f1565b956110f1565b3593865191828092611009565b0390a36110cc565b6104b0565b50885163162908e360e11b8152fd5b5088516371620c3160e01b8152fd5b885163cfdacc2b60e01b8152fd5b5088516393687c0b60e01b8152fd5b508a8c541633141561049a565b885163cce553a960e01b8152fd5b508651630c35c39f60e01b8152fd5b8680fd5b8580fd5b50823461039f57602036600319011261039f5782359067ffffffffffffffff821161039f5750608061067f602061067461039b9436908801610f7b565b855192838092611009565b600281520301902083519461069386610f27565b60018060a01b0382541694858752600183015496876020820152600284015492838383015260ff6003860154161515948560608401520154948591015251958695869192608093969594919660a084019760018060a01b0316845260208401526040830152151560608201520152565b50903461014657606036600319011261014657803567ffffffffffffffff8111610313576107349036908301610f7b565b9160243592604435906107456110a9565b8051156109165784156109075781156108f8578251936001856107688185611009565b6002815260209788910301902001546108ea5783516323b872dd60e01b81523382820152306024820152604481018790526001600160a01b03919086816064818c7f000000000000000000000000000000000000000000000000000000000000000088165af19081156108e05789916108b3575b50156108a5579161088f918594937fad6dc291ea00743d0b29976150f70071f7949128282583416d3bdc94902666a596519161081783610f27565b3383528883018a81528784018c815260608501918d835260808601938985528a518d81610844818c611009565b60028152030190209651166001600160601b0360a01b875416178655516001860155516002850155600384019051151560ff8019835416911617905551910155835191828092611009565b0390209382519586528501523393a36001805580f35b84516312171d8360e31b8152fd5b6108d39150873d89116108d9575b6108cb8183610f59565b810190611091565b386107dc565b503d6108c1565b86513d8b823e3d90fd5b8351630c35c39f60e01b8152fd5b50505163cfdacc2b60e01b8152fd5b50505163162908e360e11b8152fd5b505051630c35c39f60e01b8152fd5b8382346103e657816003193601126103e657905490516001600160a01b039091168152602090f35b50823461039f57602036600319011261039f5782359067ffffffffffffffff821161039f5750610993602061098861039b9336908701610f7b565b845192838092611009565b60028082529190039190910190912080546001820154928201546003830154969092015494516001600160a01b0390911681526020810192909252604082015260ff909316151560608401526080830191909152819060a0820190565b833461039f578060031936011261039f57610a09611065565b80546001600160a01b03198116825581906001600160a01b03167f8be0079c531659141344cd1fd0a4f28419497f9722a3daafe3b4186f6b6457e08280a380f35b50346101465760208060031936011261031357823567ffffffffffffffff811161014257610a7b9036908501610f7b565b610a836110a9565b825190610a908282611009565b91838160029485815203019020916001958684015415610cff5760038085019260ff8454166102ef5785546001600160a01b039190821633141580610cf2575b610ce2578a968a94818101898c81895b610b34575b915088907ffbe20d48ee227d448fd096b7447a23b0019d6280da4cbc77dedb9b10e3b0ef1d8e8e610b268f8f8760ff19825416179055855191828092611009565b0390209351908152a2805580f35b8354831015610cdd57908b918e82518181610b4f8188611009565b8a8152030190208583528152610b72818b8585205416958d865193848093611009565b908152030190208583528152828220549284151580610cd4575b610ba7575b5050505050610b9f906110cc565b8c8f89610ae0565b87999b9d9e9f9496989a809d50878486989a610bed969794519687958694859363a9059cbb60e01b8552840160209093929193604081019460018060a01b031681520152565b03927f0000000000000000000000000000000000000000000000000000000000000000165af1918215610cc7578f9092610caa575b505015610c9a57918d8f9997959392610c438f9e9d9c9a989694829061112b565b9d88880182815490610c549161112b565b90558d8351610c64818093611009565b03902092519182527f8b66abc81eb9e4b88acacafcc6d75ece18e30943c5ac9d9fd331ddb42eaffe3c91a3388f808f8f90610b91565b8d516312171d8360e31b81528690fd5b610cc09250803d106108d9576108cb8183610f59565b388e610c22565b90508f51903d90823e3d90fd5b50831515610b8c565b610ae5565b88516393687c0b60e01b81528490fd5b50818b5416331415610ad0565b8551630c35c39f60e01b8152fd5b50346101465760208060031936011261031357823567ffffffffffffffff811161014257610d3e9036908501610f7b565b92610d476110a9565b82518281610d558188611009565b600281520301902060018101908154928315610cff5760ff600383015416610e995781546001600160a01b0393908416903382141580610e8c575b610e7c57899055865163a9059cbb60e01b81526001600160a01b039091168282019081526020810186905286908290819060400103818c887f0000000000000000000000000000000000000000000000000000000000000000165af1908115610e72578991610e55575b5015610e4757507f63927611f26314a3a601a2fbe97932047c942b0aed992e1464c7de624c878d87939291610e3791541695855191828092611009565b0390209351908152a36001805580f35b85516312171d8360e31b8152fd5b610e6c9150863d88116108d9576108cb8183610f59565b38610dfa565b87513d8b823e3d90fd5b87516393687c0b60e01b81528390fd5b50848a5416331415610d90565b855163cce553a960e01b8152fd5b5090346101465791602092610ecb84610ebf36610fd7565b93865193848093611009565b9081520301902090825283528190205490516001600160a01b039091168152f35b8382346103e6578060209283610f11610f0436610fd7565b9290855192838092611009565b6003815203019020908252845220549051908152f35b60a0810190811067ffffffffffffffff821117610f4357604052565b634e487b7160e01b600052604160045260246000fd5b90601f8019910116810190811067ffffffffffffffff821117610f4357604052565b81601f82011215610fd25780359067ffffffffffffffff8211610f435760405192610fb0601f8401601f191660200185610f59565b82845260208383010111610fd257816000926020809301838601378301015290565b600080fd5b6040600319820112610fd2576004359067ffffffffffffffff8211610fd25761100291600401610f7b565b9060243590565b9081519160005b838110611021575050016000815290565b8060208092840101518185015201611010565b9181601f84011215610fd25782359167ffffffffffffffff8311610fd2576020808501948460051b010111610fd257565b6000546001600160a01b0316330361107957565b60405163118cdaa760e01b8152336004820152602490fd5b90816020910312610fd257518015158103610fd25790565b6002600154146110ba576002600155565b604051633ee5aeb560e01b8152600490fd5b60001981146110db5760010190565b634e487b7160e01b600052601160045260246000fd5b91908110156111015760051b0190565b634e487b7160e01b600052603260045260246000fd5b356001600160a01b0381168103610fd25790565b919082018092116110db5756fea2646970667358221220545cd16c4c750177acdd47e4b8e5e23f72525f505c016feee45c30755775502f64736f6c63430008140033","opcodes":"PUSH1 0xA0 CALLVALUE PUSH2 0x12C JUMPI PUSH1 0x1F PUSH2 0x12B6 CODESIZE DUP2 SWAP1 SUB SWAP2 DUP3 ADD PUSH1 0x1F NOT AND DUP4 ADD SWAP2 PUSH1 0x1 PUSH1 0x1 PUSH1 0x40 SHL SUB DUP4 GT DUP5 DUP5 LT OR PUSH2 0x131 JUMPI DUP1 DUP5 SWAP3 PUSH1 0x20 SWAP5 PUSH1 0x40 MSTORE DUP4 CODECOPY DUP2 ADD SUB SLT PUSH2 0x12C JUMPI MLOAD PUSH1 0x1 PUSH1 0x1 PUSH1 0xA0 SHL SUB DUP1 DUP3 AND SWAP2 DUP3 SWAP1 SUB PUSH2 0x12C JUMPI CALLER ISZERO PUSH2 0x113 JUMPI PUSH1 0x0 SLOAD CALLER PUSH1 0x1 DUP1 PUSH1 0xA0 SHL SUB NOT DUP3 AND OR PUSH1 0x0 SSTORE PUSH1 0x40 MLOAD SWAP2 CALLER SWAP2 AND PUSH32 0x8BE0079C531659141344CD1FD0A4F28419497F9722A3DAAFE3B4186F6B6457E0 PUSH1 0x0 DUP1 LOG3 PUSH1 0x1 DUP1 SSTORE DUP2 ISZERO PUSH2 0xD1 JUMPI POP PUSH1 0x80 MSTORE PUSH1 0x40 MLOAD PUSH2 0x116E SWAP1 DUP2 PUSH2 0x148 DUP3 CODECOPY PUSH1 0x80 MLOAD DUP2 DUP2 DUP2 PUSH2 0x3B7 ADD MSTORE DUP2 DUP2 PUSH2 0x7AB ADD MSTORE DUP2 DUP2 PUSH2 0xBF1 ADD MSTORE PUSH2 0xDCA ADD MSTORE RETURN JUMPDEST PUSH3 0x461BCD PUSH1 0xE5 SHL DUP2 MSTORE PUSH1 0x20 PUSH1 0x4 DUP3 ADD MSTORE PUSH1 0x15 PUSH1 0x24 DUP3 ADD MSTORE PUSH32 0x496E76616C696420746F6B656E20616464726573730000000000000000000000 PUSH1 0x44 DUP3 ADD MSTORE PUSH1 0x64 SWAP1 REVERT JUMPDEST PUSH1 0x40 MLOAD PUSH4 0x1E4FBDF7 PUSH1 0xE0 SHL DUP2 MSTORE PUSH1 0x0 PUSH1 0x4 DUP3 ADD MSTORE PUSH1 0x24 SWAP1 REVERT JUMPDEST PUSH1 0x0 DUP1 REVERT JUMPDEST PUSH4 0x4E487B71 PUSH1 0xE0 SHL PUSH1 0x0 MSTORE PUSH1 0x41 PUSH1 0x4 MSTORE PUSH1 0x24 PUSH1 0x0 REVERT INVALID PUSH1 0x40 PUSH1 0x80 DUP2 MSTORE PUSH1 0x4 DUP1 CALLDATASIZE LT ISZERO PUSH2 0x14 JUMPI PUSH1 0x0 DUP1 REVERT JUMPDEST PUSH1 0x0 SWAP2 DUP3 CALLDATALOAD PUSH1 0xE0 SHR DUP1 PUSH4 0x8371F1F EQ PUSH2 0xEEC JUMPI DUP1 PUSH4 0x11066718 EQ PUSH2 0xEA7 JUMPI DUP1 PUSH4 0x69524D31 EQ PUSH2 0xD0D JUMPI DUP1 PUSH4 0x7082028F EQ PUSH2 0xA4A JUMPI DUP1 PUSH4 0x715018A6 EQ PUSH2 0x9F0 JUMPI DUP1 PUSH4 0x7EDA8C8E EQ PUSH2 0x94D JUMPI DUP1 PUSH4 0x8DA5CB5B EQ PUSH2 0x925 JUMPI DUP1 PUSH4 0xA7829FFA EQ PUSH2 0x703 JUMPI DUP1 PUSH4 0xB221DEEE EQ PUSH2 0x637 JUMPI DUP1 PUSH4 0xCCA7C95D EQ PUSH2 0x3EA JUMPI DUP1 PUSH4 0xD13DEB2F EQ PUSH2 0x3A2 JUMPI DUP1 PUSH4 0xE38CF509 EQ PUSH2 0x317 JUMPI DUP1 PUSH4 0xF0FB1473 EQ PUSH2 0x14A JUMPI PUSH4 0xF2FDE38B EQ PUSH2 0xBA JUMPI PUSH1 0x0 DUP1 REVERT JUMPDEST CALLVALUE PUSH2 0x146 JUMPI PUSH1 0x20 CALLDATASIZE PUSH1 0x3 NOT ADD SLT PUSH2 0x146 JUMPI PUSH1 0x1 PUSH1 0x1 PUSH1 0xA0 SHL SUB DUP3 CALLDATALOAD DUP2 DUP2 AND SWAP4 SWAP2 SWAP3 SWAP1 DUP5 SWAP1 SUB PUSH2 0x142 JUMPI PUSH2 0xEB PUSH2 0x1065 JUMP JUMPDEST DUP4 ISZERO PUSH2 0x12C JUMPI POP POP DUP3 SLOAD PUSH1 0x1 PUSH1 0x1 PUSH1 0xA0 SHL SUB NOT DUP2 AND DUP4 OR DUP5 SSTORE AND PUSH32 0x8BE0079C531659141344CD1FD0A4F28419497F9722A3DAAFE3B4186F6B6457E0 DUP4 DUP1 LOG3 DUP1 RETURN JUMPDEST MLOAD PUSH4 0x1E4FBDF7 PUSH1 0xE0 SHL DUP2 MSTORE SWAP1 DUP2 ADD DUP5 SWAP1 MSTORE PUSH1 0x24 SWAP1 REVERT JUMPDEST DUP5 DUP1 REVERT JUMPDEST DUP3 DUP1 REVERT JUMPDEST POP CALLVALUE PUSH2 0x146 JUMPI PUSH1 0x80 CALLDATASIZE PUSH1 0x3 NOT ADD SLT PUSH2 0x146 JUMPI DUP2 CALLDATALOAD PUSH8 0xFFFFFFFFFFFFFFFF DUP2 GT PUSH2 0x313 JUMPI PUSH2 0x17A SWAP1 CALLDATASIZE SWAP1 DUP5 ADD PUSH2 0xF7B JUMP JUMPDEST PUSH1 0x24 CALLDATALOAD SWAP3 PUSH1 0x1 PUSH1 0x1 PUSH1 0xA0 SHL SUB SWAP2 PUSH1 0x44 CALLDATALOAD SWAP2 DUP4 DUP4 AND SWAP1 DUP2 DUP5 SUB PUSH2 0x30F JUMPI PUSH1 0x64 CALLDATALOAD SWAP5 DUP7 MLOAD PUSH1 0x20 DUP2 PUSH2 0x1A9 DUP2 DUP9 PUSH2 0x1009 JUMP JUMPDEST PUSH1 0x2 DUP2 MSTORE SUB ADD SWAP1 KECCAK256 SWAP1 PUSH1 0x1 DUP3 ADD SLOAD ISZERO PUSH2 0x2FF JUMPI PUSH1 0xFF PUSH1 0x3 DUP4 ADD SLOAD AND PUSH2 0x2EF JUMPI DUP1 DUP3 SLOAD AND CALLER EQ ISZERO SWAP1 DUP2 PUSH2 0x2E1 JUMPI JUMPDEST POP PUSH2 0x2D2 JUMPI DUP3 ISZERO PUSH2 0x2C3 JUMPI DUP6 ISZERO PUSH2 0x2B4 JUMPI DUP2 ADD SLOAD DUP8 LT ISZERO PUSH2 0x2A6 JUMPI PUSH32 0xA30A18CCB0C5BBEC88B6BB9C18AEE3D57CB5543E76EAC5E101AF726D2DD0AE76 SWAP5 SWAP4 SWAP3 PUSH2 0x2A0 SWAP3 PUSH2 0x27C SWAP3 PUSH1 0x20 DUP10 MLOAD DUP1 SWAP3 PUSH2 0x22D DUP3 DUP8 PUSH2 0x1009 JUMP JUMPDEST SWAP1 DUP2 MSTORE SUB ADD SWAP1 KECCAK256 DUP10 DUP12 MSTORE PUSH1 0x20 MSTORE DUP8 DUP11 KECCAK256 SWAP1 PUSH1 0x1 PUSH1 0x1 PUSH1 0x60 SHL SUB PUSH1 0xA0 SHL DUP3 SLOAD AND OR SWAP1 SSTORE DUP7 MLOAD PUSH1 0x20 DUP2 PUSH2 0x25E DUP2 DUP6 PUSH2 0x1009 JUMP JUMPDEST PUSH1 0x3 DUP2 MSTORE SUB ADD SWAP1 KECCAK256 DUP9 DUP11 MSTORE PUSH1 0x20 MSTORE DUP5 DUP8 DUP11 KECCAK256 SSTORE DUP7 MLOAD SWAP2 DUP3 DUP1 SWAP3 PUSH2 0x1009 JUMP JUMPDEST SUB SWAP1 KECCAK256 SWAP5 MLOAD PUSH1 0x1 PUSH1 0x1 PUSH1 0xA0 SHL SUB SWAP1 SWAP3 AND DUP3 MSTORE PUSH1 0x20 DUP3 ADD SWAP3 SWAP1 SWAP3 MSTORE SWAP1 DUP2 SWAP1 PUSH1 0x40 DUP3 ADD SWAP1 JUMP JUMPDEST SUB SWAP1 LOG3 DUP1 RETURN JUMPDEST DUP6 MLOAD PUSH4 0xCFDACC2B PUSH1 0xE0 SHL DUP2 MSTORE REVERT JUMPDEST POP DUP6 MLOAD PUSH4 0x162908E3 PUSH1 0xE1 SHL DUP2 MSTORE REVERT JUMPDEST POP DUP6 MLOAD PUSH4 0x71620C31 PUSH1 0xE0 SHL DUP2 MSTORE REVERT JUMPDEST POP DUP6 MLOAD PUSH4 0x93687C0B PUSH1 0xE0 SHL DUP2 MSTORE REVERT JUMPDEST SWAP1 POP DUP10 SLOAD AND CALLER EQ ISZERO CODESIZE PUSH2 0x1D6 JUMP JUMPDEST DUP8 MLOAD PUSH4 0xCCE553A9 PUSH1 0xE0 SHL DUP2 MSTORE DUP4 SWAP1 REVERT JUMPDEST DUP8 MLOAD PUSH4 0xC35C39F PUSH1 0xE0 SHL DUP2 MSTORE DUP4 SWAP1 REVERT JUMPDEST DUP8 DUP1 REVERT JUMPDEST DUP4 DUP1 REVERT JUMPDEST POP SWAP2 CALLVALUE PUSH2 0x39F JUMPI DUP3 PUSH2 0x39B SWAP2 PUSH2 0x32C CALLDATASIZE PUSH2 0xFD7 JUMP JUMPDEST SWAP1 SWAP5 PUSH1 0x20 DUP5 MLOAD DUP1 SWAP3 PUSH2 0x33E DUP3 DUP11 PUSH2 0x1009 JUMP JUMPDEST SWAP1 DUP2 MSTORE SUB ADD SWAP1 KECCAK256 DUP2 DUP4 MSTORE PUSH1 0x20 MSTORE PUSH2 0x368 PUSH1 0x20 PUSH1 0x1 DUP1 PUSH1 0xA0 SHL SUB DUP6 DUP6 KECCAK256 SLOAD AND SWAP7 DUP6 MLOAD SWAP3 DUP4 DUP1 SWAP3 PUSH2 0x1009 JUMP JUMPDEST PUSH1 0x3 DUP2 MSTORE SUB ADD SWAP1 KECCAK256 SWAP1 DUP3 MSTORE PUSH1 0x20 SWAP1 DUP2 MSTORE SWAP2 SWAP1 KECCAK256 SLOAD SWAP4 MLOAD PUSH1 0x1 PUSH1 0x1 PUSH1 0xA0 SHL SUB SWAP1 SWAP4 AND DUP4 MSTORE DUP3 ADD SWAP3 SWAP1 SWAP3 MSTORE SWAP1 DUP2 SWAP1 PUSH1 0x40 DUP3 ADD SWAP1 JUMP JUMPDEST SUB SWAP1 RETURN JUMPDEST DUP1 REVERT JUMPDEST DUP4 DUP3 CALLVALUE PUSH2 0x3E6 JUMPI DUP2 PUSH1 0x3 NOT CALLDATASIZE ADD SLT PUSH2 0x3E6 JUMPI MLOAD PUSH32 0x0 PUSH1 0x1 PUSH1 0x1 PUSH1 0xA0 SHL SUB AND DUP2 MSTORE PUSH1 0x20 SWAP1 RETURN JUMPDEST POP DUP1 REVERT JUMPDEST POP CALLVALUE PUSH2 0x146 JUMPI PUSH1 0x60 CALLDATASIZE PUSH1 0x3 NOT ADD SLT PUSH2 0x146 JUMPI PUSH8 0xFFFFFFFFFFFFFFFF DUP3 CALLDATALOAD DUP2 DUP2 GT PUSH2 0x142 JUMPI PUSH2 0x41B SWAP1 CALLDATASIZE SWAP1 DUP6 ADD PUSH2 0xF7B JUMP JUMPDEST SWAP1 PUSH1 0x24 CALLDATALOAD DUP2 DUP2 GT PUSH2 0x633 JUMPI PUSH2 0x433 SWAP1 CALLDATASIZE SWAP1 DUP7 ADD PUSH2 0x1034 JUMP JUMPDEST SWAP1 SWAP2 PUSH1 0x44 CALLDATALOAD SWAP1 DUP2 GT PUSH2 0x62F JUMPI PUSH2 0x44C SWAP1 CALLDATASIZE SWAP1 DUP8 ADD PUSH2 0x1034 JUMP JUMPDEST SWAP2 SWAP1 SWAP3 DUP6 MLOAD SWAP7 DUP8 PUSH2 0x45D DUP2 DUP9 PUSH2 0x1009 JUMP JUMPDEST PUSH1 0x2 DUP2 MSTORE PUSH1 0x20 SWAP10 DUP11 SWAP2 SUB ADD SWAP1 KECCAK256 SWAP8 PUSH1 0x1 DUP10 ADD SLOAD ISZERO PUSH2 0x620 JUMPI PUSH1 0x3 SWAP2 PUSH1 0xFF DUP4 DUP12 ADD SLOAD AND PUSH2 0x612 JUMPI DUP10 SLOAD PUSH1 0x1 PUSH1 0x1 PUSH1 0xA0 SHL SUB SWAP11 SWAP1 DUP12 AND CALLER EQ ISZERO DUP1 PUSH2 0x605 JUMPI JUMPDEST PUSH2 0x5F6 JUMPI DUP7 DUP7 SUB PUSH2 0x5D9 JUMPI DUP2 ADD SLOAD DUP6 GT PUSH2 0x5E8 JUMPI DUP11 JUMPDEST DUP6 DUP2 LT PUSH2 0x4BB JUMPI DUP12 DUP1 RETURN JUMPDEST DUP11 PUSH2 0x4CF PUSH2 0x4CA DUP4 DUP10 DUP10 PUSH2 0x10F1 JUMP JUMPDEST PUSH2 0x1117 JUMP JUMPDEST AND ISZERO PUSH2 0x5D9 JUMPI PUSH2 0x4E0 DUP2 DUP9 DUP11 PUSH2 0x10F1 JUMP JUMPDEST CALLDATALOAD ISZERO PUSH2 0x5CA JUMPI DUP1 DUP1 DUP12 PUSH32 0xA30A18CCB0C5BBEC88B6BB9C18AEE3D57CB5543E76EAC5E101AF726D2DD0AE76 DUP16 DUP16 PUSH2 0x5BD DUP16 SWAP3 DUP16 SWAP3 DUP16 SWAP10 DUP16 SWAP11 DUP16 DUP16 DUP16 DUP16 SWAP15 PUSH2 0x5C5 SWAP16 SWAP4 PUSH2 0x4CA SWAP4 DUP15 PUSH2 0x27C SWAP11 DUP6 DUP16 DUP16 SWAP8 PUSH2 0x597 SWAP2 PUSH2 0x58A PUSH2 0x5B0 SWAP16 DUP16 SWAP12 DUP16 SWAP1 PUSH2 0x5AA SWAP16 DUP15 SWAP4 PUSH2 0x553 DUP16 DUP16 PUSH2 0x4CA SWAP2 DUP9 SWAP2 PUSH2 0x10F1 JUMP JUMPDEST SWAP2 DUP9 DUP14 MLOAD DUP1 SWAP3 PUSH2 0x563 DUP3 DUP13 PUSH2 0x1009 JUMP JUMPDEST SWAP1 DUP2 MSTORE SUB ADD SWAP1 KECCAK256 DUP6 DUP13 MSTORE DUP9 MSTORE DUP12 DUP12 KECCAK256 SWAP2 AND PUSH1 0x1 PUSH1 0x1 PUSH1 0x60 SHL SUB PUSH1 0xA0 SHL DUP3 SLOAD AND OR SWAP1 SSTORE PUSH2 0x10F1 JUMP JUMPDEST CALLDATALOAD SWAP7 DUP7 MLOAD SWAP4 DUP5 DUP1 SWAP4 PUSH2 0x1009 JUMP JUMPDEST SWAP1 DUP2 MSTORE SUB ADD SWAP1 KECCAK256 SWAP1 DUP8 DUP4 MSTORE MSTORE KECCAK256 SSTORE PUSH2 0x10F1 JUMP JUMPDEST SWAP6 PUSH2 0x10F1 JUMP JUMPDEST CALLDATALOAD SWAP4 DUP7 MLOAD SWAP2 DUP3 DUP1 SWAP3 PUSH2 0x1009 JUMP JUMPDEST SUB SWAP1 LOG3 PUSH2 0x10CC JUMP JUMPDEST PUSH2 0x4B0 JUMP JUMPDEST POP DUP9 MLOAD PUSH4 0x162908E3 PUSH1 0xE1 SHL DUP2 MSTORE REVERT JUMPDEST POP DUP9 MLOAD PUSH4 0x71620C31 PUSH1 0xE0 SHL DUP2 MSTORE REVERT JUMPDEST DUP9 MLOAD PUSH4 0xCFDACC2B PUSH1 0xE0 SHL DUP2 MSTORE REVERT JUMPDEST POP DUP9 MLOAD PUSH4 0x93687C0B PUSH1 0xE0 SHL DUP2 MSTORE REVERT JUMPDEST POP DUP11 DUP13 SLOAD AND CALLER EQ ISZERO PUSH2 0x49A JUMP JUMPDEST DUP9 MLOAD PUSH4 0xCCE553A9 PUSH1 0xE0 SHL DUP2 MSTORE REVERT JUMPDEST POP DUP7 MLOAD PUSH4 0xC35C39F PUSH1 0xE0 SHL DUP2 MSTORE REVERT JUMPDEST DUP7 DUP1 REVERT JUMPDEST DUP6 DUP1 REVERT JUMPDEST POP DUP3 CALLVALUE PUSH2 0x39F JUMPI PUSH1 0x20 CALLDATASIZE PUSH1 0x3 NOT ADD SLT PUSH2 0x39F JUMPI DUP3 CALLDATALOAD SWAP1 PUSH8 0xFFFFFFFFFFFFFFFF DUP3 GT PUSH2 0x39F JUMPI POP PUSH1 0x80 PUSH2 0x67F PUSH1 0x20 PUSH2 0x674 PUSH2 0x39B SWAP5 CALLDATASIZE SWAP1 DUP9 ADD PUSH2 0xF7B JUMP JUMPDEST DUP6 MLOAD SWAP3 DUP4 DUP1 SWAP3 PUSH2 0x1009 JUMP JUMPDEST PUSH1 0x2 DUP2 MSTORE SUB ADD SWAP1 KECCAK256 DUP4 MLOAD SWAP5 PUSH2 0x693 DUP7 PUSH2 0xF27 JUMP JUMPDEST PUSH1 0x1 DUP1 PUSH1 0xA0 SHL SUB DUP3 SLOAD AND SWAP5 DUP6 DUP8 MSTORE PUSH1 0x1 DUP4 ADD SLOAD SWAP7 DUP8 PUSH1 0x20 DUP3 ADD MSTORE PUSH1 0x2 DUP5 ADD SLOAD SWAP3 DUP4 DUP4 DUP4 ADD MSTORE PUSH1 0xFF PUSH1 0x3 DUP7 ADD SLOAD AND ISZERO ISZERO SWAP5 DUP6 PUSH1 0x60 DUP5 ADD MSTORE ADD SLOAD SWAP5 DUP6 SWAP2 ADD MSTORE MLOAD SWAP6 DUP7 SWAP6 DUP7 SWAP2 SWAP3 PUSH1 0x80 SWAP4 SWAP7 SWAP6 SWAP5 SWAP2 SWAP7 PUSH1 0xA0 DUP5 ADD SWAP8 PUSH1 0x1 DUP1 PUSH1 0xA0 SHL SUB AND DUP5 MSTORE PUSH1 0x20 DUP5 ADD MSTORE PUSH1 0x40 DUP4 ADD MSTORE ISZERO ISZERO PUSH1 0x60 DUP3 ADD MSTORE ADD MSTORE JUMP JUMPDEST POP SWAP1 CALLVALUE PUSH2 0x146 JUMPI PUSH1 0x60 CALLDATASIZE PUSH1 0x3 NOT ADD SLT PUSH2 0x146 JUMPI DUP1 CALLDATALOAD PUSH8 0xFFFFFFFFFFFFFFFF DUP2 GT PUSH2 0x313 JUMPI PUSH2 0x734 SWAP1 CALLDATASIZE SWAP1 DUP4 ADD PUSH2 0xF7B JUMP JUMPDEST SWAP2 PUSH1 0x24 CALLDATALOAD SWAP3 PUSH1 0x44 CALLDATALOAD SWAP1 PUSH2 0x745 PUSH2 0x10A9 JUMP JUMPDEST DUP1 MLOAD ISZERO PUSH2 0x916 JUMPI DUP5 ISZERO PUSH2 0x907 JUMPI DUP2 ISZERO PUSH2 0x8F8 JUMPI DUP3 MLOAD SWAP4 PUSH1 0x1 DUP6 PUSH2 0x768 DUP2 DUP6 PUSH2 0x1009 JUMP JUMPDEST PUSH1 0x2 DUP2 MSTORE PUSH1 0x20 SWAP8 DUP9 SWAP2 SUB ADD SWAP1 KECCAK256 ADD SLOAD PUSH2 0x8EA JUMPI DUP4 MLOAD PUSH4 0x23B872DD PUSH1 0xE0 SHL DUP2 MSTORE CALLER DUP3 DUP3 ADD MSTORE ADDRESS PUSH1 0x24 DUP3 ADD MSTORE PUSH1 0x44 DUP2 ADD DUP8 SWAP1 MSTORE PUSH1 0x1 PUSH1 0x1 PUSH1 0xA0 SHL SUB SWAP2 SWAP1 DUP7 DUP2 PUSH1 0x64 DUP2 DUP13 PUSH32 0x0 DUP9 AND GAS CALL SWAP1 DUP2 ISZERO PUSH2 0x8E0 JUMPI DUP10 SWAP2 PUSH2 0x8B3 JUMPI JUMPDEST POP ISZERO PUSH2 0x8A5 JUMPI SWAP2 PUSH2 0x88F SWAP2 DUP6 SWAP5 SWAP4 PUSH32 0xAD6DC291EA00743D0B29976150F70071F7949128282583416D3BDC94902666A5 SWAP7 MLOAD SWAP2 PUSH2 0x817 DUP4 PUSH2 0xF27 JUMP JUMPDEST CALLER DUP4 MSTORE DUP9 DUP4 ADD DUP11 DUP2 MSTORE DUP8 DUP5 ADD DUP13 DUP2 MSTORE PUSH1 0x60 DUP6 ADD SWAP2 DUP14 DUP4 MSTORE PUSH1 0x80 DUP7 ADD SWAP4 DUP10 DUP6 MSTORE DUP11 MLOAD DUP14 DUP2 PUSH2 0x844 DUP2 DUP13 PUSH2 0x1009 JUMP JUMPDEST PUSH1 0x2 DUP2 MSTORE SUB ADD SWAP1 KECCAK256 SWAP7 MLOAD AND PUSH1 0x1 PUSH1 0x1 PUSH1 0x60 SHL SUB PUSH1 0xA0 SHL DUP8 SLOAD AND OR DUP7 SSTORE MLOAD PUSH1 0x1 DUP7 ADD SSTORE MLOAD PUSH1 0x2 DUP6 ADD SSTORE PUSH1 0x3 DUP5 ADD SWAP1 MLOAD ISZERO ISZERO PUSH1 0xFF DUP1 NOT DUP4 SLOAD AND SWAP2 AND OR SWAP1 SSTORE MLOAD SWAP2 ADD SSTORE DUP4 MLOAD SWAP2 DUP3 DUP1 SWAP3 PUSH2 0x1009 JUMP JUMPDEST SUB SWAP1 KECCAK256 SWAP4 DUP3 MLOAD SWAP6 DUP7 MSTORE DUP6 ADD MSTORE CALLER SWAP4 LOG3 PUSH1 0x1 DUP1 SSTORE DUP1 RETURN JUMPDEST DUP5 MLOAD PUSH4 0x12171D83 PUSH1 0xE3 SHL DUP2 MSTORE REVERT JUMPDEST PUSH2 0x8D3 SWAP2 POP DUP8 RETURNDATASIZE DUP10 GT PUSH2 0x8D9 JUMPI JUMPDEST PUSH2 0x8CB DUP2 DUP4 PUSH2 0xF59 JUMP JUMPDEST DUP2 ADD SWAP1 PUSH2 0x1091 JUMP JUMPDEST CODESIZE PUSH2 0x7DC JUMP JUMPDEST POP RETURNDATASIZE PUSH2 0x8C1 JUMP JUMPDEST DUP7 MLOAD RETURNDATASIZE DUP12 DUP3 RETURNDATACOPY RETURNDATASIZE SWAP1 REVERT JUMPDEST DUP4 MLOAD PUSH4 0xC35C39F PUSH1 0xE0 SHL DUP2 MSTORE REVERT JUMPDEST POP POP MLOAD PUSH4 0xCFDACC2B PUSH1 0xE0 SHL DUP2 MSTORE REVERT JUMPDEST POP POP MLOAD PUSH4 0x162908E3 PUSH1 0xE1 SHL DUP2 MSTORE REVERT JUMPDEST POP POP MLOAD PUSH4 0xC35C39F PUSH1 0xE0 SHL DUP2 MSTORE REVERT JUMPDEST DUP4 DUP3 CALLVALUE PUSH2 0x3E6 JUMPI DUP2 PUSH1 0x3 NOT CALLDATASIZE ADD SLT PUSH2 0x3E6 JUMPI SWAP1 SLOAD SWAP1 MLOAD PUSH1 0x1 PUSH1 0x1 PUSH1 0xA0 SHL SUB SWAP1 SWAP2 AND DUP2 MSTORE PUSH1 0x20 SWAP1 RETURN JUMPDEST POP DUP3 CALLVALUE PUSH2 0x39F JUMPI PUSH1 0x20 CALLDATASIZE PUSH1 0x3 NOT ADD SLT PUSH2 0x39F JUMPI DUP3 CALLDATALOAD SWAP1 PUSH8 0xFFFFFFFFFFFFFFFF DUP3 GT PUSH2 0x39F JUMPI POP PUSH2 0x993 PUSH1 0x20 PUSH2 0x988 PUSH2 0x39B SWAP4 CALLDATASIZE SWAP1 DUP8 ADD PUSH2 0xF7B JUMP JUMPDEST DUP5 MLOAD SWAP3 DUP4 DUP1 SWAP3 PUSH2 0x1009 JUMP JUMPDEST PUSH1 0x2 DUP1 DUP3 MSTORE SWAP2 SWAP1 SUB SWAP2 SWAP1 SWAP2 ADD SWAP1 SWAP2 KECCAK256 DUP1 SLOAD PUSH1 0x1 DUP3 ADD SLOAD SWAP3 DUP3 ADD SLOAD PUSH1 0x3 DUP4 ADD SLOAD SWAP7 SWAP1 SWAP3 ADD SLOAD SWAP5 MLOAD PUSH1 0x1 PUSH1 0x1 PUSH1 0xA0 SHL SUB SWAP1 SWAP2 AND DUP2 MSTORE PUSH1 0x20 DUP2 ADD SWAP3 SWAP1 SWAP3 MSTORE PUSH1 0x40 DUP3 ADD MSTORE PUSH1 0xFF SWAP1 SWAP4 AND ISZERO ISZERO PUSH1 0x60 DUP5 ADD MSTORE PUSH1 0x80 DUP4 ADD SWAP2 SWAP1 SWAP2 MSTORE DUP2 SWAP1 PUSH1 0xA0 DUP3 ADD SWAP1 JUMP JUMPDEST DUP4 CALLVALUE PUSH2 0x39F JUMPI DUP1 PUSH1 0x3 NOT CALLDATASIZE ADD SLT PUSH2 0x39F JUMPI PUSH2 0xA09 PUSH2 0x1065 JUMP JUMPDEST DUP1 SLOAD PUSH1 0x1 PUSH1 0x1 PUSH1 0xA0 SHL SUB NOT DUP2 AND DUP3 SSTORE DUP2 SWAP1 PUSH1 0x1 PUSH1 0x1 PUSH1 0xA0 SHL SUB AND PUSH32 0x8BE0079C531659141344CD1FD0A4F28419497F9722A3DAAFE3B4186F6B6457E0 DUP3 DUP1 LOG3 DUP1 RETURN JUMPDEST POP CALLVALUE PUSH2 0x146 JUMPI PUSH1 0x20 DUP1 PUSH1 0x3 NOT CALLDATASIZE ADD SLT PUSH2 0x313 JUMPI DUP3 CALLDATALOAD PUSH8 0xFFFFFFFFFFFFFFFF DUP2 GT PUSH2 0x142 JUMPI PUSH2 0xA7B SWAP1 CALLDATASIZE SWAP1 DUP6 ADD PUSH2 0xF7B JUMP JUMPDEST PUSH2 0xA83 PUSH2 0x10A9 JUMP JUMPDEST DUP3 MLOAD SWAP1 PUSH2 0xA90 DUP3 DUP3 PUSH2 0x1009 JUMP JUMPDEST SWAP2 DUP4 DUP2 PUSH1 0x2 SWAP5 DUP6 DUP2 MSTORE SUB ADD SWAP1 KECCAK256 SWAP2 PUSH1 0x1 SWAP6 DUP7 DUP5 ADD SLOAD ISZERO PUSH2 0xCFF JUMPI PUSH1 0x3 DUP1 DUP6 ADD SWAP3 PUSH1 0xFF DUP5 SLOAD AND PUSH2 0x2EF JUMPI DUP6 SLOAD PUSH1 0x1 PUSH1 0x1 PUSH1 0xA0 SHL SUB SWAP2 SWAP1 DUP3 AND CALLER EQ ISZERO DUP1 PUSH2 0xCF2 JUMPI JUMPDEST PUSH2 0xCE2 JUMPI DUP11 SWAP7 DUP11 SWAP5 DUP2 DUP2 ADD DUP10 DUP13 DUP2 DUP10 JUMPDEST PUSH2 0xB34 JUMPI JUMPDEST SWAP2 POP DUP9 SWAP1 PUSH32 0xFBE20D48EE227D448FD096B7447A23B0019D6280DA4CBC77DEDB9B10E3B0EF1D DUP15 DUP15 PUSH2 0xB26 DUP16 DUP16 DUP8 PUSH1 0xFF NOT DUP3 SLOAD AND OR SWAP1 SSTORE DUP6 MLOAD SWAP2 DUP3 DUP1 SWAP3 PUSH2 0x1009 JUMP JUMPDEST SUB SWAP1 KECCAK256 SWAP4 MLOAD SWAP1 DUP2 MSTORE LOG2 DUP1 SSTORE DUP1 RETURN JUMPDEST DUP4 SLOAD DUP4 LT ISZERO PUSH2 0xCDD JUMPI SWAP1 DUP12 SWAP2 DUP15 DUP3 MLOAD DUP2 DUP2 PUSH2 0xB4F DUP2 DUP9 PUSH2 0x1009 JUMP JUMPDEST DUP11 DUP2 MSTORE SUB ADD SWAP1 KECCAK256 DUP6 DUP4 MSTORE DUP2 MSTORE PUSH2 0xB72 DUP2 DUP12 DUP6 DUP6 KECCAK256 SLOAD AND SWAP6 DUP14 DUP7 MLOAD SWAP4 DUP5 DUP1 SWAP4 PUSH2 0x1009 JUMP JUMPDEST SWAP1 DUP2 MSTORE SUB ADD SWAP1 KECCAK256 DUP6 DUP4 MSTORE DUP2 MSTORE DUP3 DUP3 KECCAK256 SLOAD SWAP3 DUP5 ISZERO ISZERO DUP1 PUSH2 0xCD4 JUMPI JUMPDEST PUSH2 0xBA7 JUMPI JUMPDEST POP POP POP POP POP PUSH2 0xB9F SWAP1 PUSH2 0x10CC JUMP JUMPDEST DUP13 DUP16 DUP10 PUSH2 0xAE0 JUMP JUMPDEST DUP8 SWAP10 SWAP12 SWAP14 SWAP15 SWAP16 SWAP5 SWAP7 SWAP9 SWAP11 DUP1 SWAP14 POP DUP8 DUP5 DUP7 SWAP9 SWAP11 PUSH2 0xBED SWAP7 SWAP8 SWAP5 MLOAD SWAP7 DUP8 SWAP6 DUP7 SWAP5 DUP6 SWAP4 PUSH4 0xA9059CBB PUSH1 0xE0 SHL DUP6 MSTORE DUP5 ADD PUSH1 0x20 SWAP1 SWAP4 SWAP3 SWAP2 SWAP4 PUSH1 0x40 DUP2 ADD SWAP5 PUSH1 0x1 DUP1 PUSH1 0xA0 SHL SUB AND DUP2 MSTORE ADD MSTORE JUMP JUMPDEST SUB SWAP3 PUSH32 0x0 AND GAS CALL SWAP2 DUP3 ISZERO PUSH2 0xCC7 JUMPI DUP16 SWAP1 SWAP3 PUSH2 0xCAA JUMPI JUMPDEST POP POP ISZERO PUSH2 0xC9A JUMPI SWAP2 DUP14 DUP16 SWAP10 SWAP8 SWAP6 SWAP4 SWAP3 PUSH2 0xC43 DUP16 SWAP15 SWAP14 SWAP13 SWAP11 SWAP9 SWAP7 SWAP5 DUP3 SWAP1 PUSH2 0x112B JUMP JUMPDEST SWAP14 DUP9 DUP9 ADD DUP3 DUP2 SLOAD SWAP1 PUSH2 0xC54 SWAP2 PUSH2 0x112B JUMP JUMPDEST SWAP1 SSTORE DUP14 DUP4 MLOAD PUSH2 0xC64 DUP2 DUP1 SWAP4 PUSH2 0x1009 JUMP JUMPDEST SUB SWAP1 KECCAK256 SWAP3 MLOAD SWAP2 DUP3 MSTORE PUSH32 0x8B66ABC81EB9E4B88ACACAFCC6D75ECE18E30943C5AC9D9FD331DDB42EAFFE3C SWAP2 LOG3 CODESIZE DUP16 DUP1 DUP16 DUP16 SWAP1 PUSH2 0xB91 JUMP JUMPDEST DUP14 MLOAD PUSH4 0x12171D83 PUSH1 0xE3 SHL DUP2 MSTORE DUP7 SWAP1 REVERT JUMPDEST PUSH2 0xCC0 SWAP3 POP DUP1 RETURNDATASIZE LT PUSH2 0x8D9 JUMPI PUSH2 0x8CB DUP2 DUP4 PUSH2 0xF59 JUMP JUMPDEST CODESIZE DUP15 PUSH2 0xC22 JUMP JUMPDEST SWAP1 POP DUP16 MLOAD SWAP1 RETURNDATASIZE SWAP1 DUP3 RETURNDATACOPY RETURNDATASIZE SWAP1 REVERT JUMPDEST POP DUP4 ISZERO ISZERO PUSH2 0xB8C JUMP JUMPDEST PUSH2 0xAE5 JUMP JUMPDEST DUP9 MLOAD PUSH4 0x93687C0B PUSH1 0xE0 SHL DUP2 MSTORE DUP5 SWAP1 REVERT JUMPDEST POP DUP2 DUP12 SLOAD AND CALLER EQ ISZERO PUSH2 0xAD0 JUMP JUMPDEST DUP6 MLOAD PUSH4 0xC35C39F PUSH1 0xE0 SHL DUP2 MSTORE REVERT JUMPDEST POP CALLVALUE PUSH2 0x146 JUMPI PUSH1 0x20 DUP1 PUSH1 0x3 NOT CALLDATASIZE ADD SLT PUSH2 0x313 JUMPI DUP3 CALLDATALOAD PUSH8 0xFFFFFFFFFFFFFFFF DUP2 GT PUSH2 0x142 JUMPI PUSH2 0xD3E SWAP1 CALLDATASIZE SWAP1 DUP6 ADD PUSH2 0xF7B JUMP JUMPDEST SWAP3 PUSH2 0xD47 PUSH2 0x10A9 JUMP JUMPDEST DUP3 MLOAD DUP3 DUP2 PUSH2 0xD55 DUP2 DUP9 PUSH2 0x1009 JUMP JUMPDEST PUSH1 0x2 DUP2 MSTORE SUB ADD SWAP1 KECCAK256 PUSH1 0x1 DUP2 ADD SWAP1 DUP2 SLOAD SWAP3 DUP4 ISZERO PUSH2 0xCFF JUMPI PUSH1 0xFF PUSH1 0x3 DUP4 ADD SLOAD AND PUSH2 0xE99 JUMPI DUP2 SLOAD PUSH1 0x1 PUSH1 0x1 PUSH1 0xA0 SHL SUB SWAP4 SWAP1 DUP5 AND SWAP1 CALLER DUP3 EQ ISZERO DUP1 PUSH2 0xE8C JUMPI JUMPDEST PUSH2 0xE7C JUMPI DUP10 SWAP1 SSTORE DUP7 MLOAD PUSH4 0xA9059CBB PUSH1 0xE0 SHL DUP2 MSTORE PUSH1 0x1 PUSH1 0x1 PUSH1 0xA0 SHL SUB SWAP1 SWAP2 AND DUP3 DUP3 ADD SWAP1 DUP2 MSTORE PUSH1 0x20 DUP2 ADD DUP7 SWAP1 MSTORE DUP7 SWAP1 DUP3 SWAP1 DUP2 SWAP1 PUSH1 0x40 ADD SUB DUP2 DUP13 DUP9 PUSH32 0x0 AND GAS CALL SWAP1 DUP2 ISZERO PUSH2 0xE72 JUMPI DUP10 SWAP2 PUSH2 0xE55 JUMPI JUMPDEST POP ISZERO PUSH2 0xE47 JUMPI POP PUSH32 0x63927611F26314A3A601A2FBE97932047C942B0AED992E1464C7DE624C878D87 SWAP4 SWAP3 SWAP2 PUSH2 0xE37 SWAP2 SLOAD AND SWAP6 DUP6 MLOAD SWAP2 DUP3 DUP1 SWAP3 PUSH2 0x1009 JUMP JUMPDEST SUB SWAP1 KECCAK256 SWAP4 MLOAD SWAP1 DUP2 MSTORE LOG3 PUSH1 0x1 DUP1 SSTORE DUP1 RETURN JUMPDEST DUP6 MLOAD PUSH4 0x12171D83 PUSH1 0xE3 SHL DUP2 MSTORE REVERT JUMPDEST PUSH2 0xE6C SWAP2 POP DUP7 RETURNDATASIZE DUP9 GT PUSH2 0x8D9 JUMPI PUSH2 0x8CB DUP2 DUP4 PUSH2 0xF59 JUMP JUMPDEST CODESIZE PUSH2 0xDFA JUMP JUMPDEST DUP8 MLOAD RETURNDATASIZE DUP12 DUP3 RETURNDATACOPY RETURNDATASIZE SWAP1 REVERT JUMPDEST DUP8 MLOAD PUSH4 0x93687C0B PUSH1 0xE0 SHL DUP2 MSTORE DUP4 SWAP1 REVERT JUMPDEST POP DUP5 DUP11 SLOAD AND CALLER EQ ISZERO PUSH2 0xD90 JUMP JUMPDEST DUP6 MLOAD PUSH4 0xCCE553A9 PUSH1 0xE0 SHL DUP2 MSTORE REVERT JUMPDEST POP SWAP1 CALLVALUE PUSH2 0x146 JUMPI SWAP2 PUSH1 0x20 SWAP3 PUSH2 0xECB DUP5 PUSH2 0xEBF CALLDATASIZE PUSH2 0xFD7 JUMP JUMPDEST SWAP4 DUP7 MLOAD SWAP4 DUP5 DUP1 SWAP4 PUSH2 0x1009 JUMP JUMPDEST SWAP1 DUP2 MSTORE SUB ADD SWAP1 KECCAK256 SWAP1 DUP3 MSTORE DUP4 MSTORE DUP2 SWAP1 KECCAK256 SLOAD SWAP1 MLOAD PUSH1 0x1 PUSH1 0x1 PUSH1 0xA0 SHL SUB SWAP1 SWAP2 AND DUP2 MSTORE RETURN JUMPDEST DUP4 DUP3 CALLVALUE PUSH2 0x3E6 JUMPI DUP1 PUSH1 0x20 SWAP3 DUP4 PUSH2 0xF11 PUSH2 0xF04 CALLDATASIZE PUSH2 0xFD7 JUMP JUMPDEST SWAP3 SWAP1 DUP6 MLOAD SWAP3 DUP4 DUP1 SWAP3 PUSH2 0x1009 JUMP JUMPDEST PUSH1 0x3 DUP2 MSTORE SUB ADD SWAP1 KECCAK256 SWAP1 DUP3 MSTORE DUP5 MSTORE KECCAK256 SLOAD SWAP1 MLOAD SWAP1 DUP2 MSTORE RETURN JUMPDEST PUSH1 0xA0 DUP2 ADD SWAP1 DUP2 LT PUSH8 0xFFFFFFFFFFFFFFFF DUP3 GT OR PUSH2 0xF43 JUMPI PUSH1 0x40 MSTORE JUMP JUMPDEST PUSH4 0x4E487B71 PUSH1 0xE0 SHL PUSH1 0x0 MSTORE PUSH1 0x41 PUSH1 0x4 MSTORE PUSH1 0x24 PUSH1 0x0 REVERT JUMPDEST SWAP1 PUSH1 0x1F DUP1 NOT SWAP2 ADD AND DUP2 ADD SWAP1 DUP2 LT PUSH8 0xFFFFFFFFFFFFFFFF DUP3 GT OR PUSH2 0xF43 JUMPI PUSH1 0x40 MSTORE JUMP JUMPDEST DUP2 PUSH1 0x1F DUP3 ADD SLT ISZERO PUSH2 0xFD2 JUMPI DUP1 CALLDATALOAD SWAP1 PUSH8 0xFFFFFFFFFFFFFFFF DUP3 GT PUSH2 0xF43 JUMPI PUSH1 0x40 MLOAD SWAP3 PUSH2 0xFB0 PUSH1 0x1F DUP5 ADD PUSH1 0x1F NOT AND PUSH1 0x20 ADD DUP6 PUSH2 0xF59 JUMP JUMPDEST DUP3 DUP5 MSTORE PUSH1 0x20 DUP4 DUP4 ADD ADD GT PUSH2 0xFD2 JUMPI DUP2 PUSH1 0x0 SWAP3 PUSH1 0x20 DUP1 SWAP4 ADD DUP4 DUP7 ADD CALLDATACOPY DUP4 ADD ADD MSTORE SWAP1 JUMP JUMPDEST PUSH1 0x0 DUP1 REVERT JUMPDEST PUSH1 0x40 PUSH1 0x3 NOT DUP3 ADD SLT PUSH2 0xFD2 JUMPI PUSH1 0x4 CALLDATALOAD SWAP1 PUSH8 0xFFFFFFFFFFFFFFFF DUP3 GT PUSH2 0xFD2 JUMPI PUSH2 0x1002 SWAP2 PUSH1 0x4 ADD PUSH2 0xF7B JUMP JUMPDEST SWAP1 PUSH1 0x24 CALLDATALOAD SWAP1 JUMP JUMPDEST SWAP1 DUP2 MLOAD SWAP2 PUSH1 0x0 JUMPDEST DUP4 DUP2 LT PUSH2 0x1021 JUMPI POP POP ADD PUSH1 0x0 DUP2 MSTORE SWAP1 JUMP JUMPDEST DUP1 PUSH1 0x20 DUP1 SWAP3 DUP5 ADD ADD MLOAD DUP2 DUP6 ADD MSTORE ADD PUSH2 0x1010 JUMP JUMPDEST SWAP2 DUP2 PUSH1 0x1F DUP5 ADD SLT ISZERO PUSH2 0xFD2 JUMPI DUP3 CALLDATALOAD SWAP2 PUSH8 0xFFFFFFFFFFFFFFFF DUP4 GT PUSH2 0xFD2 JUMPI PUSH1 0x20 DUP1 DUP6 ADD SWAP5 DUP5 PUSH1 0x5 SHL ADD ADD GT PUSH2 0xFD2 JUMPI JUMP JUMPDEST PUSH1 0x0 SLOAD PUSH1 0x1 PUSH1 0x1 PUSH1 0xA0 SHL SUB AND CALLER SUB PUSH2 0x1079 JUMPI JUMP JUMPDEST PUSH1 0x40 MLOAD PUSH4 0x118CDAA7 PUSH1 0xE0 SHL DUP2 MSTORE CALLER PUSH1 0x4 DUP3 ADD MSTORE PUSH1 0x24 SWAP1 REVERT JUMPDEST SWAP1 DUP2 PUSH1 0x20 SWAP2 SUB SLT PUSH2 0xFD2 JUMPI MLOAD DUP1 ISZERO ISZERO DUP2 SUB PUSH2 0xFD2 JUMPI SWAP1 JUMP JUMPDEST PUSH1 0x2 PUSH1 0x1 SLOAD EQ PUSH2 0x10BA JUMPI PUSH1 0x2 PUSH1 0x1 SSTORE JUMP JUMPDEST PUSH1 0x40 MLOAD PUSH4 0x3EE5AEB5 PUSH1 0xE0 SHL DUP2 MSTORE PUSH1 0x4 SWAP1 REVERT JUMPDEST PUSH1 0x0 NOT DUP2 EQ PUSH2 0x10DB JUMPI PUSH1 0x1 ADD SWAP1 JUMP JUMPDEST PUSH4 0x4E487B71 PUSH1 0xE0 SHL PUSH1 0x0 MSTORE PUSH1 0x11 PUSH1 0x4 MSTORE PUSH1 0x24 PUSH1 0x0 REVERT JUMPDEST SWAP2 SWAP1 DUP2 LT ISZERO PUSH2 0x1101 JUMPI PUSH1 0x5 SHL ADD SWAP1 JUMP JUMPDEST PUSH4 0x4E487B71 PUSH1 0xE0 SHL PUSH1 0x0 MSTORE PUSH1 0x32 PUSH1 0x4 MSTORE PUSH1 0x24 PUSH1 0x0 REVERT JUMPDEST CALLDATALOAD PUSH1 0x1 PUSH1 0x1 PUSH1 0xA0 SHL SUB DUP2 AND DUP2 SUB PUSH2 0xFD2 JUMPI SWAP1 JUMP JUMPDEST SWAP2 SWAP1 DUP3 ADD DUP1 SWAP3 GT PUSH2 0x10DB JUMPI JUMP INVALID LOG2 PUSH5 0x6970667358 0x22 SLT KECCAK256 SLOAD 0x5C 0xD1 PUSH13 0x4C750177ACDD47E4B8E5E23F72 MSTORE PUSH0 POP 0x5C ADD PUSH16 0xEEE45C30755775502F64736F6C634300 ADDMOD EQ STOP CALLER "},"methodIdentifiers":{"deposit(string,uint256,uint256)":"a7829ffa","distributeRewards(string)":"7082028f","getQuestDeposit(string)":"b221deee","getWinner(string,uint256)":"e38cf509","owner()":"8da5cb5b","questDeposits(string)":"7eda8c8e","refundDeposit(string)":"69524d31","renounceOwnership()":"715018a6","setWinner(string,uint256,address,uint256)":"f0fb1473","setWinners(string,address[],uint256[])":"cca7c95d","transferOwnership(address)":"f2fde38b","trustToken()":"d13deb2f","winnerAmounts(string,uint256)":"08371f1f","winners(string,uint256)":"11066718"}}}}}