{"contracts/QuestClaimSurcharge.sol":{"QuestClaimSurcharge":{"abi":[{"inputs":[{"internalType":"address","name":"_trustToken","type":"address"},{"internalType":"address","name":"_revenueWallet","type":"address"},{"internalType":"address","name":"_stakingRelayer","type":"address"}],"stateMutability":"nonpayable","type":"constructor"},{"inputs":[{"internalType":"uint256","name":"questId","type":"uint256"},{"internalType":"address","name":"user","type":"address"}],"name":"AlreadyClaimed","type":"error"},{"inputs":[{"internalType":"address","name":"user","type":"address"},{"internalType":"uint256","name":"required","type":"uint256"},{"internalType":"uint256","name":"allowed","type":"uint256"}],"name":"InsufficientAllowance","type":"error"},{"inputs":[{"internalType":"address","name":"user","type":"address"},{"internalType":"uint256","name":"required","type":"uint256"},{"internalType":"uint256","name":"available","type":"uint256"}],"name":"InsufficientBalance","type":"error"},{"inputs":[],"name":"InvalidAddress","type":"error"},{"inputs":[{"internalType":"address","name":"owner","type":"address"}],"name":"OwnableInvalidOwner","type":"error"},{"inputs":[{"internalType":"address","name":"account","type":"address"}],"name":"OwnableUnauthorizedAccount","type":"error"},{"inputs":[],"name":"ReentrancyGuardReentrantCall","type":"error"},{"inputs":[],"name":"TransferFailed","type":"error"},{"anonymous":false,"inputs":[{"indexed":true,"internalType":"uint256","name":"questId","type":"uint256"},{"indexed":true,"internalType":"address","name":"user","type":"address"}],"name":"Claimed","type":"event"},{"anonymous":false,"inputs":[{"indexed":true,"internalType":"uint256","name":"questId","type":"uint256"},{"indexed":true,"internalType":"address","name":"user","type":"address"},{"indexed":false,"internalType":"uint256","name":"amount","type":"uint256"}],"name":"ForwardedToRelayer","type":"event"},{"anonymous":false,"inputs":[{"indexed":true,"internalType":"address","name":"previousOwner","type":"address"},{"indexed":true,"internalType":"address","name":"newOwner","type":"address"}],"name":"OwnershipTransferred","type":"event"},{"anonymous":false,"inputs":[{"indexed":true,"internalType":"uint256","name":"questId","type":"uint256"},{"indexed":true,"internalType":"address","name":"user","type":"address"},{"indexed":false,"internalType":"uint256","name":"amount","type":"uint256"}],"name":"RevenueSent","type":"event"},{"inputs":[],"name":"REVENUE_SHARE","outputs":[{"internalType":"uint256","name":"","type":"uint256"}],"stateMutability":"view","type":"function"},{"inputs":[],"name":"STAKEHOLDER_SHARE","outputs":[{"internalType":"uint256","name":"","type":"uint256"}],"stateMutability":"view","type":"function"},{"inputs":[],"name":"SURCHARGE_AMOUNT","outputs":[{"internalType":"uint256","name":"","type":"uint256"}],"stateMutability":"view","type":"function"},{"inputs":[{"internalType":"uint256","name":"questId","type":"uint256"}],"name":"claim","outputs":[],"stateMutability":"nonpayable","type":"function"},{"inputs":[],"name":"emergencyWithdraw","outputs":[],"stateMutability":"nonpayable","type":"function"},{"inputs":[{"internalType":"uint256","name":"","type":"uint256"},{"internalType":"address","name":"","type":"address"}],"name":"hasClaimed","outputs":[{"internalType":"bool","name":"","type":"bool"}],"stateMutability":"view","type":"function"},{"inputs":[],"name":"owner","outputs":[{"internalType":"address","name":"","type":"address"}],"stateMutability":"view","type":"function"},{"inputs":[],"name":"renounceOwnership","outputs":[],"stateMutability":"nonpayable","type":"function"},{"inputs":[],"name":"revenueWallet","outputs":[{"internalType":"address","name":"","type":"address"}],"stateMutability":"view","type":"function"},{"inputs":[{"internalType":"address","name":"_newRevenueWallet","type":"address"}],"name":"setRevenueWallet","outputs":[],"stateMutability":"nonpayable","type":"function"},{"inputs":[{"internalType":"address","name":"_newStakingRelayer","type":"address"}],"name":"setStakingRelayer","outputs":[],"stateMutability":"nonpayable","type":"function"},{"inputs":[],"name":"stakingRelayer","outputs":[{"internalType":"address","name":"","type":"address"}],"stateMutability":"view","type":"function"},{"inputs":[{"internalType":"address","name":"newOwner","type":"address"}],"name":"transferOwnership","outputs":[],"stateMutability":"nonpayable","type":"function"},{"inputs":[],"name":"trustToken","outputs":[{"internalType":"contract IERC20","name":"","type":"address"}],"stateMutability":"view","type":"function"}],"evm":{"bytecode":{"linkReferences":{},"object":"60a0346101f157601f610bd938819003918201601f191683019291906001600160401b038411838510176101f65781606092849260409687528339810103126101f15761004b8161020c565b906100638361005c6020840161020c565b920161020c565b33156101d95760008054336001600160a01b03198083168217845587519690956001600160a01b03949093859391908416907f8be0079c531659141344cd1fd0a4f28419497f9722a3daafe3b4186f6b6457e09080a3600180551694851561019757508116918215610153571692831561010f576080528160025416176002556003541617600355516109b8908161022182396080518181816102020152818161039101526105940152f35b845162461bcd60e51b815260206004820152601f60248201527f496e76616c6964207374616b696e672072656c617965722061646472657373006044820152606490fd5b855162461bcd60e51b815260206004820152601e60248201527f496e76616c696420726576656e75652077616c6c6574206164647265737300006044820152606490fd5b62461bcd60e51b815260206004820152601b60248201527f496e76616c696420747275737420746f6b656e206164647265737300000000006044820152606490fd5b8351631e4fbdf760e01b815260006004820152602490fd5b600080fd5b634e487b7160e01b600052604160045260246000fd5b51906001600160a01b03821682036101f15756fe6080604081815260048036101561001557600080fd5b600092833560e01c908163379607f514610533575080633ae4df021461050a57806344478425146104e15780634556949414610492578063715018a614610435578063873f6f9e146103e85780638da5cb5b146103c0578063d13deb2f1461037c578063d75ada6814610359578063d9060c4c14610336578063db2e21bc146101c9578063ec91c0b8146101a2578063f2fde38b1461011c5763fb235f34146100bd57600080fd5b34610118576020366003190112610118576100d66108eb565b6100de610906565b6001600160a01b031691821561010b5750506bffffffffffffffffffffffff60a01b600254161760025580f35b5163e6c4247b60e01b8152fd5b8280fd5b5034610118576020366003190112610118576101366108eb565b9061013f610906565b6001600160a01b0391821692831561018c57505082546001600160a01b0319811683178455167f8be0079c531659141344cd1fd0a4f28419497f9722a3daafe3b4186f6b6457e08380a380f35b51631e4fbdf760e01b8152908101849052602490fd5b5050346101c557816003193601126101c55760209051670de0b6b3a76400008152f35b5080fd5b5090346101185782600319360112610118576101e3610906565b80516370a0823160e01b81523083820152602091906001600160a01b037f00000000000000000000000000000000000000000000000000000000000000008116918481602481865afa90811561032c5787916102fb575b5080610244578680f35b60448592885416888651958694859363a9059cbb60e01b85528b85015260248401525af19081156102f15785916102c4575b5015610283578080808680f35b5162461bcd60e51b815291820152601b60248201527f456d657267656e6379207769746864726177616c206661696c65640000000000604482015260649150fd5b6102e49150833d85116102ea575b6102dc8183610932565b81019061096a565b38610276565b503d6102d2565b82513d87823e3d90fd5b90508481813d8311610325575b6103128183610932565b8101031261032157513861023a565b8680fd5b503d610308565b84513d89823e3d90fd5b5050346101c557816003193601126101c5576020905167058d15e1762800008152f35b5050346101c557816003193601126101c55760209051670853a0d2313c00008152f35b5050346101c557816003193601126101c557517f00000000000000000000000000000000000000000000000000000000000000006001600160a01b03168152602090f35b5050346101c557816003193601126101c557905490516001600160a01b039091168152602090f35b50346101185781600319360112610118576024356001600160a01b03811691908290036104315760209360ff928285933583528652828220908252855220541690519015158152f35b8380fd5b833461048f578060031936011261048f5761044e610906565b80546001600160a01b03198116825581906001600160a01b03167f8be0079c531659141344cd1fd0a4f28419497f9722a3daafe3b4186f6b6457e08280a380f35b80fd5b5034610118576020366003190112610118576104ac6108eb565b6104b4610906565b6001600160a01b031691821561010b5750506bffffffffffffffffffffffff60a01b600354161760035580f35b5050346101c557816003193601126101c55760025490516001600160a01b039091168152602090f35b5050346101c557816003193601126101c55760035490516001600160a01b039091168152602090f35b929190503461043157602090816003193601126108e7578035936002600154146108db57506002600155838552808252828520338652825260ff83862054166108be5782516370a0823160e01b815233828201526024906001600160a01b037f000000000000000000000000000000000000000000000000000000000000000081169185818581865afa90811561080457899161088d575b50670de0b6b3a76400009081811061086b57508651636eb1769f60e11b8152338682015230858201528681604481875afa908115610861578a91610830575b5081811061080e57508651906323b872dd60e01b825233868301523085830152604482015285816064818c875af19081156108045789916107e7575b50156107d75780600254169088875163a9059cbb60e01b9384825287820152878160448167058d15e17628000095868b830152895af19081156107cd578b916107b0575b50156107a05786929160449189519081528a7f231417b109b4cd675d8f05fc51b252c4f83d18ad0886f2d927a02cf1ea6c455c863393a360035416918a89519586948593845289840152670853a0d2313c000080988401525af1908115610796578791610779575b501561076a578351908152847f81c3172c0f9b6b7e968f94f80c271b33291d7e67e81c165591935fccb8b9393c843393a3838552815281842090338552528220600160ff1982541617905533907f6aa3eac93d079e5e100b1029be716caa33586c96aa4baac390669fb5c2a212128380a36001805580f35b5082516312171d8360e31b8152fd5b6107909150843d86116102ea576102dc8183610932565b386106f2565b85513d89823e3d90fd5b87516312171d8360e31b81528690fd5b6107c79150883d8a116102ea576102dc8183610932565b3861068a565b89513d8d823e3d90fd5b85516312171d8360e31b81528490fd5b6107fe9150863d88116102ea576102dc8183610932565b38610646565b87513d8b823e3d90fd5b8751630c95cf2760e11b81523381880152808601929092526044820152606490fd5b90508681813d831161085a575b6108478183610932565b8101031261085657513861060a565b8980fd5b503d61083d565b88513d8c823e3d90fd5b875163db42144d60e01b81523381880152808601929092526044820152606490fd5b90508581813d83116108b7575b6108a48183610932565b810103126108b35751386105cb565b8880fd5b503d61089a565b82516302a4851560e61b8152908101849052336024820152604490fd5b633ee5aeb560e01b8152fd5b8480fd5b600435906001600160a01b038216820361090157565b600080fd5b6000546001600160a01b0316330361091a57565b60405163118cdaa760e01b8152336004820152602490fd5b90601f8019910116810190811067ffffffffffffffff82111761095457604052565b634e487b7160e01b600052604160045260246000fd5b9081602091031261090157518015158103610901579056fea2646970667358221220c5c722a706ab385440e0ee29e6b79af3e628db55c328e419678bafd6b8d486d764736f6c63430008140033","opcodes":"PUSH1 0xA0 CALLVALUE PUSH2 0x1F1 JUMPI PUSH1 0x1F PUSH2 0xBD9 CODESIZE DUP2 SWAP1 SUB SWAP2 DUP3 ADD PUSH1 0x1F NOT AND DUP4 ADD SWAP3 SWAP2 SWAP1 PUSH1 0x1 PUSH1 0x1 PUSH1 0x40 SHL SUB DUP5 GT DUP4 DUP6 LT OR PUSH2 0x1F6 JUMPI DUP2 PUSH1 0x60 SWAP3 DUP5 SWAP3 PUSH1 0x40 SWAP7 DUP8 MSTORE DUP4 CODECOPY DUP2 ADD SUB SLT PUSH2 0x1F1 JUMPI PUSH2 0x4B DUP2 PUSH2 0x20C JUMP JUMPDEST SWAP1 PUSH2 0x63 DUP4 PUSH2 0x5C PUSH1 0x20 DUP5 ADD PUSH2 0x20C JUMP JUMPDEST SWAP3 ADD PUSH2 0x20C JUMP JUMPDEST CALLER ISZERO PUSH2 0x1D9 JUMPI PUSH1 0x0 DUP1 SLOAD CALLER PUSH1 0x1 PUSH1 0x1 PUSH1 0xA0 SHL SUB NOT DUP1 DUP4 AND DUP3 OR DUP5 SSTORE DUP8 MLOAD SWAP7 SWAP1 SWAP6 PUSH1 0x1 PUSH1 0x1 PUSH1 0xA0 SHL SUB SWAP5 SWAP1 SWAP4 DUP6 SWAP4 SWAP2 SWAP1 DUP5 AND SWAP1 PUSH32 0x8BE0079C531659141344CD1FD0A4F28419497F9722A3DAAFE3B4186F6B6457E0 SWAP1 DUP1 LOG3 PUSH1 0x1 DUP1 SSTORE AND SWAP5 DUP6 ISZERO PUSH2 0x197 JUMPI POP DUP2 AND SWAP2 DUP3 ISZERO PUSH2 0x153 JUMPI AND SWAP3 DUP4 ISZERO PUSH2 0x10F JUMPI PUSH1 0x80 MSTORE DUP2 PUSH1 0x2 SLOAD AND OR PUSH1 0x2 SSTORE PUSH1 0x3 SLOAD AND OR PUSH1 0x3 SSTORE MLOAD PUSH2 0x9B8 SWAP1 DUP2 PUSH2 0x221 DUP3 CODECOPY PUSH1 0x80 MLOAD DUP2 DUP2 DUP2 PUSH2 0x202 ADD MSTORE DUP2 DUP2 PUSH2 0x391 ADD MSTORE PUSH2 0x594 ADD MSTORE RETURN JUMPDEST DUP5 MLOAD PUSH3 0x461BCD PUSH1 0xE5 SHL DUP2 MSTORE PUSH1 0x20 PUSH1 0x4 DUP3 ADD MSTORE PUSH1 0x1F PUSH1 0x24 DUP3 ADD MSTORE PUSH32 0x496E76616C6964207374616B696E672072656C61796572206164647265737300 PUSH1 0x44 DUP3 ADD MSTORE PUSH1 0x64 SWAP1 REVERT JUMPDEST DUP6 MLOAD PUSH3 0x461BCD PUSH1 0xE5 SHL DUP2 MSTORE PUSH1 0x20 PUSH1 0x4 DUP3 ADD MSTORE PUSH1 0x1E PUSH1 0x24 DUP3 ADD MSTORE PUSH32 0x496E76616C696420726576656E75652077616C6C657420616464726573730000 PUSH1 0x44 DUP3 ADD MSTORE PUSH1 0x64 SWAP1 REVERT JUMPDEST PUSH3 0x461BCD PUSH1 0xE5 SHL DUP2 MSTORE PUSH1 0x20 PUSH1 0x4 DUP3 ADD MSTORE PUSH1 0x1B PUSH1 0x24 DUP3 ADD MSTORE PUSH32 0x496E76616C696420747275737420746F6B656E20616464726573730000000000 PUSH1 0x44 DUP3 ADD MSTORE PUSH1 0x64 SWAP1 REVERT JUMPDEST DUP4 MLOAD PUSH4 0x1E4FBDF7 PUSH1 0xE0 SHL DUP2 MSTORE PUSH1 0x0 PUSH1 0x4 DUP3 ADD MSTORE PUSH1 0x24 SWAP1 REVERT JUMPDEST PUSH1 0x0 DUP1 REVERT JUMPDEST PUSH4 0x4E487B71 PUSH1 0xE0 SHL PUSH1 0x0 MSTORE PUSH1 0x41 PUSH1 0x4 MSTORE PUSH1 0x24 PUSH1 0x0 REVERT JUMPDEST MLOAD SWAP1 PUSH1 0x1 PUSH1 0x1 PUSH1 0xA0 SHL SUB DUP3 AND DUP3 SUB PUSH2 0x1F1 JUMPI JUMP INVALID PUSH1 0x80 PUSH1 0x40 DUP2 DUP2 MSTORE PUSH1 0x4 DUP1 CALLDATASIZE LT ISZERO PUSH2 0x15 JUMPI PUSH1 0x0 DUP1 REVERT JUMPDEST PUSH1 0x0 SWAP3 DUP4 CALLDATALOAD PUSH1 0xE0 SHR SWAP1 DUP2 PUSH4 0x379607F5 EQ PUSH2 0x533 JUMPI POP DUP1 PUSH4 0x3AE4DF02 EQ PUSH2 0x50A JUMPI DUP1 PUSH4 0x44478425 EQ PUSH2 0x4E1 JUMPI DUP1 PUSH4 0x45569494 EQ PUSH2 0x492 JUMPI DUP1 PUSH4 0x715018A6 EQ PUSH2 0x435 JUMPI DUP1 PUSH4 0x873F6F9E EQ PUSH2 0x3E8 JUMPI DUP1 PUSH4 0x8DA5CB5B EQ PUSH2 0x3C0 JUMPI DUP1 PUSH4 0xD13DEB2F EQ PUSH2 0x37C JUMPI DUP1 PUSH4 0xD75ADA68 EQ PUSH2 0x359 JUMPI DUP1 PUSH4 0xD9060C4C EQ PUSH2 0x336 JUMPI DUP1 PUSH4 0xDB2E21BC EQ PUSH2 0x1C9 JUMPI DUP1 PUSH4 0xEC91C0B8 EQ PUSH2 0x1A2 JUMPI DUP1 PUSH4 0xF2FDE38B EQ PUSH2 0x11C JUMPI PUSH4 0xFB235F34 EQ PUSH2 0xBD JUMPI PUSH1 0x0 DUP1 REVERT JUMPDEST CALLVALUE PUSH2 0x118 JUMPI PUSH1 0x20 CALLDATASIZE PUSH1 0x3 NOT ADD SLT PUSH2 0x118 JUMPI PUSH2 0xD6 PUSH2 0x8EB JUMP JUMPDEST PUSH2 0xDE PUSH2 0x906 JUMP JUMPDEST PUSH1 0x1 PUSH1 0x1 PUSH1 0xA0 SHL SUB AND SWAP2 DUP3 ISZERO PUSH2 0x10B JUMPI POP POP PUSH12 0xFFFFFFFFFFFFFFFFFFFFFFFF PUSH1 0xA0 SHL PUSH1 0x2 SLOAD AND OR PUSH1 0x2 SSTORE DUP1 RETURN JUMPDEST MLOAD PUSH4 0xE6C4247B PUSH1 0xE0 SHL DUP2 MSTORE REVERT JUMPDEST DUP3 DUP1 REVERT JUMPDEST POP CALLVALUE PUSH2 0x118 JUMPI PUSH1 0x20 CALLDATASIZE PUSH1 0x3 NOT ADD SLT PUSH2 0x118 JUMPI PUSH2 0x136 PUSH2 0x8EB JUMP JUMPDEST SWAP1 PUSH2 0x13F PUSH2 0x906 JUMP JUMPDEST PUSH1 0x1 PUSH1 0x1 PUSH1 0xA0 SHL SUB SWAP2 DUP3 AND SWAP3 DUP4 ISZERO PUSH2 0x18C JUMPI POP POP DUP3 SLOAD PUSH1 0x1 PUSH1 0x1 PUSH1 0xA0 SHL SUB NOT DUP2 AND DUP4 OR DUP5 SSTORE AND PUSH32 0x8BE0079C531659141344CD1FD0A4F28419497F9722A3DAAFE3B4186F6B6457E0 DUP4 DUP1 LOG3 DUP1 RETURN JUMPDEST MLOAD PUSH4 0x1E4FBDF7 PUSH1 0xE0 SHL DUP2 MSTORE SWAP1 DUP2 ADD DUP5 SWAP1 MSTORE PUSH1 0x24 SWAP1 REVERT JUMPDEST POP POP CALLVALUE PUSH2 0x1C5 JUMPI DUP2 PUSH1 0x3 NOT CALLDATASIZE ADD SLT PUSH2 0x1C5 JUMPI PUSH1 0x20 SWAP1 MLOAD PUSH8 0xDE0B6B3A7640000 DUP2 MSTORE RETURN JUMPDEST POP DUP1 REVERT JUMPDEST POP SWAP1 CALLVALUE PUSH2 0x118 JUMPI DUP3 PUSH1 0x3 NOT CALLDATASIZE ADD SLT PUSH2 0x118 JUMPI PUSH2 0x1E3 PUSH2 0x906 JUMP JUMPDEST DUP1 MLOAD PUSH4 0x70A08231 PUSH1 0xE0 SHL DUP2 MSTORE ADDRESS DUP4 DUP3 ADD MSTORE PUSH1 0x20 SWAP2 SWAP1 PUSH1 0x1 PUSH1 0x1 PUSH1 0xA0 SHL SUB PUSH32 0x0 DUP2 AND SWAP2 DUP5 DUP2 PUSH1 0x24 DUP2 DUP7 GAS STATICCALL SWAP1 DUP2 ISZERO PUSH2 0x32C JUMPI DUP8 SWAP2 PUSH2 0x2FB JUMPI JUMPDEST POP DUP1 PUSH2 0x244 JUMPI DUP7 DUP1 RETURN JUMPDEST PUSH1 0x44 DUP6 SWAP3 DUP9 SLOAD AND DUP9 DUP7 MLOAD SWAP6 DUP7 SWAP5 DUP6 SWAP4 PUSH4 0xA9059CBB PUSH1 0xE0 SHL DUP6 MSTORE DUP12 DUP6 ADD MSTORE PUSH1 0x24 DUP5 ADD MSTORE GAS CALL SWAP1 DUP2 ISZERO PUSH2 0x2F1 JUMPI DUP6 SWAP2 PUSH2 0x2C4 JUMPI JUMPDEST POP ISZERO PUSH2 0x283 JUMPI DUP1 DUP1 DUP1 DUP7 DUP1 RETURN JUMPDEST MLOAD PUSH3 0x461BCD PUSH1 0xE5 SHL DUP2 MSTORE SWAP2 DUP3 ADD MSTORE PUSH1 0x1B PUSH1 0x24 DUP3 ADD MSTORE PUSH32 0x456D657267656E6379207769746864726177616C206661696C65640000000000 PUSH1 0x44 DUP3 ADD MSTORE PUSH1 0x64 SWAP2 POP REVERT JUMPDEST PUSH2 0x2E4 SWAP2 POP DUP4 RETURNDATASIZE DUP6 GT PUSH2 0x2EA JUMPI JUMPDEST PUSH2 0x2DC DUP2 DUP4 PUSH2 0x932 JUMP JUMPDEST DUP2 ADD SWAP1 PUSH2 0x96A JUMP JUMPDEST CODESIZE PUSH2 0x276 JUMP JUMPDEST POP RETURNDATASIZE PUSH2 0x2D2 JUMP JUMPDEST DUP3 MLOAD RETURNDATASIZE DUP8 DUP3 RETURNDATACOPY RETURNDATASIZE SWAP1 REVERT JUMPDEST SWAP1 POP DUP5 DUP2 DUP2 RETURNDATASIZE DUP4 GT PUSH2 0x325 JUMPI JUMPDEST PUSH2 0x312 DUP2 DUP4 PUSH2 0x932 JUMP JUMPDEST DUP2 ADD SUB SLT PUSH2 0x321 JUMPI MLOAD CODESIZE PUSH2 0x23A JUMP JUMPDEST DUP7 DUP1 REVERT JUMPDEST POP RETURNDATASIZE PUSH2 0x308 JUMP JUMPDEST DUP5 MLOAD RETURNDATASIZE DUP10 DUP3 RETURNDATACOPY RETURNDATASIZE SWAP1 REVERT JUMPDEST POP POP CALLVALUE PUSH2 0x1C5 JUMPI DUP2 PUSH1 0x3 NOT CALLDATASIZE ADD SLT PUSH2 0x1C5 JUMPI PUSH1 0x20 SWAP1 MLOAD PUSH8 0x58D15E176280000 DUP2 MSTORE RETURN JUMPDEST POP POP CALLVALUE PUSH2 0x1C5 JUMPI DUP2 PUSH1 0x3 NOT CALLDATASIZE ADD SLT PUSH2 0x1C5 JUMPI PUSH1 0x20 SWAP1 MLOAD PUSH8 0x853A0D2313C0000 DUP2 MSTORE RETURN JUMPDEST POP POP CALLVALUE PUSH2 0x1C5 JUMPI DUP2 PUSH1 0x3 NOT CALLDATASIZE ADD SLT PUSH2 0x1C5 JUMPI MLOAD PUSH32 0x0 PUSH1 0x1 PUSH1 0x1 PUSH1 0xA0 SHL SUB AND DUP2 MSTORE PUSH1 0x20 SWAP1 RETURN JUMPDEST POP POP CALLVALUE PUSH2 0x1C5 JUMPI DUP2 PUSH1 0x3 NOT CALLDATASIZE ADD SLT PUSH2 0x1C5 JUMPI SWAP1 SLOAD SWAP1 MLOAD PUSH1 0x1 PUSH1 0x1 PUSH1 0xA0 SHL SUB SWAP1 SWAP2 AND DUP2 MSTORE PUSH1 0x20 SWAP1 RETURN JUMPDEST POP CALLVALUE PUSH2 0x118 JUMPI DUP2 PUSH1 0x3 NOT CALLDATASIZE ADD SLT PUSH2 0x118 JUMPI PUSH1 0x24 CALLDATALOAD PUSH1 0x1 PUSH1 0x1 PUSH1 0xA0 SHL SUB DUP2 AND SWAP2 SWAP1 DUP3 SWAP1 SUB PUSH2 0x431 JUMPI PUSH1 0x20 SWAP4 PUSH1 0xFF SWAP3 DUP3 DUP6 SWAP4 CALLDATALOAD DUP4 MSTORE DUP7 MSTORE DUP3 DUP3 KECCAK256 SWAP1 DUP3 MSTORE DUP6 MSTORE KECCAK256 SLOAD AND SWAP1 MLOAD SWAP1 ISZERO ISZERO DUP2 MSTORE RETURN JUMPDEST DUP4 DUP1 REVERT JUMPDEST DUP4 CALLVALUE PUSH2 0x48F JUMPI DUP1 PUSH1 0x3 NOT CALLDATASIZE ADD SLT PUSH2 0x48F JUMPI PUSH2 0x44E PUSH2 0x906 JUMP JUMPDEST DUP1 SLOAD PUSH1 0x1 PUSH1 0x1 PUSH1 0xA0 SHL SUB NOT DUP2 AND DUP3 SSTORE DUP2 SWAP1 PUSH1 0x1 PUSH1 0x1 PUSH1 0xA0 SHL SUB AND PUSH32 0x8BE0079C531659141344CD1FD0A4F28419497F9722A3DAAFE3B4186F6B6457E0 DUP3 DUP1 LOG3 DUP1 RETURN JUMPDEST DUP1 REVERT JUMPDEST POP CALLVALUE PUSH2 0x118 JUMPI PUSH1 0x20 CALLDATASIZE PUSH1 0x3 NOT ADD SLT PUSH2 0x118 JUMPI PUSH2 0x4AC PUSH2 0x8EB JUMP JUMPDEST PUSH2 0x4B4 PUSH2 0x906 JUMP JUMPDEST PUSH1 0x1 PUSH1 0x1 PUSH1 0xA0 SHL SUB AND SWAP2 DUP3 ISZERO PUSH2 0x10B JUMPI POP POP PUSH12 0xFFFFFFFFFFFFFFFFFFFFFFFF PUSH1 0xA0 SHL PUSH1 0x3 SLOAD AND OR PUSH1 0x3 SSTORE DUP1 RETURN JUMPDEST POP POP CALLVALUE PUSH2 0x1C5 JUMPI DUP2 PUSH1 0x3 NOT CALLDATASIZE ADD SLT PUSH2 0x1C5 JUMPI PUSH1 0x2 SLOAD SWAP1 MLOAD PUSH1 0x1 PUSH1 0x1 PUSH1 0xA0 SHL SUB SWAP1 SWAP2 AND DUP2 MSTORE PUSH1 0x20 SWAP1 RETURN JUMPDEST POP POP CALLVALUE PUSH2 0x1C5 JUMPI DUP2 PUSH1 0x3 NOT CALLDATASIZE ADD SLT PUSH2 0x1C5 JUMPI PUSH1 0x3 SLOAD SWAP1 MLOAD PUSH1 0x1 PUSH1 0x1 PUSH1 0xA0 SHL SUB SWAP1 SWAP2 AND DUP2 MSTORE PUSH1 0x20 SWAP1 RETURN JUMPDEST SWAP3 SWAP2 SWAP1 POP CALLVALUE PUSH2 0x431 JUMPI PUSH1 0x20 SWAP1 DUP2 PUSH1 0x3 NOT CALLDATASIZE ADD SLT PUSH2 0x8E7 JUMPI DUP1 CALLDATALOAD SWAP4 PUSH1 0x2 PUSH1 0x1 SLOAD EQ PUSH2 0x8DB JUMPI POP PUSH1 0x2 PUSH1 0x1 SSTORE DUP4 DUP6 MSTORE DUP1 DUP3 MSTORE DUP3 DUP6 KECCAK256 CALLER DUP7 MSTORE DUP3 MSTORE PUSH1 0xFF DUP4 DUP7 KECCAK256 SLOAD AND PUSH2 0x8BE JUMPI DUP3 MLOAD PUSH4 0x70A08231 PUSH1 0xE0 SHL DUP2 MSTORE CALLER DUP3 DUP3 ADD MSTORE PUSH1 0x24 SWAP1 PUSH1 0x1 PUSH1 0x1 PUSH1 0xA0 SHL SUB PUSH32 0x0 DUP2 AND SWAP2 DUP6 DUP2 DUP6 DUP2 DUP7 GAS STATICCALL SWAP1 DUP2 ISZERO PUSH2 0x804 JUMPI DUP10 SWAP2 PUSH2 0x88D JUMPI JUMPDEST POP PUSH8 0xDE0B6B3A7640000 SWAP1 DUP2 DUP2 LT PUSH2 0x86B JUMPI POP DUP7 MLOAD PUSH4 0x6EB1769F PUSH1 0xE1 SHL DUP2 MSTORE CALLER DUP7 DUP3 ADD MSTORE ADDRESS DUP6 DUP3 ADD MSTORE DUP7 DUP2 PUSH1 0x44 DUP2 DUP8 GAS STATICCALL SWAP1 DUP2 ISZERO PUSH2 0x861 JUMPI DUP11 SWAP2 PUSH2 0x830 JUMPI JUMPDEST POP DUP2 DUP2 LT PUSH2 0x80E JUMPI POP DUP7 MLOAD SWAP1 PUSH4 0x23B872DD PUSH1 0xE0 SHL DUP3 MSTORE CALLER DUP7 DUP4 ADD MSTORE ADDRESS DUP6 DUP4 ADD MSTORE PUSH1 0x44 DUP3 ADD MSTORE DUP6 DUP2 PUSH1 0x64 DUP2 DUP13 DUP8 GAS CALL SWAP1 DUP2 ISZERO PUSH2 0x804 JUMPI DUP10 SWAP2 PUSH2 0x7E7 JUMPI JUMPDEST POP ISZERO PUSH2 0x7D7 JUMPI DUP1 PUSH1 0x2 SLOAD AND SWAP1 DUP9 DUP8 MLOAD PUSH4 0xA9059CBB PUSH1 0xE0 SHL SWAP4 DUP5 DUP3 MSTORE DUP8 DUP3 ADD MSTORE DUP8 DUP2 PUSH1 0x44 DUP2 PUSH8 0x58D15E176280000 SWAP6 DUP7 DUP12 DUP4 ADD MSTORE DUP10 GAS CALL SWAP1 DUP2 ISZERO PUSH2 0x7CD JUMPI DUP12 SWAP2 PUSH2 0x7B0 JUMPI JUMPDEST POP ISZERO PUSH2 0x7A0 JUMPI DUP7 SWAP3 SWAP2 PUSH1 0x44 SWAP2 DUP10 MLOAD SWAP1 DUP2 MSTORE DUP11 PUSH32 0x231417B109B4CD675D8F05FC51B252C4F83D18AD0886F2D927A02CF1EA6C455C DUP7 CALLER SWAP4 LOG3 PUSH1 0x3 SLOAD AND SWAP2 DUP11 DUP10 MLOAD SWAP6 DUP7 SWAP5 DUP6 SWAP4 DUP5 MSTORE DUP10 DUP5 ADD MSTORE PUSH8 0x853A0D2313C0000 DUP1 SWAP9 DUP5 ADD MSTORE GAS CALL SWAP1 DUP2 ISZERO PUSH2 0x796 JUMPI DUP8 SWAP2 PUSH2 0x779 JUMPI JUMPDEST POP ISZERO PUSH2 0x76A JUMPI DUP4 MLOAD SWAP1 DUP2 MSTORE DUP5 PUSH32 0x81C3172C0F9B6B7E968F94F80C271B33291D7E67E81C165591935FCCB8B9393C DUP5 CALLER SWAP4 LOG3 DUP4 DUP6 MSTORE DUP2 MSTORE DUP2 DUP5 KECCAK256 SWAP1 CALLER DUP6 MSTORE MSTORE DUP3 KECCAK256 PUSH1 0x1 PUSH1 0xFF NOT DUP3 SLOAD AND OR SWAP1 SSTORE CALLER SWAP1 PUSH32 0x6AA3EAC93D079E5E100B1029BE716CAA33586C96AA4BAAC390669FB5C2A21212 DUP4 DUP1 LOG3 PUSH1 0x1 DUP1 SSTORE DUP1 RETURN JUMPDEST POP DUP3 MLOAD PUSH4 0x12171D83 PUSH1 0xE3 SHL DUP2 MSTORE REVERT JUMPDEST PUSH2 0x790 SWAP2 POP DUP5 RETURNDATASIZE DUP7 GT PUSH2 0x2EA JUMPI PUSH2 0x2DC DUP2 DUP4 PUSH2 0x932 JUMP JUMPDEST CODESIZE PUSH2 0x6F2 JUMP JUMPDEST DUP6 MLOAD RETURNDATASIZE DUP10 DUP3 RETURNDATACOPY RETURNDATASIZE SWAP1 REVERT JUMPDEST DUP8 MLOAD PUSH4 0x12171D83 PUSH1 0xE3 SHL DUP2 MSTORE DUP7 SWAP1 REVERT JUMPDEST PUSH2 0x7C7 SWAP2 POP DUP9 RETURNDATASIZE DUP11 GT PUSH2 0x2EA JUMPI PUSH2 0x2DC DUP2 DUP4 PUSH2 0x932 JUMP JUMPDEST CODESIZE PUSH2 0x68A JUMP JUMPDEST DUP10 MLOAD RETURNDATASIZE DUP14 DUP3 RETURNDATACOPY RETURNDATASIZE SWAP1 REVERT JUMPDEST DUP6 MLOAD PUSH4 0x12171D83 PUSH1 0xE3 SHL DUP2 MSTORE DUP5 SWAP1 REVERT JUMPDEST PUSH2 0x7FE SWAP2 POP DUP7 RETURNDATASIZE DUP9 GT PUSH2 0x2EA JUMPI PUSH2 0x2DC DUP2 DUP4 PUSH2 0x932 JUMP JUMPDEST CODESIZE PUSH2 0x646 JUMP JUMPDEST DUP8 MLOAD RETURNDATASIZE DUP12 DUP3 RETURNDATACOPY RETURNDATASIZE SWAP1 REVERT JUMPDEST DUP8 MLOAD PUSH4 0xC95CF27 PUSH1 0xE1 SHL DUP2 MSTORE CALLER DUP2 DUP9 ADD MSTORE DUP1 DUP7 ADD SWAP3 SWAP1 SWAP3 MSTORE PUSH1 0x44 DUP3 ADD MSTORE PUSH1 0x64 SWAP1 REVERT JUMPDEST SWAP1 POP DUP7 DUP2 DUP2 RETURNDATASIZE DUP4 GT PUSH2 0x85A JUMPI JUMPDEST PUSH2 0x847 DUP2 DUP4 PUSH2 0x932 JUMP JUMPDEST DUP2 ADD SUB SLT PUSH2 0x856 JUMPI MLOAD CODESIZE PUSH2 0x60A JUMP JUMPDEST DUP10 DUP1 REVERT JUMPDEST POP RETURNDATASIZE PUSH2 0x83D JUMP JUMPDEST DUP9 MLOAD RETURNDATASIZE DUP13 DUP3 RETURNDATACOPY RETURNDATASIZE SWAP1 REVERT JUMPDEST DUP8 MLOAD PUSH4 0xDB42144D PUSH1 0xE0 SHL DUP2 MSTORE CALLER DUP2 DUP9 ADD MSTORE DUP1 DUP7 ADD SWAP3 SWAP1 SWAP3 MSTORE PUSH1 0x44 DUP3 ADD MSTORE PUSH1 0x64 SWAP1 REVERT JUMPDEST SWAP1 POP DUP6 DUP2 DUP2 RETURNDATASIZE DUP4 GT PUSH2 0x8B7 JUMPI JUMPDEST PUSH2 0x8A4 DUP2 DUP4 PUSH2 0x932 JUMP JUMPDEST DUP2 ADD SUB SLT PUSH2 0x8B3 JUMPI MLOAD CODESIZE PUSH2 0x5CB JUMP JUMPDEST DUP9 DUP1 REVERT JUMPDEST POP RETURNDATASIZE PUSH2 0x89A JUMP JUMPDEST DUP3 MLOAD PUSH4 0x2A48515 PUSH1 0xE6 SHL DUP2 MSTORE SWAP1 DUP2 ADD DUP5 SWAP1 MSTORE CALLER PUSH1 0x24 DUP3 ADD MSTORE PUSH1 0x44 SWAP1 REVERT JUMPDEST PUSH4 0x3EE5AEB5 PUSH1 0xE0 SHL DUP2 MSTORE REVERT JUMPDEST DUP5 DUP1 REVERT JUMPDEST PUSH1 0x4 CALLDATALOAD SWAP1 PUSH1 0x1 PUSH1 0x1 PUSH1 0xA0 SHL SUB DUP3 AND DUP3 SUB PUSH2 0x901 JUMPI JUMP JUMPDEST PUSH1 0x0 DUP1 REVERT JUMPDEST PUSH1 0x0 SLOAD PUSH1 0x1 PUSH1 0x1 PUSH1 0xA0 SHL SUB AND CALLER SUB PUSH2 0x91A JUMPI JUMP JUMPDEST PUSH1 0x40 MLOAD PUSH4 0x118CDAA7 PUSH1 0xE0 SHL DUP2 MSTORE CALLER PUSH1 0x4 DUP3 ADD MSTORE PUSH1 0x24 SWAP1 REVERT JUMPDEST SWAP1 PUSH1 0x1F DUP1 NOT SWAP2 ADD AND DUP2 ADD SWAP1 DUP2 LT PUSH8 0xFFFFFFFFFFFFFFFF DUP3 GT OR PUSH2 0x954 JUMPI PUSH1 0x40 MSTORE JUMP JUMPDEST PUSH4 0x4E487B71 PUSH1 0xE0 SHL PUSH1 0x0 MSTORE PUSH1 0x41 PUSH1 0x4 MSTORE PUSH1 0x24 PUSH1 0x0 REVERT JUMPDEST SWAP1 DUP2 PUSH1 0x20 SWAP2 SUB SLT PUSH2 0x901 JUMPI MLOAD DUP1 ISZERO ISZERO DUP2 SUB PUSH2 0x901 JUMPI SWAP1 JUMP INVALID LOG2 PUSH5 0x6970667358 0x22 SLT KECCAK256 0xC5 0xC7 0x22 0xA7 MOD 0xAB CODESIZE SLOAD BLOCKHASH 0xE0 0xEE 0x29 0xE6 0xB7 SWAP11 RETURN 0xE6 0x28 0xDB SSTORE 0xC3 0x28 0xE4 NOT PUSH8 0x8BAFD6B8D486D764 PUSH20 0x6F6C634300081400330000000000000000000000 "},"methodIdentifiers":{"REVENUE_SHARE()":"d9060c4c","STAKEHOLDER_SHARE()":"d75ada68","SURCHARGE_AMOUNT()":"ec91c0b8","claim(uint256)":"379607f5","emergencyWithdraw()":"db2e21bc","hasClaimed(uint256,address)":"873f6f9e","owner()":"8da5cb5b","renounceOwnership()":"715018a6","revenueWallet()":"44478425","setRevenueWallet(address)":"fb235f34","setStakingRelayer(address)":"45569494","stakingRelayer()":"3ae4df02","transferOwnership(address)":"f2fde38b","trustToken()":"d13deb2f"}}}}}