{"contracts/QuestEscrow.sol":{"QuestEscrow":{"abi":[{"inputs":[],"stateMutability":"nonpayable","type":"constructor"},{"inputs":[],"name":"AlreadyDistributed","type":"error"},{"inputs":[],"name":"InsufficientBalance","type":"error"},{"inputs":[],"name":"InvalidAmount","type":"error"},{"inputs":[],"name":"InvalidQuestId","type":"error"},{"inputs":[],"name":"InvalidWinnerData","type":"error"},{"inputs":[],"name":"InvalidWinners","type":"error"},{"inputs":[],"name":"NotCreator","type":"error"},{"inputs":[{"internalType":"address","name":"owner","type":"address"}],"name":"OwnableInvalidOwner","type":"error"},{"inputs":[{"internalType":"address","name":"account","type":"address"}],"name":"OwnableUnauthorizedAccount","type":"error"},{"inputs":[],"name":"ReentrancyGuardReentrantCall","type":"error"},{"inputs":[],"name":"TransferFailed","type":"error"},{"anonymous":false,"inputs":[{"indexed":true,"internalType":"string","name":"questId","type":"string"},{"indexed":true,"internalType":"address","name":"creator","type":"address"},{"indexed":false,"internalType":"uint256","name":"amount","type":"uint256"},{"indexed":false,"internalType":"uint256","name":"numberOfWinners","type":"uint256"}],"name":"DepositMade","type":"event"},{"anonymous":false,"inputs":[{"indexed":true,"internalType":"string","name":"questId","type":"string"},{"indexed":true,"internalType":"address","name":"creator","type":"address"},{"indexed":false,"internalType":"uint256","name":"amount","type":"uint256"}],"name":"DepositRefunded","type":"event"},{"anonymous":false,"inputs":[{"indexed":true,"internalType":"address","name":"previousOwner","type":"address"},{"indexed":true,"internalType":"address","name":"newOwner","type":"address"}],"name":"OwnershipTransferred","type":"event"},{"anonymous":false,"inputs":[{"indexed":true,"internalType":"string","name":"questId","type":"string"},{"indexed":false,"internalType":"uint256","name":"totalDistributed","type":"uint256"}],"name":"QuestDistributed","type":"event"},{"anonymous":false,"inputs":[{"indexed":true,"internalType":"string","name":"questId","type":"string"},{"indexed":true,"internalType":"address","name":"winner","type":"address"},{"indexed":false,"internalType":"uint256","name":"amount","type":"uint256"}],"name":"RewardDistributed","type":"event"},{"anonymous":false,"inputs":[{"indexed":true,"internalType":"string","name":"questId","type":"string"},{"indexed":true,"internalType":"uint256","name":"winnerIndex","type":"uint256"},{"indexed":false,"internalType":"address","name":"winner","type":"address"},{"indexed":false,"internalType":"uint256","name":"amount","type":"uint256"}],"name":"WinnerSet","type":"event"},{"inputs":[{"internalType":"string","name":"questId","type":"string"},{"internalType":"uint256","name":"numberOfWinners","type":"uint256"}],"name":"deposit","outputs":[],"stateMutability":"payable","type":"function"},{"inputs":[{"internalType":"string","name":"questId","type":"string"}],"name":"distributeRewards","outputs":[],"stateMutability":"nonpayable","type":"function"},{"inputs":[{"internalType":"string","name":"questId","type":"string"}],"name":"getQuestDeposit","outputs":[{"internalType":"address","name":"creator","type":"address"},{"internalType":"uint256","name":"totalAmount","type":"uint256"},{"internalType":"uint256","name":"distributedAmount","type":"uint256"},{"internalType":"bool","name":"isDistributed","type":"bool"},{"internalType":"uint256","name":"numberOfWinners","type":"uint256"}],"stateMutability":"view","type":"function"},{"inputs":[{"internalType":"string","name":"questId","type":"string"},{"internalType":"uint256","name":"winnerIndex","type":"uint256"}],"name":"getWinner","outputs":[{"internalType":"address","name":"winnerAddress","type":"address"},{"internalType":"uint256","name":"amount","type":"uint256"}],"stateMutability":"view","type":"function"},{"inputs":[],"name":"owner","outputs":[{"internalType":"address","name":"","type":"address"}],"stateMutability":"view","type":"function"},{"inputs":[{"internalType":"string","name":"","type":"string"}],"name":"questDeposits","outputs":[{"internalType":"address","name":"creator","type":"address"},{"internalType":"uint256","name":"totalAmount","type":"uint256"},{"internalType":"uint256","name":"distributedAmount","type":"uint256"},{"internalType":"bool","name":"isDistributed","type":"bool"},{"internalType":"uint256","name":"numberOfWinners","type":"uint256"}],"stateMutability":"view","type":"function"},{"inputs":[{"internalType":"string","name":"questId","type":"string"}],"name":"refundDeposit","outputs":[],"stateMutability":"nonpayable","type":"function"},{"inputs":[],"name":"renounceOwnership","outputs":[],"stateMutability":"nonpayable","type":"function"},{"inputs":[{"internalType":"string","name":"questId","type":"string"},{"internalType":"uint256","name":"winnerIndex","type":"uint256"},{"internalType":"address","name":"winnerAddress","type":"address"},{"internalType":"uint256","name":"amount","type":"uint256"}],"name":"setWinner","outputs":[],"stateMutability":"nonpayable","type":"function"},{"inputs":[{"internalType":"string","name":"questId","type":"string"},{"internalType":"address[]","name":"winnerAddresses","type":"address[]"},{"internalType":"uint256[]","name":"amounts","type":"uint256[]"}],"name":"setWinners","outputs":[],"stateMutability":"nonpayable","type":"function"},{"inputs":[{"internalType":"address","name":"newOwner","type":"address"}],"name":"transferOwnership","outputs":[],"stateMutability":"nonpayable","type":"function"},{"inputs":[{"internalType":"string","name":"","type":"string"},{"internalType":"uint256","name":"","type":"uint256"}],"name":"winnerAmounts","outputs":[{"internalType":"uint256","name":"","type":"uint256"}],"stateMutability":"view","type":"function"},{"inputs":[{"internalType":"string","name":"","type":"string"},{"internalType":"uint256","name":"","type":"uint256"}],"name":"winners","outputs":[{"internalType":"address","name":"","type":"address"}],"stateMutability":"view","type":"function"},{"stateMutability":"payable","type":"receive"}],"evm":{"bytecode":{"linkReferences":{},"object":"6080806040523461007e5733156100685760008054336001600160a01b03198216811783556040519290916001600160a01b0316907f8be0079c531659141344cd1fd0a4f28419497f9722a3daafe3b4186f6b6457e09080a360018055610f2590816100848239f35b631e4fbdf760e01b815260006004820152602490fd5b600080fdfe604060808152600436101561001d575b50361561001b57600080fd5b005b60003560e01c806308371f1f14610c965780631106671814610c4f57806369524d3114610b485780637082028f14610905578063715018a6146108ac5780637eda8c8e1461081a5780638da5cb5b146107f15780638e27d719146106ad578063b221deee146105e9578063cca7c95d14610398578063e38cf50914610317578063f0fb1473146101415763f2fde38b0361000f573461013c57602036600319011261013c576001600160a01b03600435818116929083900361013c576100e1610e0e565b82156101255750600054826001600160601b0360a01b821617600055167f8be0079c531659141344cd1fd0a4f28419497f9722a3daafe3b4186f6b6457e0600080a3005b51631e4fbdf760e01b815260006004820152602490fd5b600080fd5b503461013c57608036600319011261013c5760043567ffffffffffffffff811161013c57610173903690600401610d3e565b60243591906001600160a01b03906044359082821680830361013c576064359385516020816101a28187610db2565b6002815203019020906001820154156103065760ff6003830154166102f5578082541633141590816102e6575b506102d55781156102c45784156102b357600401548610156102a2576102797fa30a18ccb0c5bbec88b6bb9c18aee3d57cb5543e76eac5e101af726d2dd0ae7694939261029d9287516020816102258186610db2565b60048152030190208960005260205287600020906001600160601b0360a01b82541617905586516020816102598185610db2565b600381520301902088600052602052848760002055865191828092610db2565b03902094516001600160a01b03909216825260208201929092529081906040820190565b0390a3005b845163cfdacc2b60e01b8152600490fd5b855163162908e360e11b8152600490fd5b85516371620c3160e01b8152600490fd5b85516393687c0b60e01b8152600490fd5b905060005416331415386101cf565b865163cce553a960e01b8152600490fd5b8651630c35c39f60e01b8152600490fd5b503461013c5761032636610d80565b82516020816103358186610db2565b600481520301902081600052602052610362602060018060a01b0385600020541693855192838092610db2565b600381520301902060009182526020908152908390205492516001600160a01b03929092168252810191909152604090f35b0390f35b503461013c57606036600319011261013c5767ffffffffffffffff60043581811161013c576103cb903690600401610d3e565b60243582811161013c576103e3903690600401610ddd565b909260443590811161013c576103fd903690600401610ddd565b90918551948561040d8187610db2565b60028152602097889103019020956001870154156105d85760039060ff82890154166105c75787546001600160a01b0398908916331415806105b9575b6105a857858503610586576004015484116105975760005b84811061046b57005b8861047f61047a838888610e82565b610ea8565b161561058657610490818789610e82565b35156105755780808b7fa30a18ccb0c5bbec88b6bb9c18aee3d57cb5543e76eac5e101af726d2dd0ae768b8b6105688f61055b878f8f8f8f9d8f926105709f9261047a938e8661053f8f988f996105326102799f8d6105559d8c926104f961047a858f8f610e82565b908a518881610508818b610db2565b60048152030190208560005288528a60002091166001600160601b0360a01b825416179055610e82565b3595855193848093610db2565b9081520301902090866000525260002055610e82565b95610e82565b3593865191828092610db2565b0390a3610e5d565b610462565b895163162908e360e11b8152600490fd5b89516371620c3160e01b8152600490fd5b885163cfdacc2b60e01b8152600490fd5b89516393687c0b60e01b8152600490fd5b50886000541633141561044a565b885163cce553a960e01b8152600490fd5b8751630c35c39f60e01b8152600490fd5b503461013c57602036600319011261013c5760043567ffffffffffffffff811161013c57602061062061062b923690600401610d3e565b835192838092610db2565b60028152030190206103946080610640610cc6565b83546001600160a01b0316808252600185015460208084018290526002870154888501819052600388015460ff16151560608087018290526004909901549690950186905297519283528201526040810195909552928401929092526080830191909152819060a0820190565b506106b736610d80565b91906106c1610e3a565b8051156107be5734156107e05782156107cf57600182516020816106e58186610db2565b600281520301902001546107be576107a67fad6dc291ea00743d0b29976150f70071f7949128282583416d3bdc94902666a591610720610cc6565b3381526004602082013481528683016000815260608401906000825260808501928a84528951602081610753818b610db2565b60028152030190209560018060a01b039051166001600160601b0360a01b875416178655516001860155516002850155600384019051151560ff8019835416911617905551910155835191828092610db2565b0390209180519334855260208501523393a360018055005b8151630c35c39f60e01b8152600490fd5b815163cfdacc2b60e01b8152600490fd5b815163162908e360e11b8152600490fd5b503461013c57600036600319011261013c5760005490516001600160a01b039091168152602090f35b503461013c57602036600319011261013c5760043567ffffffffffffffff811161013c576020610620610851923690600401610d3e565b6002808252919003919091019091208054600182015492820154600383015460049093015494516001600160a01b0390921682526020820193909352604081019290925260ff1615156060820152608081019190915260a090f35b3461013c57600036600319011261013c576108c5610e0e565b600080546001600160a01b0319811682556001600160a01b03167f8be0079c531659141344cd1fd0a4f28419497f9722a3daafe3b4186f6b6457e08280a3005b503461013c576020908160031936011261013c5760043567ffffffffffffffff811161013c57610939903690600401610d3e565b90610942610e3a565b80519261094f8484610db2565b93818160029687815203019020936001938486015415610b375760ff600387015416610b265785546001600160a01b031633141580610b11575b610b005760009182865b6109e9575b50506109dc90859660037ffbe20d48ee227d448fd096b7447a23b0019d6280da4cbc77dedb9b10e3b0ef1d969760ff19828401541617910155855191828092610db2565b0390209351908152a28055005b6004880154811015610afb5790869186518681610a068188610db2565b600481520301902081600052865260018060a01b0387600020541687518781610a2f8189610db2565b600381520301902082600052875287600020549080151580610af2575b610a63575b5050610a5c90610e5d565b9091610993565b9192935094600080808089865af1610a79610ebc565b5015610ae15791610a5c91610a90878b9695610ee2565b96848c01610a9f828254610ee2565b90557f8b66abc81eb9e4b88acacafcc6d75ece18e30943c5ac9d9fd331ddb42eaffe3c898b5180610ad0818c610db2565b039020928c51908152a39038610a51565b87516312171d8360e31b8152600490fd5b50811515610a4c565b610998565b83516393687c0b60e01b8152600490fd5b506000546001600160a01b0316331415610989565b835163cce553a960e01b8152600490fd5b8351630c35c39f60e01b8152600490fd5b503461013c57602036600319011261013c5760043567ffffffffffffffff811161013c57610b7a903690600401610d3e565b90610b83610e3a565b8051602081610b928186610db2565b6002815203019020600181018054918215610b375760ff600382015416610b265780546001600160a01b0392908316903382141580610c41575b6102d557600080868194828095555af1610be4610ebc565b5015610c305791610c216020927f63927611f26314a3a601a2fbe97932047c942b0aed992e1464c7de624c878d8794541695855191828092610db2565b0390209351908152a360018055005b83516312171d8360e31b8152600490fd5b508360005416331415610bcc565b503461013c5760209081610c72610c6536610d80565b9290845192838092610db2565b6004815203019020600091825283528190205490516001600160a01b039091168152f35b503461013c5760209081610cac610c6536610d80565b600381520301902090600052825280600020549051908152f35b6040519060a0820182811067ffffffffffffffff821117610ce657604052565b634e487b7160e01b600052604160045260246000fd5b6040519190601f01601f1916820167ffffffffffffffff811183821017610ce657604052565b67ffffffffffffffff8111610ce657601f01601f191660200190565b81601f8201121561013c57803590610d5d610d5883610d22565b610cfc565b928284526020838301011161013c57816000926020809301838601378301015290565b604060031982011261013c576004359067ffffffffffffffff821161013c57610dab91600401610d3e565b9060243590565b9081519160005b838110610dca575050016000815290565b8060208092840101518185015201610db9565b9181601f8401121561013c5782359167ffffffffffffffff831161013c576020808501948460051b01011161013c57565b6000546001600160a01b03163303610e2257565b60405163118cdaa760e01b8152336004820152602490fd5b600260015414610e4b576002600155565b604051633ee5aeb560e01b8152600490fd5b6000198114610e6c5760010190565b634e487b7160e01b600052601160045260246000fd5b9190811015610e925760051b0190565b634e487b7160e01b600052603260045260246000fd5b356001600160a01b038116810361013c5790565b3d15610edd573d90610ed0610d5883610d22565b9182523d6000602084013e565b606090565b91908201809211610e6c5756fea26469706673582212207ec38aef50fec770c73810e4bf2ff227895529fcf48730399a913528c529c30564736f6c63430008140033","opcodes":"PUSH1 0x80 DUP1 PUSH1 0x40 MSTORE CALLVALUE PUSH2 0x7E JUMPI CALLER ISZERO PUSH2 0x68 JUMPI PUSH1 0x0 DUP1 SLOAD CALLER PUSH1 0x1 PUSH1 0x1 PUSH1 0xA0 SHL SUB NOT DUP3 AND DUP2 OR DUP4 SSTORE PUSH1 0x40 MLOAD SWAP3 SWAP1 SWAP2 PUSH1 0x1 PUSH1 0x1 PUSH1 0xA0 SHL SUB AND SWAP1 PUSH32 0x8BE0079C531659141344CD1FD0A4F28419497F9722A3DAAFE3B4186F6B6457E0 SWAP1 DUP1 LOG3 PUSH1 0x1 DUP1 SSTORE PUSH2 0xF25 SWAP1 DUP2 PUSH2 0x84 DUP3 CODECOPY RETURN JUMPDEST PUSH4 0x1E4FBDF7 PUSH1 0xE0 SHL DUP2 MSTORE PUSH1 0x0 PUSH1 0x4 DUP3 ADD MSTORE PUSH1 0x24 SWAP1 REVERT JUMPDEST PUSH1 0x0 DUP1 REVERT INVALID PUSH1 0x40 PUSH1 0x80 DUP2 MSTORE PUSH1 0x4 CALLDATASIZE LT ISZERO PUSH2 0x1D JUMPI JUMPDEST POP CALLDATASIZE ISZERO PUSH2 0x1B JUMPI PUSH1 0x0 DUP1 REVERT JUMPDEST STOP JUMPDEST PUSH1 0x0 CALLDATALOAD PUSH1 0xE0 SHR DUP1 PUSH4 0x8371F1F EQ PUSH2 0xC96 JUMPI DUP1 PUSH4 0x11066718 EQ PUSH2 0xC4F JUMPI DUP1 PUSH4 0x69524D31 EQ PUSH2 0xB48 JUMPI DUP1 PUSH4 0x7082028F EQ PUSH2 0x905 JUMPI DUP1 PUSH4 0x715018A6 EQ PUSH2 0x8AC JUMPI DUP1 PUSH4 0x7EDA8C8E EQ PUSH2 0x81A JUMPI DUP1 PUSH4 0x8DA5CB5B EQ PUSH2 0x7F1 JUMPI DUP1 PUSH4 0x8E27D719 EQ PUSH2 0x6AD JUMPI DUP1 PUSH4 0xB221DEEE EQ PUSH2 0x5E9 JUMPI DUP1 PUSH4 0xCCA7C95D EQ PUSH2 0x398 JUMPI DUP1 PUSH4 0xE38CF509 EQ PUSH2 0x317 JUMPI DUP1 PUSH4 0xF0FB1473 EQ PUSH2 0x141 JUMPI PUSH4 0xF2FDE38B SUB PUSH2 0xF JUMPI CALLVALUE PUSH2 0x13C JUMPI PUSH1 0x20 CALLDATASIZE PUSH1 0x3 NOT ADD SLT PUSH2 0x13C JUMPI PUSH1 0x1 PUSH1 0x1 PUSH1 0xA0 SHL SUB PUSH1 0x4 CALLDATALOAD DUP2 DUP2 AND SWAP3 SWAP1 DUP4 SWAP1 SUB PUSH2 0x13C JUMPI PUSH2 0xE1 PUSH2 0xE0E JUMP JUMPDEST DUP3 ISZERO PUSH2 0x125 JUMPI POP PUSH1 0x0 SLOAD DUP3 PUSH1 0x1 PUSH1 0x1 PUSH1 0x60 SHL SUB PUSH1 0xA0 SHL DUP3 AND OR PUSH1 0x0 SSTORE AND PUSH32 0x8BE0079C531659141344CD1FD0A4F28419497F9722A3DAAFE3B4186F6B6457E0 PUSH1 0x0 DUP1 LOG3 STOP JUMPDEST MLOAD PUSH4 0x1E4FBDF7 PUSH1 0xE0 SHL DUP2 MSTORE PUSH1 0x0 PUSH1 0x4 DUP3 ADD MSTORE PUSH1 0x24 SWAP1 REVERT JUMPDEST PUSH1 0x0 DUP1 REVERT JUMPDEST POP CALLVALUE PUSH2 0x13C JUMPI PUSH1 0x80 CALLDATASIZE PUSH1 0x3 NOT ADD SLT PUSH2 0x13C JUMPI PUSH1 0x4 CALLDATALOAD PUSH8 0xFFFFFFFFFFFFFFFF DUP2 GT PUSH2 0x13C JUMPI PUSH2 0x173 SWAP1 CALLDATASIZE SWAP1 PUSH1 0x4 ADD PUSH2 0xD3E JUMP JUMPDEST PUSH1 0x24 CALLDATALOAD SWAP2 SWAP1 PUSH1 0x1 PUSH1 0x1 PUSH1 0xA0 SHL SUB SWAP1 PUSH1 0x44 CALLDATALOAD SWAP1 DUP3 DUP3 AND DUP1 DUP4 SUB PUSH2 0x13C JUMPI PUSH1 0x64 CALLDATALOAD SWAP4 DUP6 MLOAD PUSH1 0x20 DUP2 PUSH2 0x1A2 DUP2 DUP8 PUSH2 0xDB2 JUMP JUMPDEST PUSH1 0x2 DUP2 MSTORE SUB ADD SWAP1 KECCAK256 SWAP1 PUSH1 0x1 DUP3 ADD SLOAD ISZERO PUSH2 0x306 JUMPI PUSH1 0xFF PUSH1 0x3 DUP4 ADD SLOAD AND PUSH2 0x2F5 JUMPI DUP1 DUP3 SLOAD AND CALLER EQ ISZERO SWAP1 DUP2 PUSH2 0x2E6 JUMPI JUMPDEST POP PUSH2 0x2D5 JUMPI DUP2 ISZERO PUSH2 0x2C4 JUMPI DUP5 ISZERO PUSH2 0x2B3 JUMPI PUSH1 0x4 ADD SLOAD DUP7 LT ISZERO PUSH2 0x2A2 JUMPI PUSH2 0x279 PUSH32 0xA30A18CCB0C5BBEC88B6BB9C18AEE3D57CB5543E76EAC5E101AF726D2DD0AE76 SWAP5 SWAP4 SWAP3 PUSH2 0x29D SWAP3 DUP8 MLOAD PUSH1 0x20 DUP2 PUSH2 0x225 DUP2 DUP7 PUSH2 0xDB2 JUMP JUMPDEST PUSH1 0x4 DUP2 MSTORE SUB ADD SWAP1 KECCAK256 DUP10 PUSH1 0x0 MSTORE PUSH1 0x20 MSTORE DUP8 PUSH1 0x0 KECCAK256 SWAP1 PUSH1 0x1 PUSH1 0x1 PUSH1 0x60 SHL SUB PUSH1 0xA0 SHL DUP3 SLOAD AND OR SWAP1 SSTORE DUP7 MLOAD PUSH1 0x20 DUP2 PUSH2 0x259 DUP2 DUP6 PUSH2 0xDB2 JUMP JUMPDEST PUSH1 0x3 DUP2 MSTORE SUB ADD SWAP1 KECCAK256 DUP9 PUSH1 0x0 MSTORE PUSH1 0x20 MSTORE DUP5 DUP8 PUSH1 0x0 KECCAK256 SSTORE DUP7 MLOAD SWAP2 DUP3 DUP1 SWAP3 PUSH2 0xDB2 JUMP JUMPDEST SUB SWAP1 KECCAK256 SWAP5 MLOAD PUSH1 0x1 PUSH1 0x1 PUSH1 0xA0 SHL SUB SWAP1 SWAP3 AND DUP3 MSTORE PUSH1 0x20 DUP3 ADD SWAP3 SWAP1 SWAP3 MSTORE SWAP1 DUP2 SWAP1 PUSH1 0x40 DUP3 ADD SWAP1 JUMP JUMPDEST SUB SWAP1 LOG3 STOP JUMPDEST DUP5 MLOAD PUSH4 0xCFDACC2B PUSH1 0xE0 SHL DUP2 MSTORE PUSH1 0x4 SWAP1 REVERT JUMPDEST DUP6 MLOAD PUSH4 0x162908E3 PUSH1 0xE1 SHL DUP2 MSTORE PUSH1 0x4 SWAP1 REVERT JUMPDEST DUP6 MLOAD PUSH4 0x71620C31 PUSH1 0xE0 SHL DUP2 MSTORE PUSH1 0x4 SWAP1 REVERT JUMPDEST DUP6 MLOAD PUSH4 0x93687C0B PUSH1 0xE0 SHL DUP2 MSTORE PUSH1 0x4 SWAP1 REVERT JUMPDEST SWAP1 POP PUSH1 0x0 SLOAD AND CALLER EQ ISZERO CODESIZE PUSH2 0x1CF JUMP JUMPDEST DUP7 MLOAD PUSH4 0xCCE553A9 PUSH1 0xE0 SHL DUP2 MSTORE PUSH1 0x4 SWAP1 REVERT JUMPDEST DUP7 MLOAD PUSH4 0xC35C39F PUSH1 0xE0 SHL DUP2 MSTORE PUSH1 0x4 SWAP1 REVERT JUMPDEST POP CALLVALUE PUSH2 0x13C JUMPI PUSH2 0x326 CALLDATASIZE PUSH2 0xD80 JUMP JUMPDEST DUP3 MLOAD PUSH1 0x20 DUP2 PUSH2 0x335 DUP2 DUP7 PUSH2 0xDB2 JUMP JUMPDEST PUSH1 0x4 DUP2 MSTORE SUB ADD SWAP1 KECCAK256 DUP2 PUSH1 0x0 MSTORE PUSH1 0x20 MSTORE PUSH2 0x362 PUSH1 0x20 PUSH1 0x1 DUP1 PUSH1 0xA0 SHL SUB DUP6 PUSH1 0x0 KECCAK256 SLOAD AND SWAP4 DUP6 MLOAD SWAP3 DUP4 DUP1 SWAP3 PUSH2 0xDB2 JUMP JUMPDEST PUSH1 0x3 DUP2 MSTORE SUB ADD SWAP1 KECCAK256 PUSH1 0x0 SWAP2 DUP3 MSTORE PUSH1 0x20 SWAP1 DUP2 MSTORE SWAP1 DUP4 SWAP1 KECCAK256 SLOAD SWAP3 MLOAD PUSH1 0x1 PUSH1 0x1 PUSH1 0xA0 SHL SUB SWAP3 SWAP1 SWAP3 AND DUP3 MSTORE DUP2 ADD SWAP2 SWAP1 SWAP2 MSTORE PUSH1 0x40 SWAP1 RETURN JUMPDEST SUB SWAP1 RETURN JUMPDEST POP CALLVALUE PUSH2 0x13C JUMPI PUSH1 0x60 CALLDATASIZE PUSH1 0x3 NOT ADD SLT PUSH2 0x13C JUMPI PUSH8 0xFFFFFFFFFFFFFFFF PUSH1 0x4 CALLDATALOAD DUP2 DUP2 GT PUSH2 0x13C JUMPI PUSH2 0x3CB SWAP1 CALLDATASIZE SWAP1 PUSH1 0x4 ADD PUSH2 0xD3E JUMP JUMPDEST PUSH1 0x24 CALLDATALOAD DUP3 DUP2 GT PUSH2 0x13C JUMPI PUSH2 0x3E3 SWAP1 CALLDATASIZE SWAP1 PUSH1 0x4 ADD PUSH2 0xDDD JUMP JUMPDEST SWAP1 SWAP3 PUSH1 0x44 CALLDATALOAD SWAP1 DUP2 GT PUSH2 0x13C JUMPI PUSH2 0x3FD SWAP1 CALLDATASIZE SWAP1 PUSH1 0x4 ADD PUSH2 0xDDD JUMP JUMPDEST SWAP1 SWAP2 DUP6 MLOAD SWAP5 DUP6 PUSH2 0x40D DUP2 DUP8 PUSH2 0xDB2 JUMP JUMPDEST PUSH1 0x2 DUP2 MSTORE PUSH1 0x20 SWAP8 DUP9 SWAP2 SUB ADD SWAP1 KECCAK256 SWAP6 PUSH1 0x1 DUP8 ADD SLOAD ISZERO PUSH2 0x5D8 JUMPI PUSH1 0x3 SWAP1 PUSH1 0xFF DUP3 DUP10 ADD SLOAD AND PUSH2 0x5C7 JUMPI DUP8 SLOAD PUSH1 0x1 PUSH1 0x1 PUSH1 0xA0 SHL SUB SWAP9 SWAP1 DUP10 AND CALLER EQ ISZERO DUP1 PUSH2 0x5B9 JUMPI JUMPDEST PUSH2 0x5A8 JUMPI DUP6 DUP6 SUB PUSH2 0x586 JUMPI PUSH1 0x4 ADD SLOAD DUP5 GT PUSH2 0x597 JUMPI PUSH1 0x0 JUMPDEST DUP5 DUP2 LT PUSH2 0x46B JUMPI STOP JUMPDEST DUP9 PUSH2 0x47F PUSH2 0x47A DUP4 DUP9 DUP9 PUSH2 0xE82 JUMP JUMPDEST PUSH2 0xEA8 JUMP JUMPDEST AND ISZERO PUSH2 0x586 JUMPI PUSH2 0x490 DUP2 DUP8 DUP10 PUSH2 0xE82 JUMP JUMPDEST CALLDATALOAD ISZERO PUSH2 0x575 JUMPI DUP1 DUP1 DUP12 PUSH32 0xA30A18CCB0C5BBEC88B6BB9C18AEE3D57CB5543E76EAC5E101AF726D2DD0AE76 DUP12 DUP12 PUSH2 0x568 DUP16 PUSH2 0x55B DUP8 DUP16 DUP16 DUP16 DUP16 SWAP14 DUP16 SWAP3 PUSH2 0x570 SWAP16 SWAP3 PUSH2 0x47A SWAP4 DUP15 DUP7 PUSH2 0x53F DUP16 SWAP9 DUP16 SWAP10 PUSH2 0x532 PUSH2 0x279 SWAP16 DUP14 PUSH2 0x555 SWAP14 DUP13 SWAP3 PUSH2 0x4F9 PUSH2 0x47A DUP6 DUP16 DUP16 PUSH2 0xE82 JUMP JUMPDEST SWAP1 DUP11 MLOAD DUP9 DUP2 PUSH2 0x508 DUP2 DUP12 PUSH2 0xDB2 JUMP JUMPDEST PUSH1 0x4 DUP2 MSTORE SUB ADD SWAP1 KECCAK256 DUP6 PUSH1 0x0 MSTORE DUP9 MSTORE DUP11 PUSH1 0x0 KECCAK256 SWAP2 AND PUSH1 0x1 PUSH1 0x1 PUSH1 0x60 SHL SUB PUSH1 0xA0 SHL DUP3 SLOAD AND OR SWAP1 SSTORE PUSH2 0xE82 JUMP JUMPDEST CALLDATALOAD SWAP6 DUP6 MLOAD SWAP4 DUP5 DUP1 SWAP4 PUSH2 0xDB2 JUMP JUMPDEST SWAP1 DUP2 MSTORE SUB ADD SWAP1 KECCAK256 SWAP1 DUP7 PUSH1 0x0 MSTORE MSTORE PUSH1 0x0 KECCAK256 SSTORE PUSH2 0xE82 JUMP JUMPDEST SWAP6 PUSH2 0xE82 JUMP JUMPDEST CALLDATALOAD SWAP4 DUP7 MLOAD SWAP2 DUP3 DUP1 SWAP3 PUSH2 0xDB2 JUMP JUMPDEST SUB SWAP1 LOG3 PUSH2 0xE5D JUMP JUMPDEST PUSH2 0x462 JUMP JUMPDEST DUP10 MLOAD PUSH4 0x162908E3 PUSH1 0xE1 SHL DUP2 MSTORE PUSH1 0x4 SWAP1 REVERT JUMPDEST DUP10 MLOAD PUSH4 0x71620C31 PUSH1 0xE0 SHL DUP2 MSTORE PUSH1 0x4 SWAP1 REVERT JUMPDEST DUP9 MLOAD PUSH4 0xCFDACC2B PUSH1 0xE0 SHL DUP2 MSTORE PUSH1 0x4 SWAP1 REVERT JUMPDEST DUP10 MLOAD PUSH4 0x93687C0B PUSH1 0xE0 SHL DUP2 MSTORE PUSH1 0x4 SWAP1 REVERT JUMPDEST POP DUP9 PUSH1 0x0 SLOAD AND CALLER EQ ISZERO PUSH2 0x44A JUMP JUMPDEST DUP9 MLOAD PUSH4 0xCCE553A9 PUSH1 0xE0 SHL DUP2 MSTORE PUSH1 0x4 SWAP1 REVERT JUMPDEST DUP8 MLOAD PUSH4 0xC35C39F PUSH1 0xE0 SHL DUP2 MSTORE PUSH1 0x4 SWAP1 REVERT JUMPDEST POP CALLVALUE PUSH2 0x13C JUMPI PUSH1 0x20 CALLDATASIZE PUSH1 0x3 NOT ADD SLT PUSH2 0x13C JUMPI PUSH1 0x4 CALLDATALOAD PUSH8 0xFFFFFFFFFFFFFFFF DUP2 GT PUSH2 0x13C JUMPI PUSH1 0x20 PUSH2 0x620 PUSH2 0x62B SWAP3 CALLDATASIZE SWAP1 PUSH1 0x4 ADD PUSH2 0xD3E JUMP JUMPDEST DUP4 MLOAD SWAP3 DUP4 DUP1 SWAP3 PUSH2 0xDB2 JUMP JUMPDEST PUSH1 0x2 DUP2 MSTORE SUB ADD SWAP1 KECCAK256 PUSH2 0x394 PUSH1 0x80 PUSH2 0x640 PUSH2 0xCC6 JUMP JUMPDEST DUP4 SLOAD PUSH1 0x1 PUSH1 0x1 PUSH1 0xA0 SHL SUB AND DUP1 DUP3 MSTORE PUSH1 0x1 DUP6 ADD SLOAD PUSH1 0x20 DUP1 DUP5 ADD DUP3 SWAP1 MSTORE PUSH1 0x2 DUP8 ADD SLOAD DUP9 DUP6 ADD DUP2 SWAP1 MSTORE PUSH1 0x3 DUP9 ADD SLOAD PUSH1 0xFF AND ISZERO ISZERO PUSH1 0x60 DUP1 DUP8 ADD DUP3 SWAP1 MSTORE PUSH1 0x4 SWAP1 SWAP10 ADD SLOAD SWAP7 SWAP1 SWAP6 ADD DUP7 SWAP1 MSTORE SWAP8 MLOAD SWAP3 DUP4 MSTORE DUP3 ADD MSTORE PUSH1 0x40 DUP2 ADD SWAP6 SWAP1 SWAP6 MSTORE SWAP3 DUP5 ADD SWAP3 SWAP1 SWAP3 MSTORE PUSH1 0x80 DUP4 ADD SWAP2 SWAP1 SWAP2 MSTORE DUP2 SWAP1 PUSH1 0xA0 DUP3 ADD SWAP1 JUMP JUMPDEST POP PUSH2 0x6B7 CALLDATASIZE PUSH2 0xD80 JUMP JUMPDEST SWAP2 SWAP1 PUSH2 0x6C1 PUSH2 0xE3A JUMP JUMPDEST DUP1 MLOAD ISZERO PUSH2 0x7BE JUMPI CALLVALUE ISZERO PUSH2 0x7E0 JUMPI DUP3 ISZERO PUSH2 0x7CF JUMPI PUSH1 0x1 DUP3 MLOAD PUSH1 0x20 DUP2 PUSH2 0x6E5 DUP2 DUP7 PUSH2 0xDB2 JUMP JUMPDEST PUSH1 0x2 DUP2 MSTORE SUB ADD SWAP1 KECCAK256 ADD SLOAD PUSH2 0x7BE JUMPI PUSH2 0x7A6 PUSH32 0xAD6DC291EA00743D0B29976150F70071F7949128282583416D3BDC94902666A5 SWAP2 PUSH2 0x720 PUSH2 0xCC6 JUMP JUMPDEST CALLER DUP2 MSTORE PUSH1 0x4 PUSH1 0x20 DUP3 ADD CALLVALUE DUP2 MSTORE DUP7 DUP4 ADD PUSH1 0x0 DUP2 MSTORE PUSH1 0x60 DUP5 ADD SWAP1 PUSH1 0x0 DUP3 MSTORE PUSH1 0x80 DUP6 ADD SWAP3 DUP11 DUP5 MSTORE DUP10 MLOAD PUSH1 0x20 DUP2 PUSH2 0x753 DUP2 DUP12 PUSH2 0xDB2 JUMP JUMPDEST PUSH1 0x2 DUP2 MSTORE SUB ADD SWAP1 KECCAK256 SWAP6 PUSH1 0x1 DUP1 PUSH1 0xA0 SHL SUB SWAP1 MLOAD AND PUSH1 0x1 PUSH1 0x1 PUSH1 0x60 SHL SUB PUSH1 0xA0 SHL DUP8 SLOAD AND OR DUP7 SSTORE MLOAD PUSH1 0x1 DUP7 ADD SSTORE MLOAD PUSH1 0x2 DUP6 ADD SSTORE PUSH1 0x3 DUP5 ADD SWAP1 MLOAD ISZERO ISZERO PUSH1 0xFF DUP1 NOT DUP4 SLOAD AND SWAP2 AND OR SWAP1 SSTORE MLOAD SWAP2 ADD SSTORE DUP4 MLOAD SWAP2 DUP3 DUP1 SWAP3 PUSH2 0xDB2 JUMP JUMPDEST SUB SWAP1 KECCAK256 SWAP2 DUP1 MLOAD SWAP4 CALLVALUE DUP6 MSTORE PUSH1 0x20 DUP6 ADD MSTORE CALLER SWAP4 LOG3 PUSH1 0x1 DUP1 SSTORE STOP JUMPDEST DUP2 MLOAD PUSH4 0xC35C39F PUSH1 0xE0 SHL DUP2 MSTORE PUSH1 0x4 SWAP1 REVERT JUMPDEST DUP2 MLOAD PUSH4 0xCFDACC2B PUSH1 0xE0 SHL DUP2 MSTORE PUSH1 0x4 SWAP1 REVERT JUMPDEST DUP2 MLOAD PUSH4 0x162908E3 PUSH1 0xE1 SHL DUP2 MSTORE PUSH1 0x4 SWAP1 REVERT JUMPDEST POP CALLVALUE PUSH2 0x13C JUMPI PUSH1 0x0 CALLDATASIZE PUSH1 0x3 NOT ADD SLT PUSH2 0x13C JUMPI PUSH1 0x0 SLOAD SWAP1 MLOAD PUSH1 0x1 PUSH1 0x1 PUSH1 0xA0 SHL SUB SWAP1 SWAP2 AND DUP2 MSTORE PUSH1 0x20 SWAP1 RETURN JUMPDEST POP CALLVALUE PUSH2 0x13C JUMPI PUSH1 0x20 CALLDATASIZE PUSH1 0x3 NOT ADD SLT PUSH2 0x13C JUMPI PUSH1 0x4 CALLDATALOAD PUSH8 0xFFFFFFFFFFFFFFFF DUP2 GT PUSH2 0x13C JUMPI PUSH1 0x20 PUSH2 0x620 PUSH2 0x851 SWAP3 CALLDATASIZE SWAP1 PUSH1 0x4 ADD PUSH2 0xD3E JUMP JUMPDEST PUSH1 0x2 DUP1 DUP3 MSTORE SWAP2 SWAP1 SUB SWAP2 SWAP1 SWAP2 ADD SWAP1 SWAP2 KECCAK256 DUP1 SLOAD PUSH1 0x1 DUP3 ADD SLOAD SWAP3 DUP3 ADD SLOAD PUSH1 0x3 DUP4 ADD SLOAD PUSH1 0x4 SWAP1 SWAP4 ADD SLOAD SWAP5 MLOAD PUSH1 0x1 PUSH1 0x1 PUSH1 0xA0 SHL SUB SWAP1 SWAP3 AND DUP3 MSTORE PUSH1 0x20 DUP3 ADD SWAP4 SWAP1 SWAP4 MSTORE PUSH1 0x40 DUP2 ADD SWAP3 SWAP1 SWAP3 MSTORE PUSH1 0xFF AND ISZERO ISZERO PUSH1 0x60 DUP3 ADD MSTORE PUSH1 0x80 DUP2 ADD SWAP2 SWAP1 SWAP2 MSTORE PUSH1 0xA0 SWAP1 RETURN JUMPDEST CALLVALUE PUSH2 0x13C JUMPI PUSH1 0x0 CALLDATASIZE PUSH1 0x3 NOT ADD SLT PUSH2 0x13C JUMPI PUSH2 0x8C5 PUSH2 0xE0E JUMP JUMPDEST PUSH1 0x0 DUP1 SLOAD PUSH1 0x1 PUSH1 0x1 PUSH1 0xA0 SHL SUB NOT DUP2 AND DUP3 SSTORE PUSH1 0x1 PUSH1 0x1 PUSH1 0xA0 SHL SUB AND PUSH32 0x8BE0079C531659141344CD1FD0A4F28419497F9722A3DAAFE3B4186F6B6457E0 DUP3 DUP1 LOG3 STOP JUMPDEST POP CALLVALUE PUSH2 0x13C JUMPI PUSH1 0x20 SWAP1 DUP2 PUSH1 0x3 NOT CALLDATASIZE ADD SLT PUSH2 0x13C JUMPI PUSH1 0x4 CALLDATALOAD PUSH8 0xFFFFFFFFFFFFFFFF DUP2 GT PUSH2 0x13C JUMPI PUSH2 0x939 SWAP1 CALLDATASIZE SWAP1 PUSH1 0x4 ADD PUSH2 0xD3E JUMP JUMPDEST SWAP1 PUSH2 0x942 PUSH2 0xE3A JUMP JUMPDEST DUP1 MLOAD SWAP3 PUSH2 0x94F DUP5 DUP5 PUSH2 0xDB2 JUMP JUMPDEST SWAP4 DUP2 DUP2 PUSH1 0x2 SWAP7 DUP8 DUP2 MSTORE SUB ADD SWAP1 KECCAK256 SWAP4 PUSH1 0x1 SWAP4 DUP5 DUP7 ADD SLOAD ISZERO PUSH2 0xB37 JUMPI PUSH1 0xFF PUSH1 0x3 DUP8 ADD SLOAD AND PUSH2 0xB26 JUMPI DUP6 SLOAD PUSH1 0x1 PUSH1 0x1 PUSH1 0xA0 SHL SUB AND CALLER EQ ISZERO DUP1 PUSH2 0xB11 JUMPI JUMPDEST PUSH2 0xB00 JUMPI PUSH1 0x0 SWAP2 DUP3 DUP7 JUMPDEST PUSH2 0x9E9 JUMPI JUMPDEST POP POP PUSH2 0x9DC SWAP1 DUP6 SWAP7 PUSH1 0x3 PUSH32 0xFBE20D48EE227D448FD096B7447A23B0019D6280DA4CBC77DEDB9B10E3B0EF1D SWAP7 SWAP8 PUSH1 0xFF NOT DUP3 DUP5 ADD SLOAD AND OR SWAP2 ADD SSTORE DUP6 MLOAD SWAP2 DUP3 DUP1 SWAP3 PUSH2 0xDB2 JUMP JUMPDEST SUB SWAP1 KECCAK256 SWAP4 MLOAD SWAP1 DUP2 MSTORE LOG2 DUP1 SSTORE STOP JUMPDEST PUSH1 0x4 DUP9 ADD SLOAD DUP2 LT ISZERO PUSH2 0xAFB JUMPI SWAP1 DUP7 SWAP2 DUP7 MLOAD DUP7 DUP2 PUSH2 0xA06 DUP2 DUP9 PUSH2 0xDB2 JUMP JUMPDEST PUSH1 0x4 DUP2 MSTORE SUB ADD SWAP1 KECCAK256 DUP2 PUSH1 0x0 MSTORE DUP7 MSTORE PUSH1 0x1 DUP1 PUSH1 0xA0 SHL SUB DUP8 PUSH1 0x0 KECCAK256 SLOAD AND DUP8 MLOAD DUP8 DUP2 PUSH2 0xA2F DUP2 DUP10 PUSH2 0xDB2 JUMP JUMPDEST PUSH1 0x3 DUP2 MSTORE SUB ADD SWAP1 KECCAK256 DUP3 PUSH1 0x0 MSTORE DUP8 MSTORE DUP8 PUSH1 0x0 KECCAK256 SLOAD SWAP1 DUP1 ISZERO ISZERO DUP1 PUSH2 0xAF2 JUMPI JUMPDEST PUSH2 0xA63 JUMPI JUMPDEST POP POP PUSH2 0xA5C SWAP1 PUSH2 0xE5D JUMP JUMPDEST SWAP1 SWAP2 PUSH2 0x993 JUMP JUMPDEST SWAP2 SWAP3 SWAP4 POP SWAP5 PUSH1 0x0 DUP1 DUP1 DUP1 DUP10 DUP7 GAS CALL PUSH2 0xA79 PUSH2 0xEBC JUMP JUMPDEST POP ISZERO PUSH2 0xAE1 JUMPI SWAP2 PUSH2 0xA5C SWAP2 PUSH2 0xA90 DUP8 DUP12 SWAP7 SWAP6 PUSH2 0xEE2 JUMP JUMPDEST SWAP7 DUP5 DUP13 ADD PUSH2 0xA9F DUP3 DUP3 SLOAD PUSH2 0xEE2 JUMP JUMPDEST SWAP1 SSTORE PUSH32 0x8B66ABC81EB9E4B88ACACAFCC6D75ECE18E30943C5AC9D9FD331DDB42EAFFE3C DUP10 DUP12 MLOAD DUP1 PUSH2 0xAD0 DUP2 DUP13 PUSH2 0xDB2 JUMP JUMPDEST SUB SWAP1 KECCAK256 SWAP3 DUP13 MLOAD SWAP1 DUP2 MSTORE LOG3 SWAP1 CODESIZE PUSH2 0xA51 JUMP JUMPDEST DUP8 MLOAD PUSH4 0x12171D83 PUSH1 0xE3 SHL DUP2 MSTORE PUSH1 0x4 SWAP1 REVERT JUMPDEST POP DUP2 ISZERO ISZERO PUSH2 0xA4C JUMP JUMPDEST PUSH2 0x998 JUMP JUMPDEST DUP4 MLOAD PUSH4 0x93687C0B PUSH1 0xE0 SHL DUP2 MSTORE PUSH1 0x4 SWAP1 REVERT JUMPDEST POP PUSH1 0x0 SLOAD PUSH1 0x1 PUSH1 0x1 PUSH1 0xA0 SHL SUB AND CALLER EQ ISZERO PUSH2 0x989 JUMP JUMPDEST DUP4 MLOAD PUSH4 0xCCE553A9 PUSH1 0xE0 SHL DUP2 MSTORE PUSH1 0x4 SWAP1 REVERT JUMPDEST DUP4 MLOAD PUSH4 0xC35C39F PUSH1 0xE0 SHL DUP2 MSTORE PUSH1 0x4 SWAP1 REVERT JUMPDEST POP CALLVALUE PUSH2 0x13C JUMPI PUSH1 0x20 CALLDATASIZE PUSH1 0x3 NOT ADD SLT PUSH2 0x13C JUMPI PUSH1 0x4 CALLDATALOAD PUSH8 0xFFFFFFFFFFFFFFFF DUP2 GT PUSH2 0x13C JUMPI PUSH2 0xB7A SWAP1 CALLDATASIZE SWAP1 PUSH1 0x4 ADD PUSH2 0xD3E JUMP JUMPDEST SWAP1 PUSH2 0xB83 PUSH2 0xE3A JUMP JUMPDEST DUP1 MLOAD PUSH1 0x20 DUP2 PUSH2 0xB92 DUP2 DUP7 PUSH2 0xDB2 JUMP JUMPDEST PUSH1 0x2 DUP2 MSTORE SUB ADD SWAP1 KECCAK256 PUSH1 0x1 DUP2 ADD DUP1 SLOAD SWAP2 DUP3 ISZERO PUSH2 0xB37 JUMPI PUSH1 0xFF PUSH1 0x3 DUP3 ADD SLOAD AND PUSH2 0xB26 JUMPI DUP1 SLOAD PUSH1 0x1 PUSH1 0x1 PUSH1 0xA0 SHL SUB SWAP3 SWAP1 DUP4 AND SWAP1 CALLER DUP3 EQ ISZERO DUP1 PUSH2 0xC41 JUMPI JUMPDEST PUSH2 0x2D5 JUMPI PUSH1 0x0 DUP1 DUP7 DUP2 SWAP5 DUP3 DUP1 SWAP6 SSTORE GAS CALL PUSH2 0xBE4 PUSH2 0xEBC JUMP JUMPDEST POP ISZERO PUSH2 0xC30 JUMPI SWAP2 PUSH2 0xC21 PUSH1 0x20 SWAP3 PUSH32 0x63927611F26314A3A601A2FBE97932047C942B0AED992E1464C7DE624C878D87 SWAP5 SLOAD AND SWAP6 DUP6 MLOAD SWAP2 DUP3 DUP1 SWAP3 PUSH2 0xDB2 JUMP JUMPDEST SUB SWAP1 KECCAK256 SWAP4 MLOAD SWAP1 DUP2 MSTORE LOG3 PUSH1 0x1 DUP1 SSTORE STOP JUMPDEST DUP4 MLOAD PUSH4 0x12171D83 PUSH1 0xE3 SHL DUP2 MSTORE PUSH1 0x4 SWAP1 REVERT JUMPDEST POP DUP4 PUSH1 0x0 SLOAD AND CALLER EQ ISZERO PUSH2 0xBCC JUMP JUMPDEST POP CALLVALUE PUSH2 0x13C JUMPI PUSH1 0x20 SWAP1 DUP2 PUSH2 0xC72 PUSH2 0xC65 CALLDATASIZE PUSH2 0xD80 JUMP JUMPDEST SWAP3 SWAP1 DUP5 MLOAD SWAP3 DUP4 DUP1 SWAP3 PUSH2 0xDB2 JUMP JUMPDEST PUSH1 0x4 DUP2 MSTORE SUB ADD SWAP1 KECCAK256 PUSH1 0x0 SWAP2 DUP3 MSTORE DUP4 MSTORE DUP2 SWAP1 KECCAK256 SLOAD SWAP1 MLOAD PUSH1 0x1 PUSH1 0x1 PUSH1 0xA0 SHL SUB SWAP1 SWAP2 AND DUP2 MSTORE RETURN JUMPDEST POP CALLVALUE PUSH2 0x13C JUMPI PUSH1 0x20 SWAP1 DUP2 PUSH2 0xCAC PUSH2 0xC65 CALLDATASIZE PUSH2 0xD80 JUMP JUMPDEST PUSH1 0x3 DUP2 MSTORE SUB ADD SWAP1 KECCAK256 SWAP1 PUSH1 0x0 MSTORE DUP3 MSTORE DUP1 PUSH1 0x0 KECCAK256 SLOAD SWAP1 MLOAD SWAP1 DUP2 MSTORE RETURN JUMPDEST PUSH1 0x40 MLOAD SWAP1 PUSH1 0xA0 DUP3 ADD DUP3 DUP2 LT PUSH8 0xFFFFFFFFFFFFFFFF DUP3 GT OR PUSH2 0xCE6 JUMPI PUSH1 0x40 MSTORE JUMP JUMPDEST PUSH4 0x4E487B71 PUSH1 0xE0 SHL PUSH1 0x0 MSTORE PUSH1 0x41 PUSH1 0x4 MSTORE PUSH1 0x24 PUSH1 0x0 REVERT JUMPDEST PUSH1 0x40 MLOAD SWAP2 SWAP1 PUSH1 0x1F ADD PUSH1 0x1F NOT AND DUP3 ADD PUSH8 0xFFFFFFFFFFFFFFFF DUP2 GT DUP4 DUP3 LT OR PUSH2 0xCE6 JUMPI PUSH1 0x40 MSTORE JUMP JUMPDEST PUSH8 0xFFFFFFFFFFFFFFFF DUP2 GT PUSH2 0xCE6 JUMPI PUSH1 0x1F ADD PUSH1 0x1F NOT AND PUSH1 0x20 ADD SWAP1 JUMP JUMPDEST DUP2 PUSH1 0x1F DUP3 ADD SLT ISZERO PUSH2 0x13C JUMPI DUP1 CALLDATALOAD SWAP1 PUSH2 0xD5D PUSH2 0xD58 DUP4 PUSH2 0xD22 JUMP JUMPDEST PUSH2 0xCFC JUMP JUMPDEST SWAP3 DUP3 DUP5 MSTORE PUSH1 0x20 DUP4 DUP4 ADD ADD GT PUSH2 0x13C JUMPI DUP2 PUSH1 0x0 SWAP3 PUSH1 0x20 DUP1 SWAP4 ADD DUP4 DUP7 ADD CALLDATACOPY DUP4 ADD ADD MSTORE SWAP1 JUMP JUMPDEST PUSH1 0x40 PUSH1 0x3 NOT DUP3 ADD SLT PUSH2 0x13C JUMPI PUSH1 0x4 CALLDATALOAD SWAP1 PUSH8 0xFFFFFFFFFFFFFFFF DUP3 GT PUSH2 0x13C JUMPI PUSH2 0xDAB SWAP2 PUSH1 0x4 ADD PUSH2 0xD3E JUMP JUMPDEST SWAP1 PUSH1 0x24 CALLDATALOAD SWAP1 JUMP JUMPDEST SWAP1 DUP2 MLOAD SWAP2 PUSH1 0x0 JUMPDEST DUP4 DUP2 LT PUSH2 0xDCA JUMPI POP POP ADD PUSH1 0x0 DUP2 MSTORE SWAP1 JUMP JUMPDEST DUP1 PUSH1 0x20 DUP1 SWAP3 DUP5 ADD ADD MLOAD DUP2 DUP6 ADD MSTORE ADD PUSH2 0xDB9 JUMP JUMPDEST SWAP2 DUP2 PUSH1 0x1F DUP5 ADD SLT ISZERO PUSH2 0x13C JUMPI DUP3 CALLDATALOAD SWAP2 PUSH8 0xFFFFFFFFFFFFFFFF DUP4 GT PUSH2 0x13C JUMPI PUSH1 0x20 DUP1 DUP6 ADD SWAP5 DUP5 PUSH1 0x5 SHL ADD ADD GT PUSH2 0x13C JUMPI JUMP JUMPDEST PUSH1 0x0 SLOAD PUSH1 0x1 PUSH1 0x1 PUSH1 0xA0 SHL SUB AND CALLER SUB PUSH2 0xE22 JUMPI JUMP JUMPDEST PUSH1 0x40 MLOAD PUSH4 0x118CDAA7 PUSH1 0xE0 SHL DUP2 MSTORE CALLER PUSH1 0x4 DUP3 ADD MSTORE PUSH1 0x24 SWAP1 REVERT JUMPDEST PUSH1 0x2 PUSH1 0x1 SLOAD EQ PUSH2 0xE4B JUMPI PUSH1 0x2 PUSH1 0x1 SSTORE JUMP JUMPDEST PUSH1 0x40 MLOAD PUSH4 0x3EE5AEB5 PUSH1 0xE0 SHL DUP2 MSTORE PUSH1 0x4 SWAP1 REVERT JUMPDEST PUSH1 0x0 NOT DUP2 EQ PUSH2 0xE6C JUMPI PUSH1 0x1 ADD SWAP1 JUMP JUMPDEST PUSH4 0x4E487B71 PUSH1 0xE0 SHL PUSH1 0x0 MSTORE PUSH1 0x11 PUSH1 0x4 MSTORE PUSH1 0x24 PUSH1 0x0 REVERT JUMPDEST SWAP2 SWAP1 DUP2 LT ISZERO PUSH2 0xE92 JUMPI PUSH1 0x5 SHL ADD SWAP1 JUMP JUMPDEST PUSH4 0x4E487B71 PUSH1 0xE0 SHL PUSH1 0x0 MSTORE PUSH1 0x32 PUSH1 0x4 MSTORE PUSH1 0x24 PUSH1 0x0 REVERT JUMPDEST CALLDATALOAD PUSH1 0x1 PUSH1 0x1 PUSH1 0xA0 SHL SUB DUP2 AND DUP2 SUB PUSH2 0x13C JUMPI SWAP1 JUMP JUMPDEST RETURNDATASIZE ISZERO PUSH2 0xEDD JUMPI RETURNDATASIZE SWAP1 PUSH2 0xED0 PUSH2 0xD58 DUP4 PUSH2 0xD22 JUMP JUMPDEST SWAP2 DUP3 MSTORE RETURNDATASIZE PUSH1 0x0 PUSH1 0x20 DUP5 ADD RETURNDATACOPY JUMP JUMPDEST PUSH1 0x60 SWAP1 JUMP JUMPDEST SWAP2 SWAP1 DUP3 ADD DUP1 SWAP3 GT PUSH2 0xE6C JUMPI JUMP INVALID LOG2 PUSH5 0x6970667358 0x22 SLT KECCAK256 PUSH31 0xC38AEF50FEC770C73810E4BF2FF227895529FCF48730399A913528C529C305 PUSH5 0x736F6C6343 STOP ADDMOD EQ STOP CALLER "},"methodIdentifiers":{"deposit(string,uint256)":"8e27d719","distributeRewards(string)":"7082028f","getQuestDeposit(string)":"b221deee","getWinner(string,uint256)":"e38cf509","owner()":"8da5cb5b","questDeposits(string)":"7eda8c8e","refundDeposit(string)":"69524d31","renounceOwnership()":"715018a6","setWinner(string,uint256,address,uint256)":"f0fb1473","setWinners(string,address[],uint256[])":"cca7c95d","transferOwnership(address)":"f2fde38b","winnerAmounts(string,uint256)":"08371f1f","winners(string,uint256)":"11066718"}}}}}