{"contracts/Raffle.sol":{"Raffle":{"abi":[{"inputs":[],"stateMutability":"nonpayable","type":"constructor"},{"inputs":[{"internalType":"address","name":"owner","type":"address"}],"name":"OwnableInvalidOwner","type":"error"},{"inputs":[{"internalType":"address","name":"account","type":"address"}],"name":"OwnableUnauthorizedAccount","type":"error"},{"inputs":[],"name":"ReentrancyGuardReentrantCall","type":"error"},{"inputs":[{"internalType":"address","name":"token","type":"address"}],"name":"SafeERC20FailedOperation","type":"error"},{"anonymous":false,"inputs":[{"indexed":true,"internalType":"string","name":"raidId","type":"string"},{"indexed":true,"internalType":"address","name":"entrant","type":"address"},{"indexed":false,"internalType":"uint256","name":"entryFee","type":"uint256"}],"name":"EntrySubmitted","type":"event"},{"anonymous":false,"inputs":[{"indexed":true,"internalType":"address","name":"previousOwner","type":"address"},{"indexed":true,"internalType":"address","name":"newOwner","type":"address"}],"name":"OwnershipTransferred","type":"event"},{"anonymous":false,"inputs":[{"indexed":true,"internalType":"string","name":"raidId","type":"string"},{"indexed":true,"internalType":"address","name":"creator","type":"address"},{"indexed":false,"internalType":"string","name":"title","type":"string"},{"indexed":false,"internalType":"uint256","name":"entryFee","type":"uint256"},{"indexed":false,"internalType":"uint256","name":"numberOfWinners","type":"uint256"},{"indexed":false,"internalType":"uint256","name":"endTime","type":"uint256"},{"indexed":false,"internalType":"address","name":"rewardToken","type":"address"},{"indexed":false,"internalType":"uint256","name":"totalRewardAmount","type":"uint256"}],"name":"RaffleCreated","type":"event"},{"anonymous":false,"inputs":[{"indexed":true,"internalType":"string","name":"raidId","type":"string"},{"indexed":true,"internalType":"address","name":"creator","type":"address"},{"indexed":false,"internalType":"address","name":"rewardToken","type":"address"},{"indexed":false,"internalType":"uint256","name":"totalAmount","type":"uint256"}],"name":"RewardsDeposited","type":"event"},{"anonymous":false,"inputs":[{"indexed":true,"internalType":"string","name":"raidId","type":"string"},{"indexed":false,"internalType":"address[]","name":"winners","type":"address[]"},{"indexed":false,"internalType":"uint256[]","name":"amounts","type":"uint256[]"}],"name":"RewardsDistributed","type":"event"},{"anonymous":false,"inputs":[{"indexed":true,"internalType":"string","name":"raidId","type":"string"},{"indexed":true,"internalType":"address","name":"creator","type":"address"},{"indexed":false,"internalType":"address","name":"rewardToken","type":"address"},{"indexed":false,"internalType":"uint256","name":"amount","type":"uint256"}],"name":"RewardsRefunded","type":"event"},{"anonymous":false,"inputs":[{"indexed":true,"internalType":"address","name":"user","type":"address"},{"indexed":false,"internalType":"uint256","name":"amount","type":"uint256"}],"name":"ShardsDeposited","type":"event"},{"anonymous":false,"inputs":[{"indexed":true,"internalType":"address","name":"user","type":"address"},{"indexed":false,"internalType":"uint256","name":"amount","type":"uint256"}],"name":"ShardsWithdrawn","type":"event"},{"anonymous":false,"inputs":[{"indexed":true,"internalType":"string","name":"raidId","type":"string"},{"indexed":false,"internalType":"address[]","name":"winners","type":"address[]"},{"indexed":false,"internalType":"uint256[]","name":"rewards","type":"uint256[]"}],"name":"WinnersPicked","type":"event"},{"inputs":[],"name":"MAX_WINNERS","outputs":[{"internalType":"uint256","name":"","type":"uint256"}],"stateMutability":"view","type":"function"},{"inputs":[],"name":"MIN_REWARD_AMOUNT","outputs":[{"internalType":"uint256","name":"","type":"uint256"}],"stateMutability":"view","type":"function"},{"inputs":[{"internalType":"string","name":"raidId","type":"string"},{"internalType":"string","name":"title","type":"string"},{"internalType":"uint256","name":"entryFee","type":"uint256"},{"internalType":"uint256","name":"numberOfWinners","type":"uint256"},{"internalType":"uint256","name":"endTime","type":"uint256"},{"internalType":"address","name":"rewardToken","type":"address"},{"internalType":"uint256","name":"totalRewardAmount","type":"uint256"},{"internalType":"uint256[]","name":"winnerRewards","type":"uint256[]"}],"name":"createRaffle","outputs":[],"stateMutability":"nonpayable","type":"function"},{"inputs":[{"internalType":"uint256","name":"amount","type":"uint256"}],"name":"depositShards","outputs":[],"stateMutability":"nonpayable","type":"function"},{"inputs":[{"internalType":"address","name":"token","type":"address"},{"internalType":"address","name":"to","type":"address"},{"internalType":"uint256","name":"amount","type":"uint256"}],"name":"emergencyRecover","outputs":[],"stateMutability":"nonpayable","type":"function"},{"inputs":[{"internalType":"string","name":"raidId","type":"string"}],"name":"enterRaffle","outputs":[],"stateMutability":"nonpayable","type":"function"},{"inputs":[{"internalType":"string","name":"raidId","type":"string"}],"name":"getEntries","outputs":[{"internalType":"address[]","name":"","type":"address[]"}],"stateMutability":"view","type":"function"},{"inputs":[{"internalType":"string","name":"raidId","type":"string"}],"name":"getRaffleInfo","outputs":[{"internalType":"address","name":"creator","type":"address"},{"internalType":"string","name":"title","type":"string"},{"internalType":"uint256","name":"entryFee","type":"uint256"},{"internalType":"uint256","name":"numberOfWinners","type":"uint256"},{"internalType":"uint256","name":"startTime","type":"uint256"},{"internalType":"uint256","name":"endTime","type":"uint256"},{"internalType":"bool","name":"isActive","type":"bool"},{"internalType":"bool","name":"winnersPicked","type":"bool"},{"internalType":"uint256","name":"entryCount","type":"uint256"},{"internalType":"address[]","name":"winners","type":"address[]"},{"internalType":"address","name":"rewardToken","type":"address"},{"internalType":"uint256","name":"totalRewardAmount","type":"uint256"},{"internalType":"uint256[]","name":"winnerRewards","type":"uint256[]"},{"internalType":"bool","name":"rewardsDeposited","type":"bool"},{"internalType":"bool","name":"rewardsDistributed","type":"bool"}],"stateMutability":"view","type":"function"},{"inputs":[{"internalType":"address","name":"user","type":"address"}],"name":"getShardBalance","outputs":[{"internalType":"uint256","name":"","type":"uint256"}],"stateMutability":"view","type":"function"},{"inputs":[{"internalType":"string","name":"raidId","type":"string"},{"internalType":"address","name":"entrant","type":"address"}],"name":"hasEntered","outputs":[{"internalType":"bool","name":"","type":"bool"}],"stateMutability":"view","type":"function"},{"inputs":[],"name":"owner","outputs":[{"internalType":"address","name":"","type":"address"}],"stateMutability":"view","type":"function"},{"inputs":[{"internalType":"string","name":"raidId","type":"string"}],"name":"pickWinners","outputs":[],"stateMutability":"nonpayable","type":"function"},{"inputs":[{"internalType":"string","name":"","type":"string"}],"name":"raffleExists","outputs":[{"internalType":"bool","name":"","type":"bool"}],"stateMutability":"view","type":"function"},{"inputs":[{"internalType":"string","name":"","type":"string"}],"name":"raffles","outputs":[{"internalType":"address","name":"creator","type":"address"},{"internalType":"string","name":"title","type":"string"},{"internalType":"uint256","name":"entryFee","type":"uint256"},{"internalType":"uint256","name":"numberOfWinners","type":"uint256"},{"internalType":"uint256","name":"startTime","type":"uint256"},{"internalType":"uint256","name":"endTime","type":"uint256"},{"internalType":"bool","name":"isActive","type":"bool"},{"internalType":"bool","name":"winnersPicked","type":"bool"},{"internalType":"address","name":"rewardToken","type":"address"},{"internalType":"uint256","name":"totalRewardAmount","type":"uint256"},{"internalType":"bool","name":"rewardsDeposited","type":"bool"},{"internalType":"bool","name":"rewardsDistributed","type":"bool"}],"stateMutability":"view","type":"function"},{"inputs":[{"internalType":"string","name":"raidId","type":"string"}],"name":"refundRewards","outputs":[],"stateMutability":"nonpayable","type":"function"},{"inputs":[],"name":"renounceOwnership","outputs":[],"stateMutability":"nonpayable","type":"function"},{"inputs":[{"internalType":"address","name":"","type":"address"}],"name":"shardBalances","outputs":[{"internalType":"uint256","name":"","type":"uint256"}],"stateMutability":"view","type":"function"},{"inputs":[{"internalType":"address","name":"newOwner","type":"address"}],"name":"transferOwnership","outputs":[],"stateMutability":"nonpayable","type":"function"}],"evm":{"bytecode":{"linkReferences":{},"object":"6080806040523461007f57600160005533156100695760018054336001600160a01b03198216811790925560405191906001600160a01b03167f8be0079c531659141344cd1fd0a4f28419497f9722a3daafe3b4186f6b6457e0600080a36121cd90816100858239f35b631e4fbdf760e01b815260006004820152602490fd5b600080fdfe6080604052600436101561001257600080fd5b60003560e01c806307ebef70146116375780630eac7b0e1461153957806317cfd77d14610b685780631ac2103c1461091a57806329a62a76146108fe5780634d84e39b1461087c57806350e979cd146108175780635a0715701461062b578063715018a6146107ba5780638da5cb5b1461079157806398ae0ab7146106e9578063ad1329d114610665578063c8efe9e01461062b578063df5da8a614610369578063ed63ef05146101f8578063f2fde38b1461016a578063f6ef85cd146101485763f73ae77f146100e257600080fd5b34610143576020366003190112610143576004356001600160401b0381116101435760ff61012d602061011a81943690600401611c01565b8160405193828580945193849201611c57565b8101600481520301902054166040519015158152f35b600080fd5b3461014357600036600319011261014357602060405166038d7ea4c680008152f35b3461014357602036600319011261014357610183611d95565b61018b611e33565b6001600160a01b039081169081156101df57600154826bffffffffffffffffffffffff60a01b821617600155167f8be0079c531659141344cd1fd0a4f28419497f9722a3daafe3b4186f6b6457e0600080a3005b604051631e4fbdf760e01b815260006004820152602490fd5b34610143576020366003190112610143576004356001600160401b03811161014357610228903690600401611c01565b604051818180935160208193019161023f92611c57565b810160028152036020019020600160a01b600190038082541690600283015492600381015491600482015494600583015493600684015491600785015493600a8601541693600b86015493600d870154976001880161029d90611cb4565b9a6102aa60088a0161213f565b9560405180600c819c01906102be916120c1565b036102c9908b611be0565b6040519c8d9c8d528c6101e06020819201528d016102e691611d5a565b9560408d015260608c015260808b015260a08a015260ff8116151560c08a015260081c60ff16151560e089015261010088015286810361012088015261032b91611dc2565b9161014086015261016085015283810361018085015261034a91611dff565b9060ff811615156101a084015260081c60ff1615156101c08301520390f35b3461014357602080600319360112610143576004356001600160401b0381116101435761039a903690600401611c01565b906103a3611f45565b604051908251818401906103b8818584611c57565b830160028152838360018060a01b0395869303019020541633036105da57816104149161040360ff60405184818a516103f2818389611c57565b810160048152030190205416611f68565b604051809381928851928391611c57565b8101600281520301902091600d83019283549260ff84161561059f5761044060ff8560081c1615612043565b60ff600683015460081c1661055057600582015442101561050c5791817f2c8f35a84efdf657187af6496444a44eadca1a186dc268a5496976e07cb5ab399493600083600a6104c79601541697600b84019081549760ff1916905555600c82019081549060008355816104f1575b5050506104bf8483835416886120fe565b541694611ec9565b604080516001600160a01b03909516855260208501929092529290819081015b0390a36001600055005b6105049260005260002090810190611eb2565b8780806104ae565b6064906040519062461bcd60e51b82526004820152601f60248201527f43616e6e6f7420726566756e6420616674657220726166666c6520656e6473006044820152fd5b6084906040519062461bcd60e51b82526004820152602260248201527f43616e6e6f7420726566756e642061667465722077696e6e657273207069636b604482015261195960f21b6064820152fd5b6064906040519062461bcd60e51b825260048201526014602482015273139bc81c995dd85c991cc81d1bc81c99599d5b9960621b6044820152fd5b60405162461bcd60e51b8152600481018390526024808201527f4f6e6c792063726561746f722063616e20706572666f726d20746869732061636044820152633a34b7b760e11b6064820152608490fd5b34610143576020366003190112610143576001600160a01b0361064c611d95565b1660005260036020526020604060002054604051908152f35b346101435760603660031901126101435761067e611d95565b610686611d7f565b9061068f611e33565b6001600160a01b0391808316156106b0576106ae9260443592166120fe565b005b60405162461bcd60e51b8152602060048201526011602482015270125b9d985b1a59081c9958da5c1a595b9d607a1b6044820152606490fd5b3461014357602036600319011261014357600435801561074c57336000526003602052604060002061071c828254611e98565b90556040519081527f9f35da548699cc4edc6e957ef3de730f6771d9233c127a67e7beaf6b88f868f760203392a2005b60405162461bcd60e51b815260206004820152601d60248201527f416d6f756e74206d7573742062652067726561746572207468616e20300000006044820152606490fd5b34610143576000366003190112610143576001546040516001600160a01b039091168152602090f35b34610143576000366003190112610143576107d3611e33565b600180546001600160a01b031981169091556000906001600160a01b03167f8be0079c531659141344cd1fd0a4f28419497f9722a3daafe3b4186f6b6457e08280a3005b34610143576020366003190112610143576004356001600160401b038111610143576108646007610854602061011a610878953690600401611c01565b810160028152030190200161213f565b604051918291602083526020830190611dc2565b0390f35b34610143576040366003190112610143576004356001600160401b038111610143576108ac903690600401611c01565b60096108cf60206108bb611d7f565b938160405193828580945193849201611c57565b81016002815203019020019060018060a01b0316600052602052602060ff604060002054166040519015158152f35b3461014357600036600319011261014357602060405160648152f35b3461014357602080600319360112610143576004356001600160401b0381116101435761094b903690600401611c01565b90610954611f45565b6109858160405161097460ff8651928481818a01956103f2818389611c57565b604051809381928751928391611c57565b8101600281520301902060ff60068201541615610b2c576005810154421015610af457600981013360005280835260ff60406000205416610aaf5733600052600383526040600020549160028101928354809110610a6a5791610a3c82610a5994610a1860ff600d7fabd6f5ad241b60a26f6c705d07f19f4ec24d68191bebb8f48600df39d9309d829997015416611fac565b3360005260038852610a306040600020918254611ea5565b90556007339101612008565b3360005284526040600020600160ff198254161790555493611ec9565b916040519384523393a36001600055005b60405162461bcd60e51b815260048101869052601a60248201527f496e73756666696369656e742073686172642062616c616e63650000000000006044820152606490fd5b60405162461bcd60e51b815260048101849052601b60248201527f416c726561647920656e7465726564207468697320726166666c6500000000006044820152606490fd5b60405162461bcd60e51b815260048101839052601060248201526f149859999b19481a185cc8195b99195960821b6044820152606490fd5b60405162461bcd60e51b8152600481018390526014602482015273526166666c65206973206e6f742061637469766560601b6044820152606490fd5b3461014357610100366003190112610143576004356001600160401b03811161014357610b99903690600401611c01565b6024356001600160401b03811161014357610bb8903690600401611c01565b9060a4356001600160a01b03811690036101435760e4356001600160401b038111610143573660238201121561014357806004013591610bf783611dab565b91610c056040519384611be0565b838352602083016024819560051b8301019136831161014357602401905b82821061152957505050610c35611f45565b60a4356001600160a01b0316156114e45760a4353b1561149f5760ff6040516020818451610c668183858901611c57565b8101600481520301902054166114625780511561141d578351156113e0576044351561139c576064351561135757606480351161131f574260843511156112da5766038d7ea4c6800060c435106112955760643582510361125057600093845b8351861015610d4857610cd98685611e6e565b5115610d0357610cf7610cfd91610cf08887611e6e565b5190611e98565b95611e5f565b94610cc6565b60405162461bcd60e51b815260206004820152601e60248201527f456163682077696e6e6572206d757374206861766520612072657761726400006044820152606490fd5b849060c4350361120c576040516370a0823160e01b815230600482015260208160248160a4356001600160a01b03165afa9081156111ce576000916111da575b506040516323b872dd60e01b602082015233602482015230604482015260c4356064820152606481528060a08101106001600160401b0360a08301111761108d5760a08101604052610de59060a4356001600160a01b0316611ee9565b6040516370a0823160e01b81523060048201529060208260248160a4356001600160a01b03165afa9182156111ce57600092611198575b50610e2a9060c43592611ea5565b0361115b576040516020818551610e448183858a01611c57565b8101600281520301902093336bffffffffffffffffffffffff60a01b86541617855582516001600160401b03811161108d57610e836001870154611c7a565b601f811161111b575b50806020601f82116001146110ae576000916110a3575b508160011b916000199060031b1c19161760018601555b60443560028601556064356003860155426004860155608435600586015560068501805460ff19166001179055600a850180546001600160a01b03191660a4356001600160a01b031617905560c435600b86015551906001600160401b03821161108d57600160401b821161108d57600c85015482600c87015580831061106c575b50600c8501600052602060002060005b8381106110585761100f8686600d8a01600161ffff198254161790556040516020818451610f7d8183858901611c57565b81016004815203019020600160ff19825416179055610f9b82611ec9565b7f91c356d4870f3f50ebc1bd9641266553bb7789fe7537c5f2dd4bf5dfbca406ff610fd16040519360c0855260c0850190611d5a565b60443560208501526064356040850152608435606085015260a4356001600160a01b0316608085015260c43560a085015233939081900390a3611ec9565b604080516001600160a01b0360a43516815260c43560208201523392917fb5f9f5ab9a0d5a3d59184b2be1a9af2059f5efed01d03c16e5a5220c9c08dc7d9190819081016104e7565b600190602084519401938184015501610f4c565b61108790600c87016000528360206000209182019101611eb2565b85610f3c565b634e487b7160e01b600052604160045260246000fd5b905084015187610ea3565b91506001870160005260206000206000925b601f1983168410611103576001935082601f198116106110ea575b5050811b016001860155610eba565b86015160001960f88460031b161c1916905587806110db565b868101518255602093840193600190920191016110c0565b61114b90600188016000526020600020601f840160051c81019160208510611151575b601f0160051c0190611eb2565b86610e8c565b909150819061113e565b60405162461bcd60e51b8152602060048201526015602482015274151bdad95b881d1c985b9cd9995c8819985a5b1959605a1b6044820152606490fd5b9091506020813d6020116111c6575b816111b460209383611be0565b81010312610143575190610e2a610e1c565b3d91506111a7565b6040513d6000823e3d90fd5b90506020813d602011611204575b816111f560209383611be0565b81010312610143575185610d88565b3d91506111e8565b606460405162461bcd60e51b815260206004820152602060248201527f57696e6e65722072657761726473206d7573742073756d20746f20746f74616c6044820152fd5b60405162461bcd60e51b815260206004820152601e60248201527f57696e6e65722072657761726473206c656e677468206d69736d6174636800006044820152606490fd5b60405162461bcd60e51b815260206004820152601760248201527f52657761726420616d6f756e7420746f6f20736d616c6c0000000000000000006044820152606490fd5b60405162461bcd60e51b815260206004820152601e60248201527f456e642074696d65206d75737420626520696e207468652066757475726500006044820152606490fd5b60405162461bcd60e51b815260206004820152601060248201526f546f6f206d616e792077696e6e65727360801b6044820152606490fd5b60405162461bcd60e51b815260206004820152601b60248201527f4d7573742068617665206174206c6561737420312077696e6e657200000000006044820152606490fd5b606460405162461bcd60e51b815260206004820152602060248201527f456e74727920666565206d7573742062652067726561746572207468616e20306044820152fd5b60405162461bcd60e51b81526020600482015260156024820152745469746c652063616e6e6f7420626520656d70747960581b6044820152606490fd5b60405162461bcd60e51b815260206004820152601760248201527f526169642049442063616e6e6f7420626520656d7074790000000000000000006044820152606490fd5b60405162461bcd60e51b8152602060048201526015602482015274526166666c6520616c72656164792065786973747360581b6044820152606490fd5b60405162461bcd60e51b815260206004820152601860248201527f546f6b656e206d757374206265206120636f6e747261637400000000000000006044820152606490fd5b60405162461bcd60e51b815260206004820152601c60248201527f496e76616c69642072657761726420746f6b656e2061646472657373000000006044820152606490fd5b8135815260209182019101610c23565b34610143576020366003190112610143576004356001600160401b03811161014357602061011a61156e923690600401611c01565b60029082019081520301902080546001600160a01b03919082169060ff61159760018301611cb4565b93600283015492600381015491836004830154916005840154600685015491600a8601541693600d600b870154960154966115e66040519c8d9c8d5260208d61018091829101528d0190611d5a565b9960408c015260608b015260808a015260a0890152818116151560c089015260081c16151560e0870152610100860152610120850152818116151561014085015260081c1615156101608301520390f35b34610143576020366003190112610143576004356001600160401b03811161014357611667903690600401611c01565b61166f611f45565b61168960ff60405160208185516103f28183858a01611c57565b604051602081835161169e8183858801611c57565b8101600281520301902060058101544210611b9b57600681019060ff825460081c16611b5d5760078101908154918215611b18576116f160ff600d8401546116e7828216611fac565b60081c1615612043565b600382015492808411611b10575b6117088161208f565b9160005b828110611adb5750505061171f8361208f565b92436000190160005b82811061198c5750505050610100928361ffff198254161790557f508613ab30a81de3ec9336f93604de1e869e28e05d72f5fb8730a4ae64489adc61179861176f86611ec9565b9260405191829160408352600c6117896040850189611dc2565b918483036020860152016120c1565b0390a260405160208185516117b08183858a01611c57565b81016002815203019020906117cf60ff600d84015460081c1615612043565b600a8201546001600160a01b03168015611950578151946117ef86611dab565b956117fd6040519788611be0565b80875261180c601f1991611dab565b0136602088013760005b83518110156118e2576001600160a01b036118318286611e6e565b5116156118a457611856906000600c870154821061188a575b8061185b575b50611e5f565b611816565b611879816001600160a01b03611871858a611e6e565b5116876120fe565b611883828a611e6e565b5288611850565b5061189881600c8801611ff0565b90549060031b1c61184a565b60405162461bcd60e51b8152602060048201526016602482015275496e76616c69642077696e6e6572206164647265737360501b6044820152606490fd5b600d8501805461ff00191687179055867fdf8864acb674be95440a4e43e6ea5f24c774f53ffe2533088fb98d8c4bcba97b6119388661194661192387611ec9565b94604051938493604085526040850190611dc2565b908382036020850152611dff565b0390a26001600055005b60405162461bcd60e51b815260206004820152601460248201527324b73b30b634b2103932bbb0b932103a37b5b2b760611b6044820152606490fd5b611997818551611ea5565b8015611a9657438311611a8057604051834060208201524260408201524460608201528260808201523360601b60a08201523260601b60b482015260c844818301528152806101008101106001600160401b036101008301111761108d576101008101604052805160209091012006906001600160a01b03611a198387611e6e565b511685519081600019810111611a8057611a7b93611a7692611a60906001600160a01b0390611a5790611a5190889060001901611ea5565b8b611e6e565b51169189611e6e565b5280611a6c848b611e6e565b5260088801612008565b611e5f565b611728565b634e487b7160e01b600052601160045260246000fd5b60405162461bcd60e51b815260206004820152601a60248201527f4d6178206d7573742062652067726561746572207468616e20300000000000006044820152606490fd5b80611ae9611b0b9284611ff0565b905460039190911b1c6001600160a01b0316611b058287611e6e565b52611e5f565b61170c565b9250826116ff565b60405162461bcd60e51b815260206004820152601760248201527f4e6f20656e747269657320746f207069636b2066726f6d0000000000000000006044820152606490fd5b60405162461bcd60e51b815260206004820152601660248201527515da5b9b995c9cc8185b1c9958591e481c1a58dad95960521b6044820152606490fd5b60405162461bcd60e51b815260206004820152601860248201527f526166666c6520686173206e6f7420656e6465642079657400000000000000006044820152606490fd5b90601f801991011681019081106001600160401b0382111761108d57604052565b81601f82011215610143578035906001600160401b03821161108d5760405192611c35601f8401601f191660200185611be0565b8284526020838301011161014357816000926020809301838601378301015290565b60005b838110611c6a5750506000910152565b8181015183820152602001611c5a565b90600182811c92168015611caa575b6020831014611c9457565b634e487b7160e01b600052602260045260246000fd5b91607f1691611c89565b9060405191826000825492611cc884611c7a565b908184526001948581169081600014611d375750600114611cf4575b5050611cf292500383611be0565b565b9093915060005260209081600020936000915b818310611d1f575050611cf293508201013880611ce4565b85548884018501529485019487945091830191611d07565b915050611cf294506020925060ff191682840152151560051b8201013880611ce4565b90602091611d7381518092818552858086019101611c57565b601f01601f1916010190565b602435906001600160a01b038216820361014357565b600435906001600160a01b038216820361014357565b6001600160401b03811161108d5760051b60200190565b90815180825260208080930193019160005b828110611de2575050505090565b83516001600160a01b031685529381019392810192600101611dd4565b90815180825260208080930193019160005b828110611e1f575050505090565b835185529381019392810192600101611e11565b6001546001600160a01b03163303611e4757565b60405163118cdaa760e01b8152336004820152602490fd5b6000198114611a805760010190565b8051821015611e825760209160051b010190565b634e487b7160e01b600052603260045260246000fd5b91908201809211611a8057565b91908203918211611a8057565b818110611ebd575050565b60008155600101611eb2565b611ee190602060405192828480945193849201611c57565b810103902090565b906000602091828151910182855af1156111ce576000513d611f3c57506001600160a01b0381163b155b611f1a5750565b604051635274afe760e01b81526001600160a01b039091166004820152602490fd5b60011415611f13565b600260005414611f56576002600055565b604051633ee5aeb560e01b8152600490fd5b15611f6f57565b60405162461bcd60e51b8152602060048201526015602482015274149859999b1948191bd95cc81b9bdd08195e1a5cdd605a1b6044820152606490fd5b15611fb357565b60405162461bcd60e51b815260206004820152601560248201527414995dd85c991cc81b9bdd0819195c1bdcda5d1959605a1b6044820152606490fd5b8054821015611e825760005260206000200190600090565b8054600160401b81101561108d5761202591600182018155611ff0565b819291549060031b9160018060a01b03809116831b921b1916179055565b1561204a57565b60405162461bcd60e51b815260206004820152601b60248201527f5265776172647320616c726561647920646973747269627574656400000000006044820152606490fd5b9061209982611dab565b6120a66040519182611be0565b82815280926120b7601f1991611dab565b0190602036910137565b90815480825260208092019260005281600020916000905b8282106120e7575050505090565b8354855293840193600193840193909101906120d9565b60405163a9059cbb60e01b60208201526001600160a01b03929092166024830152604480830193909352918152611cf29161213a606483611be0565b611ee9565b9060405191828154918282526020928383019160005283600020936000905b82821061217457505050611cf292500383611be0565b85546001600160a01b03168452600195860195889550938101939091019061215e56fea26469706673582212205a4c9d09350670a7de680bb337b86f4073594c3fb24f8654bb8db1e4e34f478164736f6c63430008140033","opcodes":"PUSH1 0x80 DUP1 PUSH1 0x40 MSTORE CALLVALUE PUSH2 0x7F JUMPI PUSH1 0x1 PUSH1 0x0 SSTORE CALLER ISZERO PUSH2 0x69 JUMPI PUSH1 0x1 DUP1 SLOAD CALLER PUSH1 0x1 PUSH1 0x1 PUSH1 0xA0 SHL SUB NOT DUP3 AND DUP2 OR SWAP1 SWAP3 SSTORE PUSH1 0x40 MLOAD SWAP2 SWAP1 PUSH1 0x1 PUSH1 0x1 PUSH1 0xA0 SHL SUB AND PUSH32 0x8BE0079C531659141344CD1FD0A4F28419497F9722A3DAAFE3B4186F6B6457E0 PUSH1 0x0 DUP1 LOG3 PUSH2 0x21CD SWAP1 DUP2 PUSH2 0x85 DUP3 CODECOPY RETURN JUMPDEST PUSH4 0x1E4FBDF7 PUSH1 0xE0 SHL DUP2 MSTORE PUSH1 0x0 PUSH1 0x4 DUP3 ADD MSTORE PUSH1 0x24 SWAP1 REVERT JUMPDEST PUSH1 0x0 DUP1 REVERT INVALID PUSH1 0x80 PUSH1 0x40 MSTORE PUSH1 0x4 CALLDATASIZE LT ISZERO PUSH2 0x12 JUMPI PUSH1 0x0 DUP1 REVERT JUMPDEST PUSH1 0x0 CALLDATALOAD PUSH1 0xE0 SHR DUP1 PUSH4 0x7EBEF70 EQ PUSH2 0x1637 JUMPI DUP1 PUSH4 0xEAC7B0E EQ PUSH2 0x1539 JUMPI DUP1 PUSH4 0x17CFD77D EQ PUSH2 0xB68 JUMPI DUP1 PUSH4 0x1AC2103C EQ PUSH2 0x91A JUMPI DUP1 PUSH4 0x29A62A76 EQ PUSH2 0x8FE JUMPI DUP1 PUSH4 0x4D84E39B EQ PUSH2 0x87C JUMPI DUP1 PUSH4 0x50E979CD EQ PUSH2 0x817 JUMPI DUP1 PUSH4 0x5A071570 EQ PUSH2 0x62B JUMPI DUP1 PUSH4 0x715018A6 EQ PUSH2 0x7BA JUMPI DUP1 PUSH4 0x8DA5CB5B EQ PUSH2 0x791 JUMPI DUP1 PUSH4 0x98AE0AB7 EQ PUSH2 0x6E9 JUMPI DUP1 PUSH4 0xAD1329D1 EQ PUSH2 0x665 JUMPI DUP1 PUSH4 0xC8EFE9E0 EQ PUSH2 0x62B JUMPI DUP1 PUSH4 0xDF5DA8A6 EQ PUSH2 0x369 JUMPI DUP1 PUSH4 0xED63EF05 EQ PUSH2 0x1F8 JUMPI DUP1 PUSH4 0xF2FDE38B EQ PUSH2 0x16A JUMPI DUP1 PUSH4 0xF6EF85CD EQ PUSH2 0x148 JUMPI PUSH4 0xF73AE77F EQ PUSH2 0xE2 JUMPI PUSH1 0x0 DUP1 REVERT JUMPDEST CALLVALUE PUSH2 0x143 JUMPI PUSH1 0x20 CALLDATASIZE PUSH1 0x3 NOT ADD SLT PUSH2 0x143 JUMPI PUSH1 0x4 CALLDATALOAD PUSH1 0x1 PUSH1 0x1 PUSH1 0x40 SHL SUB DUP2 GT PUSH2 0x143 JUMPI PUSH1 0xFF PUSH2 0x12D PUSH1 0x20 PUSH2 0x11A DUP2 SWAP5 CALLDATASIZE SWAP1 PUSH1 0x4 ADD PUSH2 0x1C01 JUMP JUMPDEST DUP2 PUSH1 0x40 MLOAD SWAP4 DUP3 DUP6 DUP1 SWAP5 MLOAD SWAP4 DUP5 SWAP3 ADD PUSH2 0x1C57 JUMP JUMPDEST DUP2 ADD PUSH1 0x4 DUP2 MSTORE SUB ADD SWAP1 KECCAK256 SLOAD AND PUSH1 0x40 MLOAD SWAP1 ISZERO ISZERO DUP2 MSTORE RETURN JUMPDEST PUSH1 0x0 DUP1 REVERT JUMPDEST CALLVALUE PUSH2 0x143 JUMPI PUSH1 0x0 CALLDATASIZE PUSH1 0x3 NOT ADD SLT PUSH2 0x143 JUMPI PUSH1 0x20 PUSH1 0x40 MLOAD PUSH7 0x38D7EA4C68000 DUP2 MSTORE RETURN JUMPDEST CALLVALUE PUSH2 0x143 JUMPI PUSH1 0x20 CALLDATASIZE PUSH1 0x3 NOT ADD SLT PUSH2 0x143 JUMPI PUSH2 0x183 PUSH2 0x1D95 JUMP JUMPDEST PUSH2 0x18B PUSH2 0x1E33 JUMP JUMPDEST PUSH1 0x1 PUSH1 0x1 PUSH1 0xA0 SHL SUB SWAP1 DUP2 AND SWAP1 DUP2 ISZERO PUSH2 0x1DF JUMPI PUSH1 0x1 SLOAD DUP3 PUSH12 0xFFFFFFFFFFFFFFFFFFFFFFFF PUSH1 0xA0 SHL DUP3 AND OR PUSH1 0x1 SSTORE AND PUSH32 0x8BE0079C531659141344CD1FD0A4F28419497F9722A3DAAFE3B4186F6B6457E0 PUSH1 0x0 DUP1 LOG3 STOP JUMPDEST PUSH1 0x40 MLOAD PUSH4 0x1E4FBDF7 PUSH1 0xE0 SHL DUP2 MSTORE PUSH1 0x0 PUSH1 0x4 DUP3 ADD MSTORE PUSH1 0x24 SWAP1 REVERT JUMPDEST CALLVALUE PUSH2 0x143 JUMPI PUSH1 0x20 CALLDATASIZE PUSH1 0x3 NOT ADD SLT PUSH2 0x143 JUMPI PUSH1 0x4 CALLDATALOAD PUSH1 0x1 PUSH1 0x1 PUSH1 0x40 SHL SUB DUP2 GT PUSH2 0x143 JUMPI PUSH2 0x228 SWAP1 CALLDATASIZE SWAP1 PUSH1 0x4 ADD PUSH2 0x1C01 JUMP JUMPDEST PUSH1 0x40 MLOAD DUP2 DUP2 DUP1 SWAP4 MLOAD PUSH1 0x20 DUP2 SWAP4 ADD SWAP2 PUSH2 0x23F SWAP3 PUSH2 0x1C57 JUMP JUMPDEST DUP2 ADD PUSH1 0x2 DUP2 MSTORE SUB PUSH1 0x20 ADD SWAP1 KECCAK256 PUSH1 0x1 PUSH1 0xA0 SHL PUSH1 0x1 SWAP1 SUB DUP1 DUP3 SLOAD AND SWAP1 PUSH1 0x2 DUP4 ADD SLOAD SWAP3 PUSH1 0x3 DUP2 ADD SLOAD SWAP2 PUSH1 0x4 DUP3 ADD SLOAD SWAP5 PUSH1 0x5 DUP4 ADD SLOAD SWAP4 PUSH1 0x6 DUP5 ADD SLOAD SWAP2 PUSH1 0x7 DUP6 ADD SLOAD SWAP4 PUSH1 0xA DUP7 ADD SLOAD AND SWAP4 PUSH1 0xB DUP7 ADD SLOAD SWAP4 PUSH1 0xD DUP8 ADD SLOAD SWAP8 PUSH1 0x1 DUP9 ADD PUSH2 0x29D SWAP1 PUSH2 0x1CB4 JUMP JUMPDEST SWAP11 PUSH2 0x2AA PUSH1 0x8 DUP11 ADD PUSH2 0x213F JUMP JUMPDEST SWAP6 PUSH1 0x40 MLOAD DUP1 PUSH1 0xC DUP2 SWAP13 ADD SWAP1 PUSH2 0x2BE SWAP2 PUSH2 0x20C1 JUMP JUMPDEST SUB PUSH2 0x2C9 SWAP1 DUP12 PUSH2 0x1BE0 JUMP JUMPDEST PUSH1 0x40 MLOAD SWAP13 DUP14 SWAP13 DUP14 MSTORE DUP13 PUSH2 0x1E0 PUSH1 0x20 DUP2 SWAP3 ADD MSTORE DUP14 ADD PUSH2 0x2E6 SWAP2 PUSH2 0x1D5A JUMP JUMPDEST SWAP6 PUSH1 0x40 DUP14 ADD MSTORE PUSH1 0x60 DUP13 ADD MSTORE PUSH1 0x80 DUP12 ADD MSTORE PUSH1 0xA0 DUP11 ADD MSTORE PUSH1 0xFF DUP2 AND ISZERO ISZERO PUSH1 0xC0 DUP11 ADD MSTORE PUSH1 0x8 SHR PUSH1 0xFF AND ISZERO ISZERO PUSH1 0xE0 DUP10 ADD MSTORE PUSH2 0x100 DUP9 ADD MSTORE DUP7 DUP2 SUB PUSH2 0x120 DUP9 ADD MSTORE PUSH2 0x32B SWAP2 PUSH2 0x1DC2 JUMP JUMPDEST SWAP2 PUSH2 0x140 DUP7 ADD MSTORE PUSH2 0x160 DUP6 ADD MSTORE DUP4 DUP2 SUB PUSH2 0x180 DUP6 ADD MSTORE PUSH2 0x34A SWAP2 PUSH2 0x1DFF JUMP JUMPDEST SWAP1 PUSH1 0xFF DUP2 AND ISZERO ISZERO PUSH2 0x1A0 DUP5 ADD MSTORE PUSH1 0x8 SHR PUSH1 0xFF AND ISZERO ISZERO PUSH2 0x1C0 DUP4 ADD MSTORE SUB SWAP1 RETURN JUMPDEST CALLVALUE PUSH2 0x143 JUMPI PUSH1 0x20 DUP1 PUSH1 0x3 NOT CALLDATASIZE ADD SLT PUSH2 0x143 JUMPI PUSH1 0x4 CALLDATALOAD PUSH1 0x1 PUSH1 0x1 PUSH1 0x40 SHL SUB DUP2 GT PUSH2 0x143 JUMPI PUSH2 0x39A SWAP1 CALLDATASIZE SWAP1 PUSH1 0x4 ADD PUSH2 0x1C01 JUMP JUMPDEST SWAP1 PUSH2 0x3A3 PUSH2 0x1F45 JUMP JUMPDEST PUSH1 0x40 MLOAD SWAP1 DUP3 MLOAD DUP2 DUP5 ADD SWAP1 PUSH2 0x3B8 DUP2 DUP6 DUP5 PUSH2 0x1C57 JUMP JUMPDEST DUP4 ADD PUSH1 0x2 DUP2 MSTORE DUP4 DUP4 PUSH1 0x1 DUP1 PUSH1 0xA0 SHL SUB SWAP6 DUP7 SWAP4 SUB ADD SWAP1 KECCAK256 SLOAD AND CALLER SUB PUSH2 0x5DA JUMPI DUP2 PUSH2 0x414 SWAP2 PUSH2 0x403 PUSH1 0xFF PUSH1 0x40 MLOAD DUP5 DUP2 DUP11 MLOAD PUSH2 0x3F2 DUP2 DUP4 DUP10 PUSH2 0x1C57 JUMP JUMPDEST DUP2 ADD PUSH1 0x4 DUP2 MSTORE SUB ADD SWAP1 KECCAK256 SLOAD AND PUSH2 0x1F68 JUMP JUMPDEST PUSH1 0x40 MLOAD DUP1 SWAP4 DUP2 SWAP3 DUP9 MLOAD SWAP3 DUP4 SWAP2 PUSH2 0x1C57 JUMP JUMPDEST DUP2 ADD PUSH1 0x2 DUP2 MSTORE SUB ADD SWAP1 KECCAK256 SWAP2 PUSH1 0xD DUP4 ADD SWAP3 DUP4 SLOAD SWAP3 PUSH1 0xFF DUP5 AND ISZERO PUSH2 0x59F JUMPI PUSH2 0x440 PUSH1 0xFF DUP6 PUSH1 0x8 SHR AND ISZERO PUSH2 0x2043 JUMP JUMPDEST PUSH1 0xFF PUSH1 0x6 DUP4 ADD SLOAD PUSH1 0x8 SHR AND PUSH2 0x550 JUMPI PUSH1 0x5 DUP3 ADD SLOAD TIMESTAMP LT ISZERO PUSH2 0x50C JUMPI SWAP2 DUP2 PUSH32 0x2C8F35A84EFDF657187AF6496444A44EADCA1A186DC268A5496976E07CB5AB39 SWAP5 SWAP4 PUSH1 0x0 DUP4 PUSH1 0xA PUSH2 0x4C7 SWAP7 ADD SLOAD AND SWAP8 PUSH1 0xB DUP5 ADD SWAP1 DUP2 SLOAD SWAP8 PUSH1 0xFF NOT AND SWAP1 SSTORE SSTORE PUSH1 0xC DUP3 ADD SWAP1 DUP2 SLOAD SWAP1 PUSH1 0x0 DUP4 SSTORE DUP2 PUSH2 0x4F1 JUMPI JUMPDEST POP POP POP PUSH2 0x4BF DUP5 DUP4 DUP4 SLOAD AND DUP9 PUSH2 0x20FE JUMP JUMPDEST SLOAD AND SWAP5 PUSH2 0x1EC9 JUMP JUMPDEST PUSH1 0x40 DUP1 MLOAD PUSH1 0x1 PUSH1 0x1 PUSH1 0xA0 SHL SUB SWAP1 SWAP6 AND DUP6 MSTORE PUSH1 0x20 DUP6 ADD SWAP3 SWAP1 SWAP3 MSTORE SWAP3 SWAP1 DUP2 SWAP1 DUP2 ADD JUMPDEST SUB SWAP1 LOG3 PUSH1 0x1 PUSH1 0x0 SSTORE STOP JUMPDEST PUSH2 0x504 SWAP3 PUSH1 0x0 MSTORE PUSH1 0x0 KECCAK256 SWAP1 DUP2 ADD SWAP1 PUSH2 0x1EB2 JUMP JUMPDEST DUP8 DUP1 DUP1 PUSH2 0x4AE JUMP JUMPDEST PUSH1 0x64 SWAP1 PUSH1 0x40 MLOAD SWAP1 PUSH3 0x461BCD PUSH1 0xE5 SHL DUP3 MSTORE PUSH1 0x4 DUP3 ADD MSTORE PUSH1 0x1F PUSH1 0x24 DUP3 ADD MSTORE PUSH32 0x43616E6E6F7420726566756E6420616674657220726166666C6520656E647300 PUSH1 0x44 DUP3 ADD MSTORE REVERT JUMPDEST PUSH1 0x84 SWAP1 PUSH1 0x40 MLOAD SWAP1 PUSH3 0x461BCD PUSH1 0xE5 SHL DUP3 MSTORE PUSH1 0x4 DUP3 ADD MSTORE PUSH1 0x22 PUSH1 0x24 DUP3 ADD MSTORE PUSH32 0x43616E6E6F7420726566756E642061667465722077696E6E657273207069636B PUSH1 0x44 DUP3 ADD MSTORE PUSH2 0x1959 PUSH1 0xF2 SHL PUSH1 0x64 DUP3 ADD MSTORE REVERT JUMPDEST PUSH1 0x64 SWAP1 PUSH1 0x40 MLOAD SWAP1 PUSH3 0x461BCD PUSH1 0xE5 SHL DUP3 MSTORE PUSH1 0x4 DUP3 ADD MSTORE PUSH1 0x14 PUSH1 0x24 DUP3 ADD MSTORE PUSH20 0x139BC81C995DD85C991CC81D1BC81C99599D5B99 PUSH1 0x62 SHL PUSH1 0x44 DUP3 ADD MSTORE REVERT JUMPDEST PUSH1 0x40 MLOAD PUSH3 0x461BCD PUSH1 0xE5 SHL DUP2 MSTORE PUSH1 0x4 DUP2 ADD DUP4 SWAP1 MSTORE PUSH1 0x24 DUP1 DUP3 ADD MSTORE PUSH32 0x4F6E6C792063726561746F722063616E20706572666F726D2074686973206163 PUSH1 0x44 DUP3 ADD MSTORE PUSH4 0x3A34B7B7 PUSH1 0xE1 SHL PUSH1 0x64 DUP3 ADD MSTORE PUSH1 0x84 SWAP1 REVERT JUMPDEST CALLVALUE PUSH2 0x143 JUMPI PUSH1 0x20 CALLDATASIZE PUSH1 0x3 NOT ADD SLT PUSH2 0x143 JUMPI PUSH1 0x1 PUSH1 0x1 PUSH1 0xA0 SHL SUB PUSH2 0x64C PUSH2 0x1D95 JUMP JUMPDEST AND PUSH1 0x0 MSTORE PUSH1 0x3 PUSH1 0x20 MSTORE PUSH1 0x20 PUSH1 0x40 PUSH1 0x0 KECCAK256 SLOAD PUSH1 0x40 MLOAD SWAP1 DUP2 MSTORE RETURN JUMPDEST CALLVALUE PUSH2 0x143 JUMPI PUSH1 0x60 CALLDATASIZE PUSH1 0x3 NOT ADD SLT PUSH2 0x143 JUMPI PUSH2 0x67E PUSH2 0x1D95 JUMP JUMPDEST PUSH2 0x686 PUSH2 0x1D7F JUMP JUMPDEST SWAP1 PUSH2 0x68F PUSH2 0x1E33 JUMP JUMPDEST PUSH1 0x1 PUSH1 0x1 PUSH1 0xA0 SHL SUB SWAP2 DUP1 DUP4 AND ISZERO PUSH2 0x6B0 JUMPI PUSH2 0x6AE SWAP3 PUSH1 0x44 CALLDATALOAD SWAP3 AND PUSH2 0x20FE JUMP JUMPDEST STOP JUMPDEST PUSH1 0x40 MLOAD PUSH3 0x461BCD PUSH1 0xE5 SHL DUP2 MSTORE PUSH1 0x20 PUSH1 0x4 DUP3 ADD MSTORE PUSH1 0x11 PUSH1 0x24 DUP3 ADD MSTORE PUSH17 0x125B9D985B1A59081C9958DA5C1A595B9D PUSH1 0x7A SHL PUSH1 0x44 DUP3 ADD MSTORE PUSH1 0x64 SWAP1 REVERT JUMPDEST CALLVALUE PUSH2 0x143 JUMPI PUSH1 0x20 CALLDATASIZE PUSH1 0x3 NOT ADD SLT PUSH2 0x143 JUMPI PUSH1 0x4 CALLDATALOAD DUP1 ISZERO PUSH2 0x74C JUMPI CALLER PUSH1 0x0 MSTORE PUSH1 0x3 PUSH1 0x20 MSTORE PUSH1 0x40 PUSH1 0x0 KECCAK256 PUSH2 0x71C DUP3 DUP3 SLOAD PUSH2 0x1E98 JUMP JUMPDEST SWAP1 SSTORE PUSH1 0x40 MLOAD SWAP1 DUP2 MSTORE PUSH32 0x9F35DA548699CC4EDC6E957EF3DE730F6771D9233C127A67E7BEAF6B88F868F7 PUSH1 0x20 CALLER SWAP3 LOG2 STOP JUMPDEST PUSH1 0x40 MLOAD PUSH3 0x461BCD PUSH1 0xE5 SHL DUP2 MSTORE PUSH1 0x20 PUSH1 0x4 DUP3 ADD MSTORE PUSH1 0x1D PUSH1 0x24 DUP3 ADD MSTORE PUSH32 0x416D6F756E74206D7573742062652067726561746572207468616E2030000000 PUSH1 0x44 DUP3 ADD MSTORE PUSH1 0x64 SWAP1 REVERT JUMPDEST CALLVALUE PUSH2 0x143 JUMPI PUSH1 0x0 CALLDATASIZE PUSH1 0x3 NOT ADD SLT PUSH2 0x143 JUMPI PUSH1 0x1 SLOAD PUSH1 0x40 MLOAD PUSH1 0x1 PUSH1 0x1 PUSH1 0xA0 SHL SUB SWAP1 SWAP2 AND DUP2 MSTORE PUSH1 0x20 SWAP1 RETURN JUMPDEST CALLVALUE PUSH2 0x143 JUMPI PUSH1 0x0 CALLDATASIZE PUSH1 0x3 NOT ADD SLT PUSH2 0x143 JUMPI PUSH2 0x7D3 PUSH2 0x1E33 JUMP JUMPDEST PUSH1 0x1 DUP1 SLOAD PUSH1 0x1 PUSH1 0x1 PUSH1 0xA0 SHL SUB NOT DUP2 AND SWAP1 SWAP2 SSTORE PUSH1 0x0 SWAP1 PUSH1 0x1 PUSH1 0x1 PUSH1 0xA0 SHL SUB AND PUSH32 0x8BE0079C531659141344CD1FD0A4F28419497F9722A3DAAFE3B4186F6B6457E0 DUP3 DUP1 LOG3 STOP JUMPDEST CALLVALUE PUSH2 0x143 JUMPI PUSH1 0x20 CALLDATASIZE PUSH1 0x3 NOT ADD SLT PUSH2 0x143 JUMPI PUSH1 0x4 CALLDATALOAD PUSH1 0x1 PUSH1 0x1 PUSH1 0x40 SHL SUB DUP2 GT PUSH2 0x143 JUMPI PUSH2 0x864 PUSH1 0x7 PUSH2 0x854 PUSH1 0x20 PUSH2 0x11A PUSH2 0x878 SWAP6 CALLDATASIZE SWAP1 PUSH1 0x4 ADD PUSH2 0x1C01 JUMP JUMPDEST DUP2 ADD PUSH1 0x2 DUP2 MSTORE SUB ADD SWAP1 KECCAK256 ADD PUSH2 0x213F JUMP JUMPDEST PUSH1 0x40 MLOAD SWAP2 DUP3 SWAP2 PUSH1 0x20 DUP4 MSTORE PUSH1 0x20 DUP4 ADD SWAP1 PUSH2 0x1DC2 JUMP JUMPDEST SUB SWAP1 RETURN JUMPDEST CALLVALUE PUSH2 0x143 JUMPI PUSH1 0x40 CALLDATASIZE PUSH1 0x3 NOT ADD SLT PUSH2 0x143 JUMPI PUSH1 0x4 CALLDATALOAD PUSH1 0x1 PUSH1 0x1 PUSH1 0x40 SHL SUB DUP2 GT PUSH2 0x143 JUMPI PUSH2 0x8AC SWAP1 CALLDATASIZE SWAP1 PUSH1 0x4 ADD PUSH2 0x1C01 JUMP JUMPDEST PUSH1 0x9 PUSH2 0x8CF PUSH1 0x20 PUSH2 0x8BB PUSH2 0x1D7F JUMP JUMPDEST SWAP4 DUP2 PUSH1 0x40 MLOAD SWAP4 DUP3 DUP6 DUP1 SWAP5 MLOAD SWAP4 DUP5 SWAP3 ADD PUSH2 0x1C57 JUMP JUMPDEST DUP2 ADD PUSH1 0x2 DUP2 MSTORE SUB ADD SWAP1 KECCAK256 ADD SWAP1 PUSH1 0x1 DUP1 PUSH1 0xA0 SHL SUB AND PUSH1 0x0 MSTORE PUSH1 0x20 MSTORE PUSH1 0x20 PUSH1 0xFF PUSH1 0x40 PUSH1 0x0 KECCAK256 SLOAD AND PUSH1 0x40 MLOAD SWAP1 ISZERO ISZERO DUP2 MSTORE RETURN JUMPDEST CALLVALUE PUSH2 0x143 JUMPI PUSH1 0x0 CALLDATASIZE PUSH1 0x3 NOT ADD SLT PUSH2 0x143 JUMPI PUSH1 0x20 PUSH1 0x40 MLOAD PUSH1 0x64 DUP2 MSTORE RETURN JUMPDEST CALLVALUE PUSH2 0x143 JUMPI PUSH1 0x20 DUP1 PUSH1 0x3 NOT CALLDATASIZE ADD SLT PUSH2 0x143 JUMPI PUSH1 0x4 CALLDATALOAD PUSH1 0x1 PUSH1 0x1 PUSH1 0x40 SHL SUB DUP2 GT PUSH2 0x143 JUMPI PUSH2 0x94B SWAP1 CALLDATASIZE SWAP1 PUSH1 0x4 ADD PUSH2 0x1C01 JUMP JUMPDEST SWAP1 PUSH2 0x954 PUSH2 0x1F45 JUMP JUMPDEST PUSH2 0x985 DUP2 PUSH1 0x40 MLOAD PUSH2 0x974 PUSH1 0xFF DUP7 MLOAD SWAP3 DUP5 DUP2 DUP2 DUP11 ADD SWAP6 PUSH2 0x3F2 DUP2 DUP4 DUP10 PUSH2 0x1C57 JUMP JUMPDEST PUSH1 0x40 MLOAD DUP1 SWAP4 DUP2 SWAP3 DUP8 MLOAD SWAP3 DUP4 SWAP2 PUSH2 0x1C57 JUMP JUMPDEST DUP2 ADD PUSH1 0x2 DUP2 MSTORE SUB ADD SWAP1 KECCAK256 PUSH1 0xFF PUSH1 0x6 DUP3 ADD SLOAD AND ISZERO PUSH2 0xB2C JUMPI PUSH1 0x5 DUP2 ADD SLOAD TIMESTAMP LT ISZERO PUSH2 0xAF4 JUMPI PUSH1 0x9 DUP2 ADD CALLER PUSH1 0x0 MSTORE DUP1 DUP4 MSTORE PUSH1 0xFF PUSH1 0x40 PUSH1 0x0 KECCAK256 SLOAD AND PUSH2 0xAAF JUMPI CALLER PUSH1 0x0 MSTORE PUSH1 0x3 DUP4 MSTORE PUSH1 0x40 PUSH1 0x0 KECCAK256 SLOAD SWAP2 PUSH1 0x2 DUP2 ADD SWAP3 DUP4 SLOAD DUP1 SWAP2 LT PUSH2 0xA6A JUMPI SWAP2 PUSH2 0xA3C DUP3 PUSH2 0xA59 SWAP5 PUSH2 0xA18 PUSH1 0xFF PUSH1 0xD PUSH32 0xABD6F5AD241B60A26F6C705D07F19F4EC24D68191BEBB8F48600DF39D9309D82 SWAP10 SWAP8 ADD SLOAD AND PUSH2 0x1FAC JUMP JUMPDEST CALLER PUSH1 0x0 MSTORE PUSH1 0x3 DUP9 MSTORE PUSH2 0xA30 PUSH1 0x40 PUSH1 0x0 KECCAK256 SWAP2 DUP3 SLOAD PUSH2 0x1EA5 JUMP JUMPDEST SWAP1 SSTORE PUSH1 0x7 CALLER SWAP2 ADD PUSH2 0x2008 JUMP JUMPDEST CALLER PUSH1 0x0 MSTORE DUP5 MSTORE PUSH1 0x40 PUSH1 0x0 KECCAK256 PUSH1 0x1 PUSH1 0xFF NOT DUP3 SLOAD AND OR SWAP1 SSTORE SLOAD SWAP4 PUSH2 0x1EC9 JUMP JUMPDEST SWAP2 PUSH1 0x40 MLOAD SWAP4 DUP5 MSTORE CALLER SWAP4 LOG3 PUSH1 0x1 PUSH1 0x0 SSTORE STOP JUMPDEST PUSH1 0x40 MLOAD PUSH3 0x461BCD PUSH1 0xE5 SHL DUP2 MSTORE PUSH1 0x4 DUP2 ADD DUP7 SWAP1 MSTORE PUSH1 0x1A PUSH1 0x24 DUP3 ADD MSTORE PUSH32 0x496E73756666696369656E742073686172642062616C616E6365000000000000 PUSH1 0x44 DUP3 ADD MSTORE PUSH1 0x64 SWAP1 REVERT JUMPDEST PUSH1 0x40 MLOAD PUSH3 0x461BCD PUSH1 0xE5 SHL DUP2 MSTORE PUSH1 0x4 DUP2 ADD DUP5 SWAP1 MSTORE PUSH1 0x1B PUSH1 0x24 DUP3 ADD MSTORE PUSH32 0x416C726561647920656E7465726564207468697320726166666C650000000000 PUSH1 0x44 DUP3 ADD MSTORE PUSH1 0x64 SWAP1 REVERT JUMPDEST PUSH1 0x40 MLOAD PUSH3 0x461BCD PUSH1 0xE5 SHL DUP2 MSTORE PUSH1 0x4 DUP2 ADD DUP4 SWAP1 MSTORE PUSH1 0x10 PUSH1 0x24 DUP3 ADD MSTORE PUSH16 0x149859999B19481A185CC8195B991959 PUSH1 0x82 SHL PUSH1 0x44 DUP3 ADD MSTORE PUSH1 0x64 SWAP1 REVERT JUMPDEST PUSH1 0x40 MLOAD PUSH3 0x461BCD PUSH1 0xE5 SHL DUP2 MSTORE PUSH1 0x4 DUP2 ADD DUP4 SWAP1 MSTORE PUSH1 0x14 PUSH1 0x24 DUP3 ADD MSTORE PUSH20 0x526166666C65206973206E6F7420616374697665 PUSH1 0x60 SHL PUSH1 0x44 DUP3 ADD MSTORE PUSH1 0x64 SWAP1 REVERT JUMPDEST CALLVALUE PUSH2 0x143 JUMPI PUSH2 0x100 CALLDATASIZE PUSH1 0x3 NOT ADD SLT PUSH2 0x143 JUMPI PUSH1 0x4 CALLDATALOAD PUSH1 0x1 PUSH1 0x1 PUSH1 0x40 SHL SUB DUP2 GT PUSH2 0x143 JUMPI PUSH2 0xB99 SWAP1 CALLDATASIZE SWAP1 PUSH1 0x4 ADD PUSH2 0x1C01 JUMP JUMPDEST PUSH1 0x24 CALLDATALOAD PUSH1 0x1 PUSH1 0x1 PUSH1 0x40 SHL SUB DUP2 GT PUSH2 0x143 JUMPI PUSH2 0xBB8 SWAP1 CALLDATASIZE SWAP1 PUSH1 0x4 ADD PUSH2 0x1C01 JUMP JUMPDEST SWAP1 PUSH1 0xA4 CALLDATALOAD PUSH1 0x1 PUSH1 0x1 PUSH1 0xA0 SHL SUB DUP2 AND SWAP1 SUB PUSH2 0x143 JUMPI PUSH1 0xE4 CALLDATALOAD PUSH1 0x1 PUSH1 0x1 PUSH1 0x40 SHL SUB DUP2 GT PUSH2 0x143 JUMPI CALLDATASIZE PUSH1 0x23 DUP3 ADD SLT ISZERO PUSH2 0x143 JUMPI DUP1 PUSH1 0x4 ADD CALLDATALOAD SWAP2 PUSH2 0xBF7 DUP4 PUSH2 0x1DAB JUMP JUMPDEST SWAP2 PUSH2 0xC05 PUSH1 0x40 MLOAD SWAP4 DUP5 PUSH2 0x1BE0 JUMP JUMPDEST DUP4 DUP4 MSTORE PUSH1 0x20 DUP4 ADD PUSH1 0x24 DUP2 SWAP6 PUSH1 0x5 SHL DUP4 ADD ADD SWAP2 CALLDATASIZE DUP4 GT PUSH2 0x143 JUMPI PUSH1 0x24 ADD SWAP1 JUMPDEST DUP3 DUP3 LT PUSH2 0x1529 JUMPI POP POP POP PUSH2 0xC35 PUSH2 0x1F45 JUMP JUMPDEST PUSH1 0xA4 CALLDATALOAD PUSH1 0x1 PUSH1 0x1 PUSH1 0xA0 SHL SUB AND ISZERO PUSH2 0x14E4 JUMPI PUSH1 0xA4 CALLDATALOAD EXTCODESIZE ISZERO PUSH2 0x149F JUMPI PUSH1 0xFF PUSH1 0x40 MLOAD PUSH1 0x20 DUP2 DUP5 MLOAD PUSH2 0xC66 DUP2 DUP4 DUP6 DUP10 ADD PUSH2 0x1C57 JUMP JUMPDEST DUP2 ADD PUSH1 0x4 DUP2 MSTORE SUB ADD SWAP1 KECCAK256 SLOAD AND PUSH2 0x1462 JUMPI DUP1 MLOAD ISZERO PUSH2 0x141D JUMPI DUP4 MLOAD ISZERO PUSH2 0x13E0 JUMPI PUSH1 0x44 CALLDATALOAD ISZERO PUSH2 0x139C JUMPI PUSH1 0x64 CALLDATALOAD ISZERO PUSH2 0x1357 JUMPI PUSH1 0x64 DUP1 CALLDATALOAD GT PUSH2 0x131F JUMPI TIMESTAMP PUSH1 0x84 CALLDATALOAD GT ISZERO PUSH2 0x12DA JUMPI PUSH7 0x38D7EA4C68000 PUSH1 0xC4 CALLDATALOAD LT PUSH2 0x1295 JUMPI PUSH1 0x64 CALLDATALOAD DUP3 MLOAD SUB PUSH2 0x1250 JUMPI PUSH1 0x0 SWAP4 DUP5 JUMPDEST DUP4 MLOAD DUP7 LT ISZERO PUSH2 0xD48 JUMPI PUSH2 0xCD9 DUP7 DUP6 PUSH2 0x1E6E JUMP JUMPDEST MLOAD ISZERO PUSH2 0xD03 JUMPI PUSH2 0xCF7 PUSH2 0xCFD SWAP2 PUSH2 0xCF0 DUP9 DUP8 PUSH2 0x1E6E JUMP JUMPDEST MLOAD SWAP1 PUSH2 0x1E98 JUMP JUMPDEST SWAP6 PUSH2 0x1E5F JUMP JUMPDEST SWAP5 PUSH2 0xCC6 JUMP JUMPDEST PUSH1 0x40 MLOAD PUSH3 0x461BCD PUSH1 0xE5 SHL DUP2 MSTORE PUSH1 0x20 PUSH1 0x4 DUP3 ADD MSTORE PUSH1 0x1E PUSH1 0x24 DUP3 ADD MSTORE PUSH32 0x456163682077696E6E6572206D75737420686176652061207265776172640000 PUSH1 0x44 DUP3 ADD MSTORE PUSH1 0x64 SWAP1 REVERT JUMPDEST DUP5 SWAP1 PUSH1 0xC4 CALLDATALOAD SUB PUSH2 0x120C JUMPI PUSH1 0x40 MLOAD PUSH4 0x70A08231 PUSH1 0xE0 SHL DUP2 MSTORE ADDRESS PUSH1 0x4 DUP3 ADD MSTORE PUSH1 0x20 DUP2 PUSH1 0x24 DUP2 PUSH1 0xA4 CALLDATALOAD PUSH1 0x1 PUSH1 0x1 PUSH1 0xA0 SHL SUB AND GAS STATICCALL SWAP1 DUP2 ISZERO PUSH2 0x11CE JUMPI PUSH1 0x0 SWAP2 PUSH2 0x11DA JUMPI JUMPDEST POP PUSH1 0x40 MLOAD PUSH4 0x23B872DD PUSH1 0xE0 SHL PUSH1 0x20 DUP3 ADD MSTORE CALLER PUSH1 0x24 DUP3 ADD MSTORE ADDRESS PUSH1 0x44 DUP3 ADD MSTORE PUSH1 0xC4 CALLDATALOAD PUSH1 0x64 DUP3 ADD MSTORE PUSH1 0x64 DUP2 MSTORE DUP1 PUSH1 0xA0 DUP2 ADD LT PUSH1 0x1 PUSH1 0x1 PUSH1 0x40 SHL SUB PUSH1 0xA0 DUP4 ADD GT OR PUSH2 0x108D JUMPI PUSH1 0xA0 DUP2 ADD PUSH1 0x40 MSTORE PUSH2 0xDE5 SWAP1 PUSH1 0xA4 CALLDATALOAD PUSH1 0x1 PUSH1 0x1 PUSH1 0xA0 SHL SUB AND PUSH2 0x1EE9 JUMP JUMPDEST PUSH1 0x40 MLOAD PUSH4 0x70A08231 PUSH1 0xE0 SHL DUP2 MSTORE ADDRESS PUSH1 0x4 DUP3 ADD MSTORE SWAP1 PUSH1 0x20 DUP3 PUSH1 0x24 DUP2 PUSH1 0xA4 CALLDATALOAD PUSH1 0x1 PUSH1 0x1 PUSH1 0xA0 SHL SUB AND GAS STATICCALL SWAP2 DUP3 ISZERO PUSH2 0x11CE JUMPI PUSH1 0x0 SWAP3 PUSH2 0x1198 JUMPI JUMPDEST POP PUSH2 0xE2A SWAP1 PUSH1 0xC4 CALLDATALOAD SWAP3 PUSH2 0x1EA5 JUMP JUMPDEST SUB PUSH2 0x115B JUMPI PUSH1 0x40 MLOAD PUSH1 0x20 DUP2 DUP6 MLOAD PUSH2 0xE44 DUP2 DUP4 DUP6 DUP11 ADD PUSH2 0x1C57 JUMP JUMPDEST DUP2 ADD PUSH1 0x2 DUP2 MSTORE SUB ADD SWAP1 KECCAK256 SWAP4 CALLER PUSH12 0xFFFFFFFFFFFFFFFFFFFFFFFF PUSH1 0xA0 SHL DUP7 SLOAD AND OR DUP6 SSTORE DUP3 MLOAD PUSH1 0x1 PUSH1 0x1 PUSH1 0x40 SHL SUB DUP2 GT PUSH2 0x108D JUMPI PUSH2 0xE83 PUSH1 0x1 DUP8 ADD SLOAD PUSH2 0x1C7A JUMP JUMPDEST PUSH1 0x1F DUP2 GT PUSH2 0x111B JUMPI JUMPDEST POP DUP1 PUSH1 0x20 PUSH1 0x1F DUP3 GT PUSH1 0x1 EQ PUSH2 0x10AE JUMPI PUSH1 0x0 SWAP2 PUSH2 0x10A3 JUMPI JUMPDEST POP DUP2 PUSH1 0x1 SHL SWAP2 PUSH1 0x0 NOT SWAP1 PUSH1 0x3 SHL SHR NOT AND OR PUSH1 0x1 DUP7 ADD SSTORE JUMPDEST PUSH1 0x44 CALLDATALOAD PUSH1 0x2 DUP7 ADD SSTORE PUSH1 0x64 CALLDATALOAD PUSH1 0x3 DUP7 ADD SSTORE TIMESTAMP PUSH1 0x4 DUP7 ADD SSTORE PUSH1 0x84 CALLDATALOAD PUSH1 0x5 DUP7 ADD SSTORE PUSH1 0x6 DUP6 ADD DUP1 SLOAD PUSH1 0xFF NOT AND PUSH1 0x1 OR SWAP1 SSTORE PUSH1 0xA DUP6 ADD DUP1 SLOAD PUSH1 0x1 PUSH1 0x1 PUSH1 0xA0 SHL SUB NOT AND PUSH1 0xA4 CALLDATALOAD PUSH1 0x1 PUSH1 0x1 PUSH1 0xA0 SHL SUB AND OR SWAP1 SSTORE PUSH1 0xC4 CALLDATALOAD PUSH1 0xB DUP7 ADD SSTORE MLOAD SWAP1 PUSH1 0x1 PUSH1 0x1 PUSH1 0x40 SHL SUB DUP3 GT PUSH2 0x108D JUMPI PUSH1 0x1 PUSH1 0x40 SHL DUP3 GT PUSH2 0x108D JUMPI PUSH1 0xC DUP6 ADD SLOAD DUP3 PUSH1 0xC DUP8 ADD SSTORE DUP1 DUP4 LT PUSH2 0x106C JUMPI JUMPDEST POP PUSH1 0xC DUP6 ADD PUSH1 0x0 MSTORE PUSH1 0x20 PUSH1 0x0 KECCAK256 PUSH1 0x0 JUMPDEST DUP4 DUP2 LT PUSH2 0x1058 JUMPI PUSH2 0x100F DUP7 DUP7 PUSH1 0xD DUP11 ADD PUSH1 0x1 PUSH2 0xFFFF NOT DUP3 SLOAD AND OR SWAP1 SSTORE PUSH1 0x40 MLOAD PUSH1 0x20 DUP2 DUP5 MLOAD PUSH2 0xF7D DUP2 DUP4 DUP6 DUP10 ADD PUSH2 0x1C57 JUMP JUMPDEST DUP2 ADD PUSH1 0x4 DUP2 MSTORE SUB ADD SWAP1 KECCAK256 PUSH1 0x1 PUSH1 0xFF NOT DUP3 SLOAD AND OR SWAP1 SSTORE PUSH2 0xF9B DUP3 PUSH2 0x1EC9 JUMP JUMPDEST PUSH32 0x91C356D4870F3F50EBC1BD9641266553BB7789FE7537C5F2DD4BF5DFBCA406FF PUSH2 0xFD1 PUSH1 0x40 MLOAD SWAP4 PUSH1 0xC0 DUP6 MSTORE PUSH1 0xC0 DUP6 ADD SWAP1 PUSH2 0x1D5A JUMP JUMPDEST PUSH1 0x44 CALLDATALOAD PUSH1 0x20 DUP6 ADD MSTORE PUSH1 0x64 CALLDATALOAD PUSH1 0x40 DUP6 ADD MSTORE PUSH1 0x84 CALLDATALOAD PUSH1 0x60 DUP6 ADD MSTORE PUSH1 0xA4 CALLDATALOAD PUSH1 0x1 PUSH1 0x1 PUSH1 0xA0 SHL SUB AND PUSH1 0x80 DUP6 ADD MSTORE PUSH1 0xC4 CALLDATALOAD PUSH1 0xA0 DUP6 ADD MSTORE CALLER SWAP4 SWAP1 DUP2 SWAP1 SUB SWAP1 LOG3 PUSH2 0x1EC9 JUMP JUMPDEST PUSH1 0x40 DUP1 MLOAD PUSH1 0x1 PUSH1 0x1 PUSH1 0xA0 SHL SUB PUSH1 0xA4 CALLDATALOAD AND DUP2 MSTORE PUSH1 0xC4 CALLDATALOAD PUSH1 0x20 DUP3 ADD MSTORE CALLER SWAP3 SWAP2 PUSH32 0xB5F9F5AB9A0D5A3D59184B2BE1A9AF2059F5EFED01D03C16E5A5220C9C08DC7D SWAP2 SWAP1 DUP2 SWAP1 DUP2 ADD PUSH2 0x4E7 JUMP JUMPDEST PUSH1 0x1 SWAP1 PUSH1 0x20 DUP5 MLOAD SWAP5 ADD SWAP4 DUP2 DUP5 ADD SSTORE ADD PUSH2 0xF4C JUMP JUMPDEST PUSH2 0x1087 SWAP1 PUSH1 0xC DUP8 ADD PUSH1 0x0 MSTORE DUP4 PUSH1 0x20 PUSH1 0x0 KECCAK256 SWAP2 DUP3 ADD SWAP2 ADD PUSH2 0x1EB2 JUMP JUMPDEST DUP6 PUSH2 0xF3C JUMP JUMPDEST PUSH4 0x4E487B71 PUSH1 0xE0 SHL PUSH1 0x0 MSTORE PUSH1 0x41 PUSH1 0x4 MSTORE PUSH1 0x24 PUSH1 0x0 REVERT JUMPDEST SWAP1 POP DUP5 ADD MLOAD DUP8 PUSH2 0xEA3 JUMP JUMPDEST SWAP2 POP PUSH1 0x1 DUP8 ADD PUSH1 0x0 MSTORE PUSH1 0x20 PUSH1 0x0 KECCAK256 PUSH1 0x0 SWAP3 JUMPDEST PUSH1 0x1F NOT DUP4 AND DUP5 LT PUSH2 0x1103 JUMPI PUSH1 0x1 SWAP4 POP DUP3 PUSH1 0x1F NOT DUP2 AND LT PUSH2 0x10EA JUMPI JUMPDEST POP POP DUP2 SHL ADD PUSH1 0x1 DUP7 ADD SSTORE PUSH2 0xEBA JUMP JUMPDEST DUP7 ADD MLOAD PUSH1 0x0 NOT PUSH1 0xF8 DUP5 PUSH1 0x3 SHL AND SHR NOT AND SWAP1 SSTORE DUP8 DUP1 PUSH2 0x10DB JUMP JUMPDEST DUP7 DUP2 ADD MLOAD DUP3 SSTORE PUSH1 0x20 SWAP4 DUP5 ADD SWAP4 PUSH1 0x1 SWAP1 SWAP3 ADD SWAP2 ADD PUSH2 0x10C0 JUMP JUMPDEST PUSH2 0x114B SWAP1 PUSH1 0x1 DUP9 ADD PUSH1 0x0 MSTORE PUSH1 0x20 PUSH1 0x0 KECCAK256 PUSH1 0x1F DUP5 ADD PUSH1 0x5 SHR DUP2 ADD SWAP2 PUSH1 0x20 DUP6 LT PUSH2 0x1151 JUMPI JUMPDEST PUSH1 0x1F ADD PUSH1 0x5 SHR ADD SWAP1 PUSH2 0x1EB2 JUMP JUMPDEST DUP7 PUSH2 0xE8C JUMP JUMPDEST SWAP1 SWAP2 POP DUP2 SWAP1 PUSH2 0x113E JUMP JUMPDEST PUSH1 0x40 MLOAD PUSH3 0x461BCD PUSH1 0xE5 SHL DUP2 MSTORE PUSH1 0x20 PUSH1 0x4 DUP3 ADD MSTORE PUSH1 0x15 PUSH1 0x24 DUP3 ADD MSTORE PUSH21 0x151BDAD95B881D1C985B9CD9995C8819985A5B1959 PUSH1 0x5A SHL PUSH1 0x44 DUP3 ADD MSTORE PUSH1 0x64 SWAP1 REVERT JUMPDEST SWAP1 SWAP2 POP PUSH1 0x20 DUP2 RETURNDATASIZE PUSH1 0x20 GT PUSH2 0x11C6 JUMPI JUMPDEST DUP2 PUSH2 0x11B4 PUSH1 0x20 SWAP4 DUP4 PUSH2 0x1BE0 JUMP JUMPDEST DUP2 ADD SUB SLT PUSH2 0x143 JUMPI MLOAD SWAP1 PUSH2 0xE2A PUSH2 0xE1C JUMP JUMPDEST RETURNDATASIZE SWAP2 POP PUSH2 0x11A7 JUMP JUMPDEST PUSH1 0x40 MLOAD RETURNDATASIZE PUSH1 0x0 DUP3 RETURNDATACOPY RETURNDATASIZE SWAP1 REVERT JUMPDEST SWAP1 POP PUSH1 0x20 DUP2 RETURNDATASIZE PUSH1 0x20 GT PUSH2 0x1204 JUMPI JUMPDEST DUP2 PUSH2 0x11F5 PUSH1 0x20 SWAP4 DUP4 PUSH2 0x1BE0 JUMP JUMPDEST DUP2 ADD SUB SLT PUSH2 0x143 JUMPI MLOAD DUP6 PUSH2 0xD88 JUMP JUMPDEST RETURNDATASIZE SWAP2 POP PUSH2 0x11E8 JUMP JUMPDEST PUSH1 0x64 PUSH1 0x40 MLOAD PUSH3 0x461BCD PUSH1 0xE5 SHL DUP2 MSTORE PUSH1 0x20 PUSH1 0x4 DUP3 ADD MSTORE PUSH1 0x20 PUSH1 0x24 DUP3 ADD MSTORE PUSH32 0x57696E6E65722072657761726473206D7573742073756D20746F20746F74616C PUSH1 0x44 DUP3 ADD MSTORE REVERT JUMPDEST PUSH1 0x40 MLOAD PUSH3 0x461BCD PUSH1 0xE5 SHL DUP2 MSTORE PUSH1 0x20 PUSH1 0x4 DUP3 ADD MSTORE PUSH1 0x1E PUSH1 0x24 DUP3 ADD MSTORE PUSH32 0x57696E6E65722072657761726473206C656E677468206D69736D617463680000 PUSH1 0x44 DUP3 ADD MSTORE PUSH1 0x64 SWAP1 REVERT JUMPDEST PUSH1 0x40 MLOAD PUSH3 0x461BCD PUSH1 0xE5 SHL DUP2 MSTORE PUSH1 0x20 PUSH1 0x4 DUP3 ADD MSTORE PUSH1 0x17 PUSH1 0x24 DUP3 ADD MSTORE PUSH32 0x52657761726420616D6F756E7420746F6F20736D616C6C000000000000000000 PUSH1 0x44 DUP3 ADD MSTORE PUSH1 0x64 SWAP1 REVERT JUMPDEST PUSH1 0x40 MLOAD PUSH3 0x461BCD PUSH1 0xE5 SHL DUP2 MSTORE PUSH1 0x20 PUSH1 0x4 DUP3 ADD MSTORE PUSH1 0x1E PUSH1 0x24 DUP3 ADD MSTORE PUSH32 0x456E642074696D65206D75737420626520696E20746865206675747572650000 PUSH1 0x44 DUP3 ADD MSTORE PUSH1 0x64 SWAP1 REVERT JUMPDEST PUSH1 0x40 MLOAD PUSH3 0x461BCD PUSH1 0xE5 SHL DUP2 MSTORE PUSH1 0x20 PUSH1 0x4 DUP3 ADD MSTORE PUSH1 0x10 PUSH1 0x24 DUP3 ADD MSTORE PUSH16 0x546F6F206D616E792077696E6E657273 PUSH1 0x80 SHL PUSH1 0x44 DUP3 ADD MSTORE PUSH1 0x64 SWAP1 REVERT JUMPDEST PUSH1 0x40 MLOAD PUSH3 0x461BCD PUSH1 0xE5 SHL DUP2 MSTORE PUSH1 0x20 PUSH1 0x4 DUP3 ADD MSTORE PUSH1 0x1B PUSH1 0x24 DUP3 ADD MSTORE PUSH32 0x4D7573742068617665206174206C6561737420312077696E6E65720000000000 PUSH1 0x44 DUP3 ADD MSTORE PUSH1 0x64 SWAP1 REVERT JUMPDEST PUSH1 0x64 PUSH1 0x40 MLOAD PUSH3 0x461BCD PUSH1 0xE5 SHL DUP2 MSTORE PUSH1 0x20 PUSH1 0x4 DUP3 ADD MSTORE PUSH1 0x20 PUSH1 0x24 DUP3 ADD MSTORE PUSH32 0x456E74727920666565206D7573742062652067726561746572207468616E2030 PUSH1 0x44 DUP3 ADD MSTORE REVERT JUMPDEST PUSH1 0x40 MLOAD PUSH3 0x461BCD PUSH1 0xE5 SHL DUP2 MSTORE PUSH1 0x20 PUSH1 0x4 DUP3 ADD MSTORE PUSH1 0x15 PUSH1 0x24 DUP3 ADD MSTORE PUSH21 0x5469746C652063616E6E6F7420626520656D707479 PUSH1 0x58 SHL PUSH1 0x44 DUP3 ADD MSTORE PUSH1 0x64 SWAP1 REVERT JUMPDEST PUSH1 0x40 MLOAD PUSH3 0x461BCD PUSH1 0xE5 SHL DUP2 MSTORE PUSH1 0x20 PUSH1 0x4 DUP3 ADD MSTORE PUSH1 0x17 PUSH1 0x24 DUP3 ADD MSTORE PUSH32 0x526169642049442063616E6E6F7420626520656D707479000000000000000000 PUSH1 0x44 DUP3 ADD MSTORE PUSH1 0x64 SWAP1 REVERT JUMPDEST PUSH1 0x40 MLOAD PUSH3 0x461BCD PUSH1 0xE5 SHL DUP2 MSTORE PUSH1 0x20 PUSH1 0x4 DUP3 ADD MSTORE PUSH1 0x15 PUSH1 0x24 DUP3 ADD MSTORE PUSH21 0x526166666C6520616C726561647920657869737473 PUSH1 0x58 SHL PUSH1 0x44 DUP3 ADD MSTORE PUSH1 0x64 SWAP1 REVERT JUMPDEST PUSH1 0x40 MLOAD PUSH3 0x461BCD PUSH1 0xE5 SHL DUP2 MSTORE PUSH1 0x20 PUSH1 0x4 DUP3 ADD MSTORE PUSH1 0x18 PUSH1 0x24 DUP3 ADD MSTORE PUSH32 0x546F6B656E206D757374206265206120636F6E74726163740000000000000000 PUSH1 0x44 DUP3 ADD MSTORE PUSH1 0x64 SWAP1 REVERT JUMPDEST PUSH1 0x40 MLOAD PUSH3 0x461BCD PUSH1 0xE5 SHL DUP2 MSTORE PUSH1 0x20 PUSH1 0x4 DUP3 ADD MSTORE PUSH1 0x1C PUSH1 0x24 DUP3 ADD MSTORE PUSH32 0x496E76616C69642072657761726420746F6B656E206164647265737300000000 PUSH1 0x44 DUP3 ADD MSTORE PUSH1 0x64 SWAP1 REVERT JUMPDEST DUP2 CALLDATALOAD DUP2 MSTORE PUSH1 0x20 SWAP2 DUP3 ADD SWAP2 ADD PUSH2 0xC23 JUMP JUMPDEST CALLVALUE PUSH2 0x143 JUMPI PUSH1 0x20 CALLDATASIZE PUSH1 0x3 NOT ADD SLT PUSH2 0x143 JUMPI PUSH1 0x4 CALLDATALOAD PUSH1 0x1 PUSH1 0x1 PUSH1 0x40 SHL SUB DUP2 GT PUSH2 0x143 JUMPI PUSH1 0x20 PUSH2 0x11A PUSH2 0x156E SWAP3 CALLDATASIZE SWAP1 PUSH1 0x4 ADD PUSH2 0x1C01 JUMP JUMPDEST PUSH1 0x2 SWAP1 DUP3 ADD SWAP1 DUP2 MSTORE SUB ADD SWAP1 KECCAK256 DUP1 SLOAD PUSH1 0x1 PUSH1 0x1 PUSH1 0xA0 SHL SUB SWAP2 SWAP1 DUP3 AND SWAP1 PUSH1 0xFF PUSH2 0x1597 PUSH1 0x1 DUP4 ADD PUSH2 0x1CB4 JUMP JUMPDEST SWAP4 PUSH1 0x2 DUP4 ADD SLOAD SWAP3 PUSH1 0x3 DUP2 ADD SLOAD SWAP2 DUP4 PUSH1 0x4 DUP4 ADD SLOAD SWAP2 PUSH1 0x5 DUP5 ADD SLOAD PUSH1 0x6 DUP6 ADD SLOAD SWAP2 PUSH1 0xA DUP7 ADD SLOAD AND SWAP4 PUSH1 0xD PUSH1 0xB DUP8 ADD SLOAD SWAP7 ADD SLOAD SWAP7 PUSH2 0x15E6 PUSH1 0x40 MLOAD SWAP13 DUP14 SWAP13 DUP14 MSTORE PUSH1 0x20 DUP14 PUSH2 0x180 SWAP2 DUP3 SWAP2 ADD MSTORE DUP14 ADD SWAP1 PUSH2 0x1D5A JUMP JUMPDEST SWAP10 PUSH1 0x40 DUP13 ADD MSTORE PUSH1 0x60 DUP12 ADD MSTORE PUSH1 0x80 DUP11 ADD MSTORE PUSH1 0xA0 DUP10 ADD MSTORE DUP2 DUP2 AND ISZERO ISZERO PUSH1 0xC0 DUP10 ADD MSTORE PUSH1 0x8 SHR AND ISZERO ISZERO PUSH1 0xE0 DUP8 ADD MSTORE PUSH2 0x100 DUP7 ADD MSTORE PUSH2 0x120 DUP6 ADD MSTORE DUP2 DUP2 AND ISZERO ISZERO PUSH2 0x140 DUP6 ADD MSTORE PUSH1 0x8 SHR AND ISZERO ISZERO PUSH2 0x160 DUP4 ADD MSTORE SUB SWAP1 RETURN JUMPDEST CALLVALUE PUSH2 0x143 JUMPI PUSH1 0x20 CALLDATASIZE PUSH1 0x3 NOT ADD SLT PUSH2 0x143 JUMPI PUSH1 0x4 CALLDATALOAD PUSH1 0x1 PUSH1 0x1 PUSH1 0x40 SHL SUB DUP2 GT PUSH2 0x143 JUMPI PUSH2 0x1667 SWAP1 CALLDATASIZE SWAP1 PUSH1 0x4 ADD PUSH2 0x1C01 JUMP JUMPDEST PUSH2 0x166F PUSH2 0x1F45 JUMP JUMPDEST PUSH2 0x1689 PUSH1 0xFF PUSH1 0x40 MLOAD PUSH1 0x20 DUP2 DUP6 MLOAD PUSH2 0x3F2 DUP2 DUP4 DUP6 DUP11 ADD PUSH2 0x1C57 JUMP JUMPDEST PUSH1 0x40 MLOAD PUSH1 0x20 DUP2 DUP4 MLOAD PUSH2 0x169E DUP2 DUP4 DUP6 DUP9 ADD PUSH2 0x1C57 JUMP JUMPDEST DUP2 ADD PUSH1 0x2 DUP2 MSTORE SUB ADD SWAP1 KECCAK256 PUSH1 0x5 DUP2 ADD SLOAD TIMESTAMP LT PUSH2 0x1B9B JUMPI PUSH1 0x6 DUP2 ADD SWAP1 PUSH1 0xFF DUP3 SLOAD PUSH1 0x8 SHR AND PUSH2 0x1B5D JUMPI PUSH1 0x7 DUP2 ADD SWAP1 DUP2 SLOAD SWAP2 DUP3 ISZERO PUSH2 0x1B18 JUMPI PUSH2 0x16F1 PUSH1 0xFF PUSH1 0xD DUP5 ADD SLOAD PUSH2 0x16E7 DUP3 DUP3 AND PUSH2 0x1FAC JUMP JUMPDEST PUSH1 0x8 SHR AND ISZERO PUSH2 0x2043 JUMP JUMPDEST PUSH1 0x3 DUP3 ADD SLOAD SWAP3 DUP1 DUP5 GT PUSH2 0x1B10 JUMPI JUMPDEST PUSH2 0x1708 DUP2 PUSH2 0x208F JUMP JUMPDEST SWAP2 PUSH1 0x0 JUMPDEST DUP3 DUP2 LT PUSH2 0x1ADB JUMPI POP POP POP PUSH2 0x171F DUP4 PUSH2 0x208F JUMP JUMPDEST SWAP3 NUMBER PUSH1 0x0 NOT ADD PUSH1 0x0 JUMPDEST DUP3 DUP2 LT PUSH2 0x198C JUMPI POP POP POP POP PUSH2 0x100 SWAP3 DUP4 PUSH2 0xFFFF NOT DUP3 SLOAD AND OR SWAP1 SSTORE PUSH32 0x508613AB30A81DE3EC9336F93604DE1E869E28E05D72F5FB8730A4AE64489ADC PUSH2 0x1798 PUSH2 0x176F DUP7 PUSH2 0x1EC9 JUMP JUMPDEST SWAP3 PUSH1 0x40 MLOAD SWAP2 DUP3 SWAP2 PUSH1 0x40 DUP4 MSTORE PUSH1 0xC PUSH2 0x1789 PUSH1 0x40 DUP6 ADD DUP10 PUSH2 0x1DC2 JUMP JUMPDEST SWAP2 DUP5 DUP4 SUB PUSH1 0x20 DUP7 ADD MSTORE ADD PUSH2 0x20C1 JUMP JUMPDEST SUB SWAP1 LOG2 PUSH1 0x40 MLOAD PUSH1 0x20 DUP2 DUP6 MLOAD PUSH2 0x17B0 DUP2 DUP4 DUP6 DUP11 ADD PUSH2 0x1C57 JUMP JUMPDEST DUP2 ADD PUSH1 0x2 DUP2 MSTORE SUB ADD SWAP1 KECCAK256 SWAP1 PUSH2 0x17CF PUSH1 0xFF PUSH1 0xD DUP5 ADD SLOAD PUSH1 0x8 SHR AND ISZERO PUSH2 0x2043 JUMP JUMPDEST PUSH1 0xA DUP3 ADD SLOAD PUSH1 0x1 PUSH1 0x1 PUSH1 0xA0 SHL SUB AND DUP1 ISZERO PUSH2 0x1950 JUMPI DUP2 MLOAD SWAP5 PUSH2 0x17EF DUP7 PUSH2 0x1DAB JUMP JUMPDEST SWAP6 PUSH2 0x17FD PUSH1 0x40 MLOAD SWAP8 DUP9 PUSH2 0x1BE0 JUMP JUMPDEST DUP1 DUP8 MSTORE PUSH2 0x180C PUSH1 0x1F NOT SWAP2 PUSH2 0x1DAB JUMP JUMPDEST ADD CALLDATASIZE PUSH1 0x20 DUP9 ADD CALLDATACOPY PUSH1 0x0 JUMPDEST DUP4 MLOAD DUP2 LT ISZERO PUSH2 0x18E2 JUMPI PUSH1 0x1 PUSH1 0x1 PUSH1 0xA0 SHL SUB PUSH2 0x1831 DUP3 DUP7 PUSH2 0x1E6E JUMP JUMPDEST MLOAD AND ISZERO PUSH2 0x18A4 JUMPI PUSH2 0x1856 SWAP1 PUSH1 0x0 PUSH1 0xC DUP8 ADD SLOAD DUP3 LT PUSH2 0x188A JUMPI JUMPDEST DUP1 PUSH2 0x185B JUMPI JUMPDEST POP PUSH2 0x1E5F JUMP JUMPDEST PUSH2 0x1816 JUMP JUMPDEST PUSH2 0x1879 DUP2 PUSH1 0x1 PUSH1 0x1 PUSH1 0xA0 SHL SUB PUSH2 0x1871 DUP6 DUP11 PUSH2 0x1E6E JUMP JUMPDEST MLOAD AND DUP8 PUSH2 0x20FE JUMP JUMPDEST PUSH2 0x1883 DUP3 DUP11 PUSH2 0x1E6E JUMP JUMPDEST MSTORE DUP9 PUSH2 0x1850 JUMP JUMPDEST POP PUSH2 0x1898 DUP2 PUSH1 0xC DUP9 ADD PUSH2 0x1FF0 JUMP JUMPDEST SWAP1 SLOAD SWAP1 PUSH1 0x3 SHL SHR PUSH2 0x184A JUMP JUMPDEST PUSH1 0x40 MLOAD PUSH3 0x461BCD PUSH1 0xE5 SHL DUP2 MSTORE PUSH1 0x20 PUSH1 0x4 DUP3 ADD MSTORE PUSH1 0x16 PUSH1 0x24 DUP3 ADD MSTORE PUSH22 0x496E76616C69642077696E6E65722061646472657373 PUSH1 0x50 SHL PUSH1 0x44 DUP3 ADD MSTORE PUSH1 0x64 SWAP1 REVERT JUMPDEST PUSH1 0xD DUP6 ADD DUP1 SLOAD PUSH2 0xFF00 NOT AND DUP8 OR SWAP1 SSTORE DUP7 PUSH32 0xDF8864ACB674BE95440A4E43E6EA5F24C774F53FFE2533088FB98D8C4BCBA97B PUSH2 0x1938 DUP7 PUSH2 0x1946 PUSH2 0x1923 DUP8 PUSH2 0x1EC9 JUMP JUMPDEST SWAP5 PUSH1 0x40 MLOAD SWAP4 DUP5 SWAP4 PUSH1 0x40 DUP6 MSTORE PUSH1 0x40 DUP6 ADD SWAP1 PUSH2 0x1DC2 JUMP JUMPDEST SWAP1 DUP4 DUP3 SUB PUSH1 0x20 DUP6 ADD MSTORE PUSH2 0x1DFF JUMP JUMPDEST SUB SWAP1 LOG2 PUSH1 0x1 PUSH1 0x0 SSTORE STOP JUMPDEST PUSH1 0x40 MLOAD PUSH3 0x461BCD PUSH1 0xE5 SHL DUP2 MSTORE PUSH1 0x20 PUSH1 0x4 DUP3 ADD MSTORE PUSH1 0x14 PUSH1 0x24 DUP3 ADD MSTORE PUSH20 0x24B73B30B634B2103932BBB0B932103A37B5B2B7 PUSH1 0x61 SHL PUSH1 0x44 DUP3 ADD MSTORE PUSH1 0x64 SWAP1 REVERT JUMPDEST PUSH2 0x1997 DUP2 DUP6 MLOAD PUSH2 0x1EA5 JUMP JUMPDEST DUP1 ISZERO PUSH2 0x1A96 JUMPI NUMBER DUP4 GT PUSH2 0x1A80 JUMPI PUSH1 0x40 MLOAD DUP4 BLOCKHASH PUSH1 0x20 DUP3 ADD MSTORE TIMESTAMP PUSH1 0x40 DUP3 ADD MSTORE PREVRANDAO PUSH1 0x60 DUP3 ADD MSTORE DUP3 PUSH1 0x80 DUP3 ADD MSTORE CALLER PUSH1 0x60 SHL PUSH1 0xA0 DUP3 ADD MSTORE ORIGIN PUSH1 0x60 SHL PUSH1 0xB4 DUP3 ADD MSTORE PUSH1 0xC8 PREVRANDAO DUP2 DUP4 ADD MSTORE DUP2 MSTORE DUP1 PUSH2 0x100 DUP2 ADD LT PUSH1 0x1 PUSH1 0x1 PUSH1 0x40 SHL SUB PUSH2 0x100 DUP4 ADD GT OR PUSH2 0x108D JUMPI PUSH2 0x100 DUP2 ADD PUSH1 0x40 MSTORE DUP1 MLOAD PUSH1 0x20 SWAP1 SWAP2 ADD KECCAK256 MOD SWAP1 PUSH1 0x1 PUSH1 0x1 PUSH1 0xA0 SHL SUB PUSH2 0x1A19 DUP4 DUP8 PUSH2 0x1E6E JUMP JUMPDEST MLOAD AND DUP6 MLOAD SWAP1 DUP2 PUSH1 0x0 NOT DUP2 ADD GT PUSH2 0x1A80 JUMPI PUSH2 0x1A7B SWAP4 PUSH2 0x1A76 SWAP3 PUSH2 0x1A60 SWAP1 PUSH1 0x1 PUSH1 0x1 PUSH1 0xA0 SHL SUB SWAP1 PUSH2 0x1A57 SWAP1 PUSH2 0x1A51 SWAP1 DUP9 SWAP1 PUSH1 0x0 NOT ADD PUSH2 0x1EA5 JUMP JUMPDEST DUP12 PUSH2 0x1E6E JUMP JUMPDEST MLOAD AND SWAP2 DUP10 PUSH2 0x1E6E JUMP JUMPDEST MSTORE DUP1 PUSH2 0x1A6C DUP5 DUP12 PUSH2 0x1E6E JUMP JUMPDEST MSTORE PUSH1 0x8 DUP9 ADD PUSH2 0x2008 JUMP JUMPDEST PUSH2 0x1E5F JUMP JUMPDEST PUSH2 0x1728 JUMP JUMPDEST PUSH4 0x4E487B71 PUSH1 0xE0 SHL PUSH1 0x0 MSTORE PUSH1 0x11 PUSH1 0x4 MSTORE PUSH1 0x24 PUSH1 0x0 REVERT JUMPDEST PUSH1 0x40 MLOAD PUSH3 0x461BCD PUSH1 0xE5 SHL DUP2 MSTORE PUSH1 0x20 PUSH1 0x4 DUP3 ADD MSTORE PUSH1 0x1A PUSH1 0x24 DUP3 ADD MSTORE PUSH32 0x4D6178206D7573742062652067726561746572207468616E2030000000000000 PUSH1 0x44 DUP3 ADD MSTORE PUSH1 0x64 SWAP1 REVERT JUMPDEST DUP1 PUSH2 0x1AE9 PUSH2 0x1B0B SWAP3 DUP5 PUSH2 0x1FF0 JUMP JUMPDEST SWAP1 SLOAD PUSH1 0x3 SWAP2 SWAP1 SWAP2 SHL SHR PUSH1 0x1 PUSH1 0x1 PUSH1 0xA0 SHL SUB AND PUSH2 0x1B05 DUP3 DUP8 PUSH2 0x1E6E JUMP JUMPDEST MSTORE PUSH2 0x1E5F JUMP JUMPDEST PUSH2 0x170C JUMP JUMPDEST SWAP3 POP DUP3 PUSH2 0x16FF JUMP JUMPDEST PUSH1 0x40 MLOAD PUSH3 0x461BCD PUSH1 0xE5 SHL DUP2 MSTORE PUSH1 0x20 PUSH1 0x4 DUP3 ADD MSTORE PUSH1 0x17 PUSH1 0x24 DUP3 ADD MSTORE PUSH32 0x4E6F20656E747269657320746F207069636B2066726F6D000000000000000000 PUSH1 0x44 DUP3 ADD MSTORE PUSH1 0x64 SWAP1 REVERT JUMPDEST PUSH1 0x40 MLOAD PUSH3 0x461BCD PUSH1 0xE5 SHL DUP2 MSTORE PUSH1 0x20 PUSH1 0x4 DUP3 ADD MSTORE PUSH1 0x16 PUSH1 0x24 DUP3 ADD MSTORE PUSH22 0x15DA5B9B995C9CC8185B1C9958591E481C1A58DAD959 PUSH1 0x52 SHL PUSH1 0x44 DUP3 ADD MSTORE PUSH1 0x64 SWAP1 REVERT JUMPDEST PUSH1 0x40 MLOAD PUSH3 0x461BCD PUSH1 0xE5 SHL DUP2 MSTORE PUSH1 0x20 PUSH1 0x4 DUP3 ADD MSTORE PUSH1 0x18 PUSH1 0x24 DUP3 ADD MSTORE PUSH32 0x526166666C6520686173206E6F7420656E646564207965740000000000000000 PUSH1 0x44 DUP3 ADD MSTORE PUSH1 0x64 SWAP1 REVERT JUMPDEST SWAP1 PUSH1 0x1F DUP1 NOT SWAP2 ADD AND DUP2 ADD SWAP1 DUP2 LT PUSH1 0x1 PUSH1 0x1 PUSH1 0x40 SHL SUB DUP3 GT OR PUSH2 0x108D JUMPI PUSH1 0x40 MSTORE JUMP JUMPDEST DUP2 PUSH1 0x1F DUP3 ADD SLT ISZERO PUSH2 0x143 JUMPI DUP1 CALLDATALOAD SWAP1 PUSH1 0x1 PUSH1 0x1 PUSH1 0x40 SHL SUB DUP3 GT PUSH2 0x108D JUMPI PUSH1 0x40 MLOAD SWAP3 PUSH2 0x1C35 PUSH1 0x1F DUP5 ADD PUSH1 0x1F NOT AND PUSH1 0x20 ADD DUP6 PUSH2 0x1BE0 JUMP JUMPDEST DUP3 DUP5 MSTORE PUSH1 0x20 DUP4 DUP4 ADD ADD GT PUSH2 0x143 JUMPI DUP2 PUSH1 0x0 SWAP3 PUSH1 0x20 DUP1 SWAP4 ADD DUP4 DUP7 ADD CALLDATACOPY DUP4 ADD ADD MSTORE SWAP1 JUMP JUMPDEST PUSH1 0x0 JUMPDEST DUP4 DUP2 LT PUSH2 0x1C6A JUMPI POP POP PUSH1 0x0 SWAP2 ADD MSTORE JUMP JUMPDEST DUP2 DUP2 ADD MLOAD DUP4 DUP3 ADD MSTORE PUSH1 0x20 ADD PUSH2 0x1C5A JUMP JUMPDEST SWAP1 PUSH1 0x1 DUP3 DUP2 SHR SWAP3 AND DUP1 ISZERO PUSH2 0x1CAA JUMPI JUMPDEST PUSH1 0x20 DUP4 LT EQ PUSH2 0x1C94 JUMPI JUMP JUMPDEST PUSH4 0x4E487B71 PUSH1 0xE0 SHL PUSH1 0x0 MSTORE PUSH1 0x22 PUSH1 0x4 MSTORE PUSH1 0x24 PUSH1 0x0 REVERT JUMPDEST SWAP2 PUSH1 0x7F AND SWAP2 PUSH2 0x1C89 JUMP JUMPDEST SWAP1 PUSH1 0x40 MLOAD SWAP2 DUP3 PUSH1 0x0 DUP3 SLOAD SWAP3 PUSH2 0x1CC8 DUP5 PUSH2 0x1C7A JUMP JUMPDEST SWAP1 DUP2 DUP5 MSTORE PUSH1 0x1 SWAP5 DUP6 DUP2 AND SWAP1 DUP2 PUSH1 0x0 EQ PUSH2 0x1D37 JUMPI POP PUSH1 0x1 EQ PUSH2 0x1CF4 JUMPI JUMPDEST POP POP PUSH2 0x1CF2 SWAP3 POP SUB DUP4 PUSH2 0x1BE0 JUMP JUMPDEST JUMP JUMPDEST SWAP1 SWAP4 SWAP2 POP PUSH1 0x0 MSTORE PUSH1 0x20 SWAP1 DUP2 PUSH1 0x0 KECCAK256 SWAP4 PUSH1 0x0 SWAP2 JUMPDEST DUP2 DUP4 LT PUSH2 0x1D1F JUMPI POP POP PUSH2 0x1CF2 SWAP4 POP DUP3 ADD ADD CODESIZE DUP1 PUSH2 0x1CE4 JUMP JUMPDEST DUP6 SLOAD DUP9 DUP5 ADD DUP6 ADD MSTORE SWAP5 DUP6 ADD SWAP5 DUP8 SWAP5 POP SWAP2 DUP4 ADD SWAP2 PUSH2 0x1D07 JUMP JUMPDEST SWAP2 POP POP PUSH2 0x1CF2 SWAP5 POP PUSH1 0x20 SWAP3 POP PUSH1 0xFF NOT AND DUP3 DUP5 ADD MSTORE ISZERO ISZERO PUSH1 0x5 SHL DUP3 ADD ADD CODESIZE DUP1 PUSH2 0x1CE4 JUMP JUMPDEST SWAP1 PUSH1 0x20 SWAP2 PUSH2 0x1D73 DUP2 MLOAD DUP1 SWAP3 DUP2 DUP6 MSTORE DUP6 DUP1 DUP7 ADD SWAP2 ADD PUSH2 0x1C57 JUMP JUMPDEST PUSH1 0x1F ADD PUSH1 0x1F NOT AND ADD ADD SWAP1 JUMP JUMPDEST PUSH1 0x24 CALLDATALOAD SWAP1 PUSH1 0x1 PUSH1 0x1 PUSH1 0xA0 SHL SUB DUP3 AND DUP3 SUB PUSH2 0x143 JUMPI JUMP JUMPDEST PUSH1 0x4 CALLDATALOAD SWAP1 PUSH1 0x1 PUSH1 0x1 PUSH1 0xA0 SHL SUB DUP3 AND DUP3 SUB PUSH2 0x143 JUMPI JUMP JUMPDEST PUSH1 0x1 PUSH1 0x1 PUSH1 0x40 SHL SUB DUP2 GT PUSH2 0x108D JUMPI PUSH1 0x5 SHL PUSH1 0x20 ADD SWAP1 JUMP JUMPDEST SWAP1 DUP2 MLOAD DUP1 DUP3 MSTORE PUSH1 0x20 DUP1 DUP1 SWAP4 ADD SWAP4 ADD SWAP2 PUSH1 0x0 JUMPDEST DUP3 DUP2 LT PUSH2 0x1DE2 JUMPI POP POP POP POP SWAP1 JUMP JUMPDEST DUP4 MLOAD PUSH1 0x1 PUSH1 0x1 PUSH1 0xA0 SHL SUB AND DUP6 MSTORE SWAP4 DUP2 ADD SWAP4 SWAP3 DUP2 ADD SWAP3 PUSH1 0x1 ADD PUSH2 0x1DD4 JUMP JUMPDEST SWAP1 DUP2 MLOAD DUP1 DUP3 MSTORE PUSH1 0x20 DUP1 DUP1 SWAP4 ADD SWAP4 ADD SWAP2 PUSH1 0x0 JUMPDEST DUP3 DUP2 LT PUSH2 0x1E1F JUMPI POP POP POP POP SWAP1 JUMP JUMPDEST DUP4 MLOAD DUP6 MSTORE SWAP4 DUP2 ADD SWAP4 SWAP3 DUP2 ADD SWAP3 PUSH1 0x1 ADD PUSH2 0x1E11 JUMP JUMPDEST PUSH1 0x1 SLOAD PUSH1 0x1 PUSH1 0x1 PUSH1 0xA0 SHL SUB AND CALLER SUB PUSH2 0x1E47 JUMPI JUMP JUMPDEST PUSH1 0x40 MLOAD PUSH4 0x118CDAA7 PUSH1 0xE0 SHL DUP2 MSTORE CALLER PUSH1 0x4 DUP3 ADD MSTORE PUSH1 0x24 SWAP1 REVERT JUMPDEST PUSH1 0x0 NOT DUP2 EQ PUSH2 0x1A80 JUMPI PUSH1 0x1 ADD SWAP1 JUMP JUMPDEST DUP1 MLOAD DUP3 LT ISZERO PUSH2 0x1E82 JUMPI PUSH1 0x20 SWAP2 PUSH1 0x5 SHL ADD ADD SWAP1 JUMP JUMPDEST PUSH4 0x4E487B71 PUSH1 0xE0 SHL PUSH1 0x0 MSTORE PUSH1 0x32 PUSH1 0x4 MSTORE PUSH1 0x24 PUSH1 0x0 REVERT JUMPDEST SWAP2 SWAP1 DUP3 ADD DUP1 SWAP3 GT PUSH2 0x1A80 JUMPI JUMP JUMPDEST SWAP2 SWAP1 DUP3 SUB SWAP2 DUP3 GT PUSH2 0x1A80 JUMPI JUMP JUMPDEST DUP2 DUP2 LT PUSH2 0x1EBD JUMPI POP POP JUMP JUMPDEST PUSH1 0x0 DUP2 SSTORE PUSH1 0x1 ADD PUSH2 0x1EB2 JUMP JUMPDEST PUSH2 0x1EE1 SWAP1 PUSH1 0x20 PUSH1 0x40 MLOAD SWAP3 DUP3 DUP5 DUP1 SWAP5 MLOAD SWAP4 DUP5 SWAP3 ADD PUSH2 0x1C57 JUMP JUMPDEST DUP2 ADD SUB SWAP1 KECCAK256 SWAP1 JUMP JUMPDEST SWAP1 PUSH1 0x0 PUSH1 0x20 SWAP2 DUP3 DUP2 MLOAD SWAP2 ADD DUP3 DUP6 GAS CALL ISZERO PUSH2 0x11CE JUMPI PUSH1 0x0 MLOAD RETURNDATASIZE PUSH2 0x1F3C JUMPI POP PUSH1 0x1 PUSH1 0x1 PUSH1 0xA0 SHL SUB DUP2 AND EXTCODESIZE ISZERO JUMPDEST PUSH2 0x1F1A JUMPI POP JUMP JUMPDEST PUSH1 0x40 MLOAD PUSH4 0x5274AFE7 PUSH1 0xE0 SHL DUP2 MSTORE PUSH1 0x1 PUSH1 0x1 PUSH1 0xA0 SHL SUB SWAP1 SWAP2 AND PUSH1 0x4 DUP3 ADD MSTORE PUSH1 0x24 SWAP1 REVERT JUMPDEST PUSH1 0x1 EQ ISZERO PUSH2 0x1F13 JUMP JUMPDEST PUSH1 0x2 PUSH1 0x0 SLOAD EQ PUSH2 0x1F56 JUMPI PUSH1 0x2 PUSH1 0x0 SSTORE JUMP JUMPDEST PUSH1 0x40 MLOAD PUSH4 0x3EE5AEB5 PUSH1 0xE0 SHL DUP2 MSTORE PUSH1 0x4 SWAP1 REVERT JUMPDEST ISZERO PUSH2 0x1F6F JUMPI JUMP JUMPDEST PUSH1 0x40 MLOAD PUSH3 0x461BCD PUSH1 0xE5 SHL DUP2 MSTORE PUSH1 0x20 PUSH1 0x4 DUP3 ADD MSTORE PUSH1 0x15 PUSH1 0x24 DUP3 ADD MSTORE PUSH21 0x149859999B1948191BD95CC81B9BDD08195E1A5CDD PUSH1 0x5A SHL PUSH1 0x44 DUP3 ADD MSTORE PUSH1 0x64 SWAP1 REVERT JUMPDEST ISZERO PUSH2 0x1FB3 JUMPI JUMP JUMPDEST PUSH1 0x40 MLOAD PUSH3 0x461BCD PUSH1 0xE5 SHL DUP2 MSTORE PUSH1 0x20 PUSH1 0x4 DUP3 ADD MSTORE PUSH1 0x15 PUSH1 0x24 DUP3 ADD MSTORE PUSH21 0x14995DD85C991CC81B9BDD0819195C1BDCDA5D1959 PUSH1 0x5A SHL PUSH1 0x44 DUP3 ADD MSTORE PUSH1 0x64 SWAP1 REVERT JUMPDEST DUP1 SLOAD DUP3 LT ISZERO PUSH2 0x1E82 JUMPI PUSH1 0x0 MSTORE PUSH1 0x20 PUSH1 0x0 KECCAK256 ADD SWAP1 PUSH1 0x0 SWAP1 JUMP JUMPDEST DUP1 SLOAD PUSH1 0x1 PUSH1 0x40 SHL DUP2 LT ISZERO PUSH2 0x108D JUMPI PUSH2 0x2025 SWAP2 PUSH1 0x1 DUP3 ADD DUP2 SSTORE PUSH2 0x1FF0 JUMP JUMPDEST DUP2 SWAP3 SWAP2 SLOAD SWAP1 PUSH1 0x3 SHL SWAP2 PUSH1 0x1 DUP1 PUSH1 0xA0 SHL SUB DUP1 SWAP2 AND DUP4 SHL SWAP3 SHL NOT AND OR SWAP1 SSTORE JUMP JUMPDEST ISZERO PUSH2 0x204A JUMPI JUMP JUMPDEST PUSH1 0x40 MLOAD PUSH3 0x461BCD PUSH1 0xE5 SHL DUP2 MSTORE PUSH1 0x20 PUSH1 0x4 DUP3 ADD MSTORE PUSH1 0x1B PUSH1 0x24 DUP3 ADD MSTORE PUSH32 0x5265776172647320616C72656164792064697374726962757465640000000000 PUSH1 0x44 DUP3 ADD MSTORE PUSH1 0x64 SWAP1 REVERT JUMPDEST SWAP1 PUSH2 0x2099 DUP3 PUSH2 0x1DAB JUMP JUMPDEST PUSH2 0x20A6 PUSH1 0x40 MLOAD SWAP2 DUP3 PUSH2 0x1BE0 JUMP JUMPDEST DUP3 DUP2 MSTORE DUP1 SWAP3 PUSH2 0x20B7 PUSH1 0x1F NOT SWAP2 PUSH2 0x1DAB JUMP JUMPDEST ADD SWAP1 PUSH1 0x20 CALLDATASIZE SWAP2 ADD CALLDATACOPY JUMP JUMPDEST SWAP1 DUP2 SLOAD DUP1 DUP3 MSTORE PUSH1 0x20 DUP1 SWAP3 ADD SWAP3 PUSH1 0x0 MSTORE DUP2 PUSH1 0x0 KECCAK256 SWAP2 PUSH1 0x0 SWAP1 JUMPDEST DUP3 DUP3 LT PUSH2 0x20E7 JUMPI POP POP POP POP SWAP1 JUMP JUMPDEST DUP4 SLOAD DUP6 MSTORE SWAP4 DUP5 ADD SWAP4 PUSH1 0x1 SWAP4 DUP5 ADD SWAP4 SWAP1 SWAP2 ADD SWAP1 PUSH2 0x20D9 JUMP JUMPDEST PUSH1 0x40 MLOAD PUSH4 0xA9059CBB PUSH1 0xE0 SHL PUSH1 0x20 DUP3 ADD MSTORE PUSH1 0x1 PUSH1 0x1 PUSH1 0xA0 SHL SUB SWAP3 SWAP1 SWAP3 AND PUSH1 0x24 DUP4 ADD MSTORE PUSH1 0x44 DUP1 DUP4 ADD SWAP4 SWAP1 SWAP4 MSTORE SWAP2 DUP2 MSTORE PUSH2 0x1CF2 SWAP2 PUSH2 0x213A PUSH1 0x64 DUP4 PUSH2 0x1BE0 JUMP JUMPDEST PUSH2 0x1EE9 JUMP JUMPDEST SWAP1 PUSH1 0x40 MLOAD SWAP2 DUP3 DUP2 SLOAD SWAP2 DUP3 DUP3 MSTORE PUSH1 0x20 SWAP3 DUP4 DUP4 ADD SWAP2 PUSH1 0x0 MSTORE DUP4 PUSH1 0x0 KECCAK256 SWAP4 PUSH1 0x0 SWAP1 JUMPDEST DUP3 DUP3 LT PUSH2 0x2174 JUMPI POP POP POP PUSH2 0x1CF2 SWAP3 POP SUB DUP4 PUSH2 0x1BE0 JUMP JUMPDEST DUP6 SLOAD PUSH1 0x1 PUSH1 0x1 PUSH1 0xA0 SHL SUB AND DUP5 MSTORE PUSH1 0x1 SWAP6 DUP7 ADD SWAP6 DUP9 SWAP6 POP SWAP4 DUP2 ADD SWAP4 SWAP1 SWAP2 ADD SWAP1 PUSH2 0x215E JUMP INVALID LOG2 PUSH5 0x6970667358 0x22 SLT KECCAK256 GAS 0x4C SWAP14 MULMOD CALLDATALOAD MOD PUSH17 0xA7DE680BB337B86F4073594C3FB24F8654 0xBB DUP14 0xB1 0xE4 0xE3 0x4F SELFBALANCE DUP2 PUSH5 0x736F6C6343 STOP ADDMOD EQ STOP CALLER "},"methodIdentifiers":{"MAX_WINNERS()":"29a62a76","MIN_REWARD_AMOUNT()":"f6ef85cd","createRaffle(string,string,uint256,uint256,uint256,address,uint256,uint256[])":"17cfd77d","depositShards(uint256)":"98ae0ab7","emergencyRecover(address,address,uint256)":"ad1329d1","enterRaffle(string)":"1ac2103c","getEntries(string)":"50e979cd","getRaffleInfo(string)":"ed63ef05","getShardBalance(address)":"5a071570","hasEntered(string,address)":"4d84e39b","owner()":"8da5cb5b","pickWinners(string)":"07ebef70","raffleExists(string)":"f73ae77f","raffles(string)":"0eac7b0e","refundRewards(string)":"df5da8a6","renounceOwnership()":"715018a6","shardBalances(address)":"c8efe9e0","transferOwnership(address)":"f2fde38b"}}}}}