{"contracts/ClaimQuest.sol":{"ClaimQuest":{"abi":[{"inputs":[{"internalType":"address","name":"_multiVault","type":"address"},{"internalType":"address","name":"_revenueWallet","type":"address"}],"stateMutability":"nonpayable","type":"constructor"},{"inputs":[],"name":"FeeTransferFailed","type":"error"},{"inputs":[{"internalType":"uint256","name":"required","type":"uint256"},{"internalType":"uint256","name":"provided","type":"uint256"}],"name":"InsufficientValue","type":"error"},{"inputs":[],"name":"InvalidAddress","type":"error"},{"inputs":[],"name":"InvalidTermId","type":"error"},{"inputs":[],"name":"TripleCreationFailed","type":"error"},{"anonymous":false,"inputs":[{"indexed":true,"internalType":"address","name":"claimer","type":"address"},{"indexed":true,"internalType":"bytes32","name":"claimTermId","type":"bytes32"},{"indexed":true,"internalType":"bytes32","name":"questTermId","type":"bytes32"},{"indexed":false,"internalType":"bytes32","name":"userTermId","type":"bytes32"},{"indexed":false,"internalType":"bytes32","name":"predicateTermId","type":"bytes32"}],"name":"QuestClaimed","type":"event"},{"inputs":[],"name":"DAPP_FEE_PERCENTAGE","outputs":[{"internalType":"uint256","name":"","type":"uint256"}],"stateMutability":"view","type":"function"},{"inputs":[],"name":"FEE_DENOMINATOR","outputs":[{"internalType":"uint256","name":"","type":"uint256"}],"stateMutability":"view","type":"function"},{"inputs":[{"internalType":"bytes32","name":"userTermId","type":"bytes32"},{"internalType":"bytes32","name":"predicateTermId","type":"bytes32"},{"internalType":"bytes32","name":"questTermId","type":"bytes32"}],"name":"claimQuest","outputs":[{"internalType":"bytes32","name":"claimTermId","type":"bytes32"}],"stateMutability":"payable","type":"function"},{"inputs":[],"name":"getClaimCost","outputs":[{"internalType":"uint256","name":"","type":"uint256"}],"stateMutability":"view","type":"function"},{"inputs":[],"name":"multiVault","outputs":[{"internalType":"contract IMultiVault","name":"","type":"address"}],"stateMutability":"view","type":"function"},{"inputs":[],"name":"revenueWallet","outputs":[{"internalType":"address","name":"","type":"address"}],"stateMutability":"view","type":"function"},{"stateMutability":"payable","type":"receive"}],"evm":{"bytecode":{"linkReferences":{},"object":"60c0346100cd57601f6107df38819003918201601f19168301916001600160401b038311848410176100d25780849260409485528339810103126100cd57610052602061004b836100e8565b92016100e8565b906001600160a01b039081169081159081156100c2575b506100b05760805260a0526040516106e290816100fd823960805181818160a3015281816102130152818161050b0152610560015260a0518181816102bf01526105e80152f35b60405163e6c4247b60e01b8152600490fd5b905082161538610069565b600080fd5b634e487b7160e01b600052604160045260246000fd5b51906001600160a01b03821682036100cd5756fe608080604052600436101561001d575b50361561001b57600080fd5b005b60003560e01c90816344478425146105d5575080637a679d651461053a5780638c3ecc45146104f5578063b7ee33d8146104d9578063d73792a9146104bd5763dba20af41461006c573861000f565b6060366003190112610407576004351580156104b3575b80156104a9575b61049757604051630359724760e21b81526020816004817f00000000000000000000000000000000000000000000000000000000000000006001600160a01b03165afa90811561040c57600091610465575b5080341061044757803403903482116104315781601e810204601e148134141715610431576101bc9060405161011181610617565b600181526020368183013760405161012881610617565b60018152602036818301376101e060405161014281610617565b60018152602036818301376101ce6040519361015d85610617565b600185526020368187013760043561017487610655565b5260243561018182610655565b5260443561018e84610655565b52600061019a86610655565b52604051633c6bbf4560e01b8152608060048201529788966084880190610678565b86810360031901602488015290610678565b84810360031901604486015290610678565b6003198382030160648401526020808351928381520192019060005b8181106104185750600094928490039284925090507f00000000000000000000000000000000000000000000000000000000000000006001600160a01b03165af190811561040c57600091610374575b508051158015610363575b61035157601e610268608292610655565b51920204806102b7575b60208260405160043581526024358382015281604435917f56dbf25f2eaa1ff5a6716113c66e53ee7e198a75fd661288743e745816b4aa0860403392a4604051908152f35b6000808080937f00000000000000000000000000000000000000000000000000000000000000005af13d1561034c573d67ffffffffffffffff8111610336576040519061030e601f8201601f191660200183610633565b8152600060203d92013e5b156103245738610272565b604051634033e4e360e01b8152600490fd5b634e487b7160e01b600052604160045260246000fd5b610319565b604051633d9be33960e01b8152600490fd5b5061036d81610655565b5115610257565b90503d806000833e6103868183610633565b810160208282031261040757815167ffffffffffffffff92838211610407570181601f82011215610407578051928311610336578260051b90604051936103d06020840186610633565b845260208085019282010192831161040757602001905b8282106103f7575050503861024c565b81518152602091820191016103e7565b600080fd5b6040513d6000823e3d90fd5b82518452869450602093840193909201916001016101fc565b634e487b7160e01b600052601160045260246000fd5b60449060405190631c102d6360e21b82526004820152346024820152fd5b90506020813d60201161048f575b8161048060209383610633565b810103126104075751386100dc565b3d9150610473565b6040516366682df360e11b8152600490fd5b506044351561008a565b5060243515610083565b3461040757600036600319011261040757602060405160648152f35b34610407576000366003190112610407576020604051601e8152f35b34610407576000366003190112610407576040517f00000000000000000000000000000000000000000000000000000000000000006001600160a01b03168152602090f35b3461040757600036600319011261040757604051630359724760e21b81526020816004817f00000000000000000000000000000000000000000000000000000000000000006001600160a01b03165afa801561040c576000906105a3575b602090604051908152f35b506020813d82116105cd575b816105bc60209383610633565b810103126104075760209051610598565b3d91506105af565b34610407576000366003190112610407577f00000000000000000000000000000000000000000000000000000000000000006001600160a01b03168152602090f35b6040810190811067ffffffffffffffff82111761033657604052565b90601f8019910116810190811067ffffffffffffffff82111761033657604052565b8051156106625760200190565b634e487b7160e01b600052603260045260246000fd5b90815180825260208080930193019160005b828110610698575050505090565b83518552938101939281019260010161068a56fea264697066735822122040139eaa069556e6f44b38933e933e15e4ba93d1eebcf90cd5f2972cdc55a1c564736f6c63430008140033","opcodes":"PUSH1 0xC0 CALLVALUE PUSH2 0xCD JUMPI PUSH1 0x1F PUSH2 0x7DF CODESIZE DUP2 SWAP1 SUB SWAP2 DUP3 ADD PUSH1 0x1F NOT AND DUP4 ADD SWAP2 PUSH1 0x1 PUSH1 0x1 PUSH1 0x40 SHL SUB DUP4 GT DUP5 DUP5 LT OR PUSH2 0xD2 JUMPI DUP1 DUP5 SWAP3 PUSH1 0x40 SWAP5 DUP6 MSTORE DUP4 CODECOPY DUP2 ADD SUB SLT PUSH2 0xCD JUMPI PUSH2 0x52 PUSH1 0x20 PUSH2 0x4B DUP4 PUSH2 0xE8 JUMP JUMPDEST SWAP3 ADD PUSH2 0xE8 JUMP JUMPDEST SWAP1 PUSH1 0x1 PUSH1 0x1 PUSH1 0xA0 SHL SUB SWAP1 DUP2 AND SWAP1 DUP2 ISZERO SWAP1 DUP2 ISZERO PUSH2 0xC2 JUMPI JUMPDEST POP PUSH2 0xB0 JUMPI PUSH1 0x80 MSTORE PUSH1 0xA0 MSTORE PUSH1 0x40 MLOAD PUSH2 0x6E2 SWAP1 DUP2 PUSH2 0xFD DUP3 CODECOPY PUSH1 0x80 MLOAD DUP2 DUP2 DUP2 PUSH1 0xA3 ADD MSTORE DUP2 DUP2 PUSH2 0x213 ADD MSTORE DUP2 DUP2 PUSH2 0x50B ADD MSTORE PUSH2 0x560 ADD MSTORE PUSH1 0xA0 MLOAD DUP2 DUP2 DUP2 PUSH2 0x2BF ADD MSTORE PUSH2 0x5E8 ADD MSTORE RETURN JUMPDEST PUSH1 0x40 MLOAD PUSH4 0xE6C4247B PUSH1 0xE0 SHL DUP2 MSTORE PUSH1 0x4 SWAP1 REVERT JUMPDEST SWAP1 POP DUP3 AND ISZERO CODESIZE PUSH2 0x69 JUMP JUMPDEST PUSH1 0x0 DUP1 REVERT JUMPDEST PUSH4 0x4E487B71 PUSH1 0xE0 SHL PUSH1 0x0 MSTORE PUSH1 0x41 PUSH1 0x4 MSTORE PUSH1 0x24 PUSH1 0x0 REVERT JUMPDEST MLOAD SWAP1 PUSH1 0x1 PUSH1 0x1 PUSH1 0xA0 SHL SUB DUP3 AND DUP3 SUB PUSH2 0xCD JUMPI JUMP INVALID PUSH1 0x80 DUP1 PUSH1 0x40 MSTORE PUSH1 0x4 CALLDATASIZE LT ISZERO PUSH2 0x1D JUMPI JUMPDEST POP CALLDATASIZE ISZERO PUSH2 0x1B JUMPI PUSH1 0x0 DUP1 REVERT JUMPDEST STOP JUMPDEST PUSH1 0x0 CALLDATALOAD PUSH1 0xE0 SHR SWAP1 DUP2 PUSH4 0x44478425 EQ PUSH2 0x5D5 JUMPI POP DUP1 PUSH4 0x7A679D65 EQ PUSH2 0x53A JUMPI DUP1 PUSH4 0x8C3ECC45 EQ PUSH2 0x4F5 JUMPI DUP1 PUSH4 0xB7EE33D8 EQ PUSH2 0x4D9 JUMPI DUP1 PUSH4 0xD73792A9 EQ PUSH2 0x4BD JUMPI PUSH4 0xDBA20AF4 EQ PUSH2 0x6C JUMPI CODESIZE PUSH2 0xF JUMP JUMPDEST PUSH1 0x60 CALLDATASIZE PUSH1 0x3 NOT ADD SLT PUSH2 0x407 JUMPI PUSH1 0x4 CALLDATALOAD ISZERO DUP1 ISZERO PUSH2 0x4B3 JUMPI JUMPDEST DUP1 ISZERO PUSH2 0x4A9 JUMPI JUMPDEST PUSH2 0x497 JUMPI PUSH1 0x40 MLOAD PUSH4 0x3597247 PUSH1 0xE2 SHL DUP2 MSTORE PUSH1 0x20 DUP2 PUSH1 0x4 DUP2 PUSH32 0x0 PUSH1 0x1 PUSH1 0x1 PUSH1 0xA0 SHL SUB AND GAS STATICCALL SWAP1 DUP2 ISZERO PUSH2 0x40C JUMPI PUSH1 0x0 SWAP2 PUSH2 0x465 JUMPI JUMPDEST POP DUP1 CALLVALUE LT PUSH2 0x447 JUMPI DUP1 CALLVALUE SUB SWAP1 CALLVALUE DUP3 GT PUSH2 0x431 JUMPI DUP2 PUSH1 0x1E DUP2 MUL DIV PUSH1 0x1E EQ DUP2 CALLVALUE EQ OR ISZERO PUSH2 0x431 JUMPI PUSH2 0x1BC SWAP1 PUSH1 0x40 MLOAD PUSH2 0x111 DUP2 PUSH2 0x617 JUMP JUMPDEST PUSH1 0x1 DUP2 MSTORE PUSH1 0x20 CALLDATASIZE DUP2 DUP4 ADD CALLDATACOPY PUSH1 0x40 MLOAD PUSH2 0x128 DUP2 PUSH2 0x617 JUMP JUMPDEST PUSH1 0x1 DUP2 MSTORE PUSH1 0x20 CALLDATASIZE DUP2 DUP4 ADD CALLDATACOPY PUSH2 0x1E0 PUSH1 0x40 MLOAD PUSH2 0x142 DUP2 PUSH2 0x617 JUMP JUMPDEST PUSH1 0x1 DUP2 MSTORE PUSH1 0x20 CALLDATASIZE DUP2 DUP4 ADD CALLDATACOPY PUSH2 0x1CE PUSH1 0x40 MLOAD SWAP4 PUSH2 0x15D DUP6 PUSH2 0x617 JUMP JUMPDEST PUSH1 0x1 DUP6 MSTORE PUSH1 0x20 CALLDATASIZE DUP2 DUP8 ADD CALLDATACOPY PUSH1 0x4 CALLDATALOAD PUSH2 0x174 DUP8 PUSH2 0x655 JUMP JUMPDEST MSTORE PUSH1 0x24 CALLDATALOAD PUSH2 0x181 DUP3 PUSH2 0x655 JUMP JUMPDEST MSTORE PUSH1 0x44 CALLDATALOAD PUSH2 0x18E DUP5 PUSH2 0x655 JUMP JUMPDEST MSTORE PUSH1 0x0 PUSH2 0x19A DUP7 PUSH2 0x655 JUMP JUMPDEST MSTORE PUSH1 0x40 MLOAD PUSH4 0x3C6BBF45 PUSH1 0xE0 SHL DUP2 MSTORE PUSH1 0x80 PUSH1 0x4 DUP3 ADD MSTORE SWAP8 DUP9 SWAP7 PUSH1 0x84 DUP9 ADD SWAP1 PUSH2 0x678 JUMP JUMPDEST DUP7 DUP2 SUB PUSH1 0x3 NOT ADD PUSH1 0x24 DUP9 ADD MSTORE SWAP1 PUSH2 0x678 JUMP JUMPDEST DUP5 DUP2 SUB PUSH1 0x3 NOT ADD PUSH1 0x44 DUP7 ADD MSTORE SWAP1 PUSH2 0x678 JUMP JUMPDEST PUSH1 0x3 NOT DUP4 DUP3 SUB ADD PUSH1 0x64 DUP5 ADD MSTORE PUSH1 0x20 DUP1 DUP4 MLOAD SWAP3 DUP4 DUP2 MSTORE ADD SWAP3 ADD SWAP1 PUSH1 0x0 JUMPDEST DUP2 DUP2 LT PUSH2 0x418 JUMPI POP PUSH1 0x0 SWAP5 SWAP3 DUP5 SWAP1 SUB SWAP3 DUP5 SWAP3 POP SWAP1 POP PUSH32 0x0 PUSH1 0x1 PUSH1 0x1 PUSH1 0xA0 SHL SUB AND GAS CALL SWAP1 DUP2 ISZERO PUSH2 0x40C JUMPI PUSH1 0x0 SWAP2 PUSH2 0x374 JUMPI JUMPDEST POP DUP1 MLOAD ISZERO DUP1 ISZERO PUSH2 0x363 JUMPI JUMPDEST PUSH2 0x351 JUMPI PUSH1 0x1E PUSH2 0x268 PUSH1 0x82 SWAP3 PUSH2 0x655 JUMP JUMPDEST MLOAD SWAP3 MUL DIV DUP1 PUSH2 0x2B7 JUMPI JUMPDEST PUSH1 0x20 DUP3 PUSH1 0x40 MLOAD PUSH1 0x4 CALLDATALOAD DUP2 MSTORE PUSH1 0x24 CALLDATALOAD DUP4 DUP3 ADD MSTORE DUP2 PUSH1 0x44 CALLDATALOAD SWAP2 PUSH32 0x56DBF25F2EAA1FF5A6716113C66E53EE7E198A75FD661288743E745816B4AA08 PUSH1 0x40 CALLER SWAP3 LOG4 PUSH1 0x40 MLOAD SWAP1 DUP2 MSTORE RETURN JUMPDEST PUSH1 0x0 DUP1 DUP1 DUP1 SWAP4 PUSH32 0x0 GAS CALL RETURNDATASIZE ISZERO PUSH2 0x34C JUMPI RETURNDATASIZE PUSH8 0xFFFFFFFFFFFFFFFF DUP2 GT PUSH2 0x336 JUMPI PUSH1 0x40 MLOAD SWAP1 PUSH2 0x30E PUSH1 0x1F DUP3 ADD PUSH1 0x1F NOT AND PUSH1 0x20 ADD DUP4 PUSH2 0x633 JUMP JUMPDEST DUP2 MSTORE PUSH1 0x0 PUSH1 0x20 RETURNDATASIZE SWAP3 ADD RETURNDATACOPY JUMPDEST ISZERO PUSH2 0x324 JUMPI CODESIZE PUSH2 0x272 JUMP JUMPDEST PUSH1 0x40 MLOAD PUSH4 0x4033E4E3 PUSH1 0xE0 SHL DUP2 MSTORE PUSH1 0x4 SWAP1 REVERT JUMPDEST PUSH4 0x4E487B71 PUSH1 0xE0 SHL PUSH1 0x0 MSTORE PUSH1 0x41 PUSH1 0x4 MSTORE PUSH1 0x24 PUSH1 0x0 REVERT JUMPDEST PUSH2 0x319 JUMP JUMPDEST PUSH1 0x40 MLOAD PUSH4 0x3D9BE339 PUSH1 0xE0 SHL DUP2 MSTORE PUSH1 0x4 SWAP1 REVERT JUMPDEST POP PUSH2 0x36D DUP2 PUSH2 0x655 JUMP JUMPDEST MLOAD ISZERO PUSH2 0x257 JUMP JUMPDEST SWAP1 POP RETURNDATASIZE DUP1 PUSH1 0x0 DUP4 RETURNDATACOPY PUSH2 0x386 DUP2 DUP4 PUSH2 0x633 JUMP JUMPDEST DUP2 ADD PUSH1 0x20 DUP3 DUP3 SUB SLT PUSH2 0x407 JUMPI DUP2 MLOAD PUSH8 0xFFFFFFFFFFFFFFFF SWAP3 DUP4 DUP3 GT PUSH2 0x407 JUMPI ADD DUP2 PUSH1 0x1F DUP3 ADD SLT ISZERO PUSH2 0x407 JUMPI DUP1 MLOAD SWAP3 DUP4 GT PUSH2 0x336 JUMPI DUP3 PUSH1 0x5 SHL SWAP1 PUSH1 0x40 MLOAD SWAP4 PUSH2 0x3D0 PUSH1 0x20 DUP5 ADD DUP7 PUSH2 0x633 JUMP JUMPDEST DUP5 MSTORE PUSH1 0x20 DUP1 DUP6 ADD SWAP3 DUP3 ADD ADD SWAP3 DUP4 GT PUSH2 0x407 JUMPI PUSH1 0x20 ADD SWAP1 JUMPDEST DUP3 DUP3 LT PUSH2 0x3F7 JUMPI POP POP POP CODESIZE PUSH2 0x24C JUMP JUMPDEST DUP2 MLOAD DUP2 MSTORE PUSH1 0x20 SWAP2 DUP3 ADD SWAP2 ADD PUSH2 0x3E7 JUMP JUMPDEST PUSH1 0x0 DUP1 REVERT JUMPDEST PUSH1 0x40 MLOAD RETURNDATASIZE PUSH1 0x0 DUP3 RETURNDATACOPY RETURNDATASIZE SWAP1 REVERT JUMPDEST DUP3 MLOAD DUP5 MSTORE DUP7 SWAP5 POP PUSH1 0x20 SWAP4 DUP5 ADD SWAP4 SWAP1 SWAP3 ADD SWAP2 PUSH1 0x1 ADD PUSH2 0x1FC JUMP JUMPDEST PUSH4 0x4E487B71 PUSH1 0xE0 SHL PUSH1 0x0 MSTORE PUSH1 0x11 PUSH1 0x4 MSTORE PUSH1 0x24 PUSH1 0x0 REVERT JUMPDEST PUSH1 0x44 SWAP1 PUSH1 0x40 MLOAD SWAP1 PUSH4 0x1C102D63 PUSH1 0xE2 SHL DUP3 MSTORE PUSH1 0x4 DUP3 ADD MSTORE CALLVALUE PUSH1 0x24 DUP3 ADD MSTORE REVERT JUMPDEST SWAP1 POP PUSH1 0x20 DUP2 RETURNDATASIZE PUSH1 0x20 GT PUSH2 0x48F JUMPI JUMPDEST DUP2 PUSH2 0x480 PUSH1 0x20 SWAP4 DUP4 PUSH2 0x633 JUMP JUMPDEST DUP2 ADD SUB SLT PUSH2 0x407 JUMPI MLOAD CODESIZE PUSH2 0xDC JUMP JUMPDEST RETURNDATASIZE SWAP2 POP PUSH2 0x473 JUMP JUMPDEST PUSH1 0x40 MLOAD PUSH4 0x66682DF3 PUSH1 0xE1 SHL DUP2 MSTORE PUSH1 0x4 SWAP1 REVERT JUMPDEST POP PUSH1 0x44 CALLDATALOAD ISZERO PUSH2 0x8A JUMP JUMPDEST POP PUSH1 0x24 CALLDATALOAD ISZERO PUSH2 0x83 JUMP JUMPDEST CALLVALUE PUSH2 0x407 JUMPI PUSH1 0x0 CALLDATASIZE PUSH1 0x3 NOT ADD SLT PUSH2 0x407 JUMPI PUSH1 0x20 PUSH1 0x40 MLOAD PUSH1 0x64 DUP2 MSTORE RETURN JUMPDEST CALLVALUE PUSH2 0x407 JUMPI PUSH1 0x0 CALLDATASIZE PUSH1 0x3 NOT ADD SLT PUSH2 0x407 JUMPI PUSH1 0x20 PUSH1 0x40 MLOAD PUSH1 0x1E DUP2 MSTORE RETURN JUMPDEST CALLVALUE PUSH2 0x407 JUMPI PUSH1 0x0 CALLDATASIZE PUSH1 0x3 NOT ADD SLT PUSH2 0x407 JUMPI PUSH1 0x40 MLOAD PUSH32 0x0 PUSH1 0x1 PUSH1 0x1 PUSH1 0xA0 SHL SUB AND DUP2 MSTORE PUSH1 0x20 SWAP1 RETURN JUMPDEST CALLVALUE PUSH2 0x407 JUMPI PUSH1 0x0 CALLDATASIZE PUSH1 0x3 NOT ADD SLT PUSH2 0x407 JUMPI PUSH1 0x40 MLOAD PUSH4 0x3597247 PUSH1 0xE2 SHL DUP2 MSTORE PUSH1 0x20 DUP2 PUSH1 0x4 DUP2 PUSH32 0x0 PUSH1 0x1 PUSH1 0x1 PUSH1 0xA0 SHL SUB AND GAS STATICCALL DUP1 ISZERO PUSH2 0x40C JUMPI PUSH1 0x0 SWAP1 PUSH2 0x5A3 JUMPI JUMPDEST PUSH1 0x20 SWAP1 PUSH1 0x40 MLOAD SWAP1 DUP2 MSTORE RETURN JUMPDEST POP PUSH1 0x20 DUP2 RETURNDATASIZE DUP3 GT PUSH2 0x5CD JUMPI JUMPDEST DUP2 PUSH2 0x5BC PUSH1 0x20 SWAP4 DUP4 PUSH2 0x633 JUMP JUMPDEST DUP2 ADD SUB SLT PUSH2 0x407 JUMPI PUSH1 0x20 SWAP1 MLOAD PUSH2 0x598 JUMP JUMPDEST RETURNDATASIZE SWAP2 POP PUSH2 0x5AF JUMP JUMPDEST CALLVALUE PUSH2 0x407 JUMPI PUSH1 0x0 CALLDATASIZE PUSH1 0x3 NOT ADD SLT PUSH2 0x407 JUMPI PUSH32 0x0 PUSH1 0x1 PUSH1 0x1 PUSH1 0xA0 SHL SUB AND DUP2 MSTORE PUSH1 0x20 SWAP1 RETURN JUMPDEST PUSH1 0x40 DUP2 ADD SWAP1 DUP2 LT PUSH8 0xFFFFFFFFFFFFFFFF DUP3 GT OR PUSH2 0x336 JUMPI PUSH1 0x40 MSTORE JUMP JUMPDEST SWAP1 PUSH1 0x1F DUP1 NOT SWAP2 ADD AND DUP2 ADD SWAP1 DUP2 LT PUSH8 0xFFFFFFFFFFFFFFFF DUP3 GT OR PUSH2 0x336 JUMPI PUSH1 0x40 MSTORE JUMP JUMPDEST DUP1 MLOAD ISZERO PUSH2 0x662 JUMPI PUSH1 0x20 ADD SWAP1 JUMP JUMPDEST PUSH4 0x4E487B71 PUSH1 0xE0 SHL PUSH1 0x0 MSTORE PUSH1 0x32 PUSH1 0x4 MSTORE PUSH1 0x24 PUSH1 0x0 REVERT JUMPDEST SWAP1 DUP2 MLOAD DUP1 DUP3 MSTORE PUSH1 0x20 DUP1 DUP1 SWAP4 ADD SWAP4 ADD SWAP2 PUSH1 0x0 JUMPDEST DUP3 DUP2 LT PUSH2 0x698 JUMPI POP POP POP POP SWAP1 JUMP JUMPDEST DUP4 MLOAD DUP6 MSTORE SWAP4 DUP2 ADD SWAP4 SWAP3 DUP2 ADD SWAP3 PUSH1 0x1 ADD PUSH2 0x68A JUMP INVALID LOG2 PUSH5 0x6970667358 0x22 SLT KECCAK256 BLOCKHASH SGT SWAP15 0xAA MOD SWAP6 JUMP 0xE6 DELEGATECALL 0x4B CODESIZE SWAP4 RETURNDATACOPY SWAP4 RETURNDATACOPY ISZERO 0xE4 0xBA SWAP4 0xD1 0xEE 0xBC 0xF9 0xC 0xD5 CALLCODE SWAP8 0x2C 0xDC SSTORE LOG1 0xC5 PUSH5 0x736F6C6343 STOP ADDMOD EQ STOP CALLER "},"methodIdentifiers":{"DAPP_FEE_PERCENTAGE()":"b7ee33d8","FEE_DENOMINATOR()":"d73792a9","claimQuest(bytes32,bytes32,bytes32)":"dba20af4","getClaimCost()":"7a679d65","multiVault()":"8c3ecc45","revenueWallet()":"44478425"}}}}}