{"contracts/CreateQuest.sol":{"CreateQuest":{"abi":[{"inputs":[{"internalType":"address","name":"_multiVault","type":"address"},{"internalType":"address","name":"_revenueWallet","type":"address"}],"stateMutability":"nonpayable","type":"constructor"},{"inputs":[],"name":"AtomCreationFailed","type":"error"},{"inputs":[],"name":"FeeTransferFailed","type":"error"},{"inputs":[{"internalType":"uint256","name":"required","type":"uint256"},{"internalType":"uint256","name":"provided","type":"uint256"}],"name":"InsufficientValue","type":"error"},{"inputs":[],"name":"InvalidAddress","type":"error"},{"anonymous":false,"inputs":[{"indexed":true,"internalType":"address","name":"creator","type":"address"},{"indexed":true,"internalType":"bytes32","name":"questTermId","type":"bytes32"},{"indexed":false,"internalType":"string","name":"questName","type":"string"}],"name":"QuestCreated","type":"event"},{"inputs":[],"name":"DAPP_FEE_PERCENTAGE","outputs":[{"internalType":"uint256","name":"","type":"uint256"}],"stateMutability":"view","type":"function"},{"inputs":[],"name":"FEE_DENOMINATOR","outputs":[{"internalType":"uint256","name":"","type":"uint256"}],"stateMutability":"view","type":"function"},{"inputs":[{"internalType":"string","name":"questName","type":"string"}],"name":"createQuest","outputs":[{"internalType":"bytes32","name":"questTermId","type":"bytes32"}],"stateMutability":"payable","type":"function"},{"inputs":[],"name":"getQuestCost","outputs":[{"internalType":"uint256","name":"","type":"uint256"}],"stateMutability":"view","type":"function"},{"inputs":[],"name":"multiVault","outputs":[{"internalType":"contract IMultiVault","name":"","type":"address"}],"stateMutability":"view","type":"function"},{"inputs":[],"name":"revenueWallet","outputs":[{"internalType":"address","name":"","type":"address"}],"stateMutability":"view","type":"function"},{"stateMutability":"payable","type":"receive"}],"evm":{"bytecode":{"linkReferences":{},"object":"60c0346100cd57601f61085a38819003918201601f19168301916001600160401b038311848410176100d25780849260409485528339810103126100cd57610052602061004b836100e8565b92016100e8565b906001600160a01b039081169081159081156100c2575b506100b05760805260a05260405161075d90816100fd823960805181818160bf0152818161014f015281816102b501526105f3015260a05181818161038a015261067b0152f35b60405163e6c4247b60e01b8152600490fd5b905082161538610069565b600080fd5b634e487b7160e01b600052604160045260246000fd5b51906001600160a01b03821682036100cd5756fe608080604052600436101561001d575b50361561001b57600080fd5b005b60003560e01c9081634447842514610668575080637339e216146105cd578063823636da146100ee5780638c3ecc45146100a9578063b7ee33d81461008d5763d73792a91461006c573861000f565b3461008857600036600319011261008857602060405160648152f35b600080fd5b34610088576000366003190112610088576020604051601e8152f35b34610088576000366003190112610088576040517f00000000000000000000000000000000000000000000000000000000000000006001600160a01b03168152602090f35b60203660031901126100885760043567ffffffffffffffff811161008857366023820112156100885767ffffffffffffffff81600401351161008857366024826004013583010111610088576040516333332d3960e01b81526020816004817f00000000000000000000000000000000000000000000000000000000000000006001600160a01b03165afa9081156104cc5760009161059b575b5080341061057d57803403903482116105675781601e810204601e148134141715610567576101ba83600401356106e8565b906101c860405192836106c6565b6004840135808352602485016020840137600060208560040135840101528151156103f6576040516101f9816106aa565b6001815260005b60208110610554575060405192610216846106aa565b600184526020368186013761022a82610704565b5261023481610704565b50600061024084610704565b52604051928391636140330960e01b83526044830160406004850152815180915260648401602060648360051b8701019301916000915b8183106104f157505050506003198382030160248401526020808351928381520192019060005b8181106104d85750600094928490039284925090507f00000000000000000000000000000000000000000000000000000000000000006001600160a01b03165af19081156104cc57600091610419575b508051158015610408575b6103f657601e61030a608292610704565b5192020480610382575b50806020927f811fa222800aedf1587bc20c13e673a9b055f88410fcd27a590883059935a4396040518581528260040135868201528260040135602484016040830137600060408460040135830101526040813394601f8019916004013501168101030190a3604051908152f35b6000808080937f00000000000000000000000000000000000000000000000000000000000000005af13d156103f1573d6103bb816106e8565b906103c960405192836106c6565b8152600060203d92013e5b156103df5782610314565b604051634033e4e360e01b8152600490fd5b6103d4565b6040516326df4eb560e01b8152600490fd5b5061041281610704565b51156102f9565b90503d806000833e61042b81836106c6565b8101906020818303126100885780519067ffffffffffffffff821161008857019080601f830112156100885781519167ffffffffffffffff83116104b6578260051b906040519361047f60208401866106c6565b845260208085019282010192831161008857602001905b8282106104a657505050836102ee565b8151815260209182019101610496565b634e487b7160e01b600052604160045260246000fd5b6040513d6000823e3d90fd5b825184528694506020938401939092019160010161029e565b91939092949550606319888203018252845180519081835260005b82811061053f57505060208083836000838096600198010152601f80199101160101960192019301909187959493610277565b8060208092840101518282870101520161050c565b6060602082840181019190915201610200565b634e487b7160e01b600052601160045260246000fd5b60449060405190631c102d6360e21b82526004820152346024820152fd5b90506020813d6020116105c5575b816105b6602093836106c6565b81010312610088575182610188565b3d91506105a9565b34610088576000366003190112610088576040516333332d3960e01b81526020816004817f00000000000000000000000000000000000000000000000000000000000000006001600160a01b03165afa80156104cc57600090610636575b602090604051908152f35b506020813d8211610660575b8161064f602093836106c6565b81010312610088576020905161062b565b3d9150610642565b34610088576000366003190112610088577f00000000000000000000000000000000000000000000000000000000000000006001600160a01b03168152602090f35b6040810190811067ffffffffffffffff8211176104b657604052565b90601f8019910116810190811067ffffffffffffffff8211176104b657604052565b67ffffffffffffffff81116104b657601f01601f191660200190565b8051156107115760200190565b634e487b7160e01b600052603260045260246000fdfea2646970667358221220f56a20d62020a81f54232e72345e6c48e5a2d5a3476b1e44bd8632158d51824e64736f6c63430008140033","opcodes":"PUSH1 0xC0 CALLVALUE PUSH2 0xCD JUMPI PUSH1 0x1F PUSH2 0x85A CODESIZE DUP2 SWAP1 SUB SWAP2 DUP3 ADD PUSH1 0x1F NOT AND DUP4 ADD SWAP2 PUSH1 0x1 PUSH1 0x1 PUSH1 0x40 SHL SUB DUP4 GT DUP5 DUP5 LT OR PUSH2 0xD2 JUMPI DUP1 DUP5 SWAP3 PUSH1 0x40 SWAP5 DUP6 MSTORE DUP4 CODECOPY DUP2 ADD SUB SLT PUSH2 0xCD JUMPI PUSH2 0x52 PUSH1 0x20 PUSH2 0x4B DUP4 PUSH2 0xE8 JUMP JUMPDEST SWAP3 ADD PUSH2 0xE8 JUMP JUMPDEST SWAP1 PUSH1 0x1 PUSH1 0x1 PUSH1 0xA0 SHL SUB SWAP1 DUP2 AND SWAP1 DUP2 ISZERO SWAP1 DUP2 ISZERO PUSH2 0xC2 JUMPI JUMPDEST POP PUSH2 0xB0 JUMPI PUSH1 0x80 MSTORE PUSH1 0xA0 MSTORE PUSH1 0x40 MLOAD PUSH2 0x75D SWAP1 DUP2 PUSH2 0xFD DUP3 CODECOPY PUSH1 0x80 MLOAD DUP2 DUP2 DUP2 PUSH1 0xBF ADD MSTORE DUP2 DUP2 PUSH2 0x14F ADD MSTORE DUP2 DUP2 PUSH2 0x2B5 ADD MSTORE PUSH2 0x5F3 ADD MSTORE PUSH1 0xA0 MLOAD DUP2 DUP2 DUP2 PUSH2 0x38A ADD MSTORE PUSH2 0x67B ADD MSTORE RETURN JUMPDEST PUSH1 0x40 MLOAD PUSH4 0xE6C4247B PUSH1 0xE0 SHL DUP2 MSTORE PUSH1 0x4 SWAP1 REVERT JUMPDEST SWAP1 POP DUP3 AND ISZERO CODESIZE PUSH2 0x69 JUMP JUMPDEST PUSH1 0x0 DUP1 REVERT JUMPDEST PUSH4 0x4E487B71 PUSH1 0xE0 SHL PUSH1 0x0 MSTORE PUSH1 0x41 PUSH1 0x4 MSTORE PUSH1 0x24 PUSH1 0x0 REVERT JUMPDEST MLOAD SWAP1 PUSH1 0x1 PUSH1 0x1 PUSH1 0xA0 SHL SUB DUP3 AND DUP3 SUB PUSH2 0xCD JUMPI JUMP INVALID PUSH1 0x80 DUP1 PUSH1 0x40 MSTORE PUSH1 0x4 CALLDATASIZE LT ISZERO PUSH2 0x1D JUMPI JUMPDEST POP CALLDATASIZE ISZERO PUSH2 0x1B JUMPI PUSH1 0x0 DUP1 REVERT JUMPDEST STOP JUMPDEST PUSH1 0x0 CALLDATALOAD PUSH1 0xE0 SHR SWAP1 DUP2 PUSH4 0x44478425 EQ PUSH2 0x668 JUMPI POP DUP1 PUSH4 0x7339E216 EQ PUSH2 0x5CD JUMPI DUP1 PUSH4 0x823636DA EQ PUSH2 0xEE JUMPI DUP1 PUSH4 0x8C3ECC45 EQ PUSH2 0xA9 JUMPI DUP1 PUSH4 0xB7EE33D8 EQ PUSH2 0x8D JUMPI PUSH4 0xD73792A9 EQ PUSH2 0x6C JUMPI CODESIZE PUSH2 0xF JUMP JUMPDEST CALLVALUE PUSH2 0x88 JUMPI PUSH1 0x0 CALLDATASIZE PUSH1 0x3 NOT ADD SLT PUSH2 0x88 JUMPI PUSH1 0x20 PUSH1 0x40 MLOAD PUSH1 0x64 DUP2 MSTORE RETURN JUMPDEST PUSH1 0x0 DUP1 REVERT JUMPDEST CALLVALUE PUSH2 0x88 JUMPI PUSH1 0x0 CALLDATASIZE PUSH1 0x3 NOT ADD SLT PUSH2 0x88 JUMPI PUSH1 0x20 PUSH1 0x40 MLOAD PUSH1 0x1E DUP2 MSTORE RETURN JUMPDEST CALLVALUE PUSH2 0x88 JUMPI PUSH1 0x0 CALLDATASIZE PUSH1 0x3 NOT ADD SLT PUSH2 0x88 JUMPI PUSH1 0x40 MLOAD PUSH32 0x0 PUSH1 0x1 PUSH1 0x1 PUSH1 0xA0 SHL SUB AND DUP2 MSTORE PUSH1 0x20 SWAP1 RETURN JUMPDEST PUSH1 0x20 CALLDATASIZE PUSH1 0x3 NOT ADD SLT PUSH2 0x88 JUMPI PUSH1 0x4 CALLDATALOAD PUSH8 0xFFFFFFFFFFFFFFFF DUP2 GT PUSH2 0x88 JUMPI CALLDATASIZE PUSH1 0x23 DUP3 ADD SLT ISZERO PUSH2 0x88 JUMPI PUSH8 0xFFFFFFFFFFFFFFFF DUP2 PUSH1 0x4 ADD CALLDATALOAD GT PUSH2 0x88 JUMPI CALLDATASIZE PUSH1 0x24 DUP3 PUSH1 0x4 ADD CALLDATALOAD DUP4 ADD ADD GT PUSH2 0x88 JUMPI PUSH1 0x40 MLOAD PUSH4 0x33332D39 PUSH1 0xE0 SHL DUP2 MSTORE PUSH1 0x20 DUP2 PUSH1 0x4 DUP2 PUSH32 0x0 PUSH1 0x1 PUSH1 0x1 PUSH1 0xA0 SHL SUB AND GAS STATICCALL SWAP1 DUP2 ISZERO PUSH2 0x4CC JUMPI PUSH1 0x0 SWAP2 PUSH2 0x59B JUMPI JUMPDEST POP DUP1 CALLVALUE LT PUSH2 0x57D JUMPI DUP1 CALLVALUE SUB SWAP1 CALLVALUE DUP3 GT PUSH2 0x567 JUMPI DUP2 PUSH1 0x1E DUP2 MUL DIV PUSH1 0x1E EQ DUP2 CALLVALUE EQ OR ISZERO PUSH2 0x567 JUMPI PUSH2 0x1BA DUP4 PUSH1 0x4 ADD CALLDATALOAD PUSH2 0x6E8 JUMP JUMPDEST SWAP1 PUSH2 0x1C8 PUSH1 0x40 MLOAD SWAP3 DUP4 PUSH2 0x6C6 JUMP JUMPDEST PUSH1 0x4 DUP5 ADD CALLDATALOAD DUP1 DUP4 MSTORE PUSH1 0x24 DUP6 ADD PUSH1 0x20 DUP5 ADD CALLDATACOPY PUSH1 0x0 PUSH1 0x20 DUP6 PUSH1 0x4 ADD CALLDATALOAD DUP5 ADD ADD MSTORE DUP2 MLOAD ISZERO PUSH2 0x3F6 JUMPI PUSH1 0x40 MLOAD PUSH2 0x1F9 DUP2 PUSH2 0x6AA JUMP JUMPDEST PUSH1 0x1 DUP2 MSTORE PUSH1 0x0 JUMPDEST PUSH1 0x20 DUP2 LT PUSH2 0x554 JUMPI POP PUSH1 0x40 MLOAD SWAP3 PUSH2 0x216 DUP5 PUSH2 0x6AA JUMP JUMPDEST PUSH1 0x1 DUP5 MSTORE PUSH1 0x20 CALLDATASIZE DUP2 DUP7 ADD CALLDATACOPY PUSH2 0x22A DUP3 PUSH2 0x704 JUMP JUMPDEST MSTORE PUSH2 0x234 DUP2 PUSH2 0x704 JUMP JUMPDEST POP PUSH1 0x0 PUSH2 0x240 DUP5 PUSH2 0x704 JUMP JUMPDEST MSTORE PUSH1 0x40 MLOAD SWAP3 DUP4 SWAP2 PUSH4 0x61403309 PUSH1 0xE0 SHL DUP4 MSTORE PUSH1 0x44 DUP4 ADD PUSH1 0x40 PUSH1 0x4 DUP6 ADD MSTORE DUP2 MLOAD DUP1 SWAP2 MSTORE PUSH1 0x64 DUP5 ADD PUSH1 0x20 PUSH1 0x64 DUP4 PUSH1 0x5 SHL DUP8 ADD ADD SWAP4 ADD SWAP2 PUSH1 0x0 SWAP2 JUMPDEST DUP2 DUP4 LT PUSH2 0x4F1 JUMPI POP POP POP POP PUSH1 0x3 NOT DUP4 DUP3 SUB ADD PUSH1 0x24 DUP5 ADD MSTORE PUSH1 0x20 DUP1 DUP4 MLOAD SWAP3 DUP4 DUP2 MSTORE ADD SWAP3 ADD SWAP1 PUSH1 0x0 JUMPDEST DUP2 DUP2 LT PUSH2 0x4D8 JUMPI POP PUSH1 0x0 SWAP5 SWAP3 DUP5 SWAP1 SUB SWAP3 DUP5 SWAP3 POP SWAP1 POP PUSH32 0x0 PUSH1 0x1 PUSH1 0x1 PUSH1 0xA0 SHL SUB AND GAS CALL SWAP1 DUP2 ISZERO PUSH2 0x4CC JUMPI PUSH1 0x0 SWAP2 PUSH2 0x419 JUMPI JUMPDEST POP DUP1 MLOAD ISZERO DUP1 ISZERO PUSH2 0x408 JUMPI JUMPDEST PUSH2 0x3F6 JUMPI PUSH1 0x1E PUSH2 0x30A PUSH1 0x82 SWAP3 PUSH2 0x704 JUMP JUMPDEST MLOAD SWAP3 MUL DIV DUP1 PUSH2 0x382 JUMPI JUMPDEST POP DUP1 PUSH1 0x20 SWAP3 PUSH32 0x811FA222800AEDF1587BC20C13E673A9B055F88410FCD27A590883059935A439 PUSH1 0x40 MLOAD DUP6 DUP2 MSTORE DUP3 PUSH1 0x4 ADD CALLDATALOAD DUP7 DUP3 ADD MSTORE DUP3 PUSH1 0x4 ADD CALLDATALOAD PUSH1 0x24 DUP5 ADD PUSH1 0x40 DUP4 ADD CALLDATACOPY PUSH1 0x0 PUSH1 0x40 DUP5 PUSH1 0x4 ADD CALLDATALOAD DUP4 ADD ADD MSTORE PUSH1 0x40 DUP2 CALLER SWAP5 PUSH1 0x1F DUP1 NOT SWAP2 PUSH1 0x4 ADD CALLDATALOAD ADD AND DUP2 ADD SUB ADD SWAP1 LOG3 PUSH1 0x40 MLOAD SWAP1 DUP2 MSTORE RETURN JUMPDEST PUSH1 0x0 DUP1 DUP1 DUP1 SWAP4 PUSH32 0x0 GAS CALL RETURNDATASIZE ISZERO PUSH2 0x3F1 JUMPI RETURNDATASIZE PUSH2 0x3BB DUP2 PUSH2 0x6E8 JUMP JUMPDEST SWAP1 PUSH2 0x3C9 PUSH1 0x40 MLOAD SWAP3 DUP4 PUSH2 0x6C6 JUMP JUMPDEST DUP2 MSTORE PUSH1 0x0 PUSH1 0x20 RETURNDATASIZE SWAP3 ADD RETURNDATACOPY JUMPDEST ISZERO PUSH2 0x3DF JUMPI DUP3 PUSH2 0x314 JUMP JUMPDEST PUSH1 0x40 MLOAD PUSH4 0x4033E4E3 PUSH1 0xE0 SHL DUP2 MSTORE PUSH1 0x4 SWAP1 REVERT JUMPDEST PUSH2 0x3D4 JUMP JUMPDEST PUSH1 0x40 MLOAD PUSH4 0x26DF4EB5 PUSH1 0xE0 SHL DUP2 MSTORE PUSH1 0x4 SWAP1 REVERT JUMPDEST POP PUSH2 0x412 DUP2 PUSH2 0x704 JUMP JUMPDEST MLOAD ISZERO PUSH2 0x2F9 JUMP JUMPDEST SWAP1 POP RETURNDATASIZE DUP1 PUSH1 0x0 DUP4 RETURNDATACOPY PUSH2 0x42B DUP2 DUP4 PUSH2 0x6C6 JUMP JUMPDEST DUP2 ADD SWAP1 PUSH1 0x20 DUP2 DUP4 SUB SLT PUSH2 0x88 JUMPI DUP1 MLOAD SWAP1 PUSH8 0xFFFFFFFFFFFFFFFF DUP3 GT PUSH2 0x88 JUMPI ADD SWAP1 DUP1 PUSH1 0x1F DUP4 ADD SLT ISZERO PUSH2 0x88 JUMPI DUP2 MLOAD SWAP2 PUSH8 0xFFFFFFFFFFFFFFFF DUP4 GT PUSH2 0x4B6 JUMPI DUP3 PUSH1 0x5 SHL SWAP1 PUSH1 0x40 MLOAD SWAP4 PUSH2 0x47F PUSH1 0x20 DUP5 ADD DUP7 PUSH2 0x6C6 JUMP JUMPDEST DUP5 MSTORE PUSH1 0x20 DUP1 DUP6 ADD SWAP3 DUP3 ADD ADD SWAP3 DUP4 GT PUSH2 0x88 JUMPI PUSH1 0x20 ADD SWAP1 JUMPDEST DUP3 DUP3 LT PUSH2 0x4A6 JUMPI POP POP POP DUP4 PUSH2 0x2EE JUMP JUMPDEST DUP2 MLOAD DUP2 MSTORE PUSH1 0x20 SWAP2 DUP3 ADD SWAP2 ADD PUSH2 0x496 JUMP JUMPDEST PUSH4 0x4E487B71 PUSH1 0xE0 SHL PUSH1 0x0 MSTORE PUSH1 0x41 PUSH1 0x4 MSTORE PUSH1 0x24 PUSH1 0x0 REVERT JUMPDEST PUSH1 0x40 MLOAD RETURNDATASIZE PUSH1 0x0 DUP3 RETURNDATACOPY RETURNDATASIZE SWAP1 REVERT JUMPDEST DUP3 MLOAD DUP5 MSTORE DUP7 SWAP5 POP PUSH1 0x20 SWAP4 DUP5 ADD SWAP4 SWAP1 SWAP3 ADD SWAP2 PUSH1 0x1 ADD PUSH2 0x29E JUMP JUMPDEST SWAP2 SWAP4 SWAP1 SWAP3 SWAP5 SWAP6 POP PUSH1 0x63 NOT DUP9 DUP3 SUB ADD DUP3 MSTORE DUP5 MLOAD DUP1 MLOAD SWAP1 DUP2 DUP4 MSTORE PUSH1 0x0 JUMPDEST DUP3 DUP2 LT PUSH2 0x53F JUMPI POP POP PUSH1 0x20 DUP1 DUP4 DUP4 PUSH1 0x0 DUP4 DUP1 SWAP7 PUSH1 0x1 SWAP9 ADD ADD MSTORE PUSH1 0x1F DUP1 NOT SWAP2 ADD AND ADD ADD SWAP7 ADD SWAP3 ADD SWAP4 ADD SWAP1 SWAP2 DUP8 SWAP6 SWAP5 SWAP4 PUSH2 0x277 JUMP JUMPDEST DUP1 PUSH1 0x20 DUP1 SWAP3 DUP5 ADD ADD MLOAD DUP3 DUP3 DUP8 ADD ADD MSTORE ADD PUSH2 0x50C JUMP JUMPDEST PUSH1 0x60 PUSH1 0x20 DUP3 DUP5 ADD DUP2 ADD SWAP2 SWAP1 SWAP2 MSTORE ADD PUSH2 0x200 JUMP JUMPDEST PUSH4 0x4E487B71 PUSH1 0xE0 SHL PUSH1 0x0 MSTORE PUSH1 0x11 PUSH1 0x4 MSTORE PUSH1 0x24 PUSH1 0x0 REVERT JUMPDEST PUSH1 0x44 SWAP1 PUSH1 0x40 MLOAD SWAP1 PUSH4 0x1C102D63 PUSH1 0xE2 SHL DUP3 MSTORE PUSH1 0x4 DUP3 ADD MSTORE CALLVALUE PUSH1 0x24 DUP3 ADD MSTORE REVERT JUMPDEST SWAP1 POP PUSH1 0x20 DUP2 RETURNDATASIZE PUSH1 0x20 GT PUSH2 0x5C5 JUMPI JUMPDEST DUP2 PUSH2 0x5B6 PUSH1 0x20 SWAP4 DUP4 PUSH2 0x6C6 JUMP JUMPDEST DUP2 ADD SUB SLT PUSH2 0x88 JUMPI MLOAD DUP3 PUSH2 0x188 JUMP JUMPDEST RETURNDATASIZE SWAP2 POP PUSH2 0x5A9 JUMP JUMPDEST CALLVALUE PUSH2 0x88 JUMPI PUSH1 0x0 CALLDATASIZE PUSH1 0x3 NOT ADD SLT PUSH2 0x88 JUMPI PUSH1 0x40 MLOAD PUSH4 0x33332D39 PUSH1 0xE0 SHL DUP2 MSTORE PUSH1 0x20 DUP2 PUSH1 0x4 DUP2 PUSH32 0x0 PUSH1 0x1 PUSH1 0x1 PUSH1 0xA0 SHL SUB AND GAS STATICCALL DUP1 ISZERO PUSH2 0x4CC JUMPI PUSH1 0x0 SWAP1 PUSH2 0x636 JUMPI JUMPDEST PUSH1 0x20 SWAP1 PUSH1 0x40 MLOAD SWAP1 DUP2 MSTORE RETURN JUMPDEST POP PUSH1 0x20 DUP2 RETURNDATASIZE DUP3 GT PUSH2 0x660 JUMPI JUMPDEST DUP2 PUSH2 0x64F PUSH1 0x20 SWAP4 DUP4 PUSH2 0x6C6 JUMP JUMPDEST DUP2 ADD SUB SLT PUSH2 0x88 JUMPI PUSH1 0x20 SWAP1 MLOAD PUSH2 0x62B JUMP JUMPDEST RETURNDATASIZE SWAP2 POP PUSH2 0x642 JUMP JUMPDEST CALLVALUE PUSH2 0x88 JUMPI PUSH1 0x0 CALLDATASIZE PUSH1 0x3 NOT ADD SLT PUSH2 0x88 JUMPI PUSH32 0x0 PUSH1 0x1 PUSH1 0x1 PUSH1 0xA0 SHL SUB AND DUP2 MSTORE PUSH1 0x20 SWAP1 RETURN JUMPDEST PUSH1 0x40 DUP2 ADD SWAP1 DUP2 LT PUSH8 0xFFFFFFFFFFFFFFFF DUP3 GT OR PUSH2 0x4B6 JUMPI PUSH1 0x40 MSTORE JUMP JUMPDEST SWAP1 PUSH1 0x1F DUP1 NOT SWAP2 ADD AND DUP2 ADD SWAP1 DUP2 LT PUSH8 0xFFFFFFFFFFFFFFFF DUP3 GT OR PUSH2 0x4B6 JUMPI PUSH1 0x40 MSTORE JUMP JUMPDEST PUSH8 0xFFFFFFFFFFFFFFFF DUP2 GT PUSH2 0x4B6 JUMPI PUSH1 0x1F ADD PUSH1 0x1F NOT AND PUSH1 0x20 ADD SWAP1 JUMP JUMPDEST DUP1 MLOAD ISZERO PUSH2 0x711 JUMPI PUSH1 0x20 ADD SWAP1 JUMP JUMPDEST PUSH4 0x4E487B71 PUSH1 0xE0 SHL PUSH1 0x0 MSTORE PUSH1 0x32 PUSH1 0x4 MSTORE PUSH1 0x24 PUSH1 0x0 REVERT INVALID LOG2 PUSH5 0x6970667358 0x22 SLT KECCAK256 CREATE2 PUSH11 0x20D62020A81F54232E7234 0x5E PUSH13 0x48E5A2D5A3476B1E44BD863215 DUP14 MLOAD DUP3 0x4E PUSH5 0x736F6C6343 STOP ADDMOD EQ STOP CALLER "},"methodIdentifiers":{"DAPP_FEE_PERCENTAGE()":"b7ee33d8","FEE_DENOMINATOR()":"d73792a9","createQuest(string)":"823636da","getQuestCost()":"7339e216","multiVault()":"8c3ecc45","revenueWallet()":"44478425"}}}}}