{"contracts/CreateSpace.sol":{"CreateSpace":{"abi":[{"inputs":[{"internalType":"address","name":"_multiVault","type":"address"}],"stateMutability":"nonpayable","type":"constructor"},{"inputs":[],"name":"CreationFailed","type":"error"},{"inputs":[{"internalType":"uint256","name":"required","type":"uint256"},{"internalType":"uint256","name":"provided","type":"uint256"}],"name":"InsufficientValue","type":"error"},{"inputs":[],"name":"InvalidAddress","type":"error"},{"anonymous":false,"inputs":[{"indexed":true,"internalType":"address","name":"creator","type":"address"},{"indexed":true,"internalType":"bytes32","name":"spaceTermId","type":"bytes32"},{"indexed":false,"internalType":"string","name":"spaceName","type":"string"}],"name":"SpaceCreated","type":"event"},{"inputs":[{"internalType":"string","name":"spaceName","type":"string"}],"name":"createSpace","outputs":[{"internalType":"bytes32","name":"spaceTermId","type":"bytes32"}],"stateMutability":"payable","type":"function"},{"inputs":[],"name":"getSpaceCost","outputs":[{"internalType":"uint256","name":"","type":"uint256"}],"stateMutability":"view","type":"function"},{"inputs":[],"name":"multiVault","outputs":[{"internalType":"contract IMultiVault","name":"","type":"address"}],"stateMutability":"view","type":"function"},{"inputs":[],"name":"withdrawExcess","outputs":[],"stateMutability":"nonpayable","type":"function"},{"stateMutability":"payable","type":"receive"}],"evm":{"bytecode":{"linkReferences":{},"object":"60a03461009857601f6107a738819003918201601f19168301916001600160401b0383118484101761009d5780849260209460405283398101031261009857516001600160a01b03811690819003610098578015610086576080526040516106f390816100b4823960805181818160dc0152818161016c015281816102b6015261059b0152f35b60405163e6c4247b60e01b8152600490fd5b600080fd5b634e487b7160e01b600052604160045260246000fdfe608080604052600436101561001d575b50361561001b57600080fd5b005b60003560e01c9081635d740e9d146105785750806373d3a7731461010b5780638c3ecc45146100c65763c264a06314610056573861000f565b346100c15760003660031901126100c157478061006f57005b600080808093335af161008061068d565b501561008857005b60405162461bcd60e51b815260206004820152601160248201527015da5d1a191c985dd85b0819985a5b1959607a1b6044820152606490fd5b600080fd5b346100c15760003660031901126100c1576040517f00000000000000000000000000000000000000000000000000000000000000006001600160a01b03168152602090f35b60203660031901126100c15760043567ffffffffffffffff81116100c157366023820112156100c15767ffffffffffffffff8160040135116100c1573660248260040135830101116100c1576040516333332d3960e01b81526020816004817f00000000000000000000000000000000000000000000000000000000000000006001600160a01b03165afa90811561048f57600091610546575b50803410610528576101ba826004013561064e565b6101c7604051918261062c565b6004830135808252602484016020830137600060208460040135830101528051156103b957604051906101f982610610565b6001825260005b602081106105175750906040519161021783610610565b600183526020368185013761022b8261066a565b526102358161066a565b5060006102418361066a565b52604051918291636140330960e01b83526044830160406004850152815180915260648401602060648360051b8701019301916000915b8183106104b457505050506003198382030160248401526020808351928381520192019060005b81811061049b5750600093928390039150829050857f00000000000000000000000000000000000000000000000000000000000000006001600160a01b03165af190811561048f576000916103dc575b5080511580156103cb575b6103b9576103079061066a565b5190803403923484116103a3576020938392340361038a575b507fe1d6ee6bad7017bbc3322930aeda207255a2277c752b2f6ba7fd977dcbbd8d0b6040518581528260040135868201528260040135602484016040830137600060408460040135830101526040813394601f8019916004013501168101030190a3604051908152f35b600080808093335af15061039c61068d565b5084610320565b634e487b7160e01b600052601160045260246000fd5b60405163d786d39360e01b8152600490fd5b506103d58161066a565b51156102fa565b90503d806000833e6103ee818361062c565b8101906020818303126100c15780519067ffffffffffffffff82116100c157019080601f830112156100c15781519167ffffffffffffffff8311610479578260051b9060405193610442602084018661062c565b84526020808501928201019283116100c157602001905b82821061046957505050836102ef565b8151815260209182019101610459565b634e487b7160e01b600052604160045260246000fd5b6040513d6000823e3d90fd5b825184528594506020938401939092019160010161029f565b91939092949550606319878203018252845180519081835260005b82811061050257505060208083836000838096600198010152601f80199101160101960192019301909186959493610278565b806020809284010151828287010152016104cf565b806060602080938601015201610200565b60449060405190631c102d6360e21b82526004820152346024820152fd5b90506020813d602011610570575b816105616020938361062c565b810103126100c15751826101a5565b3d9150610554565b346100c15760003660031901126100c1576333332d3960e01b81526020816004817f00000000000000000000000000000000000000000000000000000000000000006001600160a01b03165afa801561048f576000906105de575b602090604051908152f35b506020813d8211610608575b816105f76020938361062c565b810103126100c157602090516105d3565b3d91506105ea565b6040810190811067ffffffffffffffff82111761047957604052565b90601f8019910116810190811067ffffffffffffffff82111761047957604052565b67ffffffffffffffff811161047957601f01601f191660200190565b8051156106775760200190565b634e487b7160e01b600052603260045260246000fd5b3d156106b8573d9061069e8261064e565b916106ac604051938461062c565b82523d6000602084013e565b60609056fea26469706673582212204e3b90e20823b2c0a290450821cf2738b2b48f0c0b77e1d04204187fc1418a3564736f6c63430008140033","opcodes":"PUSH1 0xA0 CALLVALUE PUSH2 0x98 JUMPI PUSH1 0x1F PUSH2 0x7A7 CODESIZE DUP2 SWAP1 SUB SWAP2 DUP3 ADD PUSH1 0x1F NOT AND DUP4 ADD SWAP2 PUSH1 0x1 PUSH1 0x1 PUSH1 0x40 SHL SUB DUP4 GT DUP5 DUP5 LT OR PUSH2 0x9D JUMPI DUP1 DUP5 SWAP3 PUSH1 0x20 SWAP5 PUSH1 0x40 MSTORE DUP4 CODECOPY DUP2 ADD SUB SLT PUSH2 0x98 JUMPI MLOAD PUSH1 0x1 PUSH1 0x1 PUSH1 0xA0 SHL SUB DUP2 AND SWAP1 DUP2 SWAP1 SUB PUSH2 0x98 JUMPI DUP1 ISZERO PUSH2 0x86 JUMPI PUSH1 0x80 MSTORE PUSH1 0x40 MLOAD PUSH2 0x6F3 SWAP1 DUP2 PUSH2 0xB4 DUP3 CODECOPY PUSH1 0x80 MLOAD DUP2 DUP2 DUP2 PUSH1 0xDC ADD MSTORE DUP2 DUP2 PUSH2 0x16C ADD MSTORE DUP2 DUP2 PUSH2 0x2B6 ADD MSTORE PUSH2 0x59B ADD MSTORE RETURN JUMPDEST PUSH1 0x40 MLOAD PUSH4 0xE6C4247B PUSH1 0xE0 SHL DUP2 MSTORE PUSH1 0x4 SWAP1 REVERT JUMPDEST PUSH1 0x0 DUP1 REVERT JUMPDEST PUSH4 0x4E487B71 PUSH1 0xE0 SHL PUSH1 0x0 MSTORE PUSH1 0x41 PUSH1 0x4 MSTORE PUSH1 0x24 PUSH1 0x0 REVERT INVALID PUSH1 0x80 DUP1 PUSH1 0x40 MSTORE PUSH1 0x4 CALLDATASIZE LT ISZERO PUSH2 0x1D JUMPI JUMPDEST POP CALLDATASIZE ISZERO PUSH2 0x1B JUMPI PUSH1 0x0 DUP1 REVERT JUMPDEST STOP JUMPDEST PUSH1 0x0 CALLDATALOAD PUSH1 0xE0 SHR SWAP1 DUP2 PUSH4 0x5D740E9D EQ PUSH2 0x578 JUMPI POP DUP1 PUSH4 0x73D3A773 EQ PUSH2 0x10B JUMPI DUP1 PUSH4 0x8C3ECC45 EQ PUSH2 0xC6 JUMPI PUSH4 0xC264A063 EQ PUSH2 0x56 JUMPI CODESIZE PUSH2 0xF JUMP JUMPDEST CALLVALUE PUSH2 0xC1 JUMPI PUSH1 0x0 CALLDATASIZE PUSH1 0x3 NOT ADD SLT PUSH2 0xC1 JUMPI SELFBALANCE DUP1 PUSH2 0x6F JUMPI STOP JUMPDEST PUSH1 0x0 DUP1 DUP1 DUP1 SWAP4 CALLER GAS CALL PUSH2 0x80 PUSH2 0x68D JUMP JUMPDEST POP ISZERO PUSH2 0x88 JUMPI STOP JUMPDEST PUSH1 0x40 MLOAD PUSH3 0x461BCD PUSH1 0xE5 SHL DUP2 MSTORE PUSH1 0x20 PUSH1 0x4 DUP3 ADD MSTORE PUSH1 0x11 PUSH1 0x24 DUP3 ADD MSTORE PUSH17 0x15DA5D1A191C985DD85B0819985A5B1959 PUSH1 0x7A SHL PUSH1 0x44 DUP3 ADD MSTORE PUSH1 0x64 SWAP1 REVERT JUMPDEST PUSH1 0x0 DUP1 REVERT JUMPDEST CALLVALUE PUSH2 0xC1 JUMPI PUSH1 0x0 CALLDATASIZE PUSH1 0x3 NOT ADD SLT PUSH2 0xC1 JUMPI PUSH1 0x40 MLOAD PUSH32 0x0 PUSH1 0x1 PUSH1 0x1 PUSH1 0xA0 SHL SUB AND DUP2 MSTORE PUSH1 0x20 SWAP1 RETURN JUMPDEST PUSH1 0x20 CALLDATASIZE PUSH1 0x3 NOT ADD SLT PUSH2 0xC1 JUMPI PUSH1 0x4 CALLDATALOAD PUSH8 0xFFFFFFFFFFFFFFFF DUP2 GT PUSH2 0xC1 JUMPI CALLDATASIZE PUSH1 0x23 DUP3 ADD SLT ISZERO PUSH2 0xC1 JUMPI PUSH8 0xFFFFFFFFFFFFFFFF DUP2 PUSH1 0x4 ADD CALLDATALOAD GT PUSH2 0xC1 JUMPI CALLDATASIZE PUSH1 0x24 DUP3 PUSH1 0x4 ADD CALLDATALOAD DUP4 ADD ADD GT PUSH2 0xC1 JUMPI PUSH1 0x40 MLOAD PUSH4 0x33332D39 PUSH1 0xE0 SHL DUP2 MSTORE PUSH1 0x20 DUP2 PUSH1 0x4 DUP2 PUSH32 0x0 PUSH1 0x1 PUSH1 0x1 PUSH1 0xA0 SHL SUB AND GAS STATICCALL SWAP1 DUP2 ISZERO PUSH2 0x48F JUMPI PUSH1 0x0 SWAP2 PUSH2 0x546 JUMPI JUMPDEST POP DUP1 CALLVALUE LT PUSH2 0x528 JUMPI PUSH2 0x1BA DUP3 PUSH1 0x4 ADD CALLDATALOAD PUSH2 0x64E JUMP JUMPDEST PUSH2 0x1C7 PUSH1 0x40 MLOAD SWAP2 DUP3 PUSH2 0x62C JUMP JUMPDEST PUSH1 0x4 DUP4 ADD CALLDATALOAD DUP1 DUP3 MSTORE PUSH1 0x24 DUP5 ADD PUSH1 0x20 DUP4 ADD CALLDATACOPY PUSH1 0x0 PUSH1 0x20 DUP5 PUSH1 0x4 ADD CALLDATALOAD DUP4 ADD ADD MSTORE DUP1 MLOAD ISZERO PUSH2 0x3B9 JUMPI PUSH1 0x40 MLOAD SWAP1 PUSH2 0x1F9 DUP3 PUSH2 0x610 JUMP JUMPDEST PUSH1 0x1 DUP3 MSTORE PUSH1 0x0 JUMPDEST PUSH1 0x20 DUP2 LT PUSH2 0x517 JUMPI POP SWAP1 PUSH1 0x40 MLOAD SWAP2 PUSH2 0x217 DUP4 PUSH2 0x610 JUMP JUMPDEST PUSH1 0x1 DUP4 MSTORE PUSH1 0x20 CALLDATASIZE DUP2 DUP6 ADD CALLDATACOPY PUSH2 0x22B DUP3 PUSH2 0x66A JUMP JUMPDEST MSTORE PUSH2 0x235 DUP2 PUSH2 0x66A JUMP JUMPDEST POP PUSH1 0x0 PUSH2 0x241 DUP4 PUSH2 0x66A JUMP JUMPDEST MSTORE PUSH1 0x40 MLOAD SWAP2 DUP3 SWAP2 PUSH4 0x61403309 PUSH1 0xE0 SHL DUP4 MSTORE PUSH1 0x44 DUP4 ADD PUSH1 0x40 PUSH1 0x4 DUP6 ADD MSTORE DUP2 MLOAD DUP1 SWAP2 MSTORE PUSH1 0x64 DUP5 ADD PUSH1 0x20 PUSH1 0x64 DUP4 PUSH1 0x5 SHL DUP8 ADD ADD SWAP4 ADD SWAP2 PUSH1 0x0 SWAP2 JUMPDEST DUP2 DUP4 LT PUSH2 0x4B4 JUMPI POP POP POP POP PUSH1 0x3 NOT DUP4 DUP3 SUB ADD PUSH1 0x24 DUP5 ADD MSTORE PUSH1 0x20 DUP1 DUP4 MLOAD SWAP3 DUP4 DUP2 MSTORE ADD SWAP3 ADD SWAP1 PUSH1 0x0 JUMPDEST DUP2 DUP2 LT PUSH2 0x49B JUMPI POP PUSH1 0x0 SWAP4 SWAP3 DUP4 SWAP1 SUB SWAP2 POP DUP3 SWAP1 POP DUP6 PUSH32 0x0 PUSH1 0x1 PUSH1 0x1 PUSH1 0xA0 SHL SUB AND GAS CALL SWAP1 DUP2 ISZERO PUSH2 0x48F JUMPI PUSH1 0x0 SWAP2 PUSH2 0x3DC JUMPI JUMPDEST POP DUP1 MLOAD ISZERO DUP1 ISZERO PUSH2 0x3CB JUMPI JUMPDEST PUSH2 0x3B9 JUMPI PUSH2 0x307 SWAP1 PUSH2 0x66A JUMP JUMPDEST MLOAD SWAP1 DUP1 CALLVALUE SUB SWAP3 CALLVALUE DUP5 GT PUSH2 0x3A3 JUMPI PUSH1 0x20 SWAP4 DUP4 SWAP3 CALLVALUE SUB PUSH2 0x38A JUMPI JUMPDEST POP PUSH32 0xE1D6EE6BAD7017BBC3322930AEDA207255A2277C752B2F6BA7FD977DCBBD8D0B PUSH1 0x40 MLOAD DUP6 DUP2 MSTORE DUP3 PUSH1 0x4 ADD CALLDATALOAD DUP7 DUP3 ADD MSTORE DUP3 PUSH1 0x4 ADD CALLDATALOAD PUSH1 0x24 DUP5 ADD PUSH1 0x40 DUP4 ADD CALLDATACOPY PUSH1 0x0 PUSH1 0x40 DUP5 PUSH1 0x4 ADD CALLDATALOAD DUP4 ADD ADD MSTORE PUSH1 0x40 DUP2 CALLER SWAP5 PUSH1 0x1F DUP1 NOT SWAP2 PUSH1 0x4 ADD CALLDATALOAD ADD AND DUP2 ADD SUB ADD SWAP1 LOG3 PUSH1 0x40 MLOAD SWAP1 DUP2 MSTORE RETURN JUMPDEST PUSH1 0x0 DUP1 DUP1 DUP1 SWAP4 CALLER GAS CALL POP PUSH2 0x39C PUSH2 0x68D JUMP JUMPDEST POP DUP5 PUSH2 0x320 JUMP JUMPDEST PUSH4 0x4E487B71 PUSH1 0xE0 SHL PUSH1 0x0 MSTORE PUSH1 0x11 PUSH1 0x4 MSTORE PUSH1 0x24 PUSH1 0x0 REVERT JUMPDEST PUSH1 0x40 MLOAD PUSH4 0xD786D393 PUSH1 0xE0 SHL DUP2 MSTORE PUSH1 0x4 SWAP1 REVERT JUMPDEST POP PUSH2 0x3D5 DUP2 PUSH2 0x66A JUMP JUMPDEST MLOAD ISZERO PUSH2 0x2FA JUMP JUMPDEST SWAP1 POP RETURNDATASIZE DUP1 PUSH1 0x0 DUP4 RETURNDATACOPY PUSH2 0x3EE DUP2 DUP4 PUSH2 0x62C JUMP JUMPDEST DUP2 ADD SWAP1 PUSH1 0x20 DUP2 DUP4 SUB SLT PUSH2 0xC1 JUMPI DUP1 MLOAD SWAP1 PUSH8 0xFFFFFFFFFFFFFFFF DUP3 GT PUSH2 0xC1 JUMPI ADD SWAP1 DUP1 PUSH1 0x1F DUP4 ADD SLT ISZERO PUSH2 0xC1 JUMPI DUP2 MLOAD SWAP2 PUSH8 0xFFFFFFFFFFFFFFFF DUP4 GT PUSH2 0x479 JUMPI DUP3 PUSH1 0x5 SHL SWAP1 PUSH1 0x40 MLOAD SWAP4 PUSH2 0x442 PUSH1 0x20 DUP5 ADD DUP7 PUSH2 0x62C JUMP JUMPDEST DUP5 MSTORE PUSH1 0x20 DUP1 DUP6 ADD SWAP3 DUP3 ADD ADD SWAP3 DUP4 GT PUSH2 0xC1 JUMPI PUSH1 0x20 ADD SWAP1 JUMPDEST DUP3 DUP3 LT PUSH2 0x469 JUMPI POP POP POP DUP4 PUSH2 0x2EF JUMP JUMPDEST DUP2 MLOAD DUP2 MSTORE PUSH1 0x20 SWAP2 DUP3 ADD SWAP2 ADD PUSH2 0x459 JUMP JUMPDEST PUSH4 0x4E487B71 PUSH1 0xE0 SHL PUSH1 0x0 MSTORE PUSH1 0x41 PUSH1 0x4 MSTORE PUSH1 0x24 PUSH1 0x0 REVERT JUMPDEST PUSH1 0x40 MLOAD RETURNDATASIZE PUSH1 0x0 DUP3 RETURNDATACOPY RETURNDATASIZE SWAP1 REVERT JUMPDEST DUP3 MLOAD DUP5 MSTORE DUP6 SWAP5 POP PUSH1 0x20 SWAP4 DUP5 ADD SWAP4 SWAP1 SWAP3 ADD SWAP2 PUSH1 0x1 ADD PUSH2 0x29F JUMP JUMPDEST SWAP2 SWAP4 SWAP1 SWAP3 SWAP5 SWAP6 POP PUSH1 0x63 NOT DUP8 DUP3 SUB ADD DUP3 MSTORE DUP5 MLOAD DUP1 MLOAD SWAP1 DUP2 DUP4 MSTORE PUSH1 0x0 JUMPDEST DUP3 DUP2 LT PUSH2 0x502 JUMPI POP POP PUSH1 0x20 DUP1 DUP4 DUP4 PUSH1 0x0 DUP4 DUP1 SWAP7 PUSH1 0x1 SWAP9 ADD ADD MSTORE PUSH1 0x1F DUP1 NOT SWAP2 ADD AND ADD ADD SWAP7 ADD SWAP3 ADD SWAP4 ADD SWAP1 SWAP2 DUP7 SWAP6 SWAP5 SWAP4 PUSH2 0x278 JUMP JUMPDEST DUP1 PUSH1 0x20 DUP1 SWAP3 DUP5 ADD ADD MLOAD DUP3 DUP3 DUP8 ADD ADD MSTORE ADD PUSH2 0x4CF JUMP JUMPDEST DUP1 PUSH1 0x60 PUSH1 0x20 DUP1 SWAP4 DUP7 ADD ADD MSTORE ADD PUSH2 0x200 JUMP JUMPDEST PUSH1 0x44 SWAP1 PUSH1 0x40 MLOAD SWAP1 PUSH4 0x1C102D63 PUSH1 0xE2 SHL DUP3 MSTORE PUSH1 0x4 DUP3 ADD MSTORE CALLVALUE PUSH1 0x24 DUP3 ADD MSTORE REVERT JUMPDEST SWAP1 POP PUSH1 0x20 DUP2 RETURNDATASIZE PUSH1 0x20 GT PUSH2 0x570 JUMPI JUMPDEST DUP2 PUSH2 0x561 PUSH1 0x20 SWAP4 DUP4 PUSH2 0x62C JUMP JUMPDEST DUP2 ADD SUB SLT PUSH2 0xC1 JUMPI MLOAD DUP3 PUSH2 0x1A5 JUMP JUMPDEST RETURNDATASIZE SWAP2 POP PUSH2 0x554 JUMP JUMPDEST CALLVALUE PUSH2 0xC1 JUMPI PUSH1 0x0 CALLDATASIZE PUSH1 0x3 NOT ADD SLT PUSH2 0xC1 JUMPI PUSH4 0x33332D39 PUSH1 0xE0 SHL DUP2 MSTORE PUSH1 0x20 DUP2 PUSH1 0x4 DUP2 PUSH32 0x0 PUSH1 0x1 PUSH1 0x1 PUSH1 0xA0 SHL SUB AND GAS STATICCALL DUP1 ISZERO PUSH2 0x48F JUMPI PUSH1 0x0 SWAP1 PUSH2 0x5DE JUMPI JUMPDEST PUSH1 0x20 SWAP1 PUSH1 0x40 MLOAD SWAP1 DUP2 MSTORE RETURN JUMPDEST POP PUSH1 0x20 DUP2 RETURNDATASIZE DUP3 GT PUSH2 0x608 JUMPI JUMPDEST DUP2 PUSH2 0x5F7 PUSH1 0x20 SWAP4 DUP4 PUSH2 0x62C JUMP JUMPDEST DUP2 ADD SUB SLT PUSH2 0xC1 JUMPI PUSH1 0x20 SWAP1 MLOAD PUSH2 0x5D3 JUMP JUMPDEST RETURNDATASIZE SWAP2 POP PUSH2 0x5EA JUMP JUMPDEST PUSH1 0x40 DUP2 ADD SWAP1 DUP2 LT PUSH8 0xFFFFFFFFFFFFFFFF DUP3 GT OR PUSH2 0x479 JUMPI PUSH1 0x40 MSTORE JUMP JUMPDEST SWAP1 PUSH1 0x1F DUP1 NOT SWAP2 ADD AND DUP2 ADD SWAP1 DUP2 LT PUSH8 0xFFFFFFFFFFFFFFFF DUP3 GT OR PUSH2 0x479 JUMPI PUSH1 0x40 MSTORE JUMP JUMPDEST PUSH8 0xFFFFFFFFFFFFFFFF DUP2 GT PUSH2 0x479 JUMPI PUSH1 0x1F ADD PUSH1 0x1F NOT AND PUSH1 0x20 ADD SWAP1 JUMP JUMPDEST DUP1 MLOAD ISZERO PUSH2 0x677 JUMPI PUSH1 0x20 ADD SWAP1 JUMP JUMPDEST PUSH4 0x4E487B71 PUSH1 0xE0 SHL PUSH1 0x0 MSTORE PUSH1 0x32 PUSH1 0x4 MSTORE PUSH1 0x24 PUSH1 0x0 REVERT JUMPDEST RETURNDATASIZE ISZERO PUSH2 0x6B8 JUMPI RETURNDATASIZE SWAP1 PUSH2 0x69E DUP3 PUSH2 0x64E JUMP JUMPDEST SWAP2 PUSH2 0x6AC PUSH1 0x40 MLOAD SWAP4 DUP5 PUSH2 0x62C JUMP JUMPDEST DUP3 MSTORE RETURNDATASIZE PUSH1 0x0 PUSH1 0x20 DUP5 ADD RETURNDATACOPY JUMP JUMPDEST PUSH1 0x60 SWAP1 JUMP INVALID LOG2 PUSH5 0x6970667358 0x22 SLT KECCAK256 0x4E EXTCODESIZE SWAP1 0xE2 ADDMOD 0x23 0xB2 0xC0 LOG2 SWAP1 GASLIMIT ADDMOD 0x21 0xCF 0x27 CODESIZE 0xB2 0xB4 DUP16 0xC SIGNEXTEND PUSH24 0xE1D04204187FC1418A3564736F6C63430008140033000000 "},"methodIdentifiers":{"createSpace(string)":"73d3a773","getSpaceCost()":"5d740e9d","multiVault()":"8c3ecc45","withdrawExcess()":"c264a063"}}}}}