{
  "_format": "hh-sol-artifact-1",
  "contractName": "CreateQuest",
  "sourceName": "contracts/CreateQuest.sol",
  "abi": [
    {
      "inputs": [
        {
          "internalType": "address",
          "name": "_multiVault",
          "type": "address"
        },
        {
          "internalType": "address",
          "name": "_revenueWallet",
          "type": "address"
        }
      ],
      "stateMutability": "nonpayable",
      "type": "constructor"
    },
    {
      "inputs": [],
      "name": "AtomCreationFailed",
      "type": "error"
    },
    {
      "inputs": [],
      "name": "FeeTransferFailed",
      "type": "error"
    },
    {
      "inputs": [
        {
          "internalType": "uint256",
          "name": "required",
          "type": "uint256"
        },
        {
          "internalType": "uint256",
          "name": "provided",
          "type": "uint256"
        }
      ],
      "name": "InsufficientValue",
      "type": "error"
    },
    {
      "inputs": [],
      "name": "InvalidAddress",
      "type": "error"
    },
    {
      "anonymous": false,
      "inputs": [
        {
          "indexed": true,
          "internalType": "address",
          "name": "creator",
          "type": "address"
        },
        {
          "indexed": true,
          "internalType": "bytes32",
          "name": "questTermId",
          "type": "bytes32"
        },
        {
          "indexed": false,
          "internalType": "string",
          "name": "questName",
          "type": "string"
        }
      ],
      "name": "QuestCreated",
      "type": "event"
    },
    {
      "inputs": [],
      "name": "DAPP_FEE_PERCENTAGE",
      "outputs": [
        {
          "internalType": "uint256",
          "name": "",
          "type": "uint256"
        }
      ],
      "stateMutability": "view",
      "type": "function"
    },
    {
      "inputs": [],
      "name": "FEE_DENOMINATOR",
      "outputs": [
        {
          "internalType": "uint256",
          "name": "",
          "type": "uint256"
        }
      ],
      "stateMutability": "view",
      "type": "function"
    },
    {
      "inputs": [
        {
          "internalType": "string",
          "name": "questName",
          "type": "string"
        }
      ],
      "name": "createQuest",
      "outputs": [
        {
          "internalType": "bytes32",
          "name": "questTermId",
          "type": "bytes32"
        }
      ],
      "stateMutability": "payable",
      "type": "function"
    },
    {
      "inputs": [],
      "name": "getQuestCost",
      "outputs": [
        {
          "internalType": "uint256",
          "name": "",
          "type": "uint256"
        }
      ],
      "stateMutability": "view",
      "type": "function"
    },
    {
      "inputs": [],
      "name": "multiVault",
      "outputs": [
        {
          "internalType": "contract IMultiVault",
          "name": "",
          "type": "address"
        }
      ],
      "stateMutability": "view",
      "type": "function"
    },
    {
      "inputs": [],
      "name": "revenueWallet",
      "outputs": [
        {
          "internalType": "address",
          "name": "",
          "type": "address"
        }
      ],
      "stateMutability": "view",
      "type": "function"
    },
    {
      "stateMutability": "payable",
      "type": "receive"
    }
  ],
  "bytecode": "0x60c0346100cd57601f61085a38819003918201601f19168301916001600160401b038311848410176100d25780849260409485528339810103126100cd57610052602061004b836100e8565b92016100e8565b906001600160a01b039081169081159081156100c2575b506100b05760805260a05260405161075d90816100fd823960805181818160bf0152818161014f015281816102b501526105f3015260a05181818161038a015261067b0152f35b60405163e6c4247b60e01b8152600490fd5b905082161538610069565b600080fd5b634e487b7160e01b600052604160045260246000fd5b51906001600160a01b03821682036100cd5756fe608080604052600436101561001d575b50361561001b57600080fd5b005b60003560e01c9081634447842514610668575080637339e216146105cd578063823636da146100ee5780638c3ecc45146100a9578063b7ee33d81461008d5763d73792a91461006c573861000f565b3461008857600036600319011261008857602060405160648152f35b600080fd5b34610088576000366003190112610088576020604051601e8152f35b34610088576000366003190112610088576040517f00000000000000000000000000000000000000000000000000000000000000006001600160a01b03168152602090f35b60203660031901126100885760043567ffffffffffffffff811161008857366023820112156100885767ffffffffffffffff81600401351161008857366024826004013583010111610088576040516333332d3960e01b81526020816004817f00000000000000000000000000000000000000000000000000000000000000006001600160a01b03165afa9081156104cc5760009161059b575b5080341061057d57803403903482116105675781601e810204601e148134141715610567576101ba83600401356106e8565b906101c860405192836106c6565b6004840135808352602485016020840137600060208560040135840101528151156103f6576040516101f9816106aa565b6001815260005b60208110610554575060405192610216846106aa565b600184526020368186013761022a82610704565b5261023481610704565b50600061024084610704565b52604051928391636140330960e01b83526044830160406004850152815180915260648401602060648360051b8701019301916000915b8183106104f157505050506003198382030160248401526020808351928381520192019060005b8181106104d85750600094928490039284925090507f00000000000000000000000000000000000000000000000000000000000000006001600160a01b03165af19081156104cc57600091610419575b508051158015610408575b6103f657601e61030a608292610704565b5192020480610382575b50806020927f811fa222800aedf1587bc20c13e673a9b055f88410fcd27a590883059935a4396040518581528260040135868201528260040135602484016040830137600060408460040135830101526040813394601f8019916004013501168101030190a3604051908152f35b6000808080937f00000000000000000000000000000000000000000000000000000000000000005af13d156103f1573d6103bb816106e8565b906103c960405192836106c6565b8152600060203d92013e5b156103df5782610314565b604051634033e4e360e01b8152600490fd5b6103d4565b6040516326df4eb560e01b8152600490fd5b5061041281610704565b51156102f9565b90503d806000833e61042b81836106c6565b8101906020818303126100885780519067ffffffffffffffff821161008857019080601f830112156100885781519167ffffffffffffffff83116104b6578260051b906040519361047f60208401866106c6565b845260208085019282010192831161008857602001905b8282106104a657505050836102ee565b8151815260209182019101610496565b634e487b7160e01b600052604160045260246000fd5b6040513d6000823e3d90fd5b825184528694506020938401939092019160010161029e565b91939092949550606319888203018252845180519081835260005b82811061053f57505060208083836000838096600198010152601f80199101160101960192019301909187959493610277565b8060208092840101518282870101520161050c565b6060602082840181019190915201610200565b634e487b7160e01b600052601160045260246000fd5b60449060405190631c102d6360e21b82526004820152346024820152fd5b90506020813d6020116105c5575b816105b6602093836106c6565b81010312610088575182610188565b3d91506105a9565b34610088576000366003190112610088576040516333332d3960e01b81526020816004817f00000000000000000000000000000000000000000000000000000000000000006001600160a01b03165afa80156104cc57600090610636575b602090604051908152f35b506020813d8211610660575b8161064f602093836106c6565b81010312610088576020905161062b565b3d9150610642565b34610088576000366003190112610088577f00000000000000000000000000000000000000000000000000000000000000006001600160a01b03168152602090f35b6040810190811067ffffffffffffffff8211176104b657604052565b90601f8019910116810190811067ffffffffffffffff8211176104b657604052565b67ffffffffffffffff81116104b657601f01601f191660200190565b8051156107115760200190565b634e487b7160e01b600052603260045260246000fdfea2646970667358221220f56a20d62020a81f54232e72345e6c48e5a2d5a3476b1e44bd8632158d51824e64736f6c63430008140033",
  "linkReferences": {},
  "deployedLinkReferences": {}
}