{
  "_format": "hh-sol-artifact-1",
  "contractName": "QuestClaimSurcharge",
  "sourceName": "contracts/QuestClaimSurcharge.sol",
  "abi": [
    {
      "inputs": [
        {
          "internalType": "address",
          "name": "_trustToken",
          "type": "address"
        },
        {
          "internalType": "address",
          "name": "_revenueWallet",
          "type": "address"
        },
        {
          "internalType": "address",
          "name": "_stakingRelayer",
          "type": "address"
        }
      ],
      "stateMutability": "nonpayable",
      "type": "constructor"
    },
    {
      "inputs": [
        {
          "internalType": "uint256",
          "name": "questId",
          "type": "uint256"
        },
        {
          "internalType": "address",
          "name": "user",
          "type": "address"
        }
      ],
      "name": "AlreadyClaimed",
      "type": "error"
    },
    {
      "inputs": [
        {
          "internalType": "address",
          "name": "user",
          "type": "address"
        },
        {
          "internalType": "uint256",
          "name": "required",
          "type": "uint256"
        },
        {
          "internalType": "uint256",
          "name": "allowed",
          "type": "uint256"
        }
      ],
      "name": "InsufficientAllowance",
      "type": "error"
    },
    {
      "inputs": [
        {
          "internalType": "address",
          "name": "user",
          "type": "address"
        },
        {
          "internalType": "uint256",
          "name": "required",
          "type": "uint256"
        },
        {
          "internalType": "uint256",
          "name": "available",
          "type": "uint256"
        }
      ],
      "name": "InsufficientBalance",
      "type": "error"
    },
    {
      "inputs": [],
      "name": "InvalidAddress",
      "type": "error"
    },
    {
      "inputs": [
        {
          "internalType": "address",
          "name": "owner",
          "type": "address"
        }
      ],
      "name": "OwnableInvalidOwner",
      "type": "error"
    },
    {
      "inputs": [
        {
          "internalType": "address",
          "name": "account",
          "type": "address"
        }
      ],
      "name": "OwnableUnauthorizedAccount",
      "type": "error"
    },
    {
      "inputs": [],
      "name": "ReentrancyGuardReentrantCall",
      "type": "error"
    },
    {
      "inputs": [],
      "name": "TransferFailed",
      "type": "error"
    },
    {
      "anonymous": false,
      "inputs": [
        {
          "indexed": true,
          "internalType": "uint256",
          "name": "questId",
          "type": "uint256"
        },
        {
          "indexed": true,
          "internalType": "address",
          "name": "user",
          "type": "address"
        }
      ],
      "name": "Claimed",
      "type": "event"
    },
    {
      "anonymous": false,
      "inputs": [
        {
          "indexed": true,
          "internalType": "uint256",
          "name": "questId",
          "type": "uint256"
        },
        {
          "indexed": true,
          "internalType": "address",
          "name": "user",
          "type": "address"
        },
        {
          "indexed": false,
          "internalType": "uint256",
          "name": "amount",
          "type": "uint256"
        }
      ],
      "name": "ForwardedToRelayer",
      "type": "event"
    },
    {
      "anonymous": false,
      "inputs": [
        {
          "indexed": true,
          "internalType": "address",
          "name": "previousOwner",
          "type": "address"
        },
        {
          "indexed": true,
          "internalType": "address",
          "name": "newOwner",
          "type": "address"
        }
      ],
      "name": "OwnershipTransferred",
      "type": "event"
    },
    {
      "anonymous": false,
      "inputs": [
        {
          "indexed": true,
          "internalType": "uint256",
          "name": "questId",
          "type": "uint256"
        },
        {
          "indexed": true,
          "internalType": "address",
          "name": "user",
          "type": "address"
        },
        {
          "indexed": false,
          "internalType": "uint256",
          "name": "amount",
          "type": "uint256"
        }
      ],
      "name": "RevenueSent",
      "type": "event"
    },
    {
      "inputs": [],
      "name": "REVENUE_SHARE",
      "outputs": [
        {
          "internalType": "uint256",
          "name": "",
          "type": "uint256"
        }
      ],
      "stateMutability": "view",
      "type": "function"
    },
    {
      "inputs": [],
      "name": "STAKEHOLDER_SHARE",
      "outputs": [
        {
          "internalType": "uint256",
          "name": "",
          "type": "uint256"
        }
      ],
      "stateMutability": "view",
      "type": "function"
    },
    {
      "inputs": [],
      "name": "SURCHARGE_AMOUNT",
      "outputs": [
        {
          "internalType": "uint256",
          "name": "",
          "type": "uint256"
        }
      ],
      "stateMutability": "view",
      "type": "function"
    },
    {
      "inputs": [
        {
          "internalType": "uint256",
          "name": "questId",
          "type": "uint256"
        }
      ],
      "name": "claim",
      "outputs": [],
      "stateMutability": "nonpayable",
      "type": "function"
    },
    {
      "inputs": [],
      "name": "emergencyWithdraw",
      "outputs": [],
      "stateMutability": "nonpayable",
      "type": "function"
    },
    {
      "inputs": [
        {
          "internalType": "uint256",
          "name": "",
          "type": "uint256"
        },
        {
          "internalType": "address",
          "name": "",
          "type": "address"
        }
      ],
      "name": "hasClaimed",
      "outputs": [
        {
          "internalType": "bool",
          "name": "",
          "type": "bool"
        }
      ],
      "stateMutability": "view",
      "type": "function"
    },
    {
      "inputs": [],
      "name": "owner",
      "outputs": [
        {
          "internalType": "address",
          "name": "",
          "type": "address"
        }
      ],
      "stateMutability": "view",
      "type": "function"
    },
    {
      "inputs": [],
      "name": "renounceOwnership",
      "outputs": [],
      "stateMutability": "nonpayable",
      "type": "function"
    },
    {
      "inputs": [],
      "name": "revenueWallet",
      "outputs": [
        {
          "internalType": "address",
          "name": "",
          "type": "address"
        }
      ],
      "stateMutability": "view",
      "type": "function"
    },
    {
      "inputs": [
        {
          "internalType": "address",
          "name": "_newRevenueWallet",
          "type": "address"
        }
      ],
      "name": "setRevenueWallet",
      "outputs": [],
      "stateMutability": "nonpayable",
      "type": "function"
    },
    {
      "inputs": [
        {
          "internalType": "address",
          "name": "_newStakingRelayer",
          "type": "address"
        }
      ],
      "name": "setStakingRelayer",
      "outputs": [],
      "stateMutability": "nonpayable",
      "type": "function"
    },
    {
      "inputs": [],
      "name": "stakingRelayer",
      "outputs": [
        {
          "internalType": "address",
          "name": "",
          "type": "address"
        }
      ],
      "stateMutability": "view",
      "type": "function"
    },
    {
      "inputs": [
        {
          "internalType": "address",
          "name": "newOwner",
          "type": "address"
        }
      ],
      "name": "transferOwnership",
      "outputs": [],
      "stateMutability": "nonpayable",
      "type": "function"
    },
    {
      "inputs": [],
      "name": "trustToken",
      "outputs": [
        {
          "internalType": "contract IERC20",
          "name": "",
          "type": "address"
        }
      ],
      "stateMutability": "view",
      "type": "function"
    }
  ],
  "bytecode": "0x60a0346101f157601f610bd938819003918201601f191683019291906001600160401b038411838510176101f65781606092849260409687528339810103126101f15761004b8161020c565b906100638361005c6020840161020c565b920161020c565b33156101d95760008054336001600160a01b03198083168217845587519690956001600160a01b03949093859391908416907f8be0079c531659141344cd1fd0a4f28419497f9722a3daafe3b4186f6b6457e09080a3600180551694851561019757508116918215610153571692831561010f576080528160025416176002556003541617600355516109b8908161022182396080518181816102020152818161039101526105940152f35b845162461bcd60e51b815260206004820152601f60248201527f496e76616c6964207374616b696e672072656c617965722061646472657373006044820152606490fd5b855162461bcd60e51b815260206004820152601e60248201527f496e76616c696420726576656e75652077616c6c6574206164647265737300006044820152606490fd5b62461bcd60e51b815260206004820152601b60248201527f496e76616c696420747275737420746f6b656e206164647265737300000000006044820152606490fd5b8351631e4fbdf760e01b815260006004820152602490fd5b600080fd5b634e487b7160e01b600052604160045260246000fd5b51906001600160a01b03821682036101f15756fe6080604081815260048036101561001557600080fd5b600092833560e01c908163379607f514610533575080633ae4df021461050a57806344478425146104e15780634556949414610492578063715018a614610435578063873f6f9e146103e85780638da5cb5b146103c0578063d13deb2f1461037c578063d75ada6814610359578063d9060c4c14610336578063db2e21bc146101c9578063ec91c0b8146101a2578063f2fde38b1461011c5763fb235f34146100bd57600080fd5b34610118576020366003190112610118576100d66108eb565b6100de610906565b6001600160a01b031691821561010b5750506bffffffffffffffffffffffff60a01b600254161760025580f35b5163e6c4247b60e01b8152fd5b8280fd5b5034610118576020366003190112610118576101366108eb565b9061013f610906565b6001600160a01b0391821692831561018c57505082546001600160a01b0319811683178455167f8be0079c531659141344cd1fd0a4f28419497f9722a3daafe3b4186f6b6457e08380a380f35b51631e4fbdf760e01b8152908101849052602490fd5b5050346101c557816003193601126101c55760209051670de0b6b3a76400008152f35b5080fd5b5090346101185782600319360112610118576101e3610906565b80516370a0823160e01b81523083820152602091906001600160a01b037f00000000000000000000000000000000000000000000000000000000000000008116918481602481865afa90811561032c5787916102fb575b5080610244578680f35b60448592885416888651958694859363a9059cbb60e01b85528b85015260248401525af19081156102f15785916102c4575b5015610283578080808680f35b5162461bcd60e51b815291820152601b60248201527f456d657267656e6379207769746864726177616c206661696c65640000000000604482015260649150fd5b6102e49150833d85116102ea575b6102dc8183610932565b81019061096a565b38610276565b503d6102d2565b82513d87823e3d90fd5b90508481813d8311610325575b6103128183610932565b8101031261032157513861023a565b8680fd5b503d610308565b84513d89823e3d90fd5b5050346101c557816003193601126101c5576020905167058d15e1762800008152f35b5050346101c557816003193601126101c55760209051670853a0d2313c00008152f35b5050346101c557816003193601126101c557517f00000000000000000000000000000000000000000000000000000000000000006001600160a01b03168152602090f35b5050346101c557816003193601126101c557905490516001600160a01b039091168152602090f35b50346101185781600319360112610118576024356001600160a01b03811691908290036104315760209360ff928285933583528652828220908252855220541690519015158152f35b8380fd5b833461048f578060031936011261048f5761044e610906565b80546001600160a01b03198116825581906001600160a01b03167f8be0079c531659141344cd1fd0a4f28419497f9722a3daafe3b4186f6b6457e08280a380f35b80fd5b5034610118576020366003190112610118576104ac6108eb565b6104b4610906565b6001600160a01b031691821561010b5750506bffffffffffffffffffffffff60a01b600354161760035580f35b5050346101c557816003193601126101c55760025490516001600160a01b039091168152602090f35b5050346101c557816003193601126101c55760035490516001600160a01b039091168152602090f35b929190503461043157602090816003193601126108e7578035936002600154146108db57506002600155838552808252828520338652825260ff83862054166108be5782516370a0823160e01b815233828201526024906001600160a01b037f000000000000000000000000000000000000000000000000000000000000000081169185818581865afa90811561080457899161088d575b50670de0b6b3a76400009081811061086b57508651636eb1769f60e11b8152338682015230858201528681604481875afa908115610861578a91610830575b5081811061080e57508651906323b872dd60e01b825233868301523085830152604482015285816064818c875af19081156108045789916107e7575b50156107d75780600254169088875163a9059cbb60e01b9384825287820152878160448167058d15e17628000095868b830152895af19081156107cd578b916107b0575b50156107a05786929160449189519081528a7f231417b109b4cd675d8f05fc51b252c4f83d18ad0886f2d927a02cf1ea6c455c863393a360035416918a89519586948593845289840152670853a0d2313c000080988401525af1908115610796578791610779575b501561076a578351908152847f81c3172c0f9b6b7e968f94f80c271b33291d7e67e81c165591935fccb8b9393c843393a3838552815281842090338552528220600160ff1982541617905533907f6aa3eac93d079e5e100b1029be716caa33586c96aa4baac390669fb5c2a212128380a36001805580f35b5082516312171d8360e31b8152fd5b6107909150843d86116102ea576102dc8183610932565b386106f2565b85513d89823e3d90fd5b87516312171d8360e31b81528690fd5b6107c79150883d8a116102ea576102dc8183610932565b3861068a565b89513d8d823e3d90fd5b85516312171d8360e31b81528490fd5b6107fe9150863d88116102ea576102dc8183610932565b38610646565b87513d8b823e3d90fd5b8751630c95cf2760e11b81523381880152808601929092526044820152606490fd5b90508681813d831161085a575b6108478183610932565b8101031261085657513861060a565b8980fd5b503d61083d565b88513d8c823e3d90fd5b875163db42144d60e01b81523381880152808601929092526044820152606490fd5b90508581813d83116108b7575b6108a48183610932565b810103126108b35751386105cb565b8880fd5b503d61089a565b82516302a4851560e61b8152908101849052336024820152604490fd5b633ee5aeb560e01b8152fd5b8480fd5b600435906001600160a01b038216820361090157565b600080fd5b6000546001600160a01b0316330361091a57565b60405163118cdaa760e01b8152336004820152602490fd5b90601f8019910116810190811067ffffffffffffffff82111761095457604052565b634e487b7160e01b600052604160045260246000fd5b9081602091031261090157518015158103610901579056fea2646970667358221220c5c722a706ab385440e0ee29e6b79af3e628db55c328e419678bafd6b8d486d764736f6c63430008140033",
  "linkReferences": {},
  "deployedLinkReferences": {}
}