{
  "_format": "hh-sol-artifact-1",
  "contractName": "ClaimQuest",
  "sourceName": "contracts/ClaimQuest.sol",
  "abi": [
    {
      "inputs": [
        {
          "internalType": "address",
          "name": "_multiVault",
          "type": "address"
        },
        {
          "internalType": "address",
          "name": "_revenueWallet",
          "type": "address"
        }
      ],
      "stateMutability": "nonpayable",
      "type": "constructor"
    },
    {
      "inputs": [],
      "name": "FeeTransferFailed",
      "type": "error"
    },
    {
      "inputs": [
        {
          "internalType": "uint256",
          "name": "required",
          "type": "uint256"
        },
        {
          "internalType": "uint256",
          "name": "provided",
          "type": "uint256"
        }
      ],
      "name": "InsufficientValue",
      "type": "error"
    },
    {
      "inputs": [],
      "name": "InvalidAddress",
      "type": "error"
    },
    {
      "inputs": [],
      "name": "InvalidTermId",
      "type": "error"
    },
    {
      "inputs": [],
      "name": "TripleCreationFailed",
      "type": "error"
    },
    {
      "anonymous": false,
      "inputs": [
        {
          "indexed": true,
          "internalType": "address",
          "name": "claimer",
          "type": "address"
        },
        {
          "indexed": true,
          "internalType": "bytes32",
          "name": "claimTermId",
          "type": "bytes32"
        },
        {
          "indexed": true,
          "internalType": "bytes32",
          "name": "questTermId",
          "type": "bytes32"
        },
        {
          "indexed": false,
          "internalType": "bytes32",
          "name": "userTermId",
          "type": "bytes32"
        },
        {
          "indexed": false,
          "internalType": "bytes32",
          "name": "predicateTermId",
          "type": "bytes32"
        }
      ],
      "name": "QuestClaimed",
      "type": "event"
    },
    {
      "inputs": [],
      "name": "DAPP_FEE_PERCENTAGE",
      "outputs": [
        {
          "internalType": "uint256",
          "name": "",
          "type": "uint256"
        }
      ],
      "stateMutability": "view",
      "type": "function"
    },
    {
      "inputs": [],
      "name": "FEE_DENOMINATOR",
      "outputs": [
        {
          "internalType": "uint256",
          "name": "",
          "type": "uint256"
        }
      ],
      "stateMutability": "view",
      "type": "function"
    },
    {
      "inputs": [
        {
          "internalType": "bytes32",
          "name": "userTermId",
          "type": "bytes32"
        },
        {
          "internalType": "bytes32",
          "name": "predicateTermId",
          "type": "bytes32"
        },
        {
          "internalType": "bytes32",
          "name": "questTermId",
          "type": "bytes32"
        }
      ],
      "name": "claimQuest",
      "outputs": [
        {
          "internalType": "bytes32",
          "name": "claimTermId",
          "type": "bytes32"
        }
      ],
      "stateMutability": "payable",
      "type": "function"
    },
    {
      "inputs": [],
      "name": "getClaimCost",
      "outputs": [
        {
          "internalType": "uint256",
          "name": "",
          "type": "uint256"
        }
      ],
      "stateMutability": "view",
      "type": "function"
    },
    {
      "inputs": [],
      "name": "multiVault",
      "outputs": [
        {
          "internalType": "contract IMultiVault",
          "name": "",
          "type": "address"
        }
      ],
      "stateMutability": "view",
      "type": "function"
    },
    {
      "inputs": [],
      "name": "revenueWallet",
      "outputs": [
        {
          "internalType": "address",
          "name": "",
          "type": "address"
        }
      ],
      "stateMutability": "view",
      "type": "function"
    },
    {
      "stateMutability": "payable",
      "type": "receive"
    }
  ],
  "bytecode": "0x60c0346100cd57601f6107df38819003918201601f19168301916001600160401b038311848410176100d25780849260409485528339810103126100cd57610052602061004b836100e8565b92016100e8565b906001600160a01b039081169081159081156100c2575b506100b05760805260a0526040516106e290816100fd823960805181818160a3015281816102130152818161050b0152610560015260a0518181816102bf01526105e80152f35b60405163e6c4247b60e01b8152600490fd5b905082161538610069565b600080fd5b634e487b7160e01b600052604160045260246000fd5b51906001600160a01b03821682036100cd5756fe608080604052600436101561001d575b50361561001b57600080fd5b005b60003560e01c90816344478425146105d5575080637a679d651461053a5780638c3ecc45146104f5578063b7ee33d8146104d9578063d73792a9146104bd5763dba20af41461006c573861000f565b6060366003190112610407576004351580156104b3575b80156104a9575b61049757604051630359724760e21b81526020816004817f00000000000000000000000000000000000000000000000000000000000000006001600160a01b03165afa90811561040c57600091610465575b5080341061044757803403903482116104315781601e810204601e148134141715610431576101bc9060405161011181610617565b600181526020368183013760405161012881610617565b60018152602036818301376101e060405161014281610617565b60018152602036818301376101ce6040519361015d85610617565b600185526020368187013760043561017487610655565b5260243561018182610655565b5260443561018e84610655565b52600061019a86610655565b52604051633c6bbf4560e01b8152608060048201529788966084880190610678565b86810360031901602488015290610678565b84810360031901604486015290610678565b6003198382030160648401526020808351928381520192019060005b8181106104185750600094928490039284925090507f00000000000000000000000000000000000000000000000000000000000000006001600160a01b03165af190811561040c57600091610374575b508051158015610363575b61035157601e610268608292610655565b51920204806102b7575b60208260405160043581526024358382015281604435917f56dbf25f2eaa1ff5a6716113c66e53ee7e198a75fd661288743e745816b4aa0860403392a4604051908152f35b6000808080937f00000000000000000000000000000000000000000000000000000000000000005af13d1561034c573d67ffffffffffffffff8111610336576040519061030e601f8201601f191660200183610633565b8152600060203d92013e5b156103245738610272565b604051634033e4e360e01b8152600490fd5b634e487b7160e01b600052604160045260246000fd5b610319565b604051633d9be33960e01b8152600490fd5b5061036d81610655565b5115610257565b90503d806000833e6103868183610633565b810160208282031261040757815167ffffffffffffffff92838211610407570181601f82011215610407578051928311610336578260051b90604051936103d06020840186610633565b845260208085019282010192831161040757602001905b8282106103f7575050503861024c565b81518152602091820191016103e7565b600080fd5b6040513d6000823e3d90fd5b82518452869450602093840193909201916001016101fc565b634e487b7160e01b600052601160045260246000fd5b60449060405190631c102d6360e21b82526004820152346024820152fd5b90506020813d60201161048f575b8161048060209383610633565b810103126104075751386100dc565b3d9150610473565b6040516366682df360e11b8152600490fd5b506044351561008a565b5060243515610083565b3461040757600036600319011261040757602060405160648152f35b34610407576000366003190112610407576020604051601e8152f35b34610407576000366003190112610407576040517f00000000000000000000000000000000000000000000000000000000000000006001600160a01b03168152602090f35b3461040757600036600319011261040757604051630359724760e21b81526020816004817f00000000000000000000000000000000000000000000000000000000000000006001600160a01b03165afa801561040c576000906105a3575b602090604051908152f35b506020813d82116105cd575b816105bc60209383610633565b810103126104075760209051610598565b3d91506105af565b34610407576000366003190112610407577f00000000000000000000000000000000000000000000000000000000000000006001600160a01b03168152602090f35b6040810190811067ffffffffffffffff82111761033657604052565b90601f8019910116810190811067ffffffffffffffff82111761033657604052565b8051156106625760200190565b634e487b7160e01b600052603260045260246000fd5b90815180825260208080930193019160005b828110610698575050505090565b83518552938101939281019260010161068a56fea264697066735822122040139eaa069556e6f44b38933e933e15e4ba93d1eebcf90cd5f2972cdc55a1c564736f6c63430008140033",
  "linkReferences": {},
  "deployedLinkReferences": {}
}