{
  "_format": "hh-sol-artifact-1",
  "contractName": "TransactionWrapper",
  "sourceName": "contracts/TransactionWrapper.sol",
  "abi": [
    {
      "inputs": [
        {
          "internalType": "address",
          "name": "_multiVault",
          "type": "address"
        },
        {
          "internalType": "address",
          "name": "_revenueWallet",
          "type": "address"
        }
      ],
      "stateMutability": "nonpayable",
      "type": "constructor"
    },
    {
      "inputs": [],
      "name": "FeeTransferFailed",
      "type": "error"
    },
    {
      "inputs": [
        {
          "internalType": "string",
          "name": "operation",
          "type": "string"
        },
        {
          "internalType": "uint256",
          "name": "required",
          "type": "uint256"
        },
        {
          "internalType": "uint256",
          "name": "provided",
          "type": "uint256"
        }
      ],
      "name": "InsufficientValue",
      "type": "error"
    },
    {
      "inputs": [],
      "name": "RefundFailed",
      "type": "error"
    },
    {
      "anonymous": false,
      "inputs": [
        {
          "indexed": true,
          "internalType": "address",
          "name": "user",
          "type": "address"
        },
        {
          "indexed": true,
          "internalType": "string",
          "name": "operation",
          "type": "string"
        },
        {
          "indexed": false,
          "internalType": "uint256",
          "name": "baseGasCost",
          "type": "uint256"
        },
        {
          "indexed": false,
          "internalType": "uint256",
          "name": "dAppFeeAmount",
          "type": "uint256"
        },
        {
          "indexed": false,
          "internalType": "uint256",
          "name": "totalCharged",
          "type": "uint256"
        }
      ],
      "name": "FeeCollected",
      "type": "event"
    },
    {
      "anonymous": false,
      "inputs": [
        {
          "indexed": true,
          "internalType": "address",
          "name": "user",
          "type": "address"
        },
        {
          "indexed": true,
          "internalType": "string",
          "name": "operation",
          "type": "string"
        },
        {
          "indexed": true,
          "internalType": "bytes32",
          "name": "resultId",
          "type": "bytes32"
        }
      ],
      "name": "OperationExecuted",
      "type": "event"
    },
    {
      "inputs": [],
      "name": "DAPP_FEE_PERCENTAGE",
      "outputs": [
        {
          "internalType": "uint256",
          "name": "",
          "type": "uint256"
        }
      ],
      "stateMutability": "view",
      "type": "function"
    },
    {
      "inputs": [],
      "name": "FEE_DENOMINATOR",
      "outputs": [
        {
          "internalType": "uint256",
          "name": "",
          "type": "uint256"
        }
      ],
      "stateMutability": "view",
      "type": "function"
    },
    {
      "inputs": [
        {
          "internalType": "bytes[]",
          "name": "atomDatas",
          "type": "bytes[]"
        },
        {
          "internalType": "uint256[]",
          "name": "assets",
          "type": "uint256[]"
        }
      ],
      "name": "createAtomsWithFee",
      "outputs": [
        {
          "internalType": "bytes32[]",
          "name": "",
          "type": "bytes32[]"
        }
      ],
      "stateMutability": "payable",
      "type": "function"
    },
    {
      "inputs": [
        {
          "internalType": "bytes32[]",
          "name": "subjectIds",
          "type": "bytes32[]"
        },
        {
          "internalType": "bytes32[]",
          "name": "predicateIds",
          "type": "bytes32[]"
        },
        {
          "internalType": "bytes32[]",
          "name": "objectIds",
          "type": "bytes32[]"
        },
        {
          "internalType": "uint256[]",
          "name": "assets",
          "type": "uint256[]"
        }
      ],
      "name": "createTriplesWithFee",
      "outputs": [
        {
          "internalType": "bytes32[]",
          "name": "",
          "type": "bytes32[]"
        }
      ],
      "stateMutability": "payable",
      "type": "function"
    },
    {
      "inputs": [
        {
          "internalType": "address",
          "name": "receiver",
          "type": "address"
        },
        {
          "internalType": "bytes32[]",
          "name": "termIds",
          "type": "bytes32[]"
        },
        {
          "internalType": "uint256[]",
          "name": "curveIds",
          "type": "uint256[]"
        },
        {
          "internalType": "uint256[]",
          "name": "minShares",
          "type": "uint256[]"
        },
        {
          "internalType": "uint256",
          "name": "totalDepositAmount",
          "type": "uint256"
        }
      ],
      "name": "depositBatchWithFee",
      "outputs": [
        {
          "internalType": "uint256[]",
          "name": "",
          "type": "uint256[]"
        }
      ],
      "stateMutability": "payable",
      "type": "function"
    },
    {
      "inputs": [
        {
          "internalType": "address",
          "name": "receiver",
          "type": "address"
        },
        {
          "internalType": "bytes32",
          "name": "termId",
          "type": "bytes32"
        },
        {
          "internalType": "uint256",
          "name": "curveId",
          "type": "uint256"
        },
        {
          "internalType": "uint256",
          "name": "minShares",
          "type": "uint256"
        },
        {
          "internalType": "uint256",
          "name": "depositAmount",
          "type": "uint256"
        }
      ],
      "name": "depositWithFee",
      "outputs": [
        {
          "internalType": "uint256",
          "name": "",
          "type": "uint256"
        }
      ],
      "stateMutability": "payable",
      "type": "function"
    },
    {
      "inputs": [],
      "name": "emergencyWithdraw",
      "outputs": [],
      "stateMutability": "nonpayable",
      "type": "function"
    },
    {
      "inputs": [],
      "name": "multiVault",
      "outputs": [
        {
          "internalType": "contract IMultiVault",
          "name": "",
          "type": "address"
        }
      ],
      "stateMutability": "view",
      "type": "function"
    },
    {
      "inputs": [],
      "name": "revenueWallet",
      "outputs": [
        {
          "internalType": "address",
          "name": "",
          "type": "address"
        }
      ],
      "stateMutability": "view",
      "type": "function"
    },
    {
      "stateMutability": "payable",
      "type": "receive"
    }
  ],
  "bytecode": "0x60c03461016a57601f6114d338819003918201601f19168301916001600160401b0383118484101761016f57808492604094855283398101031261016a57610052602061004b83610185565b9201610185565b906001600160a01b03908116908115610125578216156100e05760805260a052604051611339908161019a82396080518181816101840152818161059c015281816106890152818161073f01528181610a4801528181610d1b0152610dc4015260a0518181816102ff015281816104910152818161088501528181610b5601528181610c650152610ea60152f35b60405162461bcd60e51b815260206004820152601e60248201527f496e76616c696420726576656e75652077616c6c6574206164647265737300006044820152606490fd5b60405162461bcd60e51b815260206004820152601a60248201527f496e76616c6964204d756c74695661756c7420616464726573730000000000006044820152606490fd5b600080fd5b634e487b7160e01b600052604160045260246000fd5b51906001600160a01b038216820361016a5756fe6080604052600436101561001b575b361561001957600080fd5b005b60003560e01c80630f7ac90714610c945780634447842514610c4f578063580b7256146109d857806381ce2b55146105cb5780638c3ecc4514610586578063b7ee33d81461056a578063d73792a91461054e578063db2e21bc1461047e5763f382b8b70361000e5760a03660031901126103e2576100976110b5565b67ffffffffffffffff6024358181116103e2576100b8903690600401611049565b916044358181116103e2576100d1903690600401611049565b94906064358381116103e2576100eb903690600401611049565b9290608435341115610439576101046084351515611297565b87871480610430575b156103f3576040516386c115c960e01b81526001600160a01b039283166004820152608060248201529760009489948593849361017c93919261016a91610158608488018f8f611219565b87810360031901604489015291611219565b84810360031901606486015291611219565b0391608435907f0000000000000000000000000000000000000000000000000000000000000000165af19384156103e757600094610355575b50506101c36084353461123d565b601e8102818104601e148215171561033f5760826101e39104809261123d565b92816102f7575b610256936b0c8cae0dee6d2e884c2e8c6d60a31b9283604051526000805160206112e4833981519152604051807f7cfff4322ee8c9537fea4d065b7245ed7e5693e2f05f5d8b1eda8f419c4ca87598899533953491846040919493926060820195825260208201520152565b0390a31580156102a8575b50505050604051809160208083018184528251809152816040850193019160005b82811061029157505050500390f35b835185528695509381019392810192600101610282565b6102e157604051523590337ff0c65102f53cf5d946b4d3e04c2fd19177b4b618be647f02e2e8941c6de6476c600080a438808080610261565b634e487b7160e01b600052603260045260246000fd5b6000808080857f00000000000000000000000000000000000000000000000000000000000000005af161032861124a565b506101ea57604051634033e4e360e01b8152600490fd5b634e487b7160e01b600052601160045260246000fd5b909193503d806000833e610369818361113c565b81019160209182818503126103e25780519182116103e257019180601f840112156103e257825161039981611187565b936103a7604051958661113c565b818552838086019260051b8201019283116103e2578301905b8282106103d357505050509138806101b5565b815181529083019083016103c0565b600080fd5b6040513d6000823e3d90fd5b60405162461bcd60e51b8152602060048201526015602482015274082e4e4c2f240d8cadccee8d040dad2e6dac2e8c6d605b1b6044820152606490fd5b5083871461010d565b60405162461bcd60e51b815260206004820152601960248201527f4d7573742073656e64206465706f73697473202b2066656573000000000000006044820152606490fd5b346103e25760003660031901126103e2577f00000000000000000000000000000000000000000000000000000000000000006001600160a01b03811633036105135760008080809347905af16104d261124a565b50156104da57005b60405162461bcd60e51b815260206004820152601160248201527015da5d1a191c985dd85b0819985a5b1959607a1b6044820152606490fd5b60405162461bcd60e51b815260206004820152601360248201527213db9b1e481c995d995b9d59481dd85b1b195d606a1b6044820152606490fd5b346103e25760003660031901126103e257602060405160648152f35b346103e25760003660031901126103e2576020604051601e8152f35b346103e25760003660031901126103e2576040517f00000000000000000000000000000000000000000000000000000000000000006001600160a01b03168152602090f35b60803660031901126103e25767ffffffffffffffff6004358181116103e2576105f8903690600401611049565b6024929192358281116103e257610613903690600401611049565b926044358181116103e25761062c903690600401611049565b916064359081116103e257610645903690600401611049565b929093868614806109cf575b806109c6575b610660906110cb565b851561098a5760009660005b8581106109655750604051630359724760e21b81526020816004817f00000000000000000000000000000000000000000000000000000000000000006001600160a01b03165afa80156103e7578890600090610930575b6106cd9250611174565b8089106108ee5750604051633c6bbf4560e01b8152608060048201529889976106fb9160848a019190611219565b9060031988830301602489015261071192611219565b9060031986830301604487015261072792611219565b9060031984830301606485015261073d92611219565b7f00000000000000000000000000000000000000000000000000000000000000006001600160a01b03169184910381845a94600095f19182156103e7576000926108c5575b5061078d903461123d565b90601e8202828104601e148315171561033f5760826107ae9104809361123d565b918061087d575b61082561083d936c637265617465547269706c657360981b9283604051526000805160206112e4833981519152604051807ffdc58577788704632a858fefcbd5a5ecb72837df6ba2c5460e84147c08ace3c395869533953491846040919493926060820195825260208201520152565b0390a38251610841575b50506040519182918261107a565b0390f35b61084a8361128a565b519160405152337ff0c65102f53cf5d946b4d3e04c2fd19177b4b618be647f02e2e8941c6de6476c600080a4828061082f565b6000808080847f00000000000000000000000000000000000000000000000000000000000000005af16108ae61124a565b506107b557604051634033e4e360e01b8152600490fd5b61078d9192506108e7903d806000833e6108df818361113c565b81019061119f565b9190610782565b60a490896040519163e20b7ec960e01b835260606004840152600d60648401526c637265617465547269706c657360981b608484015260248301526044820152fd5b50506020813d821161095d575b8161094a6020938361113c565b810103126103e257876106cd91516106c3565b3d915061093d565b9761097f610985916109788b898b61111f565b359061112f565b98611110565b61066c565b60405162461bcd60e51b81526020600482015260146024820152734e6f20747269706c657320746f2063726561746560601b6044820152606490fd5b50858414610657565b50818614610651565b60a03660031901126103e2576109ec6110b5565b602435606435916084359283341115610c0a578390610a0c821515611297565b604051926302fb1d2760e41b845260018060a01b03809116600485015284602485015260443560448501528160648501528360848160209889947f0000000000000000000000000000000000000000000000000000000000000000165af19283156103e757600093610bdb575b508210610b9657610a8a903461123d565b91601e8302838104601e148415171561033f576082610aab9104809461123d565b9280610b4e575b610b19936619195c1bdcda5d60ca1b9182604051526000805160206112e4833981519152604051807f48c73f681176fc7b3f9693986fd7b14581e8d540519e27400e88b8713932be0198899533953491846040919493926060820195825260208201520152565b0390a36040515260405192337ff0c65102f53cf5d946b4d3e04c2fd19177b4b618be647f02e2e8941c6de6476c600080a48152f35b6000808080847f00000000000000000000000000000000000000000000000000000000000000005af1610b7f61124a565b50610ab257604051634033e4e360e01b8152600490fd5b60405162461bcd60e51b815260048101859052601c60248201527f496e73756666696369656e7420736861726573207265636569766564000000006044820152606490fd5b9092508481813d8311610c03575b610bf3818361113c565b810103126103e257519185610a79565b503d610be9565b60405162461bcd60e51b815260206004820152601860248201527f4d7573742073656e64206465706f736974202b206665657300000000000000006044820152606490fd5b346103e25760003660031901126103e2576040517f00000000000000000000000000000000000000000000000000000000000000006001600160a01b03168152602090f35b60403660031901126103e25760043567ffffffffffffffff81116103e257610cc0903690600401611049565b9060243567ffffffffffffffff81116103e257610ce1903690600401611049565b610cef8185949394146110cb565b831561100f5760009260005b828110610ff157506040516333332d3960e01b81526020959086816004817f00000000000000000000000000000000000000000000000000000000000000006001600160a01b03165afa80156103e7578290600090610fc0575b610d5f9250611174565b808610610f8057509190604051958693636140330960e01b855280604486016040600488015252606485019160648260051b8701019680936000915b848310610f0757888a036003190160248a0152888b60008280610dbf8f8e8e611219565b0381847f00000000000000000000000000000000000000000000000000000000000000006001600160a01b03165af19182156103e757600092610ee6575b50610e08903461123d565b90601e8202828104601e148315171561033f576082610e299104809361123d565b9180610e9e575b61082561083d936a63726561746541746f6d7360a81b9283604051526000805160206112e4833981519152604051807fc09a77a0b67c39703a71e89eb285cb899a507f96971b4ee2b9180d25958728fc95869533953491846040919493926060820195825260208201520152565b6000808080847f00000000000000000000000000000000000000000000000000000000000000005af1610ecf61124a565b50610e3057604051634033e4e360e01b8152600490fd5b610e08919250610f00903d806000833e6108df818361113c565b9190610dfd565b9193959697509193976063198b82030183528835601e19833603018112156103e257820185810191903567ffffffffffffffff81116103e25780360383136103e25786828280600196849695859652848401376000838284010152601f801991011601019a019301930190928a97969593949294610d9b565b60a490866040519163e20b7ec960e01b835260606004840152600b60648401526a63726561746541746f6d7360a81b608484015260248301526044820152fd5b50508681813d8311610fea575b610fd7818361113c565b810103126103e25781610d5f9151610d55565b503d610fcd565b9361100461100a9161097887868661111f565b94611110565b610cfb565b60405162461bcd60e51b81526020600482015260126024820152714e6f2061746f6d7320746f2063726561746560701b6044820152606490fd5b9181601f840112156103e25782359167ffffffffffffffff83116103e2576020808501948460051b0101116103e257565b6020908160408183019282815285518094520193019160005b8281106110a1575050505090565b835185529381019392810192600101611093565b600435906001600160a01b03821682036103e257565b156110d257565b60405162461bcd60e51b8152602060048201526016602482015275082e4e4c2f2e640d8cadccee8d040dad2e6dac2e8c6d60531b6044820152606490fd5b600019811461033f5760010190565b91908110156102e15760051b0190565b9190820180921161033f57565b90601f8019910116810190811067ffffffffffffffff82111761115e57604052565b634e487b7160e01b600052604160045260246000fd5b8181029291811591840414171561033f57565b67ffffffffffffffff811161115e5760051b60200190565b60209081818403126103e25780519067ffffffffffffffff82116103e257019180601f840112156103e25782516111d581611187565b936111e3604051958661113c565b818552838086019260051b8201019283116103e2578301905b82821061120a575050505090565b815181529083019083016111fc565b81835290916001600160fb1b0383116103e25760209260051b809284830137010190565b9190820391821161033f57565b3d15611285573d9067ffffffffffffffff821161115e5760405191611279601f8201601f19166020018461113c565b82523d6000602084013e565b606090565b8051156102e15760200190565b1561129e57565b60405162461bcd60e51b815260206004820152601a60248201527f4465706f73697420616d6f756e74206d757374206265203e20300000000000006044820152606490fdfe5d1dba212f6b8f692623054b0ceb136bcc4e5f75db859fdfd284a79d95f89801a26469706673582212200291b25b268c86588971683f865d0dabeddec6aabe009fa0ca7d4d393008320e64736f6c63430008140033",
  "linkReferences": {},
  "deployedLinkReferences": {}
}