{
  "_format": "hh-sol-artifact-1",
  "contractName": "CreateSpace",
  "sourceName": "contracts/CreateSpace.sol",
  "abi": [
    {
      "inputs": [
        {
          "internalType": "address",
          "name": "_multiVault",
          "type": "address"
        }
      ],
      "stateMutability": "nonpayable",
      "type": "constructor"
    },
    {
      "inputs": [],
      "name": "CreationFailed",
      "type": "error"
    },
    {
      "inputs": [
        {
          "internalType": "uint256",
          "name": "required",
          "type": "uint256"
        },
        {
          "internalType": "uint256",
          "name": "provided",
          "type": "uint256"
        }
      ],
      "name": "InsufficientValue",
      "type": "error"
    },
    {
      "inputs": [],
      "name": "InvalidAddress",
      "type": "error"
    },
    {
      "anonymous": false,
      "inputs": [
        {
          "indexed": true,
          "internalType": "address",
          "name": "creator",
          "type": "address"
        },
        {
          "indexed": true,
          "internalType": "bytes32",
          "name": "spaceTermId",
          "type": "bytes32"
        },
        {
          "indexed": false,
          "internalType": "string",
          "name": "spaceName",
          "type": "string"
        }
      ],
      "name": "SpaceCreated",
      "type": "event"
    },
    {
      "inputs": [
        {
          "internalType": "string",
          "name": "spaceName",
          "type": "string"
        }
      ],
      "name": "createSpace",
      "outputs": [
        {
          "internalType": "bytes32",
          "name": "spaceTermId",
          "type": "bytes32"
        }
      ],
      "stateMutability": "payable",
      "type": "function"
    },
    {
      "inputs": [],
      "name": "getSpaceCost",
      "outputs": [
        {
          "internalType": "uint256",
          "name": "",
          "type": "uint256"
        }
      ],
      "stateMutability": "view",
      "type": "function"
    },
    {
      "inputs": [],
      "name": "multiVault",
      "outputs": [
        {
          "internalType": "contract IMultiVault",
          "name": "",
          "type": "address"
        }
      ],
      "stateMutability": "view",
      "type": "function"
    },
    {
      "inputs": [],
      "name": "withdrawExcess",
      "outputs": [],
      "stateMutability": "nonpayable",
      "type": "function"
    },
    {
      "stateMutability": "payable",
      "type": "receive"
    }
  ],
  "bytecode": "0x60a03461009857601f6107a738819003918201601f19168301916001600160401b0383118484101761009d5780849260209460405283398101031261009857516001600160a01b03811690819003610098578015610086576080526040516106f390816100b4823960805181818160dc0152818161016c015281816102b6015261059b0152f35b60405163e6c4247b60e01b8152600490fd5b600080fd5b634e487b7160e01b600052604160045260246000fdfe608080604052600436101561001d575b50361561001b57600080fd5b005b60003560e01c9081635d740e9d146105785750806373d3a7731461010b5780638c3ecc45146100c65763c264a06314610056573861000f565b346100c15760003660031901126100c157478061006f57005b600080808093335af161008061068d565b501561008857005b60405162461bcd60e51b815260206004820152601160248201527015da5d1a191c985dd85b0819985a5b1959607a1b6044820152606490fd5b600080fd5b346100c15760003660031901126100c1576040517f00000000000000000000000000000000000000000000000000000000000000006001600160a01b03168152602090f35b60203660031901126100c15760043567ffffffffffffffff81116100c157366023820112156100c15767ffffffffffffffff8160040135116100c1573660248260040135830101116100c1576040516333332d3960e01b81526020816004817f00000000000000000000000000000000000000000000000000000000000000006001600160a01b03165afa90811561048f57600091610546575b50803410610528576101ba826004013561064e565b6101c7604051918261062c565b6004830135808252602484016020830137600060208460040135830101528051156103b957604051906101f982610610565b6001825260005b602081106105175750906040519161021783610610565b600183526020368185013761022b8261066a565b526102358161066a565b5060006102418361066a565b52604051918291636140330960e01b83526044830160406004850152815180915260648401602060648360051b8701019301916000915b8183106104b457505050506003198382030160248401526020808351928381520192019060005b81811061049b5750600093928390039150829050857f00000000000000000000000000000000000000000000000000000000000000006001600160a01b03165af190811561048f576000916103dc575b5080511580156103cb575b6103b9576103079061066a565b5190803403923484116103a3576020938392340361038a575b507fe1d6ee6bad7017bbc3322930aeda207255a2277c752b2f6ba7fd977dcbbd8d0b6040518581528260040135868201528260040135602484016040830137600060408460040135830101526040813394601f8019916004013501168101030190a3604051908152f35b600080808093335af15061039c61068d565b5084610320565b634e487b7160e01b600052601160045260246000fd5b60405163d786d39360e01b8152600490fd5b506103d58161066a565b51156102fa565b90503d806000833e6103ee818361062c565b8101906020818303126100c15780519067ffffffffffffffff82116100c157019080601f830112156100c15781519167ffffffffffffffff8311610479578260051b9060405193610442602084018661062c565b84526020808501928201019283116100c157602001905b82821061046957505050836102ef565b8151815260209182019101610459565b634e487b7160e01b600052604160045260246000fd5b6040513d6000823e3d90fd5b825184528594506020938401939092019160010161029f565b91939092949550606319878203018252845180519081835260005b82811061050257505060208083836000838096600198010152601f80199101160101960192019301909186959493610278565b806020809284010151828287010152016104cf565b806060602080938601015201610200565b60449060405190631c102d6360e21b82526004820152346024820152fd5b90506020813d602011610570575b816105616020938361062c565b810103126100c15751826101a5565b3d9150610554565b346100c15760003660031901126100c1576333332d3960e01b81526020816004817f00000000000000000000000000000000000000000000000000000000000000006001600160a01b03165afa801561048f576000906105de575b602090604051908152f35b506020813d8211610608575b816105f76020938361062c565b810103126100c157602090516105d3565b3d91506105ea565b6040810190811067ffffffffffffffff82111761047957604052565b90601f8019910116810190811067ffffffffffffffff82111761047957604052565b67ffffffffffffffff811161047957601f01601f191660200190565b8051156106775760200190565b634e487b7160e01b600052603260045260246000fd5b3d156106b8573d9061069e8261064e565b916106ac604051938461062c565b82523d6000602084013e565b60609056fea26469706673582212204e3b90e20823b2c0a290450821cf2738b2b48f0c0b77e1d04204187fc1418a3564736f6c63430008140033",
  "linkReferences": {},
  "deployedLinkReferences": {}
}