{"abi":[{"type":"constructor","inputs":[{"name":"_revenueWallet","type":"address","internalType":"address"},{"name":"_admin","type":"address","internalType":"address"}],"stateMutability":"nonpayable"},{"type":"receive","stateMutability":"payable"},{"type":"function","name":"BPS_DENOMINATOR","inputs":[],"outputs":[{"name":"","type":"uint256","internalType":"uint256"}],"stateMutability":"view"},{"type":"function","name":"SURCHARGE_BPS","inputs":[],"outputs":[{"name":"","type":"uint256","internalType":"uint256"}],"stateMutability":"view"},{"type":"function","name":"admin","inputs":[],"outputs":[{"name":"","type":"address","internalType":"address"}],"stateMutability":"view"},{"type":"function","name":"allowedTargets","inputs":[{"name":"","type":"address","internalType":"address"}],"outputs":[{"name":"","type":"bool","internalType":"bool"}],"stateMutability":"view"},{"type":"function","name":"calculateTotalCost","inputs":[{"name":"baseAmount","type":"uint256","internalType":"uint256"}],"outputs":[{"name":"totalAmount","type":"uint256","internalType":"uint256"},{"name":"feeAmount","type":"uint256","internalType":"uint256"}],"stateMutability":"pure"},{"type":"function","name":"executeWithFee","inputs":[{"name":"target","type":"address","internalType":"address"},{"name":"data","type":"bytes","internalType":"bytes"},{"name":"value","type":"uint256","internalType":"uint256"}],"outputs":[{"name":"result","type":"bytes","internalType":"bytes"}],"stateMutability":"payable"},{"type":"function","name":"getRevenueWallet","inputs":[],"outputs":[{"name":"","type":"address","internalType":"address"}],"stateMutability":"view"},{"type":"function","name":"getSurchargeRate","inputs":[],"outputs":[{"name":"","type":"uint256","internalType":"uint256"}],"stateMutability":"pure"},{"type":"function","name":"revenueWallet","inputs":[],"outputs":[{"name":"","type":"address","internalType":"address"}],"stateMutability":"view"},{"type":"function","name":"setTargetAllowed","inputs":[{"name":"target","type":"address","internalType":"address"},{"name":"allowed","type":"bool","internalType":"bool"}],"outputs":[],"stateMutability":"nonpayable"},{"type":"function","name":"updateAdmin","inputs":[{"name":"newAdmin","type":"address","internalType":"address"}],"outputs":[],"stateMutability":"nonpayable"},{"type":"event","name":"AdminUpdated","inputs":[{"name":"oldAdmin","type":"address","indexed":true,"internalType":"address"},{"name":"newAdmin","type":"address","indexed":true,"internalType":"address"}],"anonymous":false},{"type":"event","name":"FeeCollected","inputs":[{"name":"user","type":"address","indexed":true,"internalType":"address"},{"name":"baseAmount","type":"uint256","indexed":false,"internalType":"uint256"},{"name":"feeAmount","type":"uint256","indexed":false,"internalType":"uint256"},{"name":"totalAmount","type":"uint256","indexed":false,"internalType":"uint256"}],"anonymous":false},{"type":"event","name":"TargetAllowed","inputs":[{"name":"target","type":"address","indexed":true,"internalType":"address"},{"name":"allowed","type":"bool","indexed":false,"internalType":"bool"}],"anonymous":false},{"type":"event","name":"TransactionExecuted","inputs":[{"name":"user","type":"address","indexed":true,"internalType":"address"},{"name":"target","type":"address","indexed":true,"internalType":"address"},{"name":"value","type":"uint256","indexed":false,"internalType":"uint256"},{"name":"success","type":"bool","indexed":false,"internalType":"bool"}],"anonymous":false},{"type":"error","name":"InsufficientPayment","inputs":[{"name":"required","type":"uint256","internalType":"uint256"},{"name":"provided","type":"uint256","internalType":"uint256"}]},{"type":"error","name":"OnlyAdmin","inputs":[]},{"type":"error","name":"TargetNotAllowed","inputs":[{"name":"target","type":"address","internalType":"address"}]},{"type":"error","name":"TransactionFailed","inputs":[{"name":"reason","type":"bytes","internalType":"bytes"}]},{"type":"error","name":"TransferFailed","inputs":[]},{"type":"error","name":"ZeroAddress","inputs":[]}],"bytecode":{"object":"0x60a060405234801561000f575f80fd5b506040516109c23803806109c283398101604081905261002e916100ab565b6001600160a01b038216158061004b57506001600160a01b038116155b156100695760405163d92e233d60e01b815260040160405180910390fd5b6001600160a01b039182166080525f80546001600160a01b031916919092161790556100dc565b80516001600160a01b03811681146100a6575f80fd5b919050565b5f80604083850312156100bc575f80fd5b6100c583610090565b91506100d360208401610090565b90509250929050565b6080516108c06101025f395f818161010301528181610228015261039101526108c05ff3fe60806040526004361061009d575f3560e01c8063b8fe8d5f11610062578063b8fe8d5f14610194578063da767d04146101d2578063e1a45218146101e6578063e2f273bd146101fb578063f3cd37981461021a578063f851a4401461024c575f80fd5b8063354c90d2146100a85780633a3d56fa146100d157806344478425146100f2578063888a1e941461013d57806398efca5414610160575f80fd5b366100a457005b5f80fd5b6100bb6100b63660046106c8565b61026a565b6040516100c8919061074a565b60405180910390f35b3480156100dc575f80fd5b506100f06100eb366004610795565b610530565b005b3480156100fd575f80fd5b506101257f000000000000000000000000000000000000000000000000000000000000000081565b6040516001600160a01b0390911681526020016100c8565b348015610148575f80fd5b50610152610bb881565b6040519081526020016100c8565b34801561016b575f80fd5b5061017f61017a3660046107ce565b6105df565b604080519283526020830191909152016100c8565b34801561019f575f80fd5b506101c26101ae3660046107e5565b60016020525f908152604090205460ff1681565b60405190151581526020016100c8565b3480156101dd575f80fd5b50610bb8610152565b3480156101f1575f80fd5b5061015261271081565b348015610206575f80fd5b506100f06102153660046107e5565b61060d565b348015610225575f80fd5b507f0000000000000000000000000000000000000000000000000000000000000000610125565b348015610257575f80fd5b505f54610125906001600160a01b031681565b6001600160a01b0384165f9081526001602052604090205460609060ff166102b55760405163e356c1d360e01b81526001600160a01b03861660048201526024015b60405180910390fd5b5f6127106102c5610bb885610819565b6102cf9190610836565b90505f6102dc8285610855565b9050803410156103085760405163b99e2ab760e01b8152600481018290523460248201526044016102ac565b5f876001600160a01b0316858888604051610324929190610868565b5f6040518083038185875af1925050503d805f811461035e576040519150601f19603f3d011682016040523d82523d5f602084013e610363565b606091505b509450905080610388578360405163fe3c766760e01b81526004016102ac919061074a565b8215610420575f7f00000000000000000000000000000000000000000000000000000000000000006001600160a01b0316846040515f6040518083038185875af1925050503d805f81146103f7576040519150601f19603f3d011682016040523d82523d5f602084013e6103fc565b606091505b505090508061041e576040516312171d8360e31b815260040160405180910390fd5b505b5f61042b8334610877565b9050801561049b576040515f90339083908381818185875af1925050503d805f8114610472576040519150601f19603f3d011682016040523d82523d5f602084013e610477565b606091505b5050905080610499576040516312171d8360e31b815260040160405180910390fd5b505b604080518781526020810186905290810184905233907f7e4199a81d431b89a16814e8730ae102c7b9b30c1a661bc67be86f4b185b17339060600160405180910390a260408051878152600160208201526001600160a01b038b169133917fc8ce50f758268a606a1581aea87003aa9069f51b1728e4a378ce69298024c83b910160405180910390a350505050949350505050565b5f546001600160a01b0316331461055a57604051634755657960e01b815260040160405180910390fd5b6001600160a01b0382166105815760405163d92e233d60e01b815260040160405180910390fd5b6001600160a01b0382165f81815260016020908152604091829020805460ff191685151590811790915591519182527fa15b89ddfd4f8f39b42c00d0e35440aa574da8d20d9e1d886e42edf16ce9ad4c910160405180910390a25050565b5f806127106105f0610bb885610819565b6105fa9190610836565b90506106068184610855565b9150915091565b5f546001600160a01b0316331461063757604051634755657960e01b815260040160405180910390fd5b6001600160a01b03811661065e5760405163d92e233d60e01b815260040160405180910390fd5b5f80546001600160a01b038381166001600160a01b0319831681178455604051919092169283917f101b8081ff3b56bbf45deb824d86a3b0fd38b7e3dd42421105cf8abe9106db0b9190a35050565b80356001600160a01b03811681146106c3575f80fd5b919050565b5f805f80606085870312156106db575f80fd5b6106e4856106ad565b9350602085013567ffffffffffffffff80821115610700575f80fd5b818701915087601f830112610713575f80fd5b813581811115610721575f80fd5b886020828501011115610732575f80fd5b95986020929092019750949560400135945092505050565b5f6020808352835180828501525f5b8181101561077557858101830151858201604001528201610759565b505f604082860101526040601f19601f8301168501019250505092915050565b5f80604083850312156107a6575f80fd5b6107af836106ad565b9150602083013580151581146107c3575f80fd5b809150509250929050565b5f602082840312156107de575f80fd5b5035919050565b5f602082840312156107f5575f80fd5b6107fe826106ad565b9392505050565b634e487b7160e01b5f52601160045260245ffd5b808202811582820484141761083057610830610805565b92915050565b5f8261085057634e487b7160e01b5f52601260045260245ffd5b500490565b8082018082111561083057610830610805565b818382375f9101908152919050565b818103818111156108305761083061080556fea2646970667358221220e4f38f03c2ed59a5a9f37e30b1e748df3dd3aac6dcbf5b4099202d4392fb2c2e64736f6c63430008140033","linkReferences":{}},"methodIdentifiers":{"BPS_DENOMINATOR()":"e1a45218","SURCHARGE_BPS()":"888a1e94","admin()":"f851a440","allowedTargets(address)":"b8fe8d5f","calculateTotalCost(uint256)":"98efca54","executeWithFee(address,bytes,uint256)":"354c90d2","getRevenueWallet()":"f3cd3798","getSurchargeRate()":"da767d04","revenueWallet()":"44478425","setTargetAllowed(address,bool)":"3a3d56fa","updateAdmin(address)":"e2f273bd"},"id":0}