{
  "_format": "hh-sol-artifact-1",
  "contractName": "QuestEscrow",
  "sourceName": "contracts/QuestEscrow.sol",
  "abi": [
    {
      "inputs": [],
      "stateMutability": "nonpayable",
      "type": "constructor"
    },
    {
      "inputs": [],
      "name": "AlreadyDistributed",
      "type": "error"
    },
    {
      "inputs": [],
      "name": "InsufficientBalance",
      "type": "error"
    },
    {
      "inputs": [],
      "name": "InvalidAmount",
      "type": "error"
    },
    {
      "inputs": [],
      "name": "InvalidQuestId",
      "type": "error"
    },
    {
      "inputs": [],
      "name": "InvalidWinnerData",
      "type": "error"
    },
    {
      "inputs": [],
      "name": "InvalidWinners",
      "type": "error"
    },
    {
      "inputs": [],
      "name": "NotCreator",
      "type": "error"
    },
    {
      "inputs": [
        {
          "internalType": "address",
          "name": "owner",
          "type": "address"
        }
      ],
      "name": "OwnableInvalidOwner",
      "type": "error"
    },
    {
      "inputs": [
        {
          "internalType": "address",
          "name": "account",
          "type": "address"
        }
      ],
      "name": "OwnableUnauthorizedAccount",
      "type": "error"
    },
    {
      "inputs": [],
      "name": "ReentrancyGuardReentrantCall",
      "type": "error"
    },
    {
      "inputs": [],
      "name": "TransferFailed",
      "type": "error"
    },
    {
      "anonymous": false,
      "inputs": [
        {
          "indexed": true,
          "internalType": "string",
          "name": "questId",
          "type": "string"
        },
        {
          "indexed": true,
          "internalType": "address",
          "name": "creator",
          "type": "address"
        },
        {
          "indexed": false,
          "internalType": "uint256",
          "name": "amount",
          "type": "uint256"
        },
        {
          "indexed": false,
          "internalType": "uint256",
          "name": "numberOfWinners",
          "type": "uint256"
        }
      ],
      "name": "DepositMade",
      "type": "event"
    },
    {
      "anonymous": false,
      "inputs": [
        {
          "indexed": true,
          "internalType": "string",
          "name": "questId",
          "type": "string"
        },
        {
          "indexed": true,
          "internalType": "address",
          "name": "creator",
          "type": "address"
        },
        {
          "indexed": false,
          "internalType": "uint256",
          "name": "amount",
          "type": "uint256"
        }
      ],
      "name": "DepositRefunded",
      "type": "event"
    },
    {
      "anonymous": false,
      "inputs": [
        {
          "indexed": true,
          "internalType": "address",
          "name": "previousOwner",
          "type": "address"
        },
        {
          "indexed": true,
          "internalType": "address",
          "name": "newOwner",
          "type": "address"
        }
      ],
      "name": "OwnershipTransferred",
      "type": "event"
    },
    {
      "anonymous": false,
      "inputs": [
        {
          "indexed": true,
          "internalType": "string",
          "name": "questId",
          "type": "string"
        },
        {
          "indexed": false,
          "internalType": "uint256",
          "name": "totalDistributed",
          "type": "uint256"
        }
      ],
      "name": "QuestDistributed",
      "type": "event"
    },
    {
      "anonymous": false,
      "inputs": [
        {
          "indexed": true,
          "internalType": "string",
          "name": "questId",
          "type": "string"
        },
        {
          "indexed": true,
          "internalType": "address",
          "name": "winner",
          "type": "address"
        },
        {
          "indexed": false,
          "internalType": "uint256",
          "name": "amount",
          "type": "uint256"
        }
      ],
      "name": "RewardDistributed",
      "type": "event"
    },
    {
      "anonymous": false,
      "inputs": [
        {
          "indexed": true,
          "internalType": "string",
          "name": "questId",
          "type": "string"
        },
        {
          "indexed": true,
          "internalType": "uint256",
          "name": "winnerIndex",
          "type": "uint256"
        },
        {
          "indexed": false,
          "internalType": "address",
          "name": "winner",
          "type": "address"
        },
        {
          "indexed": false,
          "internalType": "uint256",
          "name": "amount",
          "type": "uint256"
        }
      ],
      "name": "WinnerSet",
      "type": "event"
    },
    {
      "inputs": [
        {
          "internalType": "string",
          "name": "questId",
          "type": "string"
        },
        {
          "internalType": "uint256",
          "name": "numberOfWinners",
          "type": "uint256"
        }
      ],
      "name": "deposit",
      "outputs": [],
      "stateMutability": "payable",
      "type": "function"
    },
    {
      "inputs": [
        {
          "internalType": "string",
          "name": "questId",
          "type": "string"
        }
      ],
      "name": "distributeRewards",
      "outputs": [],
      "stateMutability": "nonpayable",
      "type": "function"
    },
    {
      "inputs": [
        {
          "internalType": "string",
          "name": "questId",
          "type": "string"
        }
      ],
      "name": "getQuestDeposit",
      "outputs": [
        {
          "internalType": "address",
          "name": "creator",
          "type": "address"
        },
        {
          "internalType": "uint256",
          "name": "totalAmount",
          "type": "uint256"
        },
        {
          "internalType": "uint256",
          "name": "distributedAmount",
          "type": "uint256"
        },
        {
          "internalType": "bool",
          "name": "isDistributed",
          "type": "bool"
        },
        {
          "internalType": "uint256",
          "name": "numberOfWinners",
          "type": "uint256"
        }
      ],
      "stateMutability": "view",
      "type": "function"
    },
    {
      "inputs": [
        {
          "internalType": "string",
          "name": "questId",
          "type": "string"
        },
        {
          "internalType": "uint256",
          "name": "winnerIndex",
          "type": "uint256"
        }
      ],
      "name": "getWinner",
      "outputs": [
        {
          "internalType": "address",
          "name": "winnerAddress",
          "type": "address"
        },
        {
          "internalType": "uint256",
          "name": "amount",
          "type": "uint256"
        }
      ],
      "stateMutability": "view",
      "type": "function"
    },
    {
      "inputs": [],
      "name": "owner",
      "outputs": [
        {
          "internalType": "address",
          "name": "",
          "type": "address"
        }
      ],
      "stateMutability": "view",
      "type": "function"
    },
    {
      "inputs": [
        {
          "internalType": "string",
          "name": "",
          "type": "string"
        }
      ],
      "name": "questDeposits",
      "outputs": [
        {
          "internalType": "address",
          "name": "creator",
          "type": "address"
        },
        {
          "internalType": "uint256",
          "name": "totalAmount",
          "type": "uint256"
        },
        {
          "internalType": "uint256",
          "name": "distributedAmount",
          "type": "uint256"
        },
        {
          "internalType": "bool",
          "name": "isDistributed",
          "type": "bool"
        },
        {
          "internalType": "uint256",
          "name": "numberOfWinners",
          "type": "uint256"
        }
      ],
      "stateMutability": "view",
      "type": "function"
    },
    {
      "inputs": [
        {
          "internalType": "string",
          "name": "questId",
          "type": "string"
        }
      ],
      "name": "refundDeposit",
      "outputs": [],
      "stateMutability": "nonpayable",
      "type": "function"
    },
    {
      "inputs": [],
      "name": "renounceOwnership",
      "outputs": [],
      "stateMutability": "nonpayable",
      "type": "function"
    },
    {
      "inputs": [
        {
          "internalType": "string",
          "name": "questId",
          "type": "string"
        },
        {
          "internalType": "uint256",
          "name": "winnerIndex",
          "type": "uint256"
        },
        {
          "internalType": "address",
          "name": "winnerAddress",
          "type": "address"
        },
        {
          "internalType": "uint256",
          "name": "amount",
          "type": "uint256"
        }
      ],
      "name": "setWinner",
      "outputs": [],
      "stateMutability": "nonpayable",
      "type": "function"
    },
    {
      "inputs": [
        {
          "internalType": "string",
          "name": "questId",
          "type": "string"
        },
        {
          "internalType": "address[]",
          "name": "winnerAddresses",
          "type": "address[]"
        },
        {
          "internalType": "uint256[]",
          "name": "amounts",
          "type": "uint256[]"
        }
      ],
      "name": "setWinners",
      "outputs": [],
      "stateMutability": "nonpayable",
      "type": "function"
    },
    {
      "inputs": [
        {
          "internalType": "address",
          "name": "newOwner",
          "type": "address"
        }
      ],
      "name": "transferOwnership",
      "outputs": [],
      "stateMutability": "nonpayable",
      "type": "function"
    },
    {
      "inputs": [
        {
          "internalType": "string",
          "name": "",
          "type": "string"
        },
        {
          "internalType": "uint256",
          "name": "",
          "type": "uint256"
        }
      ],
      "name": "winnerAmounts",
      "outputs": [
        {
          "internalType": "uint256",
          "name": "",
          "type": "uint256"
        }
      ],
      "stateMutability": "view",
      "type": "function"
    },
    {
      "inputs": [
        {
          "internalType": "string",
          "name": "",
          "type": "string"
        },
        {
          "internalType": "uint256",
          "name": "",
          "type": "uint256"
        }
      ],
      "name": "winners",
      "outputs": [
        {
          "internalType": "address",
          "name": "",
          "type": "address"
        }
      ],
      "stateMutability": "view",
      "type": "function"
    },
    {
      "stateMutability": "payable",
      "type": "receive"
    }
  ],
  "bytecode": "0x6080806040523461007e5733156100685760008054336001600160a01b03198216811783556040519290916001600160a01b0316907f8be0079c531659141344cd1fd0a4f28419497f9722a3daafe3b4186f6b6457e09080a360018055610f2590816100848239f35b631e4fbdf760e01b815260006004820152602490fd5b600080fdfe604060808152600436101561001d575b50361561001b57600080fd5b005b60003560e01c806308371f1f14610c965780631106671814610c4f57806369524d3114610b485780637082028f14610905578063715018a6146108ac5780637eda8c8e1461081a5780638da5cb5b146107f15780638e27d719146106ad578063b221deee146105e9578063cca7c95d14610398578063e38cf50914610317578063f0fb1473146101415763f2fde38b0361000f573461013c57602036600319011261013c576001600160a01b03600435818116929083900361013c576100e1610e0e565b82156101255750600054826001600160601b0360a01b821617600055167f8be0079c531659141344cd1fd0a4f28419497f9722a3daafe3b4186f6b6457e0600080a3005b51631e4fbdf760e01b815260006004820152602490fd5b600080fd5b503461013c57608036600319011261013c5760043567ffffffffffffffff811161013c57610173903690600401610d3e565b60243591906001600160a01b03906044359082821680830361013c576064359385516020816101a28187610db2565b6002815203019020906001820154156103065760ff6003830154166102f5578082541633141590816102e6575b506102d55781156102c45784156102b357600401548610156102a2576102797fa30a18ccb0c5bbec88b6bb9c18aee3d57cb5543e76eac5e101af726d2dd0ae7694939261029d9287516020816102258186610db2565b60048152030190208960005260205287600020906001600160601b0360a01b82541617905586516020816102598185610db2565b600381520301902088600052602052848760002055865191828092610db2565b03902094516001600160a01b03909216825260208201929092529081906040820190565b0390a3005b845163cfdacc2b60e01b8152600490fd5b855163162908e360e11b8152600490fd5b85516371620c3160e01b8152600490fd5b85516393687c0b60e01b8152600490fd5b905060005416331415386101cf565b865163cce553a960e01b8152600490fd5b8651630c35c39f60e01b8152600490fd5b503461013c5761032636610d80565b82516020816103358186610db2565b600481520301902081600052602052610362602060018060a01b0385600020541693855192838092610db2565b600381520301902060009182526020908152908390205492516001600160a01b03929092168252810191909152604090f35b0390f35b503461013c57606036600319011261013c5767ffffffffffffffff60043581811161013c576103cb903690600401610d3e565b60243582811161013c576103e3903690600401610ddd565b909260443590811161013c576103fd903690600401610ddd565b90918551948561040d8187610db2565b60028152602097889103019020956001870154156105d85760039060ff82890154166105c75787546001600160a01b0398908916331415806105b9575b6105a857858503610586576004015484116105975760005b84811061046b57005b8861047f61047a838888610e82565b610ea8565b161561058657610490818789610e82565b35156105755780808b7fa30a18ccb0c5bbec88b6bb9c18aee3d57cb5543e76eac5e101af726d2dd0ae768b8b6105688f61055b878f8f8f8f9d8f926105709f9261047a938e8661053f8f988f996105326102799f8d6105559d8c926104f961047a858f8f610e82565b908a518881610508818b610db2565b60048152030190208560005288528a60002091166001600160601b0360a01b825416179055610e82565b3595855193848093610db2565b9081520301902090866000525260002055610e82565b95610e82565b3593865191828092610db2565b0390a3610e5d565b610462565b895163162908e360e11b8152600490fd5b89516371620c3160e01b8152600490fd5b885163cfdacc2b60e01b8152600490fd5b89516393687c0b60e01b8152600490fd5b50886000541633141561044a565b885163cce553a960e01b8152600490fd5b8751630c35c39f60e01b8152600490fd5b503461013c57602036600319011261013c5760043567ffffffffffffffff811161013c57602061062061062b923690600401610d3e565b835192838092610db2565b60028152030190206103946080610640610cc6565b83546001600160a01b0316808252600185015460208084018290526002870154888501819052600388015460ff16151560608087018290526004909901549690950186905297519283528201526040810195909552928401929092526080830191909152819060a0820190565b506106b736610d80565b91906106c1610e3a565b8051156107be5734156107e05782156107cf57600182516020816106e58186610db2565b600281520301902001546107be576107a67fad6dc291ea00743d0b29976150f70071f7949128282583416d3bdc94902666a591610720610cc6565b3381526004602082013481528683016000815260608401906000825260808501928a84528951602081610753818b610db2565b60028152030190209560018060a01b039051166001600160601b0360a01b875416178655516001860155516002850155600384019051151560ff8019835416911617905551910155835191828092610db2565b0390209180519334855260208501523393a360018055005b8151630c35c39f60e01b8152600490fd5b815163cfdacc2b60e01b8152600490fd5b815163162908e360e11b8152600490fd5b503461013c57600036600319011261013c5760005490516001600160a01b039091168152602090f35b503461013c57602036600319011261013c5760043567ffffffffffffffff811161013c576020610620610851923690600401610d3e565b6002808252919003919091019091208054600182015492820154600383015460049093015494516001600160a01b0390921682526020820193909352604081019290925260ff1615156060820152608081019190915260a090f35b3461013c57600036600319011261013c576108c5610e0e565b600080546001600160a01b0319811682556001600160a01b03167f8be0079c531659141344cd1fd0a4f28419497f9722a3daafe3b4186f6b6457e08280a3005b503461013c576020908160031936011261013c5760043567ffffffffffffffff811161013c57610939903690600401610d3e565b90610942610e3a565b80519261094f8484610db2565b93818160029687815203019020936001938486015415610b375760ff600387015416610b265785546001600160a01b031633141580610b11575b610b005760009182865b6109e9575b50506109dc90859660037ffbe20d48ee227d448fd096b7447a23b0019d6280da4cbc77dedb9b10e3b0ef1d969760ff19828401541617910155855191828092610db2565b0390209351908152a28055005b6004880154811015610afb5790869186518681610a068188610db2565b600481520301902081600052865260018060a01b0387600020541687518781610a2f8189610db2565b600381520301902082600052875287600020549080151580610af2575b610a63575b5050610a5c90610e5d565b9091610993565b9192935094600080808089865af1610a79610ebc565b5015610ae15791610a5c91610a90878b9695610ee2565b96848c01610a9f828254610ee2565b90557f8b66abc81eb9e4b88acacafcc6d75ece18e30943c5ac9d9fd331ddb42eaffe3c898b5180610ad0818c610db2565b039020928c51908152a39038610a51565b87516312171d8360e31b8152600490fd5b50811515610a4c565b610998565b83516393687c0b60e01b8152600490fd5b506000546001600160a01b0316331415610989565b835163cce553a960e01b8152600490fd5b8351630c35c39f60e01b8152600490fd5b503461013c57602036600319011261013c5760043567ffffffffffffffff811161013c57610b7a903690600401610d3e565b90610b83610e3a565b8051602081610b928186610db2565b6002815203019020600181018054918215610b375760ff600382015416610b265780546001600160a01b0392908316903382141580610c41575b6102d557600080868194828095555af1610be4610ebc565b5015610c305791610c216020927f63927611f26314a3a601a2fbe97932047c942b0aed992e1464c7de624c878d8794541695855191828092610db2565b0390209351908152a360018055005b83516312171d8360e31b8152600490fd5b508360005416331415610bcc565b503461013c5760209081610c72610c6536610d80565b9290845192838092610db2565b6004815203019020600091825283528190205490516001600160a01b039091168152f35b503461013c5760209081610cac610c6536610d80565b600381520301902090600052825280600020549051908152f35b6040519060a0820182811067ffffffffffffffff821117610ce657604052565b634e487b7160e01b600052604160045260246000fd5b6040519190601f01601f1916820167ffffffffffffffff811183821017610ce657604052565b67ffffffffffffffff8111610ce657601f01601f191660200190565b81601f8201121561013c57803590610d5d610d5883610d22565b610cfc565b928284526020838301011161013c57816000926020809301838601378301015290565b604060031982011261013c576004359067ffffffffffffffff821161013c57610dab91600401610d3e565b9060243590565b9081519160005b838110610dca575050016000815290565b8060208092840101518185015201610db9565b9181601f8401121561013c5782359167ffffffffffffffff831161013c576020808501948460051b01011161013c57565b6000546001600160a01b03163303610e2257565b60405163118cdaa760e01b8152336004820152602490fd5b600260015414610e4b576002600155565b604051633ee5aeb560e01b8152600490fd5b6000198114610e6c5760010190565b634e487b7160e01b600052601160045260246000fd5b9190811015610e925760051b0190565b634e487b7160e01b600052603260045260246000fd5b356001600160a01b038116810361013c5790565b3d15610edd573d90610ed0610d5883610d22565b9182523d6000602084013e565b606090565b91908201809211610e6c5756fea26469706673582212207ec38aef50fec770c73810e4bf2ff227895529fcf48730399a913528c529c30564736f6c63430008140033",
  "linkReferences": {},
  "deployedLinkReferences": {}
}